:100000000C944C010C947D010C947D010C947D01A9
:100010000C947D010C947D010C947D010C947D0168
:100020000C947D010C947D010C947D010C947D0158
:100030000C947D010C947D010C947D010C947D0148
:100040000C947D010C947D010C947D010C947D0138
:100050000C947D010C947D010C947D010C94A307FC
:100060000C947D010C9417080C94ED070C947D0101
:100070000C947D010C947D010C947D010C947D0108
:100080000C947D010C947D010C947D010C947D01F8
:100090000C947D010C947D010C947D010C947D01E8
:1000A0000C947D010C947D010C947D010C947D01D8
:1000B0000C947D010C947D010C947D010C947D01C8
:1000C0000C947D010C947D010C947D010C947D01B8
:1000D0000C947D010C947D010C947D010C947D01A8
:1000E0000C947D01F606F906E806EC06F0063007EA
:1000F000FD06010707070B070F07150719071D075F
:100100003007230727072B070C9427070C940104BB
:100110000C9407070C9482010C9484010C949A08A7
:100120000C94A5060C946C050C94CC050C9401075A
:100130000C94F0060C9403060C9430070C94F9060A
:100140000C949B050C94AB010C94EC060C941507D5
:100150000C94E8060C94A7010C9423070C94FD065C
:100160000C94AA050C94AE010C9445040C947F01E8
:100170000C944A060C940F070C94BE050C94F606DA
:100180000C941D070C940B070C942B070C94190767
:1001900000002100240027002A002D003000330039
:1001A00001010000040107010A01000022002500EE
:1001B00028002B002E003100340002010000050150
:1001C00008010B01050505050705080808080202D6
:1001D00002020A0A080804040404010101010101E1
:1001E00001010303030303030303040707070C0CC4
:1001F0000C0C0C0C0C0C020202020606060606068B
:1002000006060B0B0B0B0B0B0B0B0102102020082F
:100210000810204010204080020102010804020161
:1002200001020408102040808040201008040201D0
:100230008004020180402010080402010804020129
:1002400001020408102040800102040810204080B0
:1002500000000A0B02090C0D0E0807030401000040
:10026000000000000000000000000000000000008E
:10027000000000000000000000000000121110004B
:10028000000000000000000000000000000000006E
:100290000000000000009A0811241FBECFEFD1E239
:1002A000DEBFCDBF00E00CBF12E0A0E0B2E0E4E8AA
:1002B000F6E100E00BBF02C007900D92A235B10736
:1002C000D9F724E0A2E5B2E001C01D92A639B20739
:1002D000E1F711E0CCE4D1E000E006C0219701098C
:1002E000802FFE010E94180BCB34D10780E0080755
:1002F000A9F70E94D6080C94400B0C94000080E9EA
:1003000091E008959D9A0895CF93DF9300D000D097
:10031000CDB7DEB7AB011C821D821E82DC01ED91E0
:10032000FC910190F081E02D19821A821B829E01BE
:100330002F5F3F4FBE016C5F7F4F199526960FB61A
:10034000F894DEBF0FBECDBFDF91CF910895FC01C1
:1003500085859685089580E090E008954F925F929C
:100360006F927F928F92AF92BF92CF92EF92FF9255
:100370000F931F93CF93DF933C01EB010E9444073F
:10038000F30127853089621B730B6A307105B0F366
:10039000F894E881F98154B3506284B38F7D84BBB3
:1003A0006A859F81262F291B922F2F83BF844A8025
:1003B0005B807D85FC84EE847F5FF394E3943E81D3
:1003C0004885A984CB841181D20120E0C32F022F5C
:1003D000322F3181112788943111390F08F43FEF02
:1003E0009195889470FD130F1795889471FD130FE4
:1003F0001795889472FD130F1795889473FD130F4A
:100400001795889474FD130F1795889475FD130F35
:100410001795889476FD130F1795889477FD130F21
:1004200017958894232F7111212F960F122F002CCE
:1004300054BB00C000C017FF84BB308122278894C2
:1004400000C0002C84BB31113C0F00C0002C54BBF9
:1004500000C000C016FF84BB08F43FEFC19588942C
:1004600000C0002C84BBF0FC230F00C0002C54BB48
:1004700000C000C015FF84BB27958894F1FC230FB2
:1004800000C0002C84BB2795889400C0002C54BB6E
:1004900000C000C014FF84BBF2FC230F2795889492
:1004A00000C0002C84BBF3FC230F00C0002C54BB05
:1004B00000C000C013FF84BB27958894F4FC230F71
:1004C00000C0002C84BB2795889400C0002C54BB2E
:1004D00000C000C012FF84BBF5FC230F2795889451
:1004E00000C0002C84BBF6FC230F00C0002C54BBC2
:1004F00000C000C011FF84BB27958894F7FC230F30
:1005000000C0002C84BB2795889400C0002C54BBED
:1005100000C000C010FF84BB132FF110122FCA0DB2
:1005200000C0002C84BB00C000C0002C54BB00C025
:1005300000C017FF84BB32812227889400C0002CA2
:1005400084BB3111340F00C0002C54BB00C000C06C
:1005500016FF84BB08F43FEFEB0DF11D00C0002C2B
:1005600084BBE0FC230F00C0002C54BB00C000C0C3
:1005700015FF84BB27958894E1FC230F00C0002C55
:1005800084BB2795889400C0002C54BB00C000C0D9
:1005900014FF84BBE2FC230F2795889400C0002C35
:1005A00084BBE3FC230F00C0002C54BB00C000C080
:1005B00013FF84BB27958894E4FC230F00C0002C14
:1005C00084BB2795889400C0002C54BB00C000C099
:1005D00012FF84BBE5FC230F2795889400C0002CF4
:1005E00084BBE6FC230F00C0002C54BB00C000C03D
:1005F00011FF84BB27958894E7FC230F00C0002CD3
:1006000084BB2795889400C0002C54BB00C000C058
:1006100010FF84BB132FE110122F419500C0002C56
:1006200084BB4C0D00C000C054BB00C000C017FF0D
:1006300084BB31812227889400C0002C84BB3111F7
:10064000390F00C0002C54BB00C000C016FF84BB93
:1006500008F43FEF9195889400C0002C84BB70FD96
:10066000230F00C0002C54BB00C000C015FF84BB8A
:100670002795889471FD230F00C0002C84BB27951B
:10068000889400C0002C54BB00C000C014FF84BB81
:1006900072FD230F2795889400C0002C84BB73FD46
:1006A000230F00C0002C54BB00C000C013FF84BB4C
:1006B0002795889474FD230F00C0002C84BB2795D8
:1006C000889400C0002C54BB00C000C012FF84BB43
:1006D00075FD230F2795889400C0002C84BB76FD00
:1006E000230F00C0002C54BB00C000C011FF84BB0E
:1006F0002795889477FD230F00C0002C84BB279595
:10070000889400C0002C54BB00C000C010FF84BB04
:10071000132F7111122F960F00C0002C84BB11975C
:1007200009F086CE20EE31E0D2010E94200BDC01E0
:10073000CB01F4E0B695A79597958795FA95D1F7F3
:1007400020E030E0A9016AE9469E040C411D569E56
:10075000400D511D1124450D511D840F951FA11DE4
:10076000B11D893E43E09407A105B10508F434C0EA
:10077000885E9340A109B10942E0B695A795979587
:1007800087954A95D1F747E0849F080E211D949FD5
:10079000200D311D1124290F311D6091520270E08E
:1007A000860F971F820F931F40915302509154025E
:1007B0006091550270915602292F3327420F531F23
:1007C000611D711D40935302509354026093550272
:1007D000709356028093520278940E944407F3016A
:1007E000708B6787DF91CF911F910F91FF90EF90F2
:1007F000CF90BF90AF908F907F906F905F904F9011
:1008000008950F931F93CF93DF93CDB7DEB7629711
:100810000FB6F894DEBF0FBECDBF8C01F901DC012D
:100820001C968C917A8369835C834B835E834D83B2
:1008300090819D8791819E8792819F87813029F445
:10084000CE0101960E944D0806C01C861B861A86A2
:10085000198618861F8283E0888B1A8A198AD80124
:10086000ED91FC910484F585E02DBE016F5F7F4F13
:10087000C801199562960FB6F894DEBF0FBECDBFC2
:10088000DF91CF911F910F9108950F931F93CF93F5
:10089000DF93CDB7DEB762970FB6F894DEBF0FBE19
:1008A000CDBF8C01F901DC011C968C917A836983A0
:1008B0005C834B835E834D8390819D8791819E876E
:1008C00092819F87813029F4CE0101960E944D08C4
:1008D00006C01C861B861A86198618861F82188AEF
:1008E0001A8A198AD801ED91FC910484F585E02DCE
:1008F000BE016F5F7F4FC801199562960FB6F894DD
:10090000DEBF0FBECDBFDF91CF911F910F91089534
:100910008F929F92AF92BF92CF92DF92EF92FF920F
:100920000F931F93CF93DF93CDB7DEB7A1970FB689
:10093000F894DEBF0FBECDBF8C016B0181E30E9436
:10094000C7060D2C000CEE08FF08F7FE2BC0E09147
:100950005702F09158020190F081E02D6DE287E599
:1009600092E0199522273327A9012C193D094E0938
:100970005F0919A2CE0181967C019AE0892E912C03
:10098000A12CB12CCA01B901A50194010E94D30A7E
:10099000605DF70162937F01211531054105510525
:1009A00089F71AC0A701960119A2CE0181967C0190
:1009B0008AE0882E912CA12CB12CCA01B901A50185
:1009C00094010E94D30A605DF70162937F012115B3
:1009D00031054105510589F7C7010E94A706011598
:1009E000110531F48AE392E00E94B90660E008C084
:1009F0000130110551F48FE392E00E94B90661E0E5
:100A000085E30E94C70660E015C00230110531F48D
:100A100082E492E00E94B90660E008C0033011054C
:100A200061F489E492E00E94B90661E085E30E94E6
:100A3000C70661E083E30E94C706A1960FB6F8944B
:100A4000DEBF0FBECDBFDF91CF911F910F91FF9001
:100A5000EF90DF90CF90BF90AF909F908F900895D0
:100A6000CF93DF9390E0FC01E65FFD4F2491FC0102
:100A7000EC53FE4F8491882361F190E0880F991F19
:100A8000FC01E057FE4FC591D491FC01E655FE4FA5
:100A9000A591B491611109C09FB7F8948881209500
:100AA00082238883EC912E230BC0623061F49FB7C0
:100AB000F8943881822F809583238883EC912E2BA4
:100AC0002C939FBF06C08FB7F894E8812E2B288304
:100AD0008FBFDF91CF910895CF92DF92EF92FF9277
:100AE0000F931F93CF93DF936C017A018B01C0E0CA
:100AF000D0E0CE15DF0589F0D8016D918D01D601CA
:100B0000ED91FC910190F081E02DC6011995892BA2
:100B100011F47E0102C02196ECCFC701DF91CF9185
:100B20001F910F91FF90EF90DF90CF90089508955F
:100B300080E090E00895FC01538D448D252F30E036
:100B4000842F90E0821B930B541710F0CF960895DA
:100B500001970895FC01918D828D981761F0828D27
:100B6000DF01A80FB11D5D968C91928D9F5F9F73E1
:100B7000928F90E008958FEF9FEF0895FC01918D83
:100B8000828D981731F0828DE80FF11D858D90E0F0
:100B900008958FEF9FEF0895FC01918D228D892F8D
:100BA00090E0805C9F4F821B91098F739927089575
:100BB00087E592E00E94CC0521E0892B09F420E032
:100BC000822F0895FC01848DDF01A80FB11DA35A67
:100BD000BF4F2C91848D90E001968F739927848F5D
:100BE000A689B7892C93A089B1898C9180648C9354
:100BF000938D848D981306C00288F389E02D80813F
:100C00008F7D80830895EF92FF920F931F93CF9370
:100C1000DF93EC0181E0888F9B8D8C8D981305C04C
:100C2000E889F989808185FD24C0F62E0B8D10E0BE
:100C30000F5F1F4F0F731127E02E8C8DE8120CC031
:100C40000FB607FCFACFE889F989808185FFF5CFD7
:100C5000CE010E94E205F1CF8B8DFE01E80FF11D60
:100C6000E35AFF4FF0820B8FEA89FB898081806213
:100C700007C0EE89FF896083E889F98980818064F3
:100C8000808381E090E0DF91CF911F910F91FF90E1
:100C9000EF900895CF93DF93EC01888D8823C9F0FE
:100CA000EA89FB89808185FD05C0A889B9898C9175
:100CB00086FD0FC00FB607FCF5CF808185FFF2CF10
:100CC000A889B9898C9185FFEDCFCE010E94E205FC
:100CD000E7CFDF91CF91089580E090E0892B21F05C
:100CE0000E94D805811125C080E090E0892B41F059
:100CF00080E090E0892B21F00E94000081111CC04F
:100D000080E090E0892B41F080E090E0892B21F099
:100D10000E940000811113C080E090E0892BA1F0B7
:100D200080E090E0892B81F00E94000081110AC0D0
:100D300008950E940000D8CF0E940000E1CF0E94D9
:100D40000000EACF0C94000008950E943B0B00972E
:100D500069F0FC0101900020E9F73197AF01481BD1
:100D6000590BBC0187E592E00C946C0580E090E0A3
:100D70000895CF93DF930E94A706EC018EE492E0E2
:100D80000E94A7068C0F9D1FDF91CF910895362FEB
:100D900090E0FC01E05BFD4F4491FC01E65FFD4FFC
:100DA0002491FC01EC53FE4F9491992309F46BC0FC
:100DB000442309F455C050E0FA013197E231F105BE
:100DC00008F04EC08827EE58FF4F8F4F0C94180B39
:100DD000809180008F7707C0809180008F7D03C055
:100DE00080918000877F809380003AC084B58F77A0
:100DF00002C084B58F7D84BD33C08091B0008F77F1
:100E000003C08091B0008F7D8093B00029C0809195
:100E100090008F7707C0809190008F7D03C08091F4
:100E20009000877F809390001BC08091A0008F77F7
:100E300007C08091A0008F7D03C08091A000877FB4
:100E40008093A0000DC0809120018F7707C0809112
:100E500020018F7D03C080912001877F8093200136
:100E6000E92FF0E0EE0FFF1FE655FE4FA591B4917C
:100E70008FB7F894EC91311103C020952E2301C057
:100E80002E2B2C938FBF08953FB7F8948091850443
:100E900090918604A0918704B091880426B5A89B00
:100EA00005C02F3F19F00196A11DB11D3FBFBA2FFC
:100EB000A92F982F8827820F911DA11DB11DBC015C
:100EC000CD0142E0660F771F881F991F4A95D1F721
:100ED00008958F929F92AF92BF92CF92DF92EF923E
:100EE000FF926B017C010E9444074B015C01C1141D
:100EF000D104E104F104F1F00E944407DC01CB01CC
:100F000088199909AA09BB09883E9340A105B10532
:100F100070F321E0C21AD108E108F10888EE880ECA
:100F200083E0981EA11CB11CC114D104E104F1049A
:100F300019F7DDCFFF90EF90DF90CF90BF90AF908B
:100F40009F908F9008951F920F920FB60F921124C9
:100F50002F933F938F939F93AF93BF9380915302AF
:100F600090915402A0915502B091560230918404A0
:100F700023E0230F2D3720F40196A11DB11D05C0DC
:100F800026E8230F0296A11DB11D209384048093AF
:100F9000530290935402A0935502B093560280914D
:100FA000850490918604A0918704B09188040196ED
:100FB000A11DB11D8093850490938604A09387049E
:100FC000B0938804BF91AF919F918F913F912F91E2
:100FD0000F900FBE0F901F9018951F920F920FB693
:100FE0000F9211240BB60F922F933F934F935F9361
:100FF0006F937F938F939F93AF93BF93EF93FF93E1
:1010000087E592E00E94E205FF91EF91BF91AF91D9
:101010009F918F917F916F915F914F913F912F9110
:101020000F900BBE0F900FBE0F901F9018951F9240
:101030000F920FB60F9211240BB60F922F938F932E
:101040009F93EF93FF93E0916702F0916802808194
:10105000E0916D02F0916E0282FD12C0908180914C
:1010600070028F5F8F7320917102821751F0E091AF
:101070007002F0E0E95AFD4F958F8093700201C035
:101080008081FF91EF919F918F912F910F900BBED7
:101090000F900FBE0F901F901895EF92FF920F9335
:1010A0001F93CF93DF93EC019091F4029F5F292F60
:1010B00027702093F40290FF02C090E801C090E0F6
:1010C00021FD9064247009F0906220E1290FFE0157
:1010D0003C967E018FE0E80EF11C00E011E061918A
:1010E000662331F070E0C8010E94040B6F5F01C0FD
:1010F00060E0DF0114976C93322F369F030E30E0CF
:10110000311D1124CF010797311103C0EC01188262
:1011100003C03150EC013883662311F061506C93A9
:10112000EE15FF05E1F6DF91CF911F910F91FF9032
:10113000EF900895E7E5F2E01382128288EE93E0E3
:10114000A0E0B0E084839583A683B7838CE292E02D
:101150009183808385EC90E09587848784EC90E090
:101160009787868780EC90E0918B808B81EC90E074
:10117000938B828B82EC90E0958B848B86EC90E055
:10118000978B868B118E128E138E148EE9E8F4E005
:101190008FEF808312821182148613868FEF9FEF68
:1011A000DC0187839087A187B2870895789484B5FE
:1011B000826084BD84B5816084BD85B5826085BD53
:1011C00085B5816085BD80916E00816080936E00E1
:1011D00010928100809181008260809381008091D3
:1011E0008100816080938100809180008160809384
:1011F00080008091B10084608093B1008091B00044
:1012000081608093B0008091910082608093910012
:101210008091910081608093910080919000816025
:10122000809390008091A10082608093A1008091C2
:10123000A10081608093A1008091A00081608093D3
:10124000A000809121018260809321018091210181
:101250008160809321018091200181608093200131
:1012600080917A00846080937A0080917A00826015
:1012700080937A0080917A00816080937A008091D7
:101280007A00806880937A001092C10068EB7BE05E
:1012900080E090E00E946907E0916702F0916802A7
:1012A00082E08083E0916302F09164021082E09119
:1012B0006502F09166028FEC808310926F02E091DC
:1012C0006B02F0916C0286E08083E0916902F091FC
:1012D0006A02808180618083E0916902F0916A02F4
:1012E000808188608083E0916902F0916A02808148
:1012F00080688083E0916902F0916A0280818F7D2D
:10130000808380910A03811145C01092FC021092E3
:10131000FB028FEF8093FF02809300038093010311
:1013200080930203809303038093040381E08093FE
:10133000050310920703109206031092FE0210920A
:10134000FD028091F7029091F802892B31F489EF28
:1013500092E09093F8028093F702E091F502F09109
:10136000F602309721F089EF92E09583848389EF2C
:1013700092E09093F6028093F50210920903109286
:10138000080384E192E09093FA028093F90281E0ED
:1013900080930A03E091F902F091FA020480F5814A
:1013A000E02D89EF92E019958CE193E09093FC0297
:1013B0008093FB0288E790E09093070380930603F5
:1013C000E091F902F091FA020284F385E02D89EFB1
:1013D00092E01995009729F19C0140E050E060E40B
:1013E00072E48FE090E00E94B40A722F632F0091A4
:1013F0008C0410918D0420918E0430918F04872FDE
:10140000962FDA0180179107A207B30710F4D901CC
:10141000C80180938C0490938D04A0938E04B093A4
:101420008F04CFEFC093FF0280EB8093000380EF27
:101430008093010384E68093890410921C03109228
:101440001D0310921E0384E190E090931B03809390
:101450001A0360E080E00E94300560E081E00E94B5
:10146000300560E082E00E94300561E085E30E9483
:10147000300561E083E30E94300561E081E30E9472
:1014800030051092120310921303C09314031092AC
:10149000150310921603109217031092180310925E
:1014A000190360E070E080E090E00E94880468EE3C
:1014B00073E080E090E00E94690760E070E081E006
:1014C00090E00E94880468EE73E080E090E00E9463
:1014D000690760E070E082E090E00E94880468EEB6
:1014E00073E080E090E00E94690760E070E083E0D4
:1014F00090E00E94880468EE73E080E090E00E9433
:10150000690761E070E080E090E00E94880468EE86
:1015100073E080E090E00E94690761E070E081E0A4
:1015200090E00E94880468EE73E080E090E00E9402
:10153000690761E070E082E090E00E94880468EE54
:1015400073E080E090E00E94690761E070E083E072
:1015500090E00E94880468EE73E080E090E00E94D2
:1015600069070E946C069DCF052E97FB1EF4009420
:101570000E94CB0A57FD07D00E94D30A07FC03D074
:101580004EF40C94CB0A50954095309521953F4FE1
:101590004F4F5F4F089590958095709561957F4F5F
:1015A0008F4F9F4F0895A1E21A2EAA1BBB1BFD016E
:1015B0000DC0AA1FBB1FEE1FFF1FA217B307E40732
:1015C000F50720F0A21BB30BE40BF50B661F771F8A
:1015D000881F991F1A9469F760957095809590956A
:1015E0009B01AC01BD01CF010895A29FB001B39F43
:1015F000C001A39F700D811D1124911DB29F700D1C
:10160000811D1124911D089597FB072E16F4009457
:1016100007D077FD09D00E94270B07FC05D03EF4C8
:10162000909581959F4F0895709561957F4F08958E
:10163000EE0FFF1F881F8BBF0790F691E02D1994C6
:101640000E94F50AB7FF0895821B930B0895AA1B09
:10165000BB1B51E107C0AA1FBB1FA617B70710F09D
:10166000A61BB70B881F991F5A95A9F780959095CF
:10167000BC01CD01089581E090E0F8940C94400BFA
:04168000F894FFCF0C
:1016840000000000A506A506A5068401A701AB017C
:10169400000000004504010482018401A7017F01C8
:1016A400AE013100330035000000000003066C0574
:1016B4009B054A06CC05AA05BE05736F66740045F2
:1016C4005A006D656469756D0048617264000D0AA5
:0216D400000014
:00000001FF
