:100000000C945D010C948E010C948E010C948E0165
:100010000C948E010C948E010C948E010C948E0124
:100020000C948E010C94A8020C94A8020C94A802C3
:100030000C948E010C949A060C948E010C948E01F3
:100040000C948E010C9477090C948E010C948E0103
:100050000C948E010C948E010C948E010C94A604C9
:100060000C948E010C940B080C94E1070C948E01F7
:100070000C948E010C948E010C948E010C948E01C4
:100080000C948E010C948E010C948E010C948E01B4
:100090000C948E010C948E010C948E010C94B2027F
:1000A0000C948E010C948E010C948E010C948E0194
:1000B0000C948E010C948E010C948E010C943508D6
:1000C0000C948E010C948E010C948E010C94B70745
:1000D0000C948D070C948E010C9463070C943907D3
:1000E0000C948E01FF030204F103F503FB033904B2
:1000F00006040A041004140418041E04220426042E
:1001000039042C04300434040C9475060C94C20198
:100110000C94E8010C9422040C9439040C942C04E3
:100120000C94FB030C9449060C94F0040C945705B2
:100130000C94D1010C9465050C94F7050C94FF0305
:100140000C94F5030C940A040C9430040C941E04D3
:100150000C9418020C9418040C9434050C94F103BC
:100160000C9426040C9406040C94C3010C944305CF
:100170000C94B0050C94E90D0C9410040C944A06F0
:100180000C9402040C94E0010C94E30D0C94140400
:100190000C94340400002100240027002A002D00C4
:1001A0003000330001010000040107010A010000D2
:1001B0002200250028002B002E003100340002010F
:1001C0000000050108010B010505050507050808E4
:1001D0000808020202020A0A0808040404040101D1
:1001E00001010101010103030303030303030407E6
:1001F00007070C0C0C0C0C0C0C0C0202020206067D
:100200000606060606060B0B0B0B0B0B0B0B01026F
:100210001020200808102040102040800201020118
:1002200008040201010204081020408080402010D0
:100230000804020180040201804020100804020129
:100240000804020101020408102040800102040891
:100250001020408000000A0B02090C0D0E08070355
:100260000401000000000000000000000000000089
:10027000000000000000000000000000000000007E
:10028000121110000000000000000000000000003B
:10029000000000000000000000000000200023001B
:1002A000260029002C002F0032000001000003016D
:1002B000060109010200E90DE30D11241FBECFEF75
:1002C000D1E2DEBFCDBF00E00CBF12E0A0E0B2E0A3
:1002D000E0EEF4E200E00BBF02C007900D92AA36F8
:1002E000B107D9F727E0AAE6B2E001C01D92A1321A
:1002F000B207E1F711E0CCE5D1E000E006C02197BC
:100300000109802FFE010E942B10CB35D10780E020
:100310000807A9F70E94B20B0C945E120C9400001F
:1003200085ED8093BC008091BC0084FDFCCF1092D1
:100330000603089540919802262F30E0240F311DC6
:1003400021323105DCF4209106032430C9F4FC018C
:1003500080E090E0861758F4309198022191DC01FA
:10036000AA58BD4FA30FB11D2C930196F3CF8091D6
:100370009802680F6093980280E0089581E00895E4
:1003800082E00895089581E090E030917502209117
:100390007402321710F480E090E0919581959109F4
:1003A00008958091750290917402891730F48F5FDF
:1003B0008093750280E090E008958FEF9FEF08959D
:1003C0008091740290E020917502821B910908953A
:1003D000CF92DF92EF92FF920F931F93CF93DF9311
:1003E0007C01262F972F8A0180910703882391F0A3
:1003F000C62FD72F6E01C40ED51ECC15DD0571F0AA
:100400006991D701ED91FC910190F081E02DC70138
:100410001995F3CF642F822F0E949A01C801DF91B2
:10042000CF911F910F91FF90EF90DF90CF900895A3
:10043000CF93DF931F92CDB7DEB769832091070377
:100440002223D1F020912A03203240F021E030E035
:10045000FC013383228380E090E015C08091080383
:10046000E82FF0E0E75FFC4F998190838F5F8093E6
:10047000080380932A0305C061E0CE0101960E9423
:100480009A0181E090E00F90DF91CF9108953FB7FE
:10049000F8948091700290917102A0917202B091D3
:1004A000730226B5A89B05C02F3F19F00196A11D28
:1004B000B11D3FBFBA2FA92F982F8827820F911DFA
:1004C000A11DB11DBC01CD0142E0660F771F881F41
:1004D000991F4A95D1F708958F929F92AF92BF923C
:1004E000CF92DF92EF92FF926B017C010E94470254
:1004F0004B015C01C114D104E104F104F1F00E944C
:100500004702DC01CB0188199909AA09BB09883E79
:100510009340A105B10570F321E0C21AD108E108AA
:10052000F10888EE880E83E0981EA11CB11CC1144E
:10053000D104E104F10419F7DDCFFF90EF90DF90D3
:10054000CF90BF90AF909F908F9008950E944912D6
:100550001F920F920FB60F9211240F900FBE0F90A3
:100560001F9018951F920F920FB60F9211240BB681
:100570000F922F933F934F935F936F937F938F933C
:100580009F93AF93BF93EF93FF938091B900887FC0
:10059000803609F49CC068F5883209F45BC090F499
:1005A000803109F454C038F4882309F4F6C0883047
:1005B00009F44DC0F6C0883109F44CC0803209F40A
:1005C0005DC0EFC0803409F468C048F4803309F49A
:1005D00055C0883309F0E5C080930403D8C0803546
:1005E00009F44FC0883509F45DC0883409F0D9C0DA
:1005F000D6C0883909F4C7C0A8F4883709F467C0A1
:1006000038F4883609F463C0803709F460C0C9C083
:10061000883809F4B8C0803909F45FC0803809F01F
:10062000C0C05BC0803B09F486C038F4803A09F44E
:1006300066C0883A09F47FC0B4C0803C09F4A7C002
:10064000883C09F4A4C0883B09F48AC0AAC0809100
:10065000E10210C09091030380910203981770F596
:10066000E091030381E08E0F80930303F0E0EE51ED
:10067000FD4F80818093BB0085EC86C0809304038E
:100680008EC0E091030381E08E0F8093030380917D
:10069000BB00F0E0EE51FD4F808390910303809109
:1006A00002036EC0E091030381E08E0F8093030389
:1006B0008091BB00F0E0EE51FD4F808380910503F7
:1006C00081116DC081E08093E00284EA61C083E023
:1006D000809306031092BC02CFCF8091BC0280327F
:1006E00008F051C0E091BC0281E08E0F8093BC0203
:1006F0008091BB00F0E0E456FD4F8083BDCF85ECD8
:100700008093BC00109206038091BC02803230F4CA
:10071000E091BC02F0E0E456FD4F10826091BC0213
:1007200070E0E0919A02F0919B028CE992E01995B9
:100730001092BC0236C084E08093060310929902A6
:1007400010929802E0919602F0919702199580918B
:100750009802811105C081E0809398021092760280
:10076000E091990281E08E0F80939902F0E0EA58BF
:10077000FD4F80818093BB009091990280919802F7
:10078000981708F479CF85E88093BC000AC085ECFF
:100790008093BC001092060304C0109204030E94D0
:1007A0009001FF91EF91BF91AF919F918F917F91B8
:1007B0006F915F914F913F912F910F900BBE0F90D2
:1007C0000FBE0F901F90189590E0FC013197E23119
:1007D000F10508F04EC08827EE58FF4F8F4F0C945C
:1007E0002B10809180008F7703C0809180008F7DD7
:1007F00080938000089580918000877FF9CF84B531
:100800008F7702C084B58F7D84BD08958091B0003C
:100810008F7703C08091B0008F7D8093B0000895E2
:10082000809190008F7707C0809190008F7D03C0EA
:1008300080919000877F8093900008958091A00020
:100840008F7707C08091A0008F7D03C08091A000AA
:10085000877F8093A0000895809120018F7707C043
:10086000809120018F7D03C080912001877F80933C
:10087000200108951F93CF93DF93282F30E0F901D3
:10088000EC5AFD4F8491F901E25FFD4FD491F901DB
:10089000E853FE4FC491CC23C9F0162F81110E945A
:1008A000E403EC2FF0E0EE0FFF1FE255FE4FA591A1
:1008B000B4918FB7F894111105C09C91ED2FE0957C
:1008C000E92302C0EC91ED2BEC938FBFDF91CF9128
:1008D0001F910895CF93DF9390E0FC01E25FFD4FFD
:1008E0002491FC01E853FE4F8491882361F190E04C
:1008F000880F991FFC01EC56FE4FC591D491FC0165
:10090000E255FE4FA591B491611109C09FB7F894CB
:100910008881209582238883EC912E230BC062303E
:1009200061F49FB7F8943881822F80958323888360
:10093000EC912E2B2C939FBF06C08FB7F894E881C3
:100940002E2B28838FBFDF91CF9108951F920F9296
:100950000FB60F9211242F933F938F939F93AF93D2
:10096000BF9380916C0290916D02A0916E02B09144
:100970006F0230916B0223E0230F2D3720F4019694
:10098000A11DB11D05C026E8230F0296A11DB11DB2
:1009900020936B0280936C0290936D02A0936E0281
:1009A000B0936F028091700290917102A0917202D7
:1009B000B09173020196A11DB11D809370029093B6
:1009C0007102A0937202B0937302BF91AF919F9195
:1009D0008F913F912F910F900FBE0F901F90189500
:1009E000CF92DF92EF92FF920F931F93CF93DF93FB
:1009F0006C017A018B01C0E0D0E0CE15DF0589F0F3
:100A0000D8016D918D01D601ED91FC910190F0819D
:100A1000E02DC6011995892B11F47E0102C02196A3
:100A2000ECCFC701DF91CF911F910F91FF90EF9015
:100A3000DF90CF900895FC01A089B1898C91A6899F
:100A4000B78982FD0FC09C91818D8F5F8F73228D3E
:100A5000821749F0218DDF01A20FB11D5D969C9395
:100A6000818F08958C910895FC01538D448D252F1D
:100A700030E0842F90E0821B930B541710F0CF9638
:100A8000089501970895FC01918D828D981761F06A
:100A9000828DDF01A80FB11D5D968C91928D9F5FB5
:100AA0009F73928F90E008958FEF9FEF0895FC0160
:100AB000918D828D981731F0828DE80FF11D858D13
:100AC00090E008958FEF9FEF0895FC01918D228DA6
:100AD000892F90E0805C9F4F821B91098F7399272B
:100AE000089587E393E00E94650521E0892B09F4CE
:100AF00020E0822F089584ED93E00E94650521E0B7
:100B0000892B09F420E0822F089581E794E00E9468
:100B1000650521E0892B09F420E0822F0895FC016E
:100B2000848DDF01A80FB11DA35ABF4F2C91848D76
:100B300090E001968F739927848FA689B7892C93AB
:100B4000A089B1898C9180648C93938D848D981346
:100B500006C00288F389E02D80818F7D808308950F
:100B6000EF92FF920F931F93CF93DF93EC0181E0FD
:100B7000888F9B8D8C8D981305C0E889F9898081B9
:100B800085FD24C0F62E0B8D10E00F5F1F4F0F73F5
:100B90001127E02E8C8DE8120CC00FB607FCFACF9F
:100BA000E889F989808185FFF5CFCE010E948F0504
:100BB000F1CF8B8DFE01E80FF11DE35AFF4FF0825C
:100BC0000B8FEA89FB898081806207C0EE89FF89EB
:100BD0006083E889F98980818064808381E090E086
:100BE000DF91CF911F910F91FF90EF900895CF93D8
:100BF000DF93EC01888D8823C9F0EA89FB89808125
:100C000085FD05C0A889B9898C9186FD0FC00FB6F6
:100C100007FCF5CF808185FFF2CFA889B9898C9137
:100C200085FFEDCFCE010E948F05E7CFDF91CF91F9
:100C30000895E0E0F0E0199480E090E0892B21F045
:100C40000E948505811119C080E090E0892B41F058
:100C500080E090E0892B21F00E940000811110C0FB
:100C60000E947B0581110FC080E090E0892B81F00C
:100C70000E94710581110AC008950E940000E4CF0E
:100C80000E940000EDCF0E941906EECF0C940000E8
:100C90000895089580E090E00895FC01248131E0FA
:100CA00030930703209329031092080310922A031C
:100CB0008485682B8BE293E00E9418020C94700AE2
:100CC0000F931F93CF938C01C62F64600E944D0633
:100CD0006C2F6B7FC8010E944D0683EC90E001975A
:100CE000F1F7CF911F910F9108950F931F93CF9319
:100CF000DF938C01C62FD62FD07FD1606D2F0E943D
:100D00004D066D2FC8010E94600680E1C89FB001AA
:100D10001124C62FC1606C2FC8010E944D066C2F94
:100D2000C8010E94600681E090E0DF91CF911F91A1
:100D30000F9108951F920F920FB60F9211240BB6C8
:100D40000F922F933F934F935F936F937F938F9364
:100D50009F93AF93BF93EF93FF938091DC029091A9
:100D6000DD02A091DE02B091DF02892B8A2B8B2B52
:100D700059F18091DB02E091D902F091DA02908181
:100D8000892780838091DC029091DD02A091DE02B0
:100D9000B091DF02181619061A061B060CF056C091
:100DA0008091DC029091DD02A091DE02B091DF0221
:100DB0000197A109B1098093DC029093DD02A09311
:100DC000DE02B093DF0242C080910002E4EBF2E069
:100DD000E4919FEF90930002E230C9F050F4EE23CB
:100DE00099F0E13081F590916F009D7F90936F00B5
:100DF0002AC0E43019F1E0F0E53029F59091730054
:100E00009D7F909373001FC010926E001CC0909144
:100E100070009D7F9093700091E09093B00090914E
:100E2000B100987F94609093B1001092B3000BC012
:100E3000909171009D7F9093710005C09091720018
:100E40009D7F9093720060E00E943A04FF91EF91C1
:100E5000BF91AF919F918F917F916F915F914F91D2
:100E60003F912F910F900BBE0F900FBE0F901F90D0
:100E700018951F920F920FB60F9211240BB60F9276
:100E80002F933F934F935F936F937F938F939F9392
:100E9000AF93BF93EF93FF9387E393E00E948F0597
:100EA000FF91EF91BF91AF919F918F917F916F9142
:100EB0005F914F913F912F910F900BBE0F900FBEFE
:100EC0000F901F9018951F920F920FB60F9211243A
:100ED0000BB60F922F933F934F935F936F937F9334
:100EE0008F939F93AF93BF93EF93FF9387E393E029
:100EF0000E941B05FF91EF91BF91AF919F918F9140
:100F00007F916F915F914F913F912F910F900BBE09
:100F10000F900FBE0F901F9018951F920F920FB653
:100F20000F9211240BB60F922F933F934F935F9321
:100F30006F937F938F939F93AF93BF93EF93FF93A1
:100F400084ED93E00E948F05FF91EF91BF91AF91E7
:100F50009F918F917F916F915F914F913F912F91D1
:100F60000F900BBE0F900FBE0F901F9018951F9201
:100F70000F920FB60F9211240BB60F922F933F933F
:100F80004F935F936F937F938F939F93AF93BF9391
:100F9000EF93FF9384ED93E00E941B05FF91EF9187
:100FA000BF91AF919F918F917F916F915F914F9181
:100FB0003F912F910F900BBE0F900FBE0F901F907F
:100FC00018951F920F920FB60F9211240BB60F9225
:100FD0002F933F934F935F936F937F938F939F9341
:100FE000AF93BF93EF93FF9381E794E00E948F0547
:100FF000FF91EF91BF91AF919F918F917F916F91F1
:101000005F914F913F912F910F900BBE0F900FBEAC
:101010000F901F9018951F920F920FB60F921124E8
:101020000BB60F922F933F934F935F936F937F93E2
:101030008F939F93AF93BF93EF93FF9381E794E0D8
:101040000E941B05FF91EF91BF91AF919F918F91EE
:101050007F916F915F914F913F912F910F900BBEB8
:101060000F900FBE0F901F9018951F920F920FB602
:101070000F9211240BB60F922F933F934F935F93D0
:101080006F937F938F939F93AF93BF93CF93DF9390
:10109000EF93FF9320910F0530E0F901EC5AFD4FDB
:1010A0008491F901E25FFD4FD491F901E853FE4FBD
:1010B000C491CC23A1F081110E94E403EC2FF0E055
:1010C000EE0FFF1FE656FD4FA591B491EC91ED2375
:1010D00031E020E009F430E0832F922F02C080E05D
:1010E00090E020911305309114052F5F3F4F30930E
:1010F00014052093130520911205253618F026E0DB
:1011000020930E0520910E052430D9F128F42230C9
:1011100069F02330D9F060C0253009F453C026307F
:1011200009F05AC021E02093DF0553C0009709F071
:1011300053C020911305309114052436310508F46D
:1011400043C01092DF05109212051DC08130910539
:1011500009F042C0E091120521E02E0F2093120504
:10116000F0E02091130530911405EE0FFF1FE25FB0
:10117000FA4F30872783109214051092130524E04C
:1011800029C00097B9F4E091120521E02E0F2093B9
:101190001205F0E02091130530911405EE0FFF1FAA
:1011A000E25FFA4F308727831092140510921305DF
:1011B00023E010C020911305309114052536310528
:1011C00058F007C0009741F41092140510921305CF
:1011D00003C025E020930E05209111052223B9F0CC
:1011E000892B51F480911005882321F080911005FE
:1011F00061E009C02F9A0BC080911005882331F05F
:101200008091100560E00E943A0401C02F98FF9180
:10121000EF91DF91CF91BF91AF919F918F917F918E
:101220006F915F914F913F912F910F900BBE0F9057
:101230000FBE0F901F9018951F93CF93DF93EC0173
:10124000162F88818C3008F04DC061E0812F0E94FC
:101250006A04E88195E09E9FF0011124E052FA4F64
:101260001F738081807C182B10831382E8819E9FDE
:10127000F0011124E052FA4F148288816CE00E9440
:101280001F109CE0899FA001112420E030E095E030
:10129000B901640F751F969FF001979FF00D1124FF
:1012A000E052FA4F608166FD13C02F5F3F4F2C3034
:1012B000310571F781110CC01092800082E080939B
:1012C0008100109285001092840086BB80936F008D
:1012D000E88185E0E89FF0011124E052FA4F808117
:1012E000806480838881DF91CF911F9108951F9240
:1012F0000F920FB60F9211240BB60F922F933F93BC
:101300004F935F936F937F938F939F93AF93BF930D
:10131000EF93FF938091D80287FF05C0109285005C
:101320001092840016C02091D802022E000C330BBC
:1013300080911C0690E0281739075CF43091D802A0
:1013400025E03203F0011124E052FA4F808186FD3E
:1013500015C08091D8028F5F8093D8022091D80267
:10136000022E000C330B80911C0690E028173907E1
:1013700094F48091D8028C302CF10DC03091D802B9
:101380003203F0011124E052FA4F808160E08F7344
:101390000E943A04DECF80918400909185008434CD
:1013A0009C4918F480E49CE905C0809184009091E8
:1013B0008500049690938900809388008FEF809336
:1013C000D8022AC040918400509185003091D80203
:1013D00025E03203F0011124E052FA4F818192811D
:1013E000840F951F90938900809388003091D802D4
:1013F0003203F0011124E052FA4F808186FF0CC0C5
:101400003091D8023203F0011124E052FA4F80816A
:1014100061E08F730E943A04FF91EF91BF91AF9109
:101420009F918F917F916F915F914F913F912F91FC
:101430000F900BBE0F900FBE0F901F9018958EBD92
:1014400000000DB407FEFDCF8EB50895E1E7F4E08E
:10145000A089B18982E08C93A485B5851C92A6856C
:10146000B7858FEC8C93108EA489B58986E08C9318
:10147000A289B3898C9180618C93A289B3898C9164
:1014800088608C93A289B3898C9180688C93028840
:10149000F389E02D80818F7D80830895CF93DF9342
:1014A000009779F0FC0101900020E9F73197AF0136
:1014B000481B590BBC0181E794E00E94F004EC0149
:1014C00002C0C0E0D0E042E050E067E372E081E7B4
:1014D00094E00E94F0048C0F9D1FDF91CF9108953E
:1014E00020912A0390912903213208F04AC080916B
:1014F00006038111FCCF32E03093060331E03093D4
:1015000005033FEF3093040310920303209302037B
:10151000A9E0B3E042EE52E0FA013E2F341B32174D
:1015200018F43D913193F9CF1092E1022091E1023C
:10153000990F922B9093E1029091E002913061F427
:101540001092E0029091E1029093BB009091BC0058
:1015500093FDF8CF95EC01C095EE9093BC0090916F
:1015600006039230E1F3909104039F3F79F080915C
:101570000403803241F080910403803331F084E031
:1015800005C081E003C082E001C083E0109208033F
:1015900010922A03109207030895EF92FF921F936F
:1015A000CF93DF931F92CDB7DEB7162F96EEE92EBD
:1015B00096E0F92ED7011C969C911C9721E0209370
:1015C0000703909329031092080310922A031A9696
:1015D0000D90BC91A02DED91FC9111970190F0819F
:1015E000E02D682FCD0179831995F70182859385C8
:1015F000DC01ED91FC910190F081E02D7981672F64
:101600001995F70182859385DC01ED91FC9101909C
:10161000F081E02D612F19950F90DF91CF911F91EF
:10162000FF90EF900C94700ACF92DF92EF92FF92AE
:10163000CF93DF93823018F08AE392E00AC0909152
:101640001107691720F090911207961750F48CE457
:1016500092E0DF91CF91FF90EF90DF90CF900C94CC
:101660004E0AE82FF0E0E95FF84FC089CC3008F06F
:1016700072C0262F30E0D0E085E08C9FF0018D9F76
:10168000F00D1124E052FA4F8381283C31059CF57E
:1016900028E830E06901C81AD10887FDD394CC0C42
:1016A000DD1CCC0CDD1C0D2C000CEE08FF08848129
:1016B00028E532E0281B310987FD3395220F331FBF
:1016C000220F331FC901330FAA0BBB0B9C01AD01C5
:1016D0002C193D094E095F09A62FB0E00E94E30FC7
:1016E00024EB30E040E050E00E94C40FC20ED31E55
:1016F000E41EF51E1EC048E850E06A01C81AD10871
:1017000087FDD394CC0CDD1CCC0CDD1C2C153D05C9
:1017100084F0448188E592E0841B910947FD93950C
:10172000880F991F880F991F69018C159D050CF46E
:101730006C018FB7F89495E09C9FF0019D9FF00D90
:101740001124E052FA4F96E0C91AD108CC0CDD1CE6
:10175000D282C1828FBFDF91CF91FF90EF90DF9057
:10176000CF900895789484B5826084BD84B58160FB
:1017700084BD85B5826085BD85B5816085BD80915C
:101780006E00816080936E001092810080918100D4
:1017900082608093810080918100816080938100CC
:1017A000809180008160809380008091B10084608E
:1017B0008093B1008091B00081608093B0008091EF
:1017C000910082608093910080919100816080936C
:1017D0009100809190008160809390008091A100A1
:1017E00082608093A1008091A10081608093A1001C
:1017F0008091A00081608093A0008091210182608F
:101800008093210180912101816080932101809149
:10181000200181608093200180917A008460809310
:101820007A0080917A00826080937A0080917A00B9
:10183000816080937A0080917A00806880937A003A
:101840001092C1000E94260A61E08091E7060E9482
:101850006A0460E08091E7060E943A0460E08091AB
:10186000E6060E946A048BE293E09093F10680936F
:10187000F0061092750210927402109208031092F2
:101880002A031092060381E0809305031092E00280
:1018900061E084E10E943A0461E085E10E943A043B
:1018A0008091B9008E7F8093B9008091B9008D7FBF
:1018B0008093B90088E48093B80085E48093BC00ED
:1018C00080E090E1A0E0B0E08093F3069093F4060E
:1018D000A093F506B093F6068AE090E0A0E0B0E0B1
:1018E0008093F7069093F806A093F906B093FA0652
:1018F00080E090E0A0E0B0E48093FB069093FC06CB
:10190000A093FD06B093FE0660E070E185E00E94C2
:10191000CD0A6FE979E380E00E94CD0AC3E0D7E009
:10192000C12CD12CE12CF12C2DEF422E21E0522E96
:1019300033E4632E32E0732E4BECA42E47E0B42E3A
:101940005BE8852E99249394C7018A51994F1C0115
:10195000FC019481828186010A51194FF801818F1F
:10196000928F61E00E946A0461E0F801828D0E941A
:101970006A04F101908586818883F801968F61E081
:101980000E946A0460E0F801868D0E946A0461E0AA
:1019900088810E943A041FB7F89480916A028111ED
:1019A00025C0F2018491F3019491E82FF0E0EE0F4D
:1019B000FF1FEC56FE4FA591B4918C91982321F412
:1019C00061E085E30E943A0461E085E30E946A04D5
:1019D0008CB580618CBD8CB580648CBD61E084E386
:1019E0000E946A0461E083E30E946A0480916A02B3
:1019F0008F5F80936A021FBFC5010197F1F760E016
:101A000088810E943A0488E80E941F0A83E00E94AD
:101A10001F0A61E088810E943A04C5010197F1F72D
:101A200060E088810E943A0488E90E941F0A80E0F1
:101A30000E941F0A80E00E941F0A80E00E941F0A85
:101A400080E00E941F0A61E088810E943A04C4017C
:101A50000197F1F760E088810E943A0480EE0E94CD
:101A60001F0A61E088810E943A04F2E0CF0ED11C87
:101A70002296EA94EF2821F0EE24E394F12C64CF2F
:101A8000CBE0D7E01C2F1C5F60E089910E946A04C4
:101A90001C13FACF0AE117E0C5E1D7E0FC2EF3945E
:101AA000F394FE013697608170E0CE0102960E94A9
:101AB0001C099991FE0133978081F8013197808349
:101AC000F801908360E00E946A0461E0F80180817F
:101AD0000E946A0460E0F80180810E943A040E5F6F
:101AE0001F4FFC12DECFF8941092200189E0809302
:101AF000210180E293E090932901809328011092C4
:101B000025011092240182E08093730078948093E1
:101B10000E051092120580910F0560E00E946A0484
:101B200061E08DE00E946A040E94260A609110071D
:101B300070E088E197E00E941C0960910F0770E057
:101B400087E197E00E941C0964EB81E00E94140B7E
:101B500064EF71E080E090E00E946C0260E080E061
:101B60000E94140B68EB7BE080E090E00E946C0226
:101B70006AE581E00E94140B68EB7BE080E090E076
:101B80000E946C026AE580E00E94140B68EB7BE027
:101B900080E090E00E946C0264EB81E00E94140BF4
:101BA00068EB7BE080E090E00E946C0260E080E007
:101BB0000E94140B68EB7BE080E090E00E946C02D6
:101BC0000E941C06C1CF80911D0690911E060C94A8
:101BD000C81010922E0310922D0388EE93E0A0E01F
:101BE000B0E080932F0390933003A0933103B09320
:101BF00032032BE032E030932C0320932B0310921E
:101C00003A031092390380933B0390933C03A093D3
:101C10003D03B0933E032DE132E03093380320932F
:101C2000370345E351E0509344034093430344E3B7
:101C300051E0509346034093450340E351E05093F5
:101C400048034093470341E351E050934A034093D4
:101C5000490342E351E050934C0340934B0346E366
:101C600051E050934E0340934D0310925003109255
:101C7000510310925203109253031092D703109203
:101C8000D6038093D8039093D903A093DA03B0933B
:101C9000DB033093D5032093D40345ED50E05093FC
:101CA000E1034093E00344ED50E05093E30340939D
:101CB000E20340ED50E05093E5034093E40341ED2F
:101CC00050E05093E7034093E60342ED50E0509319
:101CD000E9034093E80346ED50E05093EB03409353
:101CE000EA031092ED031092EE031092EF031092AC
:101CF000F00310927404109273048093750490930F
:101D00007604A0937704B093780430937204209300
:101D1000710485EC90E090937E0480937D0484ECC4
:101D200090E09093800480937F0480EC90E0909307
:101D300082048093810481EC90E0909384048093EA
:101D4000830482EC90E0909386048093850486EC73
:101D500090E0909388048093870410928A041092F4
:101D60008B0410928C0410928D0486E380930707F5
:101D700087E38093080788E38093090789E38093CA
:101D80000A078BE180930B078DE180930C078AE1B2
:101D900080930D078CE180930E0784E080930F07FA
:101DA00087E0809310071092110784EB809312074D
:101DB00086E18093130788E18093140787E180937D
:101DC000150789E180931607E0911C06EC3020F09E
:101DD0008FEF8093170710C081E08E0F80931C0651
:101DE000E093170725E0E29FF0011124E052FA4F3B
:101DF00088EB9BE092838183E0911C06EC3020F01D
:101E00008FEF8093180710C081E08E0F80931C061F
:101E1000E093180785E0E89FF0011124E052FA4FA3
:101E200088EB9BE0928381838CE08093E60684E2DA
:101E30008093E70686E08093E80685E08093E906D4
:101E40008FE18093EA068EE18093EB0683E2809334
:101E5000EC0682E28093ED0685E48093EE0684E44E
:101E60008093EF0680E48093F2061092F7061092BA
:101E7000F8061092F9061092FA061092FB061092DC
:101E8000FC061092FD061092FE06E8E2F6E08FEFE7
:101E90009FEFDC0112821382148215821682178250
:101EA0001086118683879487A587B6878787908B4E
:101EB000A18BB28B128611821082739626E0E63EC9
:101EC000F20741F78DE090E00E943310FC0113828D
:101ED00012828FE292E091838083118687E284836D
:101EE00084E1828784E083871486F0932506E0935B
:101EF0002406109226061092270685E280930F058D
:101F00001092110510921E0610921D0610922006C6
:101F100010921F06109222061092210661E070E0D6
:101F200080E090E00E946011009789F090931E0677
:101F300080931D061092200610921F062091210604
:101F400030912206232BC1F4FC01108215C0809130
:101F50001D0690911E06009711F00E94C810109265
:101F60001E0610921D061092220610922106109253
:101F7000200610921F060895109222061092210644
:101F800069E372E00C945712052E97FB1EF400943F
:101F90000E94DB0F57FD07D00E94EE0F07FC03D015
:101FA0004EF40C94DB0F50954095309521953F4FA2
:101FB0004F4F5F4F089590958095709561957F4F35
:101FC0008F4F9F4F08950E941010A59F900DB49FB2
:101FD000900DA49F800D911D11240895A1E21A2E49
:101FE000AA1BBB1BFD010DC0AA1FBB1FEE1FFF1FBD
:101FF000A217B307E407F50720F0A21BB30BE40B0D
:10200000F50B661F771F881F991F1A9469F7609553
:102010007095809590959B01AC01BD01CF0108950D
:10202000A29FB001B39FC001A39F700D811D112419
:10203000911DB29F700D811D1124911D0895991B52
:1020400079E004C0991F961708F0961B881F7A95AF
:10205000C9F780950895EE0FFF1F881F8BBF07906B
:10206000F691E02D1994CF93DF938230910510F40F
:1020700082E090E0E0911F07F091200720E030E03F
:10208000C0E0D0E0309711F14081518148175907E5
:10209000C0F04817590761F482819381209719F0A5
:1020A0009B838A832BC09093200780931F0726C0B1
:1020B0002115310519F04217530718F49A01BE0192
:1020C000DF01EF010280F381E02DDCCF2115310526
:1020D00009F1281B390B2430310590F412968D91AB
:1020E0009C9113976115710521F0FB019383828305
:1020F00004C09093200780931F07FD01329644C0CF
:10210000FD01E20FF31F81939193225031092D932A
:102110003C933AC020911D0730911E07232B41F4B8
:10212000209103023091040230931E0720931D0773
:1021300020910102309102022115310541F42DB7A1
:102140003EB74091050250910602241B350BE091E9
:102150001D07F0911E07E217F307A0F42E1B3F0B9B
:102160002817390778F0AC014E5F5F4F2417350709
:1021700048F04E0F5F1F50931E0740931D07819339
:10218000919302C0E0E0F0E0CF01DF91CF9108959C
:102190000F931F93CF93DF93009709F48CC0FC013A
:1021A00032971382128200911F07109120070115A8
:1021B000110581F420813181820F931F20911D0729
:1021C00030911E072817390779F5F0931E07E09321
:1021D0001D0771C0D80140E050E0AE17BF0750F4B2
:1021E00012962D913C911397AD012115310509F1FE
:1021F000D901F3CF9D01DA0133832283608171819C
:10220000860F971F8217930769F4EC0128813981A3
:10221000260F371F2E5F3F4F318320838A819B819A
:1022200093838283452B29F4F0932007E0931F07C3
:1022300042C01396FC93EE931297ED014991599188
:102240009E01240F351FE217F30771F480819181FD
:10225000840F951F029611969C938E938281938191
:1022600013969C938E931297E0E0F0E0D8011296BB
:102270008D919C911397009719F0F8018C01F6CF7E
:102280008D919C9198012E5F3F4F820F931F20915B
:102290001D0730911E072817390769F4309729F474
:1022A0001092200710921F0702C01382128210930F
:1022B0001E0700931D07DF91CF911F910F91089585
:1022C0006F927F928F929F92AF92BF92CF92DF9246
:1022D000EF92FF920F931F93CF93DF93EC01009740
:1022E00089F4CB01DF91CF911F910F91FF90EF9077
:1022F000DF90CF90BF90AF909F908F907F906F9026
:102300000C943310FC01E60FF71F9C012250310999
:10231000E217F30708F4ACC0D9010D911C91119795
:1023200006171707B0F00530110508F49FC0C80163
:1023300004978617970708F499C002501109061BE5
:10234000170B019311936D937C93CF010E94C810DA
:102350008DC05B01A01AB10A4C01800E911EA091A4
:102360001F07B091200740E050E0E12CF12C1097BE
:1023700009F44AC0A815B905D1F56D907C90119764
:10238000630182E0C80ED11CCA14DB0480F1A301F2
:102390004A195B096A0182E0C80ED11C1296BC90F2
:1023A00012971396AC91B5E0CB16D10440F0B282EF
:1023B000A38351834083D9016D937C930AC00E5F40
:1023C0001F4FC301800F911FF90191838083EB2D73
:1023D000FA2FE114F10431F0D7011396FC93EE9338
:1023E000129744C0F0932007E0931F073FC08D91E0
:1023F0009C9111974817590708F4AC017D0112967A
:102400000D90BC91A02DB3CF80911D0790911E0718
:1024100088159905E1F446175707C8F48091010221
:1024200090910202009741F48DB79EB7409105024A
:1024300050910602841B950BE817F907C8F4F09336
:102440001E07E0931D07F901718360830FC0CB0164
:102450000E9433107C01009759F0A801BE010E9430
:102460004E12CE010E94C810C70104C0CE0102C0A6
:1024700080E090E0DF91CF911F910F91FF90EF905E
:10248000DF90CF90BF90AF909F908F907F906F9094
:10249000089581E090E0F8940C945E12FB01DC0159
:1024A00002C001900D9241505040D8F70895FB01B1
:1024B000DC0101900D920020E1F7089511E0CCE5D8
:1024C000D1E000E006C0802FFE010E942B10219673
:1024D000011DCD35D10780E00807A9F7F894FFCF9B
:1024E000FF000021072000000000001802E8014A58
:1024F00006C201E001D101C30100000000B005F0F7
:10250000043405F70565054305570500000000750F
:1025100006F0044A0649060D0A00496E76616C69A8
:102520006420736572766F2069642100536572764A
:102530006F20616E676C65206973206F7574206F02
:0A254000662072616E6765210000DD
:00000001FF
