:100000000C94A3010C94D4010C94D4010C94D4014D
:100010000C94D4010C94D4010C94D4010C94D4010C
:100020000C94D4010C94750F0C94750F0C94750FEF
:100030000C94D4010C943B050C94D4010C94D40181
:100040000C94D4010C94970D0C94D4010C94D4010D
:100050000C94D4010C94D4010C94D4010C94F1119F
:100060000C94D4010C946D0B0C94430B0C94D401A0
:100070000C94D4010C94D4010C94D4010C94D401AC
:100080000C94D4010C94D4010C94D4010C94D4019C
:100090000C94D4010C94D4010C94D4010C947F0FD3
:1000A0000C94D4010C94D4010C94D4010C94D4017C
:1000B0000C94D4010C94D4010C94D4010C94970B9F
:1000C0000C94D4010C94D4010C94D4010C94190B0D
:1000D0000C94EF0A0C94D4010C94C50A0C949B0A5E
:1000E0000C94D401DE0CE30CE80CF20CFC0C750D46
:1000F000060D0E0D160D200D2A0D340D430D4D0D60
:10010000750D570D610D6B0DCC10CF10BE10C210C8
:10011000C8100611D310D710DD10E110E510EB1058
:10012000EF10F3100611F910FD1001110C94E80CFA
:100130000C94E5100C94F3100C946B0D0C944D0D75
:100140000C94F00E0C94EB100C94160F0C94570DAD
:100150000C9401110C94BE100C94610D0C94FF0EC4
:100160000C94200D0C9454080C9439050C94E30560
:100170000C94FC0C0C94FB090C94DD050C94B40954
:100180000C940E0D0C942A0D0C94760A0C94CF103E
:100190000C94D6010C94DE0C0C9400020C940E0FFF
:1001A0000C94160D0C94D7100C94DD100C94060DC5
:1001B0000C94750D0C94C8100C94EF100C94C21094
:1001C0000C94F20C0C94340D0C9469090C94460FA9
:1001D0000C94CC100C9447090C944B0A0C94F10E1F
:1001E0000C94E30C0C948E180C94FC010C940611E6
:1001F0000C94E1100C94430D0C94FD100C94F40835
:100200000C94DA050C944A0A0C9494180C9438094E
:100210000C9498080C94D3100C945B090C94F9106E
:1002200002000020002300260029002C002F0032AD
:100230000000010000030106010901000021002463
:100240000027002A002D00300033000101000004C7
:100250000107010A0100002200250028002B002EC2
:10026000003100340002010000050108010B010506
:10027000050505070508080808020202020A0A081F
:100280000804040404010101010101010103030345
:100290000303030303040707070C0C0C0C0C0C0CE2
:1002A0000C0202020206060606060606060B0B0BE9
:1002B0000B0B0B0B0B010210202008081020401024
:1002C000204080020102010804020101020408101A
:1002D0002040808040201008040201800402018038
:1002E0004020100804020108040201010204081061
:1002F000204080010204081020408000000A0B0208
:10030000090C0D0E080703040100000000000000A6
:1003100000000000000000000000000000000000DD
:10032000000000000000001211100000000000009A
:1003300000000000000000000000000000000000BD
:10034000000094188E1811241FBECFEFD1E2DEBF3B
:10035000CDBF00E00CBF14E0A0E0B2E0E0ECFDE3B4
:1003600000E00BBF02C007900D92A231B107D9F790
:100370002AE0A2E1B4E001C01D92AA34B207E1F77D
:1003800011E0C2EAD1E000E006C021970109802F08
:10039000FE010E94451CC13AD10780E00807A9F779
:1003A0000E94A7130C94CE1E0C940000CF93DF93F1
:1003B00000D000D0CDB7DEB7AB011C821D821E82FB
:1003C000DC01ED91FC910190F081E02D19821A82FF
:1003D0001B829E012F5F3F4FBE016C5F7F4F1995BF
:1003E00026960FB6F894DEBF0FBECDBFDF91CF913A
:1003F0000895E0E0F0E01994FC0185859685089564
:1004000080E090E008950F931F93CF93DF93EC016A
:100410008B01072E000C880B990B97FF03C00E94DD
:10042000681303C04AE00E94271380ED93E00E9406
:100430003B12602F81E30E940711209711F460E0C6
:1004400008C0C130D10551F48DEF92E00E944D12E9
:1004500061E085E30E94071160E014C0C230D1055D
:1004600031F48FEF92E00E944D1260E007C02397B5
:1004700081F481E093E00E944D1261E085E30E94E7
:10048000071161E082E3DF91CF911F910F910C94EE
:100490000711DF91CF911F910F9108954DEC5CEC06
:1004A0006CE47EEB8DE19AE00E947E0C4DEC5CECFE
:1004B0006CE47EEB8BE19AE00E947E0C68E978E0C8
:1004C00080E090E00E94B71140E050E0BA018BE17B
:1004D0009AE00E947E0C40E050E060E070E88DE120
:1004E0009AE00E947E0C8091120490911304813056
:1004F000910519F483E090E011C0009719F482E0AF
:1005000090E00CC08230910529F4109213041092EF
:10051000120408C0039731F481E090E09093130433
:100520008093120480911204909113040C948F1301
:100530008FE19AE00E94460E81E29AE00E94460E08
:100540004DEC5CEC6CE47EEB8DE19AE00E947E0C5D
:100550004DEC5CEC6CE47EEB8BE19AE00E947E0C4F
:1005600068EE73E080E090E00E94B71140E050E058
:10057000BA018BE19AE00E947E0C40E050E060E01E
:1005800070E88DE19AE00E947E0C68EE73E080E0F6
:1005900090E00E94B711809112049091130401978A
:1005A00064E070E00E94311C8F3F2FEF920711F43E
:1005B00083E090E0909313048093120480911204DE
:1005C000909113040C948F138FE19AE00E94460ED1
:1005D00081E29AE00E94460E4DEC5CEC6CE47EE316
:1005E0008DE19AE00E947E0C4DEC5CEC6CE47EE3C5
:1005F0008BE19AE00E947E0C68EE73E080E090E070
:100600000E94B71140E050E0BA018BE19AE00E94ED
:100610007E0C40E050E060E070E88DE19AE00E94DE
:100620007E0C68EE73E080E090E00E94B71180914C
:10063000120490911304019664E070E00E94311C52
:1006400090931304809312040C948F1383E093E02F
:100650000E944D12209112043091130480911604CF
:10066000909117042130310511F4019604C0233014
:10067000310529F401979093170480931604809113
:100680001604909117040C948F130F931F93CF931C
:10069000DF934DEC5CEC6CE47EEB8DE19AE00E9424
:1006A0007E0C4DE35AE067E57EE38BE19AE00E9421
:1006B0007E0C6AEF70E080E090E00E94B71186E067
:1006C0000E947311883E934084F040E050E060E067
:1006D00070E88DE19AE00E947E0C40E050E0BA01A3
:1006E0008BE19AE00E947E0CF0CF8DE00E947311A6
:1006F0008C018CE00E947311EC018BE00E9473115D
:100700000E3521E012074CF4CE3521E0D207A4F5D6
:10071000843F21E092079CF244C00E35114079F2EB
:10072000CE3521E0D2074CF4843F21E09207DCF47F
:100730004DEC5CEC6CE47EE30DC0CE35D14009F4A9
:10074000BECF843F21E092070CF040C04AE959E94E
:1007500069E17EE38BE19AE00E947E0C4DEC5CEC5B
:100760006CE47EEB2EC0843F914009F4A8CF4DECA1
:100770005CEC6CE47EE30CC0CE35D14009F49FCF35
:10078000843F91400CF09BCF4DEC5CEC6CE47DE33E
:100790008BE19AE00E947E0C4AE959E969E17EEB1F
:1007A00010C0853F91400CF48ACF4AE959E969E1CC
:1007B0007EE38BE19AE00E947E0C4DEC5CEC6CE4F5
:1007C0007DEB8DE19AE00E947E0C79CF853F9140D0
:1007D0000CF475CF64EF71E080E090E00E94B711F7
:1007E00080E293E0DF91CF911F910F910C944D1215
:1007F0000F931F93CF93DF938C01EB018DE293E076
:100800000E944D1280911604909117048017910751
:1008100039F10E9445030E94260389E493E00E9477
:100820003B12C8010E948F1382E593E00E943B12A5
:1008300080911604909117040E948F138EE593E027
:100840000E943B12CE010E948F1387E693E00E9424
:100850003B1280911404909115040E948F13D2CF03
:1008600080911404909115048C179D0794F4809145
:10087000120490911304019711F40E94E4028091F4
:10088000120490911304039709F040C00E9498024B
:100890003DC0C817D907D4F5809112049091130474
:1008A000019711F40E949802809112049091130410
:1008B000039761F50E94E40229C00E94450383E783
:1008C00093E00E944D1280911204909113040097BE
:1008D00029F58091140490911504019790931504C3
:1008E0008093140482E593E00E943B1280911604E9
:1008F000909117040E948F1387E693E00E943B12A9
:1009000080911404909115040E948F138091140417
:10091000909115048C179D0781F608C0029711F776
:1009200080911404909115040196D8CFDF91CF9156
:100930001F910F910895CF92DF92EF92FF92CF9384
:10094000DF93823018F080E993E00AC090912D0A7D
:10095000691720F090912E0A961750F482EA93E0DE
:10096000DF91CF91FF90EF90DF90CF900C944D12DC
:10097000E82FF0E0ED5DF54FC089CC3008F072C093
:10098000262F30E0D0E085E08C9FF0018D9FF00DA8
:100990001124E450F74F8381283C31059CF528E869
:1009A00030E06901C81AD10887FDD394CC0CDD1C56
:1009B000CC0CDD1C0D2C000CEE08FF08848128E512
:1009C00032E0281B310987FD3395220F331F220F98
:1009D000331FC901330FAA0BBB0B9C01AD012C19AE
:1009E0003D094E095F09A62FB0E00E94E11B24EBF0
:1009F00030E040E050E00E94C21BC20ED31EE41E55
:100A0000F51E1EC048E850E06A01C81AD10887FDEB
:100A1000D394CC0CDD1CCC0CDD1C2C153D0584F0D6
:100A2000448188E592E0841B910947FD9395880FE6
:100A3000991F880F991F69018C159D050CF46C0195
:100A40008FB7F89495E09C9FF0019D9FF00D1124C5
:100A5000E450F74F96E0C91AD108CC0CDD1CD282C5
:100A6000C1828FBFDF91CF91FF90EF90DF90CF9049
:100A700008950E94B91E1F920F920FB60F92112473
:100A80000BB60F922F933F934F935F936F937F9388
:100A90008F939F93AF93BF93EF93FF9380911B042A
:100AA00090911C04A0911D04B0911E04892B8A2BE7
:100AB0008B2B59F180911A04E0911804F0911904DC
:100AC00090818927808380911B0490911C04A091C0
:100AD0001D04B0911E04181619061A061B060CF008
:100AE00056C080911B0490911C04A0911D04B091EC
:100AF0001E040197A109B10980931B0490931C0463
:100B0000A0931D04B0931E0442C080910002E0E255
:100B1000F2E0E4919FEF90930002E230C9F050F4CC
:100B2000EE2399F0E13081F590916F009D7F9093D5
:100B30006F002AC0E43019F1E0F0E53029F590911A
:100B400073009D7F909373001FC010926E001CC0B5
:100B5000909170009D7F9093700091E09093B00011
:100B60009091B100987F94609093B1001092B3007F
:100B70000BC0909171009D7F9093710005C0909182
:100B800072009D7F9093720060E00E940711FF91B8
:100B9000EF91BF91AF919F918F917F916F915F91F5
:100BA0004F913F912F910F900BBE0F900FBE0F9062
:100BB0001F90189580E991E00895E1E0F1E08081CF
:100BC0008062808308956F927F928F929F92AF92FE
:100BD000BF92CF92DF92EF92FF920F931F93CF932A
:100BE000DF933C01EB010E949211F30127853089CC
:100BF000621B730B6A307105B0F3F894E881F981D8
:100C0000509102015062809102018F7D8093020118
:100C1000EA849F812E2D291B922F2F83DF84AA81A6
:100C2000BB816D857C85FE846F5F7F5FF3943E8121
:100C30004885B984AB84118120E0C32E022F322F66
:100C40003181112788943111390F08F43FEF9195C4
:100C5000889460FD130F1795889461FD130F179505
:100C6000889462FD130F1795889463FD130F1795F1
:100C7000889464FD130F1795889465FD130F1795DD
:100C8000889466FD130F1795889467FD130F1795C9
:100C90008894232F6111212F9E0D122F002C509329
:100CA000020100C0002C17FF80930201308122272F
:100CB000889400C08093020131113C0D00C0509314
:100CC000020100C0002C16FF8093020108F43FEFE0
:100CD000C194889400C08093020170FD230F00C06E
:100CE0005093020100C0002C15FF8093020127954C
:100CF000889471FD230F00C080930201279588948A
:100D000000C05093020100C0002C14FF8093020128
:100D100072FD230F2795889400C08093020173FD14
:100D2000230F00C05093020100C0002C13FF8093DA
:100D300002012795889474FD230F00C0809302015F
:100D40002795889400C05093020100C0002C12FF28
:100D50008093020175FD230F2795889400C080932E
:100D6000020176FD230F00C05093020100C0002C49
:100D700011FF809302012795889477FD230F00C00F
:100D8000809302012795889400C05093020100C00F
:100D9000002C10FF80930201132F7111122FCB0C26
:100DA00000C08093020100C000C05093020100C047
:100DB000002C17FF8093020132812227889400C003
:100DC000809302013111340F00C05093020100C022
:100DD000002C16FF8093020108F43FEFED0DF11D8A
:100DE00000C080930201F0FC230F00C05093020169
:100DF00000C0002C15FF8093020127958894F1FC18
:100E0000230F00C0809302012795889400C050935F
:100E1000020100C0002C14FF80930201F2FC230F9A
:100E20002795889400C080930201F3FC230F00C033
:100E30005093020100C0002C13FF809302012795FC
:100E40008894F4FC230F00C08093020127958894B6
:100E500000C05093020100C0002C12FF80930201D9
:100E6000F5FC230F2795889400C080930201F6FCBF
:100E7000230F00C05093020100C0002C11FF80938B
:100E8000020127958894F7FC230F00C0809302018C
:100E90002795889400C05093020100C0002C10FFD9
:100EA00080930201132FF110122F419500C08093FF
:100EB00002014A0D00C0002C5093020100C0002C1A
:100EC00017FF8093020131812227889400C080930C
:100ED00002013111390F00C05093020100C0002CF3
:100EE00016FF8093020108F43FEF9195889400C0AB
:100EF0008093020160FD230F00C05093020100C0E7
:100F0000002C15FF809302012795889461FD230F23
:100F100000C0809302012795889400C0509302017D
:100F200000C0002C14FF8093020162FD230F27955F
:100F3000889400C08093020163FD230F00C050938A
:100F4000020100C0002C13FF8093020127958894B2
:100F500064FD230F00C0809302012795889400C090
:100F60005093020100C0002C12FF8093020165FD26
:100F7000230F2795889400C08093020166FD230FFC
:100F800000C05093020100C0002C11FF80930201A9
:100F90002795889467FD230F00C080930201279551
:100FA000889400C05093020100C0002C10FF809371
:100FB0000201132F6111122F9E0D00C080930201B8
:100FC000119709F06CCE4A815B8120EE31E0DA01A5
:100FD0000E944D1CDC01CB0164E0B695A795979566
:100FE00087956A95D1F760E070E09B01EAE94E9F32
:100FF000040E211D5E9F200D311D1124250F311D72
:10100000820F931FA11DB11D893EE3E09E07A1053C
:10101000B10508F434C0885E9340A109B10922E00B
:10102000B695A795979587952A95D1F727E0829F42
:10103000080E611D929F600D711D1124690F711DB5
:101040002091A50530E0820F931F860F971F4091D6
:10105000A8055091A9056091AA057091AB05292FAB
:101060003327420F531F611D711D4093A8055093F4
:10107000A9056093AA057093AB058093A5057894A4
:101080000E949211F301708B6787DF91CF911F91BE
:101090000F91FF90EF90DF90CF90BF90AF909F9017
:1010A0008F907F906F9008950F931F93CF93DF934E
:1010B000CDB7DEB762970FB6F894DEBF0FBECDBFD7
:1010C0008C01F901DC011C968C917A8369835C8325
:1010D0004B835E834D8390819D8791819E87928112
:1010E0009F87813029F4CE0101960E94710E06C0BF
:1010F0001C861B861A86198618861F8283E0888BB9
:101100001A8A198AD801ED91FC910484F585E02DA5
:10111000BE016F5F7F4FC801199562960FB6F894B4
:10112000DEBF0FBECDBFDF91CF911F910F9108950C
:101130000F931F93CF93DF93CDB7DEB762970FB6B0
:10114000F894DEBF0FBECDBF8C01F901DC011C9607
:101150008C917A8369835C834B835E834D8390811A
:101160009D8791819E8792819F87813029F4CE014E
:1011700001960E94710E06C01C861B861A8619866F
:1011800018861F82188A1A8A198AD801ED91FC9153
:101190000484F585E02DBE016F5F7F4FC80119956E
:1011A00062960FB6F894DEBF0FBECDBFDF91CF9130
:1011B0001F910F9108951F93CF93DF93182F0E94D3
:1011C00073118F3F934059F4812F0E947311EC01EA
:1011D0000E948F13C83ED340BCF781E001C080E07D
:1011E000DF91CF911F910895CF92DF92EF92FF92FE
:1011F0000F931F93CF93DF936C017A018B01C0E0B3
:10120000D0E0CE15DF0589F0D8016D918D01D601B2
:10121000ED91FC910190F081E02DC6011995892B8B
:1012200011F47E0102C02196ECCFC701DF91CF916E
:101230001F910F91FF90EF90DF90CF900895FC01E8
:10124000A089B1898C91A689B78982FD0FC09C9134
:10125000818D8F5F8F73228D821749F0218DDF0181
:10126000A20FB11D5D969C93818F08958C91089576
:10127000FC01538D448D252F30E0842F90E0821B9C
:10128000930B541710F0CF96089501970895FC0121
:10129000918D828D981761F0828DDF01A80FB11DAD
:1012A0005D968C91928D9F5F9F73928F90E00895D1
:1012B0008FEF9FEF0895FC01918D828D981731F08B
:1012C000828DE80FF11D858D90E008958FEF9FEFDF
:1012D0000895FC01918D228D892F90E0805C9F4FB5
:1012E000821B91098F739927089583E596E00E94E8
:1012F000690921E0892B09F420E0822F089580EF0D
:1013000096E00E94690921E0892B09F420E0822FF0
:1013100008958DE897E00E94690921E0892B09F47E
:1013200020E0822F0895FC01848DDF01A80FB11DFC
:10133000A35ABF4F2C91848D90E001968F7399270B
:10134000848FA689B7892C93A089B1898C918064F8
:101350008C93938D848D981306C00288F389E02DB9
:1013600080818F7D80830895EF92FF920F931F936A
:10137000CF93DF93EC0181E0888F9B8D8C8D981348
:1013800005C0E889F989808185FD24C0F62E0B8D82
:1013900010E00F5F1F4F0F731127E02E8C8DE812A6
:1013A0000CC00FB607FCFACFE889F989808185FF68
:1013B000F5CFCE010E949309F1CF8B8DFE01E80F8E
:1013C000F11DE35AFF4FF0820B8FEA89FB89808180
:1013D000806207C0EE89FF896083E889F98980818E
:1013E0008064808381E090E0DF91CF911F910F9125
:1013F000FF90EF900895CF93DF93EC01888D8823C1
:10140000C9F0EA89FB89808185FD05C0A889B98971
:101410008C9186FD0FC00FB607FCF5CF808185FF4C
:10142000F2CFA889B9898C9185FFEDCFCE010E94BA
:101430009309E7CFDF91CF91089580E090E0892B69
:1014400021F00E948909811119C080E090E0892B68
:1014500041F080E090E0892B21F00E940000811192
:1014600010C00E947F0981110FC080E090E0892B9D
:1014700081F00E94750981110AC008950E94000040
:10148000E4CF0E940000EDCF0E94F901EECF0C9452
:1014900000000895089580E090E00895FC01248103
:1014A00031E03093230620934506109224061092D3
:1014B00046068485682B87E496E00E94460F0C94CC
:1014C00083120F931F93CF938C01C62F64600E94E9
:1014D0004E0A6C2F6B7FC8010E944E0A83EC90E08D
:1014E0000197F1F7CF911F910F9108950F931F93DB
:1014F000CF93DF938C01C62FD62FD07FD1606D2F75
:101500000E944E0A6D2FC8010E94610A80E1C89FA7
:10151000B0011124C62FC1606C2FC8010E944E0A71
:101520006C2FC8010E94610A81E090E0DF91CF91A9
:101530001F910F9108951F920F920FB60F921124D1
:101540000BB60F922F933F934F935F936F937F93BD
:101550008F939F93AF93BF93EF93FF9383E596E0B1
:101560000E949309FF91EF91BF91AF919F918F914D
:101570007F916F915F914F913F912F910F900BBE93
:101580000F900FBE0F901F9018951F920F920FB6DD
:101590000F9211240BB60F922F933F934F935F93AB
:1015A0006F937F938F939F93AF93BF93EF93FF932B
:1015B00083E596E00E941F09FF91EF91BF91AF91E3
:1015C0009F918F917F916F915F914F913F912F915B
:1015D0000F900BBE0F900FBE0F901F9018951F928B
:1015E0000F920FB60F9211240BB60F922F933F93C9
:1015F0004F935F936F937F938F939F93AF93BF931B
:10160000EF93FF9380EF96E00E949309FF91EF9193
:10161000BF91AF919F918F917F916F915F914F910A
:101620003F912F910F900BBE0F900FBE0F901F9008
:1016300018951F920F920FB60F9211240BB60F92AE
:101640002F933F934F935F936F937F938F939F93CA
:10165000AF93BF93EF93FF9380EF96E00E941F0933
:10166000FF91EF91BF91AF919F918F917F916F917A
:101670005F914F913F912F910F900BBE0F900FBE36
:101680000F901F9018951F920F920FB60F92112472
:101690000BB60F922F933F934F935F936F937F936C
:1016A0008F939F93AF93BF93EF93FF938DE897E052
:1016B0000E949309FF91EF91BF91AF919F918F91FC
:1016C0007F916F915F914F913F912F910F900BBE42
:1016D0000F900FBE0F901F9018951F920F920FB68C
:1016E0000F9211240BB60F922F933F934F935F935A
:1016F0006F937F938F939F93AF93BF93EF93FF93DA
:101700008DE897E00E941F09FF91EF91BF91AF9183
:101710009F918F917F916F915F914F913F912F9109
:101720000F900BBE0F900FBE0F901F9018951F9239
:101730000F920FB60F9211240BB60F922F933F9377
:101740004F935F936F937F938F939F93AF93BF93C9
:10175000CF93DF93EF93FF9320912B0830E0F901B3
:10176000E550FD4F8491F901EB54FD4FD491F901FF
:10177000E159FD4FC491CC23A1F081110E94B11019
:10178000EC2FF0E0EE0FFF1FEF5DFD4FA591B49140
:10179000EC91ED2331E020E009F430E0832F922F2B
:1017A00002C080E090E020912F08309130082F5F38
:1017B0003F4F3093300820932F0820912E08253674
:1017C00018F026E020932A0820912A082430D9F125
:1017D00028F4223069F02330D9F060C0253009F4B4
:1017E00053C0263009F05AC021E02093FB0853C0B3
:1017F000009709F053C020912F083091300824360B
:10180000310508F443C01092FB0810922E081DC049
:101810008130910509F042C0E0912E0821E02E0FA1
:1018200020932E08F0E020912F0830913008EE0F21
:10183000FF1FE65DF74F3087278310923008109224
:101840002F0824E029C00097B9F4E0912E0821E088
:101850002E0F20932E08F0E020912F0830913008B1
:10186000EE0FFF1FE65DF74F308727831092300899
:1018700010922F0823E010C020912F0830913008DB
:101880002536310558F007C0009741F41092300812
:1018900010922F0803C025E020932A0820912D08DC
:1018A0002223B9F0892B51F480912C08882321F050
:1018B00080912C0861E009C02F9A0BC080912C0800
:1018C000882331F080912C0860E00E94071101C04C
:1018D0002F98FF91EF91DF91CF91BF91AF919F91A1
:1018E0008F917F916F915F914F913F912F910F90C9
:1018F0000BBE0F900FBE0F901F9018958F929F9266
:10190000AF92BF92CF92DF92EF92FF920F931F930D
:10191000CF93DF93EC016A017B0120E030E04FE7D9
:1019200053E4C701B6010E94041B4B015C0120E097
:1019300030E0A9010E949E1C18161CF4C501B401D8
:1019400003C0C501B40190580E94681C8B0120E0BF
:1019500030E0A901C701B6010E949E1C181614F4BC
:1019600060E001C061E089810E9407110F3F11050D
:1019700009F014F4112702C00FEF10E0C88161E0F4
:101980008C2F0E9437110115110509F4B1C00F3FCA
:10199000110509F4AFC0EC2FF0E0E550FD4FE491E4
:1019A0004E2F50E0FA013197E231F10508F09DC069
:1019B0008827EE58FF4F8F4F0C94451C84B58068E4
:1019C00084BD07BDA7C084B5806284BD08BDA2C028
:1019D000809180008068809380001093890000933C
:1019E000880098C08091800080628093800010936E
:1019F0008B0000938A008EC0809180008860809365
:101A0000800010938D0000938C0084C08091B00002
:101A100080688093B0000093B3007CC08091B000D8
:101A200080628093B0000093B40074C080919000F5
:101A300080688093900010939900009398006AC08A
:101A40008091900080628093900010939B0000939F
:101A50009A0060C0809190008860809390001093FD
:101A60009D0000939C0056C08091A00080688093E8
:101A7000A0008091A0008F7B8093A0001093A9000C
:101A80000093A80047C08091A00080628093A000CE
:101A90001093AB000093AA003DC08091A000886025
:101AA0008093A0001093AD000093AC0033C08091F0
:101AB0002001806880932001109329010093280160
:101AC00029C08091200180628093200110932B0116
:101AD00000932A011FC0809120018860809320011B
:101AE00010932D0100932C0115C00038110514F43A
:101AF00060E001C061E08C2FDF91CF911F910F91C9
:101B0000FF90EF90DF90CF90BF90AF909F908F901D
:101B10000C940711DF91CF911F910F91FF90EF90DF
:101B2000DF90CF90BF90AF909F908F9008951F92BD
:101B30000F920FB60F9211240BB60F922F933F9373
:101B40004F935F936F937F938F939F93AF93BF93C5
:101B5000EF93FF938091A70587FF05C01092850042
:101B60001092840016C02091A705022E000C330BA2
:101B70008091380990E0281739075CF43091A70567
:101B800025E03203F0011124E450F74F808186FDF7
:101B900015C08091A7058F5F8093A7052091A705A9
:101BA000022E000C330B8091380990E0281739077A
:101BB00094F48091A7058C302CF10DC03091A705CD
:101BC0003203F0011124E450F74F808160E08F73FD
:101BD0000E940711DECF80918400909185008434AB
:101BE0009C4918F480E49CE905C0809184009091A0
:101BF0008500049690938900809388008FEF8093EE
:101C0000A7052AC040918400509185003091A70516
:101C100025E03203F0011124E450F74F81819281D5
:101C2000840F951F90938900809388003091A705B9
:101C30003203F0011124E450F74F808186FF0CC07D
:101C40003091A7053203F0011124E450F74F808151
:101C500061E08F730E940711FF91EF91BF91AF91E7
:101C60009F918F917F916F915F914F913F912F91B4
:101C70000F900BBE0F900FBE0F901F9018958EBD4A
:101C800000000DB407FEFDCF8EB50895CF93DF930E
:101C9000EC0160E088810E94071188E90E943F0EF4
:101CA00080E00E943F0E80E00E943F0E80E00E9494
:101CB0003F0E80E00E943F0E61E088810E94071184
:101CC0008BE891E00197F1F760E088810E940711AD
:101CD00080EE0E943F0E61E08881DF91CF910C94ED
:101CE0000711EF92FF920F931F93CF93DF93EC01B5
:101CF0009091A6059F5F292F27702093A60590FF3E
:101D000002C090E801C090E021FD9064247009F0C9
:101D1000906220E1290FFE013C967E018FE0E80EE3
:101D2000F11C00E011E06191662331F070E0C80120
:101D30000E94311C6F5F01C060E0DF0114976C935B
:101D4000322F369F030E30E0311D1124CF0107974B
:101D5000311103C0EC01188203C03150EC0138830B
:101D6000662311F061506C93EE15FF05E1F6DF91EB
:101D7000CF911F910F91FF90EF90089585ED809383
:101D8000BC008091BC0084FDFCCF10922206089517
:101D90004091D505262F30E0240F311D2132310529
:101DA000DCF4209122062430C9F4FC0180E090E0AC
:101DB000861758F43091D5052191DC01AD54BA4F06
:101DC000A30FB11D2C930196F3CF8091D505680F19
:101DD0006093D50580E0089581E0089582E008953C
:101DE000089581E090E03091AD052091AC05321767
:101DF00010F480E090E0919581959109089580918B
:101E0000AD059091AC05891730F48F5F8093AD05D7
:101E100080E090E008958FEF9FEF08958091AC05EA
:101E200090E02091AD05821B91090895CF92DF9239
:101E3000EF92FF920F931F93CF93DF937C01262F96
:101E4000972F8A0180912306882391F0C62FD72FE0
:101E50006E01C40ED51ECC15DD0571F06991D70158
:101E6000ED91FC910190F081E02DC7011995F3CF20
:101E7000642F822F0E94C80EC801DF91CF911F915D
:101E80000F91FF90EF90DF90CF900895CF93DF9365
:101E90001F92CDB7DEB76983209123062223D1F0AC
:101EA00020914606203240F021E030E0FC013383EF
:101EB000228380E090E015C080912406E82FF0E0B6
:101EC000EB5DF94F998190838F5F80932406809317
:101ED000460605C061E0CE0101960E94C80E81E071
:101EE00090E00F90DF91CF9108951F920F920FB65F
:101EF0000F9211240F900FBE0F901F9018951F92F4
:101F00000F920FB60F9211240BB60F922F933F939F
:101F10004F935F936F937F938F939F93AF93BF93F1
:101F2000EF93FF938091B900887F803609F49CC0BD
:101F300068F5883209F45BC090F4803109F454C02C
:101F400038F4882309F4F6C0883009F44DC0F6C08F
:101F5000883109F44CC0803209F45DC0EFC0803490
:101F600009F468C048F4803309F455C0883309F097
:101F7000E5C080932006D8C0803509F44FC088356D
:101F800009F45DC0883409F0D9C0D6C0883909F495
:101F9000C7C0A8F4883709F467C038F4883609F454
:101FA00063C0803709F460C0C9C0883809F4B8C07C
:101FB000803909F45FC0803809F0C0C05BC0803B45
:101FC00009F486C038F4803A09F466C0883A09F406
:101FD0007FC0B4C0803C09F4A7C0883C09F4A4C009
:101FE000883B09F48AC0AAC08091FD0510C0909179
:101FF0001F0680911E06981770F5E0911F0681E07C
:102000008E0F80931F06F0E0E250FA4F808180939C
:10201000BB0085EC86C0809320068EC0E0911F0631
:1020200081E08E0F80931F068091BB00F0E0E250AC
:10203000FA4F808390911F0680911E066EC0E0913A
:102040001F0681E08E0F80931F068091BB00F0E099
:10205000E250FA4F80838091210681116DC081E0AA
:102060008093FC0584EA61C083E08093220610928D
:10207000F905CFCF8091F905803208F051C0E09189
:10208000F90581E08E0F8093F9058091BB00F0E0A7
:10209000E752FA4F8083BDCF85EC8093BC0010924D
:1020A00022068091F905803230F4E091F905F0E0E4
:1020B000E752FA4F10826091F90570E0E091D70580
:1020C000F091D80589ED95E019951092F90536C083
:1020D00084E0809322061092D6051092D505E091F7
:1020E000D305F091D40519958091D505811105C0CE
:1020F00081E08093D5051092B305E091D60581E08B
:102100008E0F8093D605F0E0ED54FA4F80818093D6
:10211000BB009091D6058091D505981708F479CF2A
:1021200085E88093BC000AC085EC8093BC001092C7
:10213000220604C0109220060E94BE0EFF91EF916D
:10214000BF91AF919F918F917F916F915F914F91CF
:102150003F912F910F900BBE0F900FBE0F901F90CD
:10216000189590E0FC013197E231F10508F04EC07E
:102170008827EC57FF4F8F4F0C94451C80918000AF
:102180008F7703C0809180008F7D809380000895B9
:1021900080918000877FF9CF84B58F7702C084B5A6
:1021A0008F7D84BD08958091B0008F7703C08091AA
:1021B000B0008F7D8093B0000895809190008F775C
:1021C00007C0809190008F7D03C080919000877F31
:1021D0008093900008958091A0008F7707C0809130
:1021E000A0008F7D03C08091A000877F8093A00016
:1021F0000895809120018F7707C0809120018F7D05
:1022000003C080912001877F8093200108951F9350
:10221000CF93DF93282F30E0F901E550FD4F8491F3
:10222000F901EB54FD4FD491F901E159FD4FC491EF
:10223000CC23C9F0162F81110E94B110EC2FF0E0D1
:10224000EE0FFF1FEB5AFD4FA591B4918FB7F89495
:10225000111105C09C91ED2FE095E92302C0EC918E
:10226000ED2BEC938FBFDF91CF911F910895CF930A
:10227000DF9390E0FC01EB54FD4F2491FC01E15908
:10228000FD4F8491882361F190E0880F991FFC0134
:10229000E55CFD4FC591D491FC01EB5AFD4FA59132
:1022A000B491611109C09FB7F89488812095822369
:1022B0008883EC912E230BC0623061F49FB7F894B1
:1022C0003881822F809583238883EC912E2B2C9349
:1022D0009FBF06C08FB7F894E8812E2B28838FBF4D
:1022E000DF91CF910895863308F0865390917B005B
:1022F000282F2870977F922B90937B0087708064A3
:1023000080937C0080917A00806480937A00809131
:102310007A0086FDFCCF809178002091790090E0D2
:10232000922B08953FB7F8948091AF059091B00536
:10233000A091B105B091B20526B5A89B05C02F3F6D
:1023400019F00196A11DB11D3FBFBA2FA92F982FDB
:102350008827820F911DA11DB11DBC01CD0142E056
:10236000660F771F881F991F4A95D1F708958F929E
:102370009F92AF92BF92CF92DF92EF92FF926B014A
:102380007C010E9492114B015C01C114D104E10453
:10239000F104F1F00E949211DC01CB018819990936
:1023A000AA09BB09883E9340A105B10570F321E05D
:1023B000C21AD108E108F10888EE880E83E0981E61
:1023C000A11CB11CC114D104E104F10419F7DDCF43
:1023D000FF90EF90DF90CF90BF90AF909F908F9045
:1023E00008951F920F920FB60F9211242F933F93CF
:1023F0008F939F93AF93BF938091A8059091A90568
:10240000A091AA05B091AB053091AE0523E0230F52
:102410002D3720F40196A11DB11D05C026E8230F1C
:102420000296A11DB11D2093AE058093A80590933F
:10243000A905A093AA05B093AB058091AF05909133
:10244000B005A091B105B091B2050196A11DB11DD5
:102450008093AF059093B005A093B105B093B205FA
:10246000BF91AF919F918F913F912F910F900FBE90
:102470000F901F901895009769F0FC0101900020C3
:10248000E9F73197AF01481B590BBC018DE897E084
:102490000C94F40880E090E00895CF93DF930E94BD
:1024A0003B12EC018EE094E00E943B128C0F9D1FCA
:1024B000DF91CF910895EDE8F7E0A089B18982E03E
:1024C0008C93A485B5851C92A685B7858FEC8C93DB
:1024D000108EA489B58986E08C93A289B3898C91EA
:1024E00080618C93A289B3898C9188608C93A28936
:1024F000B3898C9180688C930288F389E02D808168
:102500008F7D808308952091460690914506213263
:1025100008F04AC0809122068111FCCF32E030934E
:10252000220631E0309321063FEF309320061092CF
:102530001F0620931E06A5E2B6E04EEF55E0FA0115
:102540003E2F341B321718F43D913193F9CF10927E
:10255000FD052091FD05990F922B9093FD0590911B
:10256000FC05913061F41092FC059091FD0590936B
:10257000BB009091BC0093FDF8CF95EC01C095EEA7
:102580009093BC00909122069230E1F39091200646
:102590009F3F79F080912006803241F080912006A3
:1025A000803331F084E005C081E003C082E001C0E7
:1025B00083E0109224061092460610922306089596
:1025C000EF92FF921F93CF93DF931F92CDB7DEB7A9
:1025D000162F92E0E92E9AE0F92ED7011C969C91D5
:1025E0001C9721E020932306909345061092240621
:1025F000109246061A960D90BC91A02DED91FC917B
:1026000011970190F081E02D682FCD017983199504
:10261000F70182859385DC01ED91FC910190F081B9
:10262000E02D7981672F1995F70182859385DC016B
:10263000ED91FC910190F081E02D612F19950F90A3
:10264000DF91CF911F91FF90EF900C9483128F92A6
:102650009F92AF92BF920F931F93CF93DF93CDB70B
:10266000DEB7A1970FB6F894DEBF0FBECDBF19A29B
:10267000423008F44AE08E010F5D1F4F842E912CEA
:10268000A12CB12CA50194010E94F41BE62FB901E5
:10269000CA0101501109EA3014F4E05D01C0E95C9F
:1026A000D801EC93232B242B252B61F7C8010E9422
:1026B0003B12A1960FB6F894DEBF0FBECDBFDF91DF
:1026C000CF911F910F91BF90AF909F908F900895E1
:1026D000CF92DF92EF92FF92CF93DF936B017C0159
:1026E000E0918D07F0918E070190F081E02D6DE271
:1026F0008DE897E01995EC0166277727CB016C19D7
:102700007D098E099F094AE00E9427138C0F9D1FA7
:10271000DF91CF91FF90EF90DF90CF900895CF930E
:10272000DF93BC01990F880B990B97FF03C00E94A0
:10273000681303C04AE00E942713EC018EE094E086
:102740000E943B128C0F9D1FDF91CF910895CF9374
:10275000DF93CDB7DEB7C859D1090FB6F894DEBF05
:102760000FBECDBF789484B5826084BD84B581608E
:1027700084BD85B5826085BD85B5816085BD80914C
:102780006E00816080936E001092810080918100C4
:1027900082608093810080918100816080938100BC
:1027A000809180008160809380008091B10084607E
:1027B0008093B1008091B00081608093B0008091DF
:1027C000910082608093910080919100816080935C
:1027D0009100809190008160809390008091A10091
:1027E00082608093A1008091A10081608093A1000C
:1027F0008091A00081608093A0008091210182607F
:102800008093210180912101816080932101809139
:10281000200181608093200180917A008460809300
:102820007A0080917A00826080937A0080917A00A9
:10283000816080937A0080917A00806880937A002A
:102840001092C1000E945B1261E08091030A0E9415
:10285000371160E08091030A0E94071160E08091C7
:10286000020A0E94371187E496E090930D0A809344
:102870000C0A1092AD051092AC051092240610922D
:1028800046061092220681E0809321061092FC05F4
:1028900061E084E10E94071161E085E10E94071177
:1028A0008091B9008E7F8093B9008091B9008D7FAF
:1028B0008093B90088E48093B80085E48093BC00DD
:1028C00080E090E1A0E0B0E080930F0A9093100ABE
:1028D000A093110AB093120A8AE090E0A0E0B0E061
:1028E0008093130A9093140AA093150AB093160AC2
:1028F00080E090E0A0E0B0E48093170A9093180A7B
:10290000A093190AB0931A0A60E070E185E00E9472
:10291000E0126FE979E380E00E94E0120FE11AE033
:10292000A12CB12CC12CD12C24EA422E22E0522E13
:102930003AEE632E32E0732E4BEC842E47E0942E59
:1029400096012E5F354F1901D90114969C91149769
:1029500012968C91F501EE5FF54F7F01818F928F7A
:1029600061E00E94371161E0D7015A968C910E9474
:102970003711F10190858681D8018C93F701968FEC
:1029800061E00E94371160E0D7015E968C910E9451
:10299000371161E0F80180810E940711FFB6F894B9
:1029A00080911F04811125C0F2018491F30194915B
:1029B000E82FF0E0EE0FFF1FE55CFD4FA591B4910D
:1029C0008C91982321F461E085E30E94071161E076
:1029D00085E30E9437118CB580618CBD8CB5806415
:1029E0008CBD61E084E30E94371161E083E30E94C3
:1029F000371180911F048F5F80931F04FFBEC401B5
:102A00000197F1F760E0D8018C910E94071188E8E6
:102A10000E943F0E83E00E943F0E61E0F80180813A
:102A20000E940711C4010197F1F7C8010E94460EE8
:102A3000F2E0AF0EB11C0E5F1F4FCA94CD2821F0FB
:102A4000CC24C394D12C7CCF07E21AE0B4E0FB2E57
:102A5000F00E60E0D8018D918D010E943711F012C7
:102A6000F8CF66E3E62E6AE0F62E03E31AE075E09F
:102A7000A72EECE0CE2EF2E09F2EA2E0BA2EB00EF2
:102A8000F8013897D080F80180818C3008F046C07A
:102A900061E08D2D0E943711D8018C91A89EF00124
:102AA0001124E450F74F9D2D9F732081207CD22E5E
:102AB000D92AD082138214826C2D0E94251CBCE07E
:102AC0008B9FA001112420E030E0B901640F751F35
:102AD000A69EF001A79EF00D1124E450F74F9081BF
:102AE00096FD12C02F5F3F4F2C30310571F78111D9
:102AF0000BC010928000909281001092850010927D
:102B0000840096BA90926F00D801EC91AE9EF001CD
:102B10001124E450F74F808180648083F80132975C
:102B2000908132978081F70131978083F7019083FC
:102B300060E00E94371161E0D7018C910E9437114B
:102B400060E0F70180810E9407110F5F1F4FF2E0E4
:102B5000EF0EF11CB01294CFF8941092200189E08E
:102B60008093210180E293E09093290180932801D2
:102B7000109225011092240182E0809373007894D2
:102B800080932A0810922E0880912B0860E00E9402
:102B9000371160E08BE00E94371160E08CE00E940A
:102BA000371160E08DE00E94371160E08EE00E94F6
:102BB000371160E08FE00E94371161E081E30E94ED
:102BC000371161E085E30E94371161E082E30E94E2
:102BD00037110E945B1280913504811145C010921B
:102BE0002704109226048FEF80932A0480932B04ED
:102BF00080932C0480932D0480932E0480932F04C3
:102C000081E08093300410923204109231041092CB
:102C10002904109228048091220490912304892B86
:102C200031F484E294E09093230480932204E091B1
:102C30002004F0912104309721F084E294E0958300
:102C4000848384E294E09093210480932004109282
:102C500034041092330487EB92E090932504809320
:102C6000240481E080933504E0912404F09125044C
:102C70000480F581E02D84E294E019958DE394E0E1
:102C8000909327048093260488E790E09093320481
:102C900080933104E0912404F09125040284F385AB
:102CA000E02D84E294E01995009729F19C0140E021
:102CB00050E060E472E48FE090E00E94C21B722F4B
:102CC000632F00913C0A10913D0A20913E0A3091F9
:102CD0003F0A872F962FDA0180179107A207B307C3
:102CE00010F4D901C80180933C0A90933D0AA09347
:102CF0003E0AB0933F0A8FEF80932A0480EB8093C3
:102D00002B0480EF80932C0484E68093390A6AE5D3
:102D100080E00E949B046AE581E00E949B0433E00E
:102D2000432E512C66246394712C52E0252E312CB5
:102D300000E010E086E090E00E94DB08F82E85E0DD
:102D400090E00E94DB08882359F00F5F1F4FC801F5
:102D5000B2010E94311C60E070E001960E94030203
:102D6000FF2041F3C801B2010E94311C4C0164E113
:102D700081E00E949B0466E980E00E949B048FEB47
:102D800093E00E944D128BE00E9473110E948F13FA
:102D900089EC93E00E944D128CE00E9473110E9416
:102DA0008F1383ED93E00E944D128DE00E9473110A
:102DB0000E948F1360ED77E080E090E00E94B711F1
:102DC0008DED93E00E944D1210921704109216049C
:102DD000109215041092140470921304609212045D
:102DE000EBE0F2E0DE01119688E501900D928A9504
:102DF000E1F7E3E6F2E0DE01A758BF4F80E2019081
:102E00000D928A95E1F7E3E8F2E0DE01A75ABF4FA1
:102E100080E201900D928A95E1F78114910489F482
:102E20000E94D11A6EE070E00E94311C8C010E9459
:102E30008F1323E0000F111F2A95E1F7E1E0F0E086
:102E400025C021E08216910489F40E94D11A68E01D
:102E500070E00E94311C8C010E948F1393E0000FE0
:102E6000111F9A95E1F7E9E7F0E010C00E94D11A2E
:102E700066E070E00E94311C8C010E948F1383E099
:102E8000000F111F8A95E1F7E9E5F0E0EC0FFD1F57
:102E9000E00FF11F00811181C280D380E480F580B2
:102EA000A680B780C8010E948F13C6010E948F13AD
:102EB000C7010E948F13C5010E948F1361E070E06B
:102EC000C40101960E9403020E94450380911604EA
:102ED00090911704019690931704809316040E9412
:102EE00098020E9445038091140490911504019664
:102EF00090931504809314040E94E40268EB7BE035
:102F000080E090E00E94B711E016F1068CF5B60162
:102F1000C8010E94F8038091160490911704E816E6
:102F2000F90664F4809112049091130482309105A3
:102F300009F44CC0019711F40E944E0268E781E049
:102F40000E949B04B501C7010E94F80380911204FE
:102F500090911304009719F40E94980204C00297FC
:102F600011F40E94E4026CE380E00E949B0441C0E3
:102F70000E151F0524F5B501C7010E94F8038091C5
:102F80001604909117040817190774F4809112041D
:102F9000909113048230910519F40E94E40204C058
:102FA000019711F40E944E0268E781E00E949B04A1
:102FB00068EB7BE080E090E00E94B71117C0CA1474
:102FC000DB043CF4B601C8010E94F8030E94E4024D
:102FD000B5CFAC14BD046CF4B501C7010E94F80371
:102FE0000E94E40268E781E00E949B04B601C801E8
:102FF000ABCF85EF93E00E944D1280911604909123
:10300000170402972CF00E9445030E942603F5CF77
:103010008AEF93E00E944D12809114049091150460
:103020008130910539F40E9498020E9445030E9464
:10303000E40208C0029741F40E94E4020E944503A2
:103040000E9498020E94450340E050E060E070E872
:103050008DE19AE00E947E0C40E050E0BA018BE1E5
:103060009AE00E947E0C68E873E180E090E00E94A4
:10307000B71182E094E00E944D124DEC5CEC6CE4E0
:103080007EE38DE19AE00E947E0C4DEC5CEC6CE4FA
:103090007EE38BE19AE00E947E0C68E978E080E0B4
:1030A00090E00E94B71140E050E0BA018BE19AE055
:1030B0000E947E0C40E050E060E070E88DE19AE014
:1030C0000E947E0C8091120490911304813091052E
:1030D00039F483E090E0909313048093120415C0B8
:1030E000009729F430921304209212040EC082300B
:1030F000910529F4109213041092120406C003974C
:1031000021F4709213046092120480911204909141
:1031100013040E948F130E941D0A0ACE8091390960
:1031200090913A090C94381D10924A061092490663
:1031300088EE93E0A0E0B0E080934B0690934C06BD
:10314000A0934D06B0934E0621ED32E03093480631
:103150002093470610925606109255068093570604
:1031600090935806A0935906B0935A0623EE32E086
:10317000309354062093530645E351E05093600684
:1031800040935F0644E351E050936206409361062A
:1031900040E351E0509364064093630641E351E0FD
:1031A000509366064093650642E351E050936806EB
:1031B0004093670646E351E050936A0640936906E0
:1031C00010926C0610926D0610926E0610926F06A9
:1031D0001092F3061092F2068093F4069093F5068F
:1031E000A093F606B093F7063093F1062093F0060D
:1031F00045ED50E05093FD064093FC0644ED50E051
:103200005093FF064093FE0640ED50E050930107B7
:103210004093000741ED50E05093030740930207AD
:1032200042ED50E0509305074093040746ED50E00F
:1032300050930707409306071092090710920A0758
:1032400010920B0710920C071092900710928F07A4
:103250008093910790939207A0939307B09394075C
:1032600030938E0720938D0785EC90E090939A071A
:103270008093990784EC90E090939C0780939B0740
:1032800080EC90E090939E0780939D0781EC90E006
:103290009093A00780939F0782EC90E09093A20701
:1032A0008093A10786EC90E09093A4078093A307F6
:1032B0001092A6071092A7071092A8071092A907CC
:1032C00086E38093230A87E38093240A88E380932C
:1032D000250A89E38093260A8BE18093270A8DE1F2
:1032E0008093280A8AE18093290A8CE180932A0A34
:1032F00084E080932B0A87E080932C0A10922D0A99
:1033000084EB80932E0A86E180932F0A88E18093D4
:10331000300A87E18093310A89E18093320AE09193
:103320003809EC3020F08FEF8093330A10C081E031
:103330008E0F80933809E093330A25E0E29FF00175
:103340001124E450F74F88EB9BE092838183E09156
:103350003809EC3020F08FEF8093340A10C081E000
:103360008E0F80933809E093340A85E0E89FF001DE
:103370001124E450F74F88EB9BE0928381838CE02B
:103380008093020A84E28093030A86E08093040A11
:1033900085E08093050A8FE18093060A8EE1809391
:1033A000070A83E28093080A82E28093090A85E48F
:1033B00080930A0A84E480930B0A80E480930E0AC7
:1033C0001092130A1092140A1092150A1092160AFB
:1033D0001092170A1092180A1092190A10921A0ADB
:1033E000E4E4F9E08FEF9FEFDC0112821382148294
:1033F0001582168217821086118683879487A58787
:10340000B6878787908BA18BB28B12861182108230
:1034100073962AE0E230F20741F78DE090E00E94D7
:10342000A31CFC011382128285EF92E091838083BA
:10343000118687E2848384E1828784E0838714860F
:10344000F0934109E0934009109242091092430918
:1034500085E280932B0810922D0810923A09109261
:10346000390910923C0910923B0910923E091092C2
:103470003D0961E070E080E090E00E94D01D00977F
:1034800089F090933A098093390910923C0910927F
:103490003B0920913D0930913E09232B71F5FC0138
:1034A00010822BC08091390990913A09009711F050
:1034B0000E94381D10923A091092390910923E0963
:1034C00010923D0910923C0910923B098FEF8093B6
:1034D000390A10923B0A10923A0A1092450A109249
:1034E000440A8FEF9FEFDC018093400A9093410ADA
:1034F000A093420AB093430A089510923E09109295
:103500003D0960E174E00E94C71EE0CF8F929F9258
:10351000AF92BF92CF92DF92EF92FF92CF93DF9361
:10352000EC01688179818A819B8161157105810532
:10353000910521F464E279ED8BE597E02DE133EF1D
:1035400041E050E00E94C21B49015A019B01AC01BD
:10355000A7EAB1E40E94E11B6B017C01ACEEB4EF81
:10356000A50194010E94EF1BDC01CB018C0D9D1D78
:10357000AE1DBF1DB7FF03C00197A109B0488883E6
:103580009983AA83BB839F77DF91CF91FF90EF90C0
:10359000DF90CF90BF90AF909F908F9008950C9444
:1035A000861A81E092E00C94861AA0E0B0E0809345
:1035B000010290930202A0930302B09304020895C3
:1035C000990F0008550FAA0BE0E8FEEF1616170634
:1035D000E807F907C0F012161306E407F50798F09C
:1035E000621B730B840B950B39F40A2661F0232BB5
:1035F000242B252B21F408950A2609F4A140A69531
:103600008FEF811D811D08950E94171B0C94881B4C
:103610000E947A1B38F00E94811B20F0952311F044
:103620000C94711B0C94771B11240C94BC1B0E94EE
:10363000991B70F3959FC1F3950F50E0551F629F42
:10364000F001729FBB27F00DB11D639FAA27F00DFB
:10365000B11DAA1F649F6627B00DA11D661F829F22
:103660002227B00DA11D621F739FB00DA11D621F07
:10367000839FA00D611D221F749F3327A00D611D24
:10368000231F849F600D211D822F762F6A2F112406
:103690009F5750409AF0F1F088234AF0EE0FFF1F39
:1036A000BB1F661F771F881F91505040A9F79E3F90
:1036B000510580F00C94711B0C94BC1B5F3FE4F32C
:1036C000983ED4F3869577956795B795F795E795E6
:1036D0009F5FC1F7FE2B880F911D9695879597F9EF
:1036E000089597F99F6780E870E060E008959FEF84
:1036F00080EC089500240A94161617061806090689
:10370000089500240A941216130614060506089557
:10371000092E0394000C11F4882352F0BB0F40F4DF
:10372000BF2B11F460FF04C06F5F7F4F8F4F9F4F1F
:10373000089557FD9058440F551F59F05F3F71F0A1
:103740004795880F97FB991F61F09F3F79F0879508
:103750000895121613061406551FF2CF4695F1DF91
:1037600008C0161617061806991FF1CF8695710521
:10377000610508940895E894BB2766277727CB0155
:1037800097F90895052E97FB1EF400940E94D91B0B
:1037900057FD07D00E94F41B07FC03D04EF40C9495
:1037A000D91B50954095309521953F4F4F4F5F4F16
:1037B000089590958095709561957F4F8F4F9F4F9D
:1037C00008950E94161CA59F900DB49F900DA49F74
:1037D000800D911D11240895B7FF0C94E11B0E94E8
:1037E000E11B821B930B0895A1E21A2EAA1BBB1B9F
:1037F000FD010DC0AA1FBB1FEE1FFF1FA217B307BD
:10380000E407F50720F0A21BB30BE40BF50B661FD2
:10381000771F881F991F1A9469F760957095809596
:1038200090959B01AC01BD01CF010895A29FB0010D
:10383000B39FC001A39F700D811D1124911DB29FE4
:10384000700D811D1124911D0895991B79E004C00C
:10385000991F961708F0961B881F7A95C9F78095CF
:10386000089597FB072E16F4009407D077FD09D032
:103870000E94541C07FC05D03EF4909581959F4F03
:103880000895709561957F4F0895EE0FFF1F881F73
:103890008BBF0790F691E02D19940E94161CB7FF7C
:1038A0000895821B930B0895AA1BBB1B51E107C00F
:1038B000AA1FBB1FA617B70710F0A61BB70B881FC0
:1038C000991F5A95A9F780959095BC01CD0108954F
:1038D0000E946F1C6894B1110C94BC1B08950E9447
:1038E000A11B88F09F5798F0B92F9927B751B0F0D6
:1038F000E1F0660F771F881F991F1AF0BA95C9F774
:1039000014C0B13091F00E94BB1BB1E008950C943B
:10391000BB1B672F782F8827B85F39F0B93FCCF3EE
:10392000869577956795B395D9F73EF490958095F0
:10393000709561957F4F8F4F9F4F08950E94E01AB9
:1039400008F48FEF0895CF93DF938230910510F440
:1039500082E090E0E091480AF091490A20E030E0EE
:10396000C0E0D0E0309711F14081518148175907EC
:10397000C0F04817590761F482819381209719F0AC
:103980009B838A832BC09093490A8093480A26C060
:103990002115310519F04217530718F49A01BE0199
:1039A000DF01EF010280F381E02DDCCF211531052D
:1039B00009F1281B390B2430310590F412968D91B2
:1039C0009C9113976115710521F0FB01938382830C
:1039D00004C09093490A8093480AFD01329644C07E
:1039E000FD01E20FF31F81939193225031092D9332
:1039F0003C933AC02091460A3091470A232B41F468
:103A000020910702309108023093470A2093460A1A
:103A100020910502309106022115310541F42DB7A0
:103A20003EB74091090250910A02241B350BE091E8
:103A3000460AF091470AE217F307A0F42E1B3F0B4A
:103A40002817390778F0AC014E5F5F4F2417350710
:103A500048F04E0F5F1F5093470A4093460A8193E8
:103A6000919302C0E0E0F0E0CF01DF91CF910895A3
:103A70000F931F93CF93DF93009709F48CC0FC0141
:103A80003297138212820091480A1091490A011557
:103A9000110581F420813181820F931F2091460A04
:103AA0003091470A2817390779F5F093470AE093D0
:103AB000460A71C0D80140E050E0AE17BF0750F48D
:103AC00012962D913C911397AD012115310509F105
:103AD000D901F3CF9D01DA013383228360817181A3
:103AE000860F971F8217930769F4EC0128813981AB
:103AF000260F371F2E5F3F4F318320838A819B81A2
:103B000093838283452B29F4F093490AE093480A72
:103B100042C01396FC93EE931297ED01499159918F
:103B20009E01240F351FE217F30771F48081918104
:103B3000840F951F029611969C938E938281938198
:103B400013969C938E931297E0E0F0E0D8011296C2
:103B50008D919C911397009719F0F8018C01F6CF85
:103B60008D919C9198012E5F3F4F820F931F209162
:103B7000460A3091470A2817390769F4309729F423
:103B80001092490A1092480A02C0138212821093BE
:103B9000470A0093460ADF91CF911F910F91089534
:103BA0006F927F928F929F92AF92BF92CF92DF924D
:103BB000EF92FF920F931F93CF93DF93EC01009747
:103BC00089F4CB01DF91CF911F910F91FF90EF907E
:103BD000DF90CF90BF90AF909F908F907F906F902D
:103BE0000C94A31CFC01E60FF71F9C012250310925
:103BF000E217F30708F4ACC0D9010D911C9111979D
:103C000006171707B0F00530110508F49FC0C8016A
:103C100004978617970708F499C002501109061BEC
:103C2000170B019311936D937C93CF010E94381D64
:103C30008DC05B01A01AB10A4C01800E911EA091AB
:103C4000480AB091490A40E050E0E12CF12C10976D
:103C500009F44AC0A815B905D1F56D907C9011976B
:103C6000630182E0C80ED11CCA14DB0480F1A301F9
:103C70004A195B096A0182E0C80ED11C1296BC90F9
:103C800012971396AC91B5E0CB16D10440F0B282F6
:103C9000A38351834083D9016D937C930AC00E5F47
:103CA0001F4FC301800F911FF90191838083EB2D7A
:103CB000FA2FE114F10431F0D7011396FC93EE933F
:103CC000129744C0F093490AE093480A3FC08D918F
:103CD0009C9111974817590708F4AC017D01129681
:103CE0000D90BC91A02DB3CF8091460A9091470AC8
:103CF00088159905E1F446175707C8F48091050225
:103D000090910602009741F48DB79EB74091090249
:103D100050910A02841B950BE817F907C8F4F09339
:103D2000470AE093460AF901718360830FC0CB0113
:103D30000E94A31C7C01009759F0A801BE010E94BB
:103D4000BE1ECE010E94381DC70104C0CE0102C0B4
:103D500080E090E0DF91CF911F910F91FF90EF9065
:103D6000DF90CF90BF90AF909F908F907F906F909B
:103D7000089581E090E0F8940C94CE1EFB01DC01E4
:103D800002C001900D9241505040D8F70895FB01B8
:103D9000DC0101900D920020E1F7089511E0C2EAE4
:103DA000D1E000E006C0802FFE010E94451C219654
:103DB000011DC33AD10780E00807A9F7F894FFCFA7
:103DC000FF0100000000004A0A2000020001000379
:103DD00000020002000200030001000200010002D4
:103DE00000020002000200020001000100010003C5
:103DF00000010003000100010001000200020001B7
:103E000000020001000200030002000300020001A2
:103E10000002000200010003000100020002000392
:103E20000002000100020002000200010001000285
:103E30000001000300010002000100030002000273
:103E4000000200030001000300020003000200035F
:103E50000001000300010002000200030002000252
:103E600000010000000000390539053905D601FCC4
:103E70000100020000000098085408DD05D601FC8E
:103E800001DA05E30506000D000C000B0000000040
:103E900000460F160F4B0AF00E0E0FFF0EF10E002C
:103EA000000000B409F4083809FB09690947095BF7
:103EB0000900000000760AF4084B0A4A0A31003271
:103EC000003300466F6E6374696F6E2043616C63EC
:103ED000756C6572506F736974696F6E58203A0023
:103EE000494E54455253454354494F4E00466F6E18
:103EF0006374696F6E20706F736974696F6E6E653D
:103F00007242616C6C65203A0042616C6C655820AD
:103F10003A00706F736974696F6E58203A0042619D
:103F20006C6C6559203A00706F736974696F6E59D3
:103F3000203A00466F6E6374696F6E2043616C6354
:103F4000756C6572506F736974696F6E59203A00B1
:103F5000496E76616C696420736572766F2069645E
:103F60002100536572766F20616E676C65206973FE
:103F7000206F7574206F662072616E676521004442
:103F8000726F697465203A20004761756368652027
:103F90003A200043656E747265203A2000466F6EC9
:103FA0006374696F6E204C616E63657250617274E8
:103FB0006965203A004E69636500426F6E6A6F75ED
:103FC00072003138302064656772C3A973000D0A2E
:023FD0000000EF
:00000001FF
