:100000000C946F010C94A0010C94A0010C94A0011D
:100010000C94A0010C94A0010C94A0010C94A001DC
:100020000C94A0010C9482070C9482070C94820714
:100030000C94A0010C94740A0C94A0010C94A001DF
:100040000C94A0010C94540E0C94A0010C94A001EB
:100050000C94A0010C94A0010C94A0010C942A0A09
:100060000C94A0010C94E50B0C94BB0B0C94A00118
:100070000C94A0010C94A0010C94A0010C94A0017C
:100080000C94A0010C94A0010C94A0010C94A0016C
:100090000C94A0010C94A0010C94A0010C948C076A
:1000A0000C94A0010C94A0010C94A0010C94A0014C
:1000B0000C94A0010C94A0010C94A0010C946D0D63
:1000C0000C94A0010C94A0010C94A0010C94910B31
:1000D0000C94670B0C94A0010C943D0B0C94130B27
:1000E0000C94A001D908DC08CB08CF08D508130967
:1000F000E008E408EA08EE08F208F808FC0800093D
:10010000130906090A090E090C94E0080C94D90891
:100110000C94400C0C94DC080C946B040C94320C82
:100120000C94DF090C940E090C94790C0C94AF0616
:100130000C945A060C94EE080C94CD010C94D10149
:100140000C9406090C9477060C94500F0C94CB0871
:100150000C947A0C0C9413090C940A0A0C946806FB
:100160000C94040D0C94A2010C944B0D0C94F20809
:100170000C94A5010C94A7010C944F140C940F0C33
:100180000C94A50C0C9427040C9459060C94EA08C2
:100190000C947F060C94CF080C940A090C94000967
:1001A0000C941E0C0C94FC080C94D4010C94E408E0
:1001B0000C94D5080C94F8080000210024002700B6
:1001C0002A002D0030003300010100000401070166
:1001D0000A0100002200250028002B002E0031001B
:1001E000340002010000050108010B0105050505A9
:1001F000070508080808020202020A0A080804049F
:1002000004040101010101010101030303030303CC
:100210000303040707070C0C0C0C0C0C0C0C02025B
:10022000020206060606060606060B0B0B0B0B0B58
:100230000B0B0102102020080810204010204080E5
:10024000020102010804020101020408102040809A
:100250008040201008040201800402018040201028
:100260000804020108040201010204081020408071
:10027000010204081020408000000A0B02090C0D46
:100280000E08070304010000000000000000000049
:10029000000000000000000000000000000000005E
:1002A000000000001211100000000000000000001B
:1002B000000000000000000000000000000002003C
:1002C0000020002300260029002C002F003200000F
:1002D00001000003010601090100500F4F14112411
:1002E0001FBECFEFD1E2DEBFCDBF00E00CBF12E0FA
:1002F000A0E0B2E0E0E8FEE200E00BBF02C0079041
:100300000D92AA35B107D9F728E0AAE5B2E001C0FD
:100310001D92AF3AB207E1F711E0CEE6D1E000E07E
:1003200006C021970109802FFE010E94E014CD36FE
:10033000D10780E00807A9F70E9442110C942E17FC
:100340000C94000080E991E008959D9A0895CF9360
:10035000DF9300D000D0CDB7DEB7AB011C821D8289
:100360001E82DC01ED91FC910190F081E02D19825B
:100370001A821B829E012F5F3F4FBE016C5F7F4F31
:10038000199526960FB6F894DEBF0FBECDBFDF914C
:10039000CF910895E0E0F0E01994FC018585968501
:1003A000089580E090E008954F925F926F927F925F
:1003B0008F92AF92BF92CF92EF92FF920F931F93C3
:1003C000CF93DF933C01EB010E948009F301278565
:1003D0003089621B730B6A307105B0F3F894E881C1
:1003E000F98154B3506284B38F7D84BB6A859F8149
:1003F000262F291B922F2F83BF844A805B807D8507
:10040000FC84EE847F5FF394E3943E814885A98465
:10041000CB841181D20120E0C32F022F322F3181F2
:10042000112788943111390F08F43FEF9195889482
:1004300070FD130F1795889471FD130F179588940D
:1004400072FD130F1795889473FD130F17958894F9
:1004500074FD130F1795889475FD130F17958894E5
:1004600076FD130F1795889477FD130F17958894D1
:10047000232F7111212F960F122F002C54BB00C077
:1004800000C017FF84BB30812227889400C0002C55
:1004900084BB31113C0F00C0002C54BB00C000C015
:1004A00016FF84BB08F43FEFC195889400C0002C70
:1004B00084BBF0FC230F00C0002C54BB00C000C064
:1004C00015FF84BB27958894F1FC230F00C0002CF6
:1004D00084BB2795889400C0002C54BB00C000C08A
:1004E00014FF84BBF2FC230F2795889400C0002CD6
:1004F00084BBF3FC230F00C0002C54BB00C000C021
:1005000013FF84BB27958894F4FC230F00C0002CB4
:1005100084BB2795889400C0002C54BB00C000C049
:1005200012FF84BBF5FC230F2795889400C0002C94
:1005300084BBF6FC230F00C0002C54BB00C000C0DD
:1005400011FF84BB27958894F7FC230F00C0002C73
:1005500084BB2795889400C0002C54BB00C000C009
:1005600010FF84BB132FF110122FCA0D00C0002CF6
:1005700084BB00C000C0002C54BB00C000C017FFEB
:1005800084BB32812227889400C0002C84BB3111A7
:10059000340F00C0002C54BB00C000C016FF84BB49
:1005A00008F43FEFEB0DF11D00C0002C84BBE0FC14
:1005B000230F00C0002C54BB00C000C015FF84BB3B
:1005C00027958894E1FC230F00C0002C84BB27955D
:1005D000889400C0002C54BB00C000C014FF84BB32
:1005E000E2FC230F2795889400C0002C84BBE3FC19
:1005F000230F00C0002C54BB00C000C013FF84BBFD
:1006000027958894E4FC230F00C0002C84BB279519
:10061000889400C0002C54BB00C000C012FF84BBF3
:10062000E5FC230F2795889400C0002C84BBE6FCD2
:10063000230F00C0002C54BB00C000C011FF84BBBE
:1006400027958894E7FC230F00C0002C84BB2795D6
:10065000889400C0002C54BB00C000C010FF84BBB5
:10066000132FE110122F419500C0002C84BB4C0DBC
:1006700000C000C054BB00C000C017FF84BB318164
:100680002227889400C0002C84BB3111390F00C090
:10069000002C54BB00C000C016FF84BB08F43FEF21
:1006A0009195889400C0002C84BB70FD230F00C07E
:1006B000002C54BB00C000C015FF84BB2795889454
:1006C00071FD230F00C0002C84BB2795889400C0C7
:1006D000002C54BB00C000C014FF84BB72FD230F6C
:1006E0002795889400C0002C84BB73FD230F00C0A5
:1006F000002C54BB00C000C013FF84BB2795889416
:1007000074FD230F00C0002C84BB2795889400C083
:10071000002C54BB00C000C012FF84BB75FD230F2A
:100720002795889400C0002C84BB76FD230F00C061
:10073000002C54BB00C000C011FF84BB27958894D7
:1007400077FD230F00C0002C84BB2795889400C040
:10075000002C54BB00C000C010FF84BB132F7111CC
:10076000122F960F00C0002C84BB119709F086CE83
:1007700020EE31E0D2010E94E814DC01CB01F4E06C
:10078000B695A79597958795FA95D1F720E030E033
:10079000A9016AE9469E040C411D569E400D511D5B
:1007A0001124450D511D840F951FA11DB11D893EBA
:1007B00043E09407A105B10508F434C0885E934076
:1007C000A109B10942E0B695A795979587954A95F5
:1007D000D1F747E0849F080E211D949F200D311D05
:1007E0001124290F311D60917D0270E0860F971F43
:1007F000820F931F40918108509182086091830875
:1008000070918408292F3327420F531F611D711DDA
:100810004093810850938208609383087093840802
:1008200080937D0278940E948009F301708B678722
:10083000DF91CF911F910F91FF90EF90CF90BF90DC
:10084000AF908F907F906F905F904F9008950F932F
:100850001F93CF93DF93CDB7DEB762970FB6F894AF
:10086000DEBF0FBECDBF8C01F901DC011C968C915F
:100870007A8369835C834B835E834D8390819D87FC
:1008800091819E8792819F87813029F4CE010196C4
:100890000E94030F06C01C861B861A8619861886BE
:1008A0001F8283E0888B1A8A198AD801ED91FC9106
:1008B0000484F585E02DBE016F5F7F4FC801199557
:1008C00062960FB6F894DEBF0FBECDBFDF91CF9119
:1008D0001F910F9108950F931F93CF93DF93CDB77F
:1008E000DEB762970FB6F894DEBF0FBECDBF8C01A6
:1008F000F901DC011C968C917A8369835C834B83BC
:100900005E834D8390819D8791819E8792819F8791
:10091000813029F4CE0101960E94030F06C01C8687
:100920001B861A86198618861F82188A1A8A198ABF
:10093000D801ED91FC910484F585E02DBE016F5F37
:100940007F4FC801199562960FB6F894DEBF0FBEAF
:10095000CDBFDF91CF911F910F9108952F923F92BC
:100960004F925F926F927F928F929F92AF92BF92BF
:10097000CF92DF92EF92FF920F931F93CF93DF936B
:1009800000D000D0CDB7DEB78130910529F00297B5
:1009900031F480E090E005C080E09FEF02C080E08D
:1009A00090E8092E000CAA0BBB0BCA2EB92E04E24C
:1009B00017E0A9E1B7E0E8E6F1E01D923197E9F729
:1009C000F8013297C0823196B082D8011C923497D8
:1009D000C0823196B082319610823597C0823196AE
:1009E000B08231961082D0907D06809180069091E1
:1009F0008106A0918206B0918306892B8A2B8B2BCE
:100A0000E9F00E9480094090790250907A0260904B
:100A10007B0270907C02DC01CB0184199509A60948
:100A2000B7094090800650908106609082067090D1
:100A3000830684159505A605B705B8F20E948009BE
:100A40006093790270937A0280937B0290937C0288
:100A5000E0918806F0918906309759F0409184061C
:100A60005091850660918606709187068D2D1995A7
:100A7000D82EE0901707F09018074D2C512C612CC0
:100A8000712CE114F10409F469C0F701F485FC83C9
:100A900080917E0690917F068436910518F4D701E7
:100AA0001C961C92D701ED91FC91828193819E83CB
:100AB0008D8319821A821B82D1101AC0D7011D960C
:100AC0004D915C911E9712966D917C9113979E01AA
:100AD0002F5F3F4FC701ED81FE811995EC81D70152
:100AE0001C96EC931C971496ED90FC901597C9CF2B
:100AF000F7013996CE0101964C0117019CE0290EB1
:100B0000311CDF011397AC902191AA2001F122231F
:100B1000F1F0822F90E0A0E0B0E09C01AD012F5FEA
:100B20003F4F4F4F5F4FC301B2010E94B0149B0172
:100B3000AC018A2D90E0A0E0B0E0BC01CD016F5F78
:100B40007F4F8F4F9F4F0E94B014D4018C93BFEF03
:100B50008B1A9B0AE215F305A1F6B0CF80917702BC
:100B6000909178029C012F5F3F4F30937802209341
:100B7000770249970CF445C08FB7F894209181080B
:100B80003091820840918308509184088FBF8091F2
:100B9000770290917802E8EEF3E08E9FB0018F9F8C
:100BA000700D9E9F700D1124072E000C880B990B61
:100BB00040907302509074026090750270907602BB
:100BC00024193509460957090E947F1430937F067E
:100BD00020937E0610927802109277022FB7F89435
:100BE0008091810890918208A0918308B091840837
:100BF0002FBF8093730290937402A0937502B093F9
:100C000076026AE070E080E090E00E94A5090D5F46
:100C10001F4FF8E003381F0709F0CBCE26960FB61A
:100C2000F894DEBF0FBECDBFDF91CF911F910F9122
:100C3000FF90EF90DF90CF90BF90AF909F908F90FC
:100C40007F906F905F904F903F902F90089585ED2B
:100C50008093BC008091BC0084FDFCCF1092860282
:100C600008954091AC06262F30E0240F311D21322B
:100C70003105DCF4209186022430C9F4FC0180E0C7
:100C800090E0861758F43091AC062191DC01A6570C
:100C9000B94FA30FB11D2C930196F3CF8091AC06F1
:100CA000680F6093AC0680E0089581E0089582E0CB
:100CB0000895089581E090E03091830220918202AE
:100CC000321710F480E090E0919581959109089594
:100CD0008091830290918202891730F48F5F809314
:100CE000830280E090E008958FEF9FEF0895809158
:100CF000820290E020918302821B91090895CF9295
:100D0000DF92EF92FF920F931F93CF93DF937C01BB
:100D1000262F972F8A0180918702882391F0C62F72
:100D2000D72F6E01C40ED51ECC15DD0571F069916B
:100D3000D701ED91FC910190F081E02DC70119954B
:100D4000F3CF642F822F0E943106C801DF91CF912B
:100D50001F910F91FF90EF90DF90CF900895CF9368
:100D6000DF931F92CDB7DEB76983209187022223DC
:100D7000D1F020918A02203240F021E030E0FC01E5
:100D80003383228380E090E015C080918802E82FB1
:100D9000F0E0E950F94F998190838F5F809388024A
:100DA00080938A0205C061E0CE0101960E9431065F
:100DB00081E090E00F90DF91CF91089520918A0219
:100DC00090918902213208F04AC0809186028111F7
:100DD000FCCF32E03093860231E0309385023FEF62
:100DE0003093F6061092F5062093F406A7EFB6E0CE
:100DF00044ED56E0FA013E2F341B321718F43D91B2
:100E00003193F9CF1092D3062091D306990F922BEC
:100E10009093D30690918402913061F410928402F1
:100E20009091D3069093BB009091BC0093FDF8CFB6
:100E300095EC01C095EE9093BC00909186029230A3
:100E4000E1F39091F6069F3F79F08091F6068032AB
:100E500041F08091F606803331F084E005C081E0F6
:100E600003C082E001C083E01092880210928A02DF
:100E7000109287020895EF92FF921F93CF93DF9312
:100E80001F92CDB7DEB7162F96E4E92E96E0F92E25
:100E9000D7011C969C911C9721E020938702909388
:100EA00089021092880210928A021A960D90BC91C3
:100EB000A02DED91FC9111970190F081E02D682F0C
:100EC000CD0179831995F70182859385DC01ED9138
:100ED000FC910190F081E02D7981672F1995F70140
:100EE00082859385DC01ED91FC910190F081E02DEC
:100EF000612F19950F90DF91CF911F91FF90EF9087
:100F00000C94DE061F920F920FB60F9211240F90D1
:100F10000FBE0F901F9018951F920F920FB60F9251
:100F200011240BB60F922F933F934F935F936F93C0
:100F30007F938F939F93AF93BF93EF93FF93809192
:100F4000B900887F803609F49CC068F5883209F4BE
:100F50005BC090F4803109F454C038F4882309F45C
:100F6000F6C0883009F44DC0F6C0883109F44CC091
:100F7000803209F45DC0EFC0803409F468C048F4E1
:100F8000803309F455C0883309F0E5C08093F60634
:100F9000D8C0803509F44FC0883509F45DC0883465
:100FA00009F0D9C0D6C0883909F4C7C0A8F4883779
:100FB00009F467C038F4883609F463C0803709F44F
:100FC00060C0C9C0883809F4B8C0803909F45FC06E
:100FD000803809F0C0C05BC0803B09F486C038F49B
:100FE000803A09F466C0883A09F47FC0B4C0803CF6
:100FF00009F4A7C0883C09F4A4C0883B09F48AC05E
:10100000AAC08091D30610C09091F5068091F40695
:10101000981770F5E091F50681E08E0F8093F50644
:10102000F0E0EC52F94F80818093BB0085EC86C0E4
:101030008093F6068EC0E091F50681E08E0F8093D6
:10104000F5068091BB00F0E0EC52F94F808390915F
:10105000F5068091F4066EC0E091F50681E08E0FF2
:101060008093F5068091BB00F0E0EC52F94F80834D
:101070008091850281116DC081E08093840284EAB1
:1010800061C083E0809386021092D006CFCF80911A
:10109000D006803208F051C0E091D00681E08E0F7A
:1010A0008093D0068091BB00F0E0E055F94F80833B
:1010B000BDCF85EC8093BC00109286028091D00653
:1010C000803230F4E091D006F0E0E055F94F108224
:1010D0006091D00670E0E091AE06F091AF0680EB33
:1010E00096E019951092D00636C084E0809386026F
:1010F0001092AD061092AC06E091AA06F091AB06F4
:1011000019958091AC06811105C081E08093AC06F1
:1011100010928A06E091AD0681E08E0F8093AD06B5
:10112000F0E0E657F94F80818093BB009091AD06C7
:101130008091AC06981708F479CF85E88093BC00BD
:101140000AC085EC8093BC001092860204C0109205
:10115000F6060E942706FF91EF91BF91AF919F91F4
:101160008F917F916F915F914F913F912F910F9050
:101170000BBE0F900FBE0F901F90189590E0FC01D2
:101180003197E231F10508F04EC08827EE58FF4F45
:101190008F4F0C94E014809180008F7703C0809172
:1011A00080008F7D80938000089580918000877FEC
:1011B000F9CF84B58F7702C084B58F7D84BD089543
:1011C0008091B0008F7703C08091B0008F7D8093B5
:1011D000B0000895809190008F7707C080919000B3
:1011E0008F7D03C080919000877F80939000089549
:1011F0008091A0008F7707C08091A0008F7D03C0F1
:101200008091A000877F8093A000089580912001A5
:101210008F7707C0809120018F7D03C080912001CE
:10122000877F8093200108951F93CF93DF93282F0A
:1012300030E0F901E858FD4F8491F901EE5CFD4F73
:10124000D491F901E451FE4FC491CC23C9F0162F7B
:1012500081110E94BE08EC2FF0E0EE0FFF1FEE524E
:10126000FE4FA591B4918FB7F894111105C09C91D0
:10127000ED2FE095E92302C0EC91ED2BEC938FBFAD
:10128000DF91CF911F910895CF93DF9390E0FC0100
:10129000EE5CFD4F2491FC01E451FE4F84918823C4
:1012A00061F190E0880F991FFC01E854FE4FC59151
:1012B000D491FC01EE52FE4FA591B491611109C089
:1012C0009FB7F8948881209582238883EC912E2300
:1012D0000BC0623061F49FB7F8943881822F8095FB
:1012E00083238883EC912E2B2C939FBF06C08FB74E
:1012F000F894E8812E2B28838FBFDF91CF9108953A
:101300003FB7F89480917E0290917F02A091800275
:10131000B091810226B5A89B05C02F3F19F0019618
:10132000A11DB11D3FBFBA2FA92F982F8827820F6B
:10133000911DA11DB11DBC01CD0142E0660F771FBB
:10134000881F991F4A95D1F708958F929F92AF9267
:10135000BF92CF92DF92EF92FF926B017C010E94CD
:1013600080094B015C01C114D104E104F104F1F0E6
:101370000E948009DC01CB0188199909AA09BB09DF
:10138000883E9340A105B10570F321E0C21AD1084F
:10139000E108F10888EE880E83E0981EA11CB11CBC
:1013A000C114D104E104F10419F7DDCFFF90EF90EF
:1013B000DF90CF90BF90AF909F908F900895CF9285
:1013C000DF92EF92FF920F931F93CF93DF936C0105
:1013D0007A018B01C0E0D0E0CE15DF0589F0D8019D
:1013E0006D918D01D601ED91FC910190F081E02D80
:1013F000C6011995892B11F47E0102C02196ECCF0C
:10140000C701DF91CF911F910F91FF90EF90DF9077
:10141000CF9008950E94191787E992E00E94400C2E
:1014200021E0892B09F420E0822F089584E393E0E2
:101430000E94400C21E0892B09F420E0822F0895BE
:1014400081ED93E00E94400C21E0892B09F420E01B
:10145000822F08951F920F920FB60F9211242F938F
:101460003F938F939F93AF93BF9380918108909107
:101470008208A0918308B09184083091A80823E0E5
:10148000230F2D3720F40196A11DB11D05C026E8BC
:10149000230F0296A11DB11D2093A80880938108F7
:1014A00090938208A0938308B093840880917E0271
:1014B00090917F02A0918002B09181020196A11DBE
:1014C000B11D80937E0290937F02A0938002B0931F
:1014D0008102BF91AF919F918F913F912F910F907A
:1014E0000FBE0F901F9018951F920F920FB60F927C
:1014F00011240BB60F922F933F934F935F936F93EB
:101500007F938F939F93AF93BF93EF93FF938091BC
:10151000880890918908A0918A08B0918B08892B3E
:101520008A2B8B2B59F180918708E0918508F091E7
:101530008608908189278083809188089091890806
:10154000A0918A08B0918B08181619061A061B0676
:101550000CF056C08091880890918908A0918A0863
:10156000B0918B080197A109B109809388089093E5
:101570008908A0938A08B0938B0842C0809100022A
:10158000EEEBF2E0E4919FEF90930002E230C9F0BD
:1015900050F4EE2399F0E13081F590916F009D7F3A
:1015A00090936F002AC0E43019F1E0F0E53029F59E
:1015B000909173009D7F909373001FC010926E00F6
:1015C0001CC0909170009D7F9093700091E090936B
:1015D000B0009091B100987F94609093B100109208
:1015E000B3000BC0909171009D7F9093710005C076
:1015F000909172009D7F9093720060E00E941409A8
:10160000FF91EF91BF91AF919F918F917F916F91DA
:101610005F914F913F912F910F900BBE0F900FBE96
:101620000F901F9018951F920F920FB60F921124D2
:101630000BB60F922F933F934F935F936F937F93CC
:101640008F939F93AF93BF93EF93FF9387E992E0BC
:101650000E94E30CFF91EF91BF91AF919F918F9109
:101660007F916F915F914F913F912F910F900BBEA2
:101670000F900FBE0F901F9018951F920F920FB6EC
:101680000F9211240BB60F922F933F934F935F93BA
:101690006F937F938F939F93AF93BF93EF93FF933A
:1016A00087E992E00E94CA0CFF91EF91BF91AF9140
:1016B0009F918F917F916F915F914F913F912F916A
:1016C0000F900BBE0F900FBE0F901F9018951F929A
:1016D0000F920FB60F9211240BB60F922F933F93D8
:1016E0004F935F936F937F938F939F93AF93BF932A
:1016F000EF93FF9384E393E00E94E30CFF91EF915B
:10170000BF91AF919F918F917F916F915F914F9119
:101710003F912F910F900BBE0F900FBE0F901F9017
:1017200018951F920F920FB60F9211240BB60F92BD
:101730002F933F934F935F936F937F938F939F93D9
:10174000AF93BF93EF93FF9384E393E00E94CA0C9F
:10175000FF91EF91BF91AF919F918F917F916F9189
:101760005F914F913F912F910F900BBE0F900FBE45
:101770000F901F9018951F920F920FB60F92112481
:101780000BB60F922F933F934F935F936F937F937B
:101790008F939F93AF93BF93EF93FF9381ED93E06C
:1017A0000E94E30CFF91EF91BF91AF919F918F91B8
:1017B0007F916F915F914F913F912F910F900BBE51
:1017C0000F900FBE0F901F9018951F920F920FB69B
:1017D0000F9211240BB60F922F933F934F935F9369
:1017E0006F937F938F939F93AF93BF93EF93FF93E9
:1017F00081ED93E00E94CA0CFF91EF91BF91AF91F0
:101800009F918F917F916F915F914F913F912F9118
:101810000F900BBE0F900FBE0F901F901895FC01FC
:10182000538D448D252F30E0842F90E0821B930B45
:10183000541710F0CF96089501970895FC01918DEB
:10184000828D981761F0828DDF01A80FB11D5D9622
:101850008C91928D9F5F9F73928F90E008958FEF90
:101860009FEF0895FC01918D828D981731F0828D44
:10187000E80FF11D858D90E008958FEF9FEF08959B
:10188000FC01918D228D892F90E0805C9F4F821BFF
:1018900091098F739927089580E090E0892B21F0BA
:1018A0000E94200A811119C080E090E0892B41F04C
:1018B00080E090E0892B21F00E940000811110C08F
:1018C0000E94160A81110FC080E090E0892B81F000
:1018D0000E940C0A81110AC008950E940000E4CF02
:1018E0000E940000EDCF0E94CA01EECF0C940000D0
:1018F0000895089580E090E00895FC01248131E08E
:1019000030938702209389021092880210928A02F3
:101910008485682B8BE892E00E94AF060C94DE066B
:101920000F931F93CF938C01C62F64600E947D0C90
:101930006C2F6B7FC8010E947D0C83EC90E00197B7
:10194000F1F7CF911F910F9108950F931F93CF93AC
:10195000DF938C01C62FD62FD07FD1606D2F0E94D0
:101960007D0C6D2FC8010E94900C80E1C89FB001D2
:101970001124C62FC1606C2FC8010E947D0C6C2FF2
:10198000C8010E94900C81E090E0DF91CF911F91FF
:101990000F910895FC01A089B1898C91A689B7891E
:1019A00082FD0FC09C91818D8F5F8F73228D821776
:1019B00049F0218DDF01A20FB11D5D969C93818FAF
:1019C00008958C910895FC01848DDF01A80FB11D4D
:1019D000A35ABF4F2C91848D90E001968F73992765
:1019E000848FA689B7892C93A089B1898C91806452
:1019F0008C93938D848D981306C00288F389E02D13
:101A000080818F7D80830895EF92FF920F931F93C3
:101A1000CF93DF93EC0181E0888F9B8D8C8D9813A1
:101A200005C0E889F989808185FD24C0F62E0B8DDB
:101A300010E00F5F1F4F0F731127E02E8C8DE812FF
:101A40000CC00FB607FCFACFE889F989808185FFC1
:101A5000F5CFCE010E94E30CF1CF8B8DFE01E80F94
:101A6000F11DE35AFF4FF0820B8FEA89FB898081D9
:101A7000806207C0EE89FF896083E889F9898081E7
:101A80008064808381E090E0DF91CF911F910F917E
:101A9000FF90EF900895CF93DF93EC01888D88231A
:101AA000C9F0EA89FB89808185FD05C0A889B989CB
:101AB0008C9186FD0FC00FB607FCF5CF808185FFA6
:101AC000F2CFA889B9898C9185FFEDCFCE010E9414
:101AD000E30CE7CFDF91CF9108951F920F920FB6DD
:101AE0000F9211240BB60F922F933F934F935F9356
:101AF0006F937F938F939F93AF93BF93CF93DF9316
:101B0000EF93FF9320916F0430E0F901E858FD4F07
:101B10008491F901EE5CFD4FD491F901E451FE4F3F
:101B2000C491CC23A1F081110E94BE08EC2FF0E0FB
:101B3000EE0FFF1FE154FD4FA591B491EC91ED2301
:101B400031E020E009F430E0832F922F02C080E0E2
:101B500090E020917304309174042F5F3F4F3093D5
:101B600074042093730420917204253618F026E043
:101B700020936E0420916E042430D9F128F4223091
:101B800069F02330D9F060C0253009F453C0263005
:101B900009F05AC021E020933F0553C0009709F097
:101BA00053C020917304309174042436310508F435
:101BB00043C010923F05109272041DC08130910500
:101BC00009F042C0E091720421E02E0F20937204CC
:101BD000F0E02091730430917404EE0FFF1FE2597E
:101BE000FB4F30872783109274041092730424E013
:101BF00029C00097B9F4E091720421E02E0F2093E0
:101C00007204F0E02091730430917404EE0FFF1F12
:101C1000E259FB4F308727831092740410927304AB
:101C200023E010C0209173043091740425363105EF
:101C300058F007C0009741F4109274041092730496
:101C400003C025E020936E04209171042223B9F093
:101C5000892B51F480917004882321F080917004C5
:101C600061E009C02F9A0BC080917004882331F085
:101C70008091700460E00E94140901C02F98FF91C8
:101C8000EF91DF91CF91BF91AF919F918F917F9114
:101C90006F915F914F913F912F910F900BBE0F90DD
:101CA0000FBE0F901F9018951F920F920FB60F92B4
:101CB00011240BB60F922F933F934F935F936F9323
:101CC0007F938F939F93AF93BF93EF93FF938091F5
:101CD000AA0887FF05C0109285001092840016C0E4
:101CE0002091AA08022E000C330B80917C0590E015
:101CF000281739075CF43091AA0825E03203F00177
:101D00001124E05CFA4F808186FD15C08091AA08FD
:101D10008F5F8093AA082091AA08022E000C330B33
:101D200080917C0590E02817390794F48091AA08E7
:101D30008C302CF10DC03091AA083203F00111242F
:101D4000E05CFA4F808160E08F730E941409DECF5F
:101D5000809184009091850084349C4918F480E43B
:101D60009CE905C080918400909185000496909331
:101D70008900809388008FEF8093AA082AC0409141
:101D80008400509185003091AA0825E03203F001CB
:101D90001124E05CFA4F81819281840F951F90930A
:101DA0008900809388003091AA083203F001112441
:101DB000E05CFA4F808186FF0CC03091AA083203A4
:101DC000F0011124E05CFA4F808161E08F730E9482
:101DD0001409FF91EF91BF91AF919F918F917F91E6
:101DE0006F915F914F913F912F910F900BBE0F908C
:101DF0000FBE0F901F9018958EBD00000DB407FE0A
:101E0000FDCF8EB50895EF92FF920F931F93CF935E
:101E1000DF93EC019091A9089F5F292F27702093F1
:101E2000A90890FF02C090E801C090E021FD9064F5
:101E3000247009F0906220E1290FFE013C967E019A
:101E40008FE0E80EF11C00E011E06191662331F0B3
:101E500070E0C8010E94CC146F5F01C060E0DF0138
:101E600014976C93322F369F030E30E0311D1124EE
:101E7000CF010797311103C0EC01188203C0315024
:101E8000EC013883662311F061506C93EE15FF0569
:101E9000E1F6DF91CF911F910F91FF90EF900895A0
:101EA00010928E0210928D0288EE93E0A0E0B0E0D6
:101EB00080938F0290939002A0939102B09392022C
:101EC0002BE032E030938C0220938B0210929A0226
:101ED0001092990280939B0290939C02A0939D0282
:101EE000B0939E022DE132E0309398022093970246
:101EF00045E351E05093A4024093A30244E351E030
:101F00005093A6024093A50240E351E05093A802EB
:101F10004093A70241E351E05093AA024093A902E3
:101F200042E351E05093AC024093AB0246E351E0F0
:101F30005093AE024093AD021092B0021092B102E3
:101F40001092B2021092B30210923703109236032D
:101F50008093380390933903A0933A03B0933B03E3
:101F6000309335032093340345ED50E05093410303
:101F70004093400344ED50E05093430340934203A9
:101F800040ED50E0509345034093440341ED50E051
:101F9000509347034093460342ED50E0509349036A
:101FA0004093480346ED50E050934B0340934A035F
:101FB00010924D0310924E0310924F031092500353
:101FC0001092D4031092D3038093D5039093D60339
:101FD000A093D703B093D8033093D2032093D103B7
:101FE00085EC90E09093DE038093DD0384EC90E039
:101FF0009093E0038093DF0380EC90E09093E20302
:102000008093E10381EC90E09093E4038093E303F9
:1020100082EC90E09093E6038093E50386EC90E0F9
:102020009093E8038093E7031092EA031092EB0386
:102030001092EC031092ED0386E38093670687E32A
:102040008093680688E38093690689E380936A0633
:102050008BE180936B068DE180936C068AE180931F
:102060006D068CE180936E0684E080936F0687E0B6
:10207000809370061092710684EB8093720686E15D
:102080008093730688E18093740687E180937506D8
:1020900089E180937606E0917C05EC3020F08FEFAB
:1020A0008093770610C081E08E0F80937C05E093CB
:1020B000770625E0E29FF0011124E05CFA4F88EBFF
:1020C0009BE092838183E0917C05EC3020F08FEFE0
:1020D0008093780610C081E08E0F80937C05E0939A
:1020E000780685E0E89FF0011124E05CFA4F88EB68
:1020F0009BE0928381838CE08093460684E2809308
:10210000470686E08093480685E0809349068FE184
:1021100080934A068EE180934B0683E280934C06BF
:1021200082E280934D0685E480934E0684E480939A
:102130004F0680E48093520610925706109258067C
:102140001092590610925A0610925B0610925C0685
:1021500010925D0610925E06E8E8F5E08FEF9FEFC3
:10216000DC01128213821482158216821782108675
:10217000118683879487A587B6878787908BA18BE5
:10218000B28B128611821082739626E0E634F20733
:1021900041F78DE090E00E940315FC01138212824A
:1021A0008FE292E091838083118687E2848384E1C9
:1021B000828784E083871486F0938505E093840505
:1021C000109286051092870585E280936F04109225
:1021D000710410927E0510927D0510928005109278
:1021E0007F05109282051092810561E070E080E029
:1021F00090E00E943016009789F090937E058093BE
:102200007D051092800510927F0520918105309107
:102210008205232B71F5FC0110822BC080917D0576
:1022200090917E05009711F00E94981510927E05FE
:1022300010927D0510928205109281051092800502
:1022400010927F058FEF80937D0610927F0610928B
:102250007E0610928906109288068FEF9FEFDC01B0
:102260008093840690938506A0938606B093870694
:102270000895109282051092810569E572E00E942E
:102280002717E0CF789484B5826084BD84B58160DF
:1022900084BD85B5826085BD85B5816085BD809131
:1022A0006E00816080936E001092810080918100A9
:1022B00082608093810080918100816080938100A1
:1022C000809180008160809380008091B100846063
:1022D0008093B1008091B00081608093B0008091C4
:1022E0009100826080939100809191008160809341
:1022F0009100809190008160809390008091A10076
:1023000082608093A1008091A10081608093A100F0
:102310008091A00081608093A00080912101826063
:10232000809321018091210181608093210180911E
:10233000200181608093200180917A0084608093E5
:102340007A0080917A00826080937A0080917A008E
:10235000816080937A0080917A00806880937A000F
:102360001092C100E091E103F091E20382E08083EA
:10237000E091DD03F091DE031082E091DF03F09144
:10238000E0038FEC80831092E903E091E503F09184
:10239000E60386E08083E091E303F091E40380812B
:1023A00080618083E091E303F091E40380818860A1
:1023B0008083E091E303F091E4038081806880836F
:1023C000E091E303F091E40380818F7D808361E0FD
:1023D000809147060E94440960E0809147060E9470
:1023E000140960E0809146060E9444098BE892E05F
:1023F00090935106809350061092830210928202AD
:102400001092880210928A021092860281E08093D4
:1024100085021092840261E084E10E94140961E067
:1024200085E10E9414098091B9008E7F8093B900E4
:102430008091B9008D7F8093B90088E48093B800C3
:1024400085E48093BC0080E090E1A0E0B0E0809360
:10245000530690935406A0935506B09356068AE00F
:1024600090E0A0E0B0E08093570690935806A093C8
:102470005906B0935A0680E090E0A0E0B0E4809363
:102480005B0690935C06A0935D06B0935E0660E0E9
:1024900070E185E00E943B076FE979E380E00E94EC
:1024A0003B07C3E6D6E0C12CD12CE12CF12C51E244
:1024B000452E52E0552E67E6662E62E0762E7BECC6
:1024C000A72E77E0B72EEBE88E2E99249394C701C0
:1024D0008A5B994F1C01FC019481828186010A5B11
:1024E000194FF801818F928F61E00E94440961E0E9
:1024F000F801828D0E944409F101908586818883CC
:10250000F801968F61E00E94440960E0F801868D31
:102510000E94440961E088810E9414091FB7F89461
:1025200080918C08811125C0F2018491F30194916E
:10253000E82FF0E0EE0FFF1FE854FE4FA591B49195
:102540008C91982321F461E085E30E94140961E0F5
:1025500085E30E9444098CB580618CBD8CB5806494
:102560008CBD61E084E30E94440961E083E30E9442
:10257000440980918C088F5F80938C081FBFC50130
:102580000197F1F760E088810E94140988E80E94B1
:10259000FC0E83E00E94FC0E61E088810E94140919
:1025A000C5010197F1F760E088810E94140988E96C
:1025B0000E94FC0E80E00E94FC0E80E00E94FC0E57
:1025C00080E00E94FC0E80E00E94FC0E61E08881A9
:1025D0000E941409C4010197F1F760E088810E940C
:1025E000140980EE0E94FC0E61E088810E941409AB
:1025F000F2E0CF0ED11C2296EA94EF2821F0EE24CF
:10260000E394F12C64CFCBE6D6E01C2F1C5F60E096
:1026100089910E9444091C13FACF0AE716E0C7E724
:10262000D6E085E0C82E9CE0E92E22E0B22EDC2E1A
:10263000D394D394FE013897F08088818C3008F0D1
:1026400044C061E08F2D0E9444098881C89EF0013A
:102650001124E05CFA4F9F2D9F732081207CF22E85
:10266000F92AF082138214826E2D0E94C014ECE0CD
:102670008E9FA001112420E030E0B901640F751F86
:10268000C69EF001C79EF00D1124E05CFA4F9081C8
:1026900096FD12C02F5F3F4F2C30310571F781112D
:1026A0000BC010928000B0928100109285001092B1
:1026B0008400B6BAB0926F00E881CE9EF00111247A
:1026C000E05CFA4F808180648083FE0132979081C4
:1026D00032978081F80131978083F801908360E020
:1026E0000E94440961E0F80180810E94440960E091
:1026F000F80180810E94140921960E5F1F4FDC12A1
:1027000099CFF8941092200189E08093210180E212
:1027100093E0909329018093280110922501109253
:10272000240182E080937300789480936E04109269
:10273000720480916F0460E00E94440968EB7BE0C2
:1027400080E090E00E94A5098091A008811145C019
:1027500010929208109291088FEF809395088093C1
:10276000960880939708809398088093990880939F
:102770009A0881E080939B0810929D0810929C0813
:10278000109294081092930880911707909118075F
:10279000892B31F48FE898E09093180780931707FE
:1027A000E0918D08F0918E08309721F08FE898E045
:1027B000958384838FE898E090938E0880938D08AA
:1027C00010929F0810929E088BE492E090939008DC
:1027D00080938F0881E08093A008E0918F08F091AA
:1027E00090080480F581E02D8FE898E0199589E143
:1027F00097E0909392088093910888E790E09093F7
:102800009D0880939C08E0918F08F09190080284C5
:10281000F385E02D8FE898E01995009729F19C0148
:1028200040E050E060E472E48FE090E00E945514D4
:10283000722F632F009180061091810620918206ED
:1028400030918306872F962FDA0180179107A20710
:10285000B30710F4D901C8018093800690938106D4
:10286000A0938206B09383068FEF8093950880EB48
:102870008093960880EF8093970884E680937D0686
:1028800080E090E00E94AE0481E090E00E94AE04FF
:1028900082E090E00E94AE040E944C0CF1CF809147
:1028A0007D0590917E050C949815052E97FB1EF4DE
:1028B00000940E946C1457FD07D00E947F1407FCFF
:1028C00003D04EF40C946C1450954095309521959E
:1028D0003F4F4F4F5F4F089590958095709561954C
:1028E0007F4F8F4F9F4F08950E94A114A59F900D79
:1028F000B49F900DA49F800D911D11240895A1E215
:102900001A2EAA1BBB1BFD010DC0AA1FBB1FEE1F69
:10291000FF1FA217B307E407F50720F0A21BB30BB4
:10292000E40BF50B661F771F881F991F1A9469F730
:1029300060957095809590959B01AC01BD01CF018C
:102940000895A29FB001B39FC001A39F700D811D88
:102950001124911DB29F700D811D1124911D0895A8
:10296000DB018F939F930E947414BF91AF91A29F3C
:10297000800D911DA39F900DB29F900D112408957D
:10298000991B79E004C0991F961708F0961B881FC1
:102990007A95C9F78095089597FB072E16F4009451
:1029A00007D077FD09D00E94EF1407FC05D03EF454
:1029B000909581959F4F0895709561957F4F0895EB
:1029C000EE0FFF1F881F8BBF0790F691E02D199423
:1029D0000E94A114B7FF0895821B930B0895AA1BB0
:1029E000BB1B51E107C0AA1FBB1FA617B70710F0FA
:1029F000A61BB70B881F991F5A95A9F7809590952C
:102A0000BC01CD010895CF93DF938230910510F47E
:102A100082E090E0E091AD08F091AE0820E030E077
:102A2000C0E0D0E0309711F140815181481759073B
:102A3000C0F04817590761F482819381209719F0FB
:102A40009B838A832BC09093AE088093AD0826C0E9
:102A50002115310519F04217530718F49A01BE01E8
:102A6000DF01EF010280F381E02DDCCF211531057C
:102A700009F1281B390B2430310590F412968D9101
:102A80009C9113976115710521F0FB01938382835B
:102A900004C09093AE088093AD08FD01329644C007
:102AA000FD01E20FF31F81939193225031092D9381
:102AB0003C933AC02091AB083091AC08232B41F4F1
:102AC00020910302309104023093AC082093AB08AC
:102AD00020910102309102022115310541F42DB7F8
:102AE0003EB74091050250910602241B350BE09140
:102AF000AB08F091AC08E217F307A0F42E1B3F0BD4
:102B00002817390778F0AC014E5F5F4F241735075F
:102B100048F04E0F5F1F5093AC084093AB08819371
:102B2000919302C0E0E0F0E0CF01DF91CF910895F2
:102B30000F931F93CF93DF93009709F48CC0FC0190
:102B40003297138212820091AD081091AE080115E0
:102B5000110581F420813181820F931F2091AB08F0
:102B60003091AC082817390779F5F093AC08E09359
:102B7000AB0871C0D80140E050E0AE17BF0750F479
:102B800012962D913C911397AD012115310509F154
:102B9000D901F3CF9D01DA013383228360817181F2
:102BA000860F971F8217930769F4EC0128813981FA
:102BB000260F371F2E5F3F4F318320838A819B81F1
:102BC00093838283452B29F4F093AE08E093AD08FC
:102BD00042C01396FC93EE931297ED0149915991DF
:102BE0009E01240F351FE217F30771F48081918154
:102BF000840F951F029611969C938E9382819381E8
:102C000013969C938E931297E0E0F0E0D801129611
:102C10008D919C911397009719F0F8018C01F6CFD4
:102C20008D919C9198012E5F3F4F820F931F2091B1
:102C3000AB083091AC082817390769F4309729F4AC
:102C40001092AE081092AD0802C013821282109347
:102C5000AC080093AB08DF91CF911F910F910895BD
:102C60006F927F928F929F92AF92BF92CF92DF929C
:102C7000EF92FF920F931F93CF93DF93EC01009796
:102C800089F4CB01DF91CF911F910F91FF90EF90CD
:102C9000DF90CF90BF90AF909F908F907F906F907C
:102CA0000C940315FC01E60FF71F9C01225031091B
:102CB000E217F30708F4ACC0D9010D911C911197EC
:102CC00006171707B0F00530110508F49FC0C801BA
:102CD00004978617970708F499C002501109061B3C
:102CE000170B019311936D937C93CF010E9498155C
:102CF0008DC05B01A01AB10A4C01800E911EA091FB
:102D0000AD08B091AE0840E050E0E12CF12C1097F6
:102D100009F44AC0A815B905D1F56D907C901197BA
:102D2000630182E0C80ED11CCA14DB0480F1A30148
:102D30004A195B096A0182E0C80ED11C1296BC9048
:102D400012971396AC91B5E0CB16D10440F0B28245
:102D5000A38351834083D9016D937C930AC00E5F96
:102D60001F4FC301800F911FF90191838083EB2DC9
:102D7000FA2FE114F10431F0D7011396FC93EE938E
:102D8000129744C0F093AE08E093AD083FC08D9118
:102D90009C9111974817590708F4AC017D011296D0
:102DA0000D90BC91A02DB3CF8091AB089091AC0851
:102DB00088159905E1F446175707C8F48091010278
:102DC00090910202009741F48DB79EB740910502A1
:102DD00050910602841B950BE817F907C8F4F0938D
:102DE000AC08E093AB08F901718360830FC0CB019D
:102DF0000E9403157C01009759F0A801BE010E94B2
:102E00001E17CE010E949815C70104C0CE0102C052
:102E100080E090E0DF91CF911F910F91FF90EF90B4
:102E2000DF90CF90BF90AF909F908F907F906F90EA
:102E3000089581E090E0F8940C942E17FB01DC01DA
:102E400002C001900D9241505040D8F70895FB0107
:102E5000DC0101900D920020E1F7089511E0CEE62B
:102E6000D1E000E006C0802FFE010E94E014219610
:102E7000011DCF36D10780E00807A9F7F894FFCFEE
:102E8000FF0000AF08200000000000AF067F067AB8
:102E90000C5906770668065A0600000000040DDF8C
:102EA000090F0C4B0D400C1E0C320C00000000A54D
:102EB0000CDF097A0C790C000000000A0A0A0A0AE1
:102EC0000AA701CD01D101000000006B042704A571
:0A2ED00001A701CD01A201D4010009
:00000001FF
