:100000000C94A3010C94D4010C94D4010C94D4014D
:100010000C94D4010C94D4010C94D4010C94D4010C
:100020000C94D4010C947E0F0C947E0F0C947E0FD4
:100030000C94D4010C94050A0C94D4010C94D401B2
:100040000C94D4010C94A00D0C94D4010C94D40104
:100050000C94D4010C94D4010C94D4010C94FA1196
:100060000C94D4010C94760B0C944C0B0C94D4018E
:100070000C94D4010C94D4010C94D4010C94D401AC
:100080000C94D4010C94D4010C94D4010C94D4019C
:100090000C94D4010C94D4010C94D4010C94880FCA
:1000A0000C94D4010C94D4010C94D4010C94D4017C
:1000B0000C94D4010C94D4010C94D4010C94A00B96
:1000C0000C94D4010C94D4010C94D4010C94220B04
:1000D0000C94F80A0C94D4010C94CE0A0C94A40A43
:1000E0000C94D401E70CEC0CF10CFB0C050D7E0D0F
:1000F0000F0D170D1F0D290D330D3D0D4C0D560D18
:100100007E0D600D6A0D740DD510D810C710CB1080
:10011000D1100F11DC10E010E610EA10EE10F41010
:10012000F810FC100F11021106110A110C941C0991
:100130000C94D5070C94CB100C94AF080C94640568
:100140000C9463090C94A0080C94560D0C944F0F5A
:100150000C94E0090C94D8100C945B050C94A7182F
:100160000C940A110C94FC100C94D5100C94D6012C
:100170000C943D0D0C9402110C94170F0C94E0108C
:100180000C94C3080C94FA0E0C94B3090C9400025E
:100190000C94080F0C940F0D0C94330D0C94B209B1
:1001A0000C944C0D0C941F0D0C94290D0C947E0D89
:1001B0000C94D1100C94E6100C94DC100C94E70C09
:1001C0000C945C080C94EC0C0C94B6090C94EA109A
:1001D0000C94F90E0C94170D0C94D1080C94F41097
:1001E0000C9406110C94F8100C94EE100C94C7109B
:1001F0000C945E050C94F10C0C94600D0C94FC01B5
:100200000C94AD180C941F0F0C946A0D0C940F11E4
:100210000C9419080C94FB0C0C94050D0C94740DA3
:10022000000020002300260029002C002F003200AF
:100230000001000003010601090102000021002461
:100240000027002A002D00300033000101000004C7
:100250000107010A0100002200250028002B002EC2
:10026000003100340002010000050108010B010506
:10027000050505070508080808020202020A0A081F
:100280000804040404010101010101010103030345
:100290000303030303040707070C0C0C0C0C0C0CE2
:1002A0000C0202020206060606060606060B0B0BE9
:1002B0000B0B0B0B0B010210202008081020401024
:1002C000204080020102010804020101020408101A
:1002D0002040808040201008040201800402018038
:1002E0004020100804020108040201010204081061
:1002F000204080010204081020408000000A0B0208
:10030000090C0D0E080703040100000000000000A6
:1003100000000000000000000000000000000000DD
:10032000000000000000001211100000000000009A
:1003300000000000000000000000000000000000BD
:100340000000AD18A71811241FBECFEFD1E2DEBF09
:10035000CDBF00E00CBF14E0A0E0B2E0E2EFFDE3AF
:1003600000E00BBF02C007900D92AC30B107D9F787
:100370002AE0ACE0B4E001C01D92A434B207E1F77A
:1003800011E0C2EAD1E000E006C021970109802F08
:10039000FE010E945E1CC13AD10780E00807A9F760
:1003A0000E94B0130C94E71E0C940000CF93DF93CF
:1003B00000D000D0CDB7DEB7AB011C821D821E82FB
:1003C000DC01ED91FC910190F081E02D19821A82FF
:1003D0001B829E012F5F3F4FBE016C5F7F4F1995BF
:1003E00026960FB6F894DEBF0FBECDBFDF91CF913A
:1003F0000895E0E0F0E01994FC0185859685089564
:1004000080E090E008951F93CF93DF93182F0E9410
:100410007C118F3F934059F4812F0E947C11EC0195
:100420000E949813C83ED340BCF781E001C080E031
:10043000DF91CF911F9108950F931F93CF93DF9377
:10044000EC01162F072FBC01990F880B990B97FF12
:1004500003C00E94711303C04AE00E9430138BEC6A
:1004600093E00E944412812F902F0E949813612FD5
:1004700081E30E941011209731F461E08DE20E9427
:10048000101161E01DC0C130D10531F461E08DE291
:100490000E94101160E008C0C230D10551F460E044
:1004A0008DE20E94101161E087E10E94101160E06E
:1004B0000BC0239781F460E08DE20E94101160E090
:1004C00087E10E94101161E085E3DF91CF911F91D8
:1004D0000F910C941011DF91CF911F910F910895FE
:1004E0004DEC5CEC6CE47EEB87E19AE00E94870CBB
:1004F0004DEC5CEC6CE47EEB85E19AE00E94870CAD
:1005000068E978E080E090E00E94C01140E050E0AF
:10051000BA0185E19AE00E94870C40E050E060E07B
:1005200070E887E19AE00E94870C80910D04909119
:100530000E048130910519F483E090E011C000971A
:1005400019F482E090E00CC08230910529F41092F9
:100550000E0410920D0408C0039731F481E090E07E
:1005600090930E0480930D0480910D0490910E04DD
:100570000C94981389E19AE00E944F0E8BE19AE067
:100580000E944F0E4DEC5CEC6CE47EEB87E19AE050
:100590000E94870C4DEC5CEC6CE47EEB85E19AE00C
:1005A0000E94870C68EE73E080E090E00E94C0112A
:1005B00040E050E0BA0185E19AE00E94870C40E0FB
:1005C00050E060E070E887E19AE00E94870C68EEF6
:1005D00073E080E090E00E94C01180910D04909142
:1005E0000E04019764E070E00E944A1C8F3F2FEFD9
:1005F000920711F483E090E090930E0480930D0431
:1006000080910D0490910E040C94981389E19AE066
:100610000E944F0E8BE19AE00E944F0E4DEC5CEC75
:100620006CE47EE387E19AE00E94870C4DEC5CEC81
:100630006CE47EE385E19AE00E94870C68EE73E04B
:1006400080E090E00E94C01140E050E0BA0185E1F6
:100650009AE00E94870C40E050E060E070E887E19B
:100660009AE00E94870C68EE73E080E090E00E94C0
:10067000C01180910D0490910E04019664E070E029
:100680000E944A1C90930E0480930D040C949813BE
:100690008DEF92E00E94561220910D0430910E04CD
:1006A00080911104909112042130310511F40196CA
:1006B00004C02330310529F40197909312048093EC
:1006C000110480911104909112040C9498130F93CB
:1006D0001F93CF93DF934DEC5CEC6CE47EEB87E1F2
:1006E0009AE00E94870C4DE35AE067E57EE385E1DE
:1006F0009AE00E94870C6AEF70E080E090E00E9430
:10070000C01186E00E947C11883E934084F040E056
:1007100050E060E070E887E19AE00E94870C40E0DA
:1007200050E0BA0185E19AE00E94870CF0CF8DE09D
:100730000E947C118C018CE00E947C11EC018BE00A
:100740000E947C110E3521E012074CF4CE3521E0D9
:10075000D207A4F5843F21E092079CF244C00E35F5
:10076000114079F2CE3521E0D2074CF4843F21E0EC
:100770009207DCF44DEC5CEC6CE47EE30DC0CE350E
:10078000D14009F4BECF843F21E092070CF040C075
:100790004AE959E969E17EE385E19AE00E94870C24
:1007A0004DEC5CEC6CE47EEB2EC0843F914009F490
:1007B000A8CF4DEC5CEC6CE47EE30CC0CE35D140B0
:1007C00009F49FCF843F91400CF09BCF4DEC5CEC43
:1007D0006CE47DE385E19AE00E94870C4AE959E9DF
:1007E00069E17EEB10C0853F91400CF48ACF4AE965
:1007F00059E969E17EE385E19AE00E94870C4DECBE
:100800005CEC6CE47DEB87E19AE00E94870C79CF89
:10081000853F91400CF475CF64EF71E080E090E08B
:100820000E94C0118AE193E0DF91CF911F910F9157
:100830000C9456120F931F93CF93DF938C01EB010F
:1008400087E293E00E945612809111049091120465
:100850008017910739F10E9467030E94480383E4DF
:1008600093E00E944412C8010E9498138CE493E024
:100870000E94441280911104909112040E949813D6
:1008800088E593E00E944412CE010E94981381E60D
:1008900093E00E94441280910F04909110040E94F2
:1008A0009813D2CF80910F04909110048C179D075C
:1008B00094F480910D0490910E04019711F40E941C
:1008C000060380910D0490910E04039709F040C037
:1008D0000E94BA023DC0C817D907D4F580910D0413
:1008E00090910E04019711F40E94BA0280910D04B8
:1008F00090910E04039761F50E94060329C00E949F
:1009000067038DE693E00E94561280910D0490914A
:100910000E04009729F580910F049091100401971F
:100920009093100480930F048CE493E00E9444128F
:1009300080911104909112040E94981381E693E033
:100940000E94441280910F04909110040E94981309
:1009500080910F04909110048C179D0781F608C0B8
:10096000029711F780910F04909110040196D8CF4F
:10097000DF91CF911F910F910895CF92DF92EF9267
:10098000FF92CF93DF93823018F08AE893E00AC099
:100990009091270A691720F09091280A961750F431
:1009A0008CE993E0DF91CF91FF90EF90DF90CF90B3
:1009B0000C945612E82FF0E0E35EF54FC089CC307E
:1009C00008F072C0262F30E0D0E085E08C9FF00167
:1009D0008D9FF00D1124EA50F74F8381283C31059B
:1009E0009CF528E830E06901C81AD10887FDD39446
:1009F000CC0CDD1CCC0CDD1C0D2C000CEE08FF0813
:100A0000848128E532E0281B310987FD3395220FC8
:100A1000331F220F331FC901330FAA0BBB0B9C01DD
:100A2000AD012C193D094E095F09A62FB0E00E94C7
:100A3000FA1B24EB30E040E050E00E94DB1BC20ECA
:100A4000D31EE41EF51E1EC048E850E06A01C81A15
:100A5000D10887FDD394CC0CDD1CCC0CDD1C2C15EF
:100A60003D0584F0448188E592E0841B910947FDAF
:100A70009395880F991F880F991F69018C159D0503
:100A80000CF46C018FB7F89495E09C9FF0019D9F4A
:100A9000F00D1124EA50F74F96E0C91AD108CC0C9A
:100AA000DD1CD282C1828FBFDF91CF91FF90EF908A
:100AB000DF90CF90089580E991E00895E1E0F1E0C2
:100AC00080818062808308956F927F928F929F923F
:100AD000AF92BF92CF92DF92EF92FF920F931F934C
:100AE000CF93DF933C01EB010E949B11F30127851B
:100AF0003089621B730B6A307105B0F3F894E8819A
:100B0000F981509102015062809102018F7D8093A2
:100B10000201EA849F812E2D291B922F2F83DF84CF
:100B2000AA81BB816D857C85FE846F5F7F5FF394B6
:100B30003E814885B984AB84118120E0C32E022F09
:100B4000322F3181112788943111390F08F43FEF8A
:100B50009195889460FD130F1795889461FD130F8C
:100B60001795889462FD130F1795889463FD130FF2
:100B70001795889464FD130F1795889465FD130FDE
:100B80001795889466FD130F1795889467FD130FCA
:100B900017958894232F6111212F9E0D122F002C61
:100BA0005093020100C0002C17FF80930201308196
:100BB0002227889400C08093020131113C0D00C0AF
:100BC0005093020100C0002C16FF8093020108F42C
:100BD0003FEFC194889400C08093020170FD230F01
:100BE00000C05093020100C0002C15FF8093020149
:100BF0002795889471FD230F00C0809302012795EB
:100C0000889400C05093020100C0002C14FF809310
:100C1000020172FD230F2795889400C08093020182
:100C200073FD230F00C05093020100C0002C13FF7E
:100C3000809302012795889474FD230F00C0809350
:100C400002012795889400C05093020100C0002C37
:100C500012FF8093020175FD230F2795889400C031
:100C60008093020176FD230F00C05093020100C063
:100C7000002C11FF809302012795889477FD230FA4
:100C800000C0809302012795889400C05093020110
:100C900000C0002C10FF80930201132F7111122F3E
:100CA000CB0C00C08093020100C000C05093020131
:100CB00000C0002C17FF8093020132812227889404
:100CC00000C0809302013111340F00C05093020123
:100CD00000C0002C16FF8093020108F43FEFED0DD9
:100CE000F11D00C080930201F0FC230F00C050935F
:100CF000020100C0002C15FF809302012795889403
:100D0000F1FC230F00C0809302012795889400C056
:100D10005093020100C0002C14FF80930201F2FCEA
:100D2000230F2795889400C080930201F3FC230FC2
:100D300000C05093020100C0002C13FF80930201F9
:100D400027958894F4FC230F00C080930201279517
:100D5000889400C05093020100C0002C12FF8093C1
:100D60000201F5FC230F2795889400C080930201AF
:100D7000F6FC230F00C05093020100C0002C11FFAD
:100D80008093020127958894F7FC230F00C080937D
:100D900002012795889400C05093020100C0002CE6
:100DA00010FF80930201132FF110122F419500C004
:100DB000809302014A0D00C0002C5093020100C034
:100DC000002C17FF8093020131812227889400C0F4
:100DD000809302013111390F00C05093020100C00D
:100DE000002C16FF8093020108F43FEF9195889440
:100DF00000C08093020160FD230F00C050930201E8
:100E000000C0002C15FF809302012795889461FD96
:100E1000230F00C0809302012795889400C050934F
:100E2000020100C0002C14FF8093020162FD230F19
:100E30002795889400C08093020163FD230F00C0B2
:100E40005093020100C0002C13FF809302012795EC
:100E5000889464FD230F00C0809302012795889435
:100E600000C05093020100C0002C12FF80930201C9
:100E700065FD230F2795889400C08093020166FDCD
:100E8000230F00C05093020100C0002C11FF80937B
:100E900002012795889467FD230F00C0809302010B
:100EA0002795889400C05093020100C0002C10FFC9
:100EB00080930201132F6111122F9E0D00C08093A9
:100EC0000201119709F06CCE4A815B8120EE31E07E
:100ED000DA010E94661CDC01CB0164E0B695A7959F
:100EE000979587956A95D1F760E070E09B01EAE9F4
:100EF0004E9F040E211D5E9F200D311D1124250FD4
:100F0000311D820F931FA11DB11D893EE3E09E0795
:100F1000A105B10508F434C0885E9340A109B10968
:100F200022E0B695A795979587952A95D1F727E062
:100F3000829F080E611D929F600D711D1124690F23
:100F4000711D20910C0430E0820F931F860F971FB4
:100F50004091A2055091A3056091A4057091A5054B
:100F6000292F3327420F531F611D711D4093A20586
:100F70005093A3056093A4057093A50580930C047A
:100F800078940E949B11F301708B6787DF91CF915A
:100F90001F910F91FF90EF90DF90CF90BF90AF9097
:100FA0009F908F907F906F9008950F931F93CF9392
:100FB000DF93CDB7DEB762970FB6F894DEBF0FBEF2
:100FC000CDBF8C01F901DC011C968C917A83698379
:100FD0005C834B835E834D8390819D8791819E8747
:100FE00092819F87813029F4CE0101960E947A0E6A
:100FF00006C01C861B861A86198618861F8283E007
:10100000888B1A8A198AD801ED91FC910484F585A0
:10101000E02DBE016F5F7F4FC801199562960FB634
:10102000F894DEBF0FBECDBFDF91CF911F910F911E
:1010300008950F931F93CF93DF93CDB7DEB76297D9
:101040000FB6F894DEBF0FBECDBF8C01F901DC01F5
:101050001C968C917A8369835C834B835E834D837A
:1010600090819D8791819E8792819F87813029F40D
:10107000CE0101960E947A0E06C01C861B861A8637
:10108000198618861F82188A1A8A198AD801ED9142
:10109000FC910484F585E02DBE016F5F7F4FC80190
:1010A000199562960FB6F894DEBF0FBECDBFDF91E3
:1010B000CF911F910F910895CF92DF92EF92FF92FF
:1010C0000F931F93CF93DF936C017A018B01C0E0E4
:1010D000D0E0CE15DF0589F0D8016D918D01D601E4
:1010E000ED91FC910190F081E02DC6011995892BBD
:1010F00011F47E0102C02196ECCFC701DF91CF91A0
:101100001F910F91FF90EF90DF90CF900895FC0119
:10111000A089B1898C91A689B78982FD0FC09C9165
:10112000818D8F5F8F73228D821749F0218DDF01B2
:10113000A20FB11D5D969C93818F08958C910895A7
:10114000FC01538D448D252F30E0842F90E0821BCD
:10115000930B541710F0CF96089501970895FC0152
:10116000918D828D981761F0828DDF01A80FB11DDE
:101170005D968C91928D9F5F9F73928F90E0089502
:101180008FEF9FEF0895FC01918D828D981731F0BC
:10119000828DE80FF11D858D90E008958FEF9FEF10
:1011A0000895FC01918D228D892F90E0805C9F4FE6
:1011B000821B91098F73992708958DE496E00E9410
:1011C000D10821E0892B09F420E0822F08958AEECE
:1011D00096E00E94D10821E0892B09F420E0822FBB
:1011E000089587E897E00E94D10821E0892B09F44F
:1011F00020E0822F0895FC01848DDF01A80FB11D2E
:10120000A35ABF4F2C91848D90E001968F7399273C
:10121000848FA689B7892C93A089B1898C91806429
:101220008C93938D848D981306C00288F389E02DEA
:1012300080818F7D80830895EF92FF920F931F939B
:10124000CF93DF93EC0181E0888F9B8D8C8D981379
:1012500005C0E889F989808185FD24C0F62E0B8DB3
:1012600010E00F5F1F4F0F731127E02E8C8DE812D7
:101270000CC00FB607FCFACFE889F989808185FF99
:10128000F5CFCE010E94FB08F1CF8B8DFE01E80F58
:10129000F11DE35AFF4FF0820B8FEA89FB898081B1
:1012A000806207C0EE89FF896083E889F9898081BF
:1012B0008064808381E090E0DF91CF911F910F9156
:1012C000FF90EF900895CF93DF93EC01888D8823F2
:1012D000C9F0EA89FB89808185FD05C0A889B989A3
:1012E0008C9186FD0FC00FB607FCF5CF808185FF7E
:1012F000F2CFA889B9898C9185FFEDCFCE010E94EC
:10130000FB08E7CFDF91CF91089580E090E0892B33
:1013100021F00E94F108811119C080E090E0892B32
:1013200041F080E090E0892B21F00E9400008111C3
:1013300010C00E94E70881110FC080E090E0892B67
:1013400081F00E94DD0881110AC008950E9400000A
:10135000E4CF0E940000EDCF0E94F901EECF0C9483
:1013600000000895089580E090E008950E94D21E44
:10137000FC01248131E030931D0620933F0610923A
:101380001E06109240068485682B81E496E00E9438
:101390004F0F0C948C120F931F93CF938C01C62F79
:1013A00064600E94B8096C2F6B7FC8010E94B80965
:1013B00083EC90E00197F1F7CF911F910F91089581
:1013C0000F931F93CF93DF938C01C62FD62FD07F1F
:1013D000D1606D2F0E94B8096D2FC8010E94CB0902
:1013E00080E1C89FB0011124C62FC1606C2FC801D5
:1013F0000E94B8096C2FC8010E94CB0981E090E0DF
:10140000DF91CF911F910F9108951F920F920FB608
:101410000F9211240BB60F922F933F934F935F932C
:101420006F937F938F939F93AF93BF93EF93FF93AC
:1014300080919E0590919F05A091A005B091A10576
:10144000892B8A2B8B2B59F180919D05E0919B056F
:10145000F0919C0590818927808380919E059091D1
:101460009F05A091A005B091A105181619061A06AE
:101470001B060CF056C080919E0590919F05A0918F
:10148000A005B091A1050197A109B10980939E051E
:1014900090939F05A093A005B093A10542C08091B1
:1014A0000002EAE3F2E0E4919FEF90930002E23061
:1014B000C9F050F4EE2399F0E13081F590916F007E
:1014C0009D7F90936F002AC0E43019F1E0F0E53081
:1014D00029F5909173009D7F909373001FC0109227
:1014E0006E001CC0909170009D7F9093700091E001
:1014F0009093B0009091B100987F94609093B10068
:101500001092B3000BC0909171009D7F9093710079
:1015100005C0909172009D7F9093720060E00E94E0
:101520001011FF91EF91BF91AF919F918F917F919A
:101530006F915F914F913F912F910F900BBE0F9044
:101540000FBE0F901F9018951F920F920FB60F921B
:1015500011240BB60F922F933F934F935F936F938A
:101560007F938F939F93AF93BF93EF93FF938DE4FC
:1015700096E00E94FB08FF91EF91BF91AF919F9180
:101580008F917F916F915F914F913F912F910F902C
:101590000BBE0F900FBE0F901F9018951F920F92C9
:1015A0000FB60F9211240BB60F922F933F934F93C8
:1015B0005F936F937F938F939F93AF93BF93EF93BB
:1015C000FF938DE496E00E948708FF91EF91BF9111
:1015D000AF919F918F917F916F915F914F913F91CB
:1015E0002F910F900BBE0F900FBE0F901F9018956C
:1015F0001F920F920FB60F9211240BB60F922F93DA
:101600003F934F935F936F937F938F939F93AF938A
:10161000BF93EF93FF938AEE96E00E94FB08FF9141
:10162000EF91BF91AF919F918F917F916F915F915A
:101630004F913F912F910F900BBE0F900FBE0F90C7
:101640001F9018951F920F920FB60F9211240BB690
:101650000F922F933F934F935F936F937F938F934B
:101660009F93AF93BF93EF93FF938AEE96E00E9410
:101670008708FF91EF91BF91AF919F918F917F91DB
:101680006F915F914F913F912F910F900BBE0F90F3
:101690000FBE0F901F9018951F920F920FB60F92CA
:1016A00011240BB60F922F933F934F935F936F9339
:1016B0007F938F939F93AF93BF93EF93FF9387E8AD
:1016C00097E00E94FB08FF91EF91BF91AF919F912E
:1016D0008F917F916F915F914F913F912F910F90DB
:1016E0000BBE0F900FBE0F901F9018951F920F9278
:1016F0000FB60F9211240BB60F922F933F934F9377
:101700005F936F937F938F939F93AF93BF93EF9369
:10171000FF9387E897E00E948708FF91EF91BF91C0
:10172000AF919F918F917F916F915F914F913F9179
:101730002F910F900BBE0F900FBE0F901F9018951A
:101740001F920F920FB60F9211240BB60F922F9388
:101750003F934F935F936F937F938F939F93AF9339
:10176000BF93CF93DF93EF93FF932091250830E051
:10177000F901E550FD4F8491F901EB54FD4FD491EF
:10178000F901E159FD4FC491CC23A1F081110E94D0
:10179000BA10EC2FF0E0EE0FFF1FE05EFD4FA591B9
:1017A000B491EC91ED2331E020E009F430E0832F97
:1017B000922F02C080E090E02091290830912A0801
:1017C0002F5F3F4F30932A08209329082091280843
:1017D000253618F026E02093240820912408243090
:1017E000D9F128F4223069F02330D9F060C02530D7
:1017F00009F453C0263009F05AC021E02093F508BF
:1018000053C0009709F053C02091290830912A084D
:101810002436310508F443C01092F50810922808C8
:101820001DC08130910509F042C0E091280821E0F7
:101830002E0F20932808F0E02091290830912A08E3
:10184000EE0FFF1FEC5DF74F3087278310922A08B9
:101850001092290824E029C00097B9F4E0912808E3
:1018600021E02E0F20932808F0E0209129083091E4
:101870002A08EE0FFF1FEC5DF74F30872783109289
:101880002A081092290823E010C0209129083091DD
:101890002A082536310558F007C0009741F4109208
:1018A0002A081092290803C025E0209324082091DB
:1018B00027082223B9F0892B51F480912608882328
:1018C00021F08091260861E009C02F9A0BC0809119
:1018D0002608882331F08091260860E00E941011CC
:1018E00001C02F98FF91EF91DF91CF91BF91AF9100
:1018F0009F918F917F916F915F914F913F912F9128
:101900000F900BBE0F900FBE0F901F9018958F92E7
:101910009F92AF92BF92CF92DF92EF92FF920F937E
:101920001F93CF93DF93EC016A017B0120E030E04D
:101930004FE753E4C701B6010E941D1B4B015C0138
:1019400020E030E0A9010E94B71C18161CF4C50164
:10195000B40103C0C501B40190580E94811C8B01E1
:1019600020E030E0A901C701B6010E94B71C18169B
:1019700014F460E001C061E089810E9410110F3F02
:10198000110509F014F4112702C00FEF10E0C8810F
:1019900061E08C2F0E9440110115110509F4B1C0BE
:1019A0000F3F110509F4AFC0EC2FF0E0E550FD4FFB
:1019B000E4914E2F50E0FA013197E231F10508F041
:1019C0009DC08827EE58FF4F8F4F0C945E1C84B546
:1019D000806884BD07BDA7C084B5806284BD08BD92
:1019E000A2C080918000806880938000109389005D
:1019F0000093880098C0809180008062809380006E
:101A000010938B0000938A008EC0809180008860C4
:101A10008093800010938D0000938C0084C080918F
:101A2000B00080688093B0000093B3007CC08091C8
:101A3000B00080628093B0000093B40074C08091C5
:101A40009000806880939000109399000093980014
:101A50006AC08091900080628093900010939B00F8
:101A600000939A0060C080919000886080939000FD
:101A700010939D0000939C0056C08091A000806848
:101A80008093A0008091A0008F7B8093A000109392
:101A9000A9000093A80047C08091A00080628093B5
:101AA000A0001093AB000093AA003DC08091A0005D
:101AB00088608093A0001093AD000093AC0033C009
:101AC0008091200180688093200110932901009368
:101AD000280129C080912001806280932001109309
:101AE0002B0100932A011FC0809120018860809300
:101AF000200110932D0100932C0115C00038110511
:101B000014F460E001C061E08C2FDF91CF911F9150
:101B10000F91FF90EF90DF90CF90BF90AF909F908C
:101B20008F900C941011DF91CF911F910F91FF9026
:101B3000EF90DF90CF90BF90AF909F908F900895DF
:101B40001F920F920FB60F9211240BB60F922F9384
:101B50003F934F935F936F937F938F939F93AF9335
:101B6000BF93EF93FF9380919A0587FF05C0109272
:101B700085001092840016C020919A05022E000C58
:101B8000330B8091320990E0281739075CF43091CB
:101B90009A0525E03203F0011124EA50F74F8081C5
:101BA00086FD15C080919A058F5F80939A052091DC
:101BB0009A05022E000C330B8091320990E0281711
:101BC000390794F480919A058C302CF10DC0309136
:101BD0009A053203F0011124EA50F74F808160E04A
:101BE0008F730E941011DECF809184009091850048
:101BF00084349C4918F480E49CE905C080918400F9
:101C000090918500049690938900809388008FEFCF
:101C100080939A052AC040918400509185003091AC
:101C20009A0525E03203F0011124EA50F74F818133
:101C30009281840F951F9093890080938800309142
:101C40009A053203F0011124EA50F74F808186FF94
:101C50000CC030919A053203F0011124EA50F74F7D
:101C6000808161E08F730E941011FF91EF91BF910D
:101C7000AF919F918F917F916F915F914F913F9124
:101C80002F910F900BBE0F900FBE0F901F901895C5
:101C90008EBD00000DB407FEFDCF8EB50895CF9325
:101CA000DF93EC0160E088810E94101188E90E94B6
:101CB000480E80E00E94480E80E00E94480E80E0BE
:101CC0000E94480E80E00E94480E61E088810E94D8
:101CD00010118BE891E00197F1F760E088810E9494
:101CE000101180EE0E94480E61E08881DF91CF9153
:101CF0000C941011EF92FF920F931F93CF93DF93E9
:101D0000EC01909199059F5F292F277020939905E9
:101D100090FF02C090E801C090E021FD9064247023
:101D200009F0906220E1290FFE013C967E018FE0D0
:101D3000E80EF11C00E011E06191662331F070E0E3
:101D4000C8010E944A1C6F5F01C060E0DF01149768
:101D50006C93322F369F030E30E0311D1124CF01DA
:101D60000797311103C0EC01188203C03150EC0118
:101D70003883662311F061506C93EE15FF05E1F690
:101D8000DF91CF911F910F91FF90EF90089585ED16
:101D90008093BC008091BC0084FDFCCF10921C0697
:101DA00008954091CF05262F30E0240F311D2132B8
:101DB0003105DCF420911C062430C9F4FC0180E0DC
:101DC00090E0861758F43091CF052191DC01A3559E
:101DD000BA4FA30FB11D2C930196F3CF8091CF057D
:101DE000680F6093CF0580E0089581E0089582E058
:101DF0000895089581E090E03091A7052091A6050F
:101E0000321710F480E090E0919581959109089542
:101E10008091A7059091A605891730F48F5F809374
:101E2000A70580E090E008958FEF9FEF08958091DF
:101E3000A60590E02091A705821B91090895CF92F5
:101E4000DF92EF92FF920F931F93CF93DF937C016A
:101E5000262F972F8A0180911D06882391F0C62F87
:101E6000D72F6E01C40ED51ECC15DD0571F069911A
:101E7000D701ED91FC910190F081E02DC7011995FA
:101E8000F3CF642F822F0E94D10EC801DF91CF9132
:101E90001F910F91FF90EF90DF90CF900895CF9317
:101EA000DF931F92CDB7DEB7698320911D062223F1
:101EB000D1F020914006203240F021E030E0FC01DA
:101EC0003383228380E090E015C080911E06E82FC6
:101ED000F0E0E15EF94F998190838F5F80931E0659
:101EE0008093400605C061E0CE0101960E94D10EAC
:101EF00081E090E00F90DF91CF9108951F920F92B3
:101F00000FB60F9211240F900FBE0F901F901895CF
:101F10001F920F920FB60F9211240BB60F922F93B0
:101F20003F934F935F936F937F938F939F93AF9361
:101F3000BF93EF93FF938091B900887F803609F4B7
:101F40009CC068F5883209F45BC090F4803109F4D4
:101F500054C038F4882309F4F6C0883009F44DC021
:101F6000F6C0883109F44CC0803209F45DC0EFC07E
:101F7000803409F468C048F4803309F455C08833CC
:101F800009F0E5C080931A06D8C0803509F44FC027
:101F9000883509F45DC0883409F0D9C0D6C08839C5
:101FA00009F4C7C0A8F4883709F467C038F4883644
:101FB00009F463C0803709F460C0C9C0883809F4E7
:101FC000B8C0803909F45FC0803809F0C0C05BC078
:101FD000803B09F486C038F4803A09F466C0883A38
:101FE00009F47FC0B4C0803C09F4A7C0883C09F460
:101FF000A4C0883B09F48AC0AAC08091F70510C02C
:102000009091190680911806981770F5E0911906BD
:1020100081E08E0F80931906F0E0E850FA4F80813E
:102020008093BB0085EC86C080931A068EC0E09139
:10203000190681E08E0F809319068091BB00F0E0B5
:10204000E850FA4F808390911906809118066EC06F
:10205000E091190681E08E0F809319068091BB00F4
:10206000F0E0E850FA4F808380911B0681116DC02B
:1020700081E08093F60584EA61C083E080931C06CA
:102080001092F305CFCF8091F305803208F051C054
:10209000E091F30581E08E0F8093F3058091BB0002
:1020A000F0E0ED52FA4F8083BDCF85EC8093BC0009
:1020B00010921C068091F305803230F4E091F30514
:1020C000F0E0ED52FA4F10826091F30570E0E0917C
:1020D000D105F091D20583ED95E019951092F305A5
:1020E00036C084E080931C061092D0051092CF0574
:1020F000E091CD05F091CE0519958091CF05811124
:1021000005C081E08093CF051092AD05E091D00528
:1021100081E08E0F8093D005F0E0E355FA4F808187
:102120008093BB009091D0058091CF05981708F45B
:1021300079CF85E88093BC000AC085EC8093BC0011
:1021400010921C0604C010921A060E94C70EFF913E
:10215000EF91BF91AF919F918F917F916F915F911F
:102160004F913F912F910F900BBE0F900FBE0F908C
:102170001F90189590E0FC013197E231F10508F0CD
:102180004EC08827EC57FF4F8F4F0C945E1C8091F8
:1021900080008F7703C0809180008F7D80938000C6
:1021A000089580918000877FF9CF84B58F7702C032
:1021B00084B58F7D84BD08958091B0008F7703C072
:1021C0008091B0008F7D8093B00008958091900041
:1021D0008F7707C0809190008F7D03C08091900021
:1021E000877F8093900008958091A0008F7707C02B
:1021F0008091A0008F7D03C08091A000877F809395
:10220000A0000895809120018F7707C08091200160
:102210008F7D03C080912001877F809320010895E6
:102220001F93CF93DF93282F30E0F901E550FD4F46
:102230008491F901EB54FD4FD491F901E159FD4F1F
:10224000C491CC23C9F0162F81110E94BA10EC2F33
:10225000F0E0EE0FFF1FEB5AFD4FA591B4918FB741
:10226000F894111105C09C91ED2FE095E92302C06F
:10227000EC91ED2BEC938FBFDF91CF911F910895DF
:10228000CF93DF9390E0FC01EB54FD4F2491FC01D0
:10229000E159FD4F8491882361F190E0880F991FE7
:1022A000FC01E55CFD4FC591D491FC01EB5AFD4F5B
:1022B000A591B491611109C09FB7F89488812095C8
:1022C00082238883EC912E230BC0623061F49FB788
:1022D000F8943881822F809583238883EC912E2B6C
:1022E0002C939FBF06C08FB7F894E8812E2B2883CC
:1022F0008FBFDF91CF910895863308F08653909178
:102300007B00282F2870977F922B90937B008770FB
:10231000806480937C0080917A00806480937A004E
:1023200080917A0086FDFCCF809178002091790021
:1023300090E0922B08953FB7F8948091A905909171
:10234000AA05A091AB05B091AC0526B5A89B05C028
:102350002F3F19F00196A11DB11D3FBFBA2FA92F24
:10236000982F8827820F911DA11DB11DBC01CD01A1
:1023700042E0660F771F881F991F4A95D1F708958D
:102380008F929F92AF92BF92CF92DF92EF92FF9285
:102390006B017C010E949B114B015C01C114D104B3
:1023A000E104F104F1F00E949B11DC01CB018819DA
:1023B0009909AA09BB09883E9340A105B10570F3AC
:1023C00021E0C21AD108E108F10888EE880E83E006
:1023D000981EA11CB11CC114D104E104F10419F729
:1023E000DDCFFF90EF90DF90CF90BF90AF909F90A8
:1023F0008F9008951F920F920FB60F9211242F9372
:102400003F938F939F93AF93BF938091A205909139
:10241000A305A091A405B091A5053091A80523E0DE
:10242000230F2D3720F40196A11DB11D05C026E80C
:10243000230F0296A11DB11D2093A8058093A2052C
:102440009093A305A093A405B093A5058091A90539
:102450009091AA05A091AB05B091AC050196A11D84
:10246000B11D8093A9059093AA05A093AB05B093E5
:10247000AC05BF91AF919F918F913F912F910F909C
:102480000FBE0F901F901895009769F0FC01019006
:102490000020E9F73197AF01481B590BBC0187E8D1
:1024A00097E00C945C0880E090E00895CF93DF9370
:1024B0000E944412EC0188E094E00E9444128C0FC8
:1024C0009D1FDF91CF910895E7E8F7E0A089B189DA
:1024D00082E08C93A485B5851C92A685B7858FEC88
:1024E0008C93108EA489B58986E08C93A289B389D8
:1024F0008C9180618C93A289B3898C9188608C9334
:10250000A289B3898C9180688C930288F389E02D2D
:1025100080818F7D808308952091400690913F06B1
:10252000213208F04AC080911C068111FCCF32E0B4
:1025300030931C0631E030931B063FEF30931A06B0
:102540001092190620931806AFE1B6E048EF55E067
:10255000FA013E2F341B321718F43D913193F9CF15
:102560001092F7052091F705990F922B9093F7059C
:102570009091F605913061F41092F6059091F7056F
:102580009093BB009091BC0093FDF8CF95EC01C0F7
:1025900095EE9093BC0090911C069230E1F39091DF
:1025A0001A069F3F79F080911A06803241F080919F
:1025B0001A06803331F084E005C081E003C082E078
:1025C00001C083E010921E061092400610921D0674
:1025D0000895EF92FF921F93CF93DF931F92CDB791
:1025E000DEB7162F9CEFE92E99E0F92ED7011C9645
:1025F0009C911C9721E020931D0690933F0610921A
:102600001E06109240061A960D90BC91A02DED91D9
:10261000FC9111970190F081E02D682FCD01798315
:102620001995F70182859385DC01ED91FC9101906C
:10263000F081E02D7981672F1995F70182859385C7
:10264000DC01ED91FC910190F081E02D612F199555
:102650000F90DF91CF911F91FF90EF900C948C120F
:102660008F929F92AF92BF920F931F93CF93DF935E
:10267000CDB7DEB7A1970FB6F894DEBF0FBECDBFC2
:1026800019A2423008F44AE08E010F5D1F4F842EDC
:10269000912CA12CB12CA50194010E940D1CE62FB8
:1026A000B901CA0101501109EA3014F4E05D01C01A
:1026B000E95CD801EC93232B242B252B61F7C8016F
:1026C0000E944412A1960FB6F894DEBF0FBECDBF94
:1026D000DF91CF911F910F91BF90AF909F908F90FE
:1026E0000895CF92DF92EF92FF92CF93DF936B0129
:1026F0007C01E0918707F09188070190F081E02D3F
:102700006DE287E897E01995EC0166277727CB0102
:102710006C197D098E099F094AE00E9430138C0FC5
:102720009D1FDF91CF91FF90EF90DF90CF900895A4
:10273000CF93DF93BC01990F880B990B97FF03C0D0
:102740000E94711303C04AE00E943013EC0188E03C
:1027500094E00E9444128C0F9D1FDF91CF91089549
:10276000CF93DF93CDB7DEB7C859D1090FB6F89430
:10277000DEBF0FBECDBF789484B5826084BD84B5C2
:10278000816084BD85B5826085BD85B5816085BD6C
:1027900080916E00816080936E0010928100809124
:1027A00081008260809381008091810081608093AC
:1027B0008100809180008160809380008091B100D1
:1027C00084608093B1008091B00081608093B000FC
:1027D000809191008260809391008091910081604E
:1027E000809391008091900081608093900080910F
:1027F000A10082608093A1008091A10081608093FC
:10280000A1008091A00081608093A00080912101AF
:102810008260809321018091210181608093210158
:102820008091200181608093200180917A008460F2
:1028300080937A0080917A00826080937A00809100
:102840007A00816080937A0080917A00806880931A
:102850007A001092C1000E94641261E08091FD092B
:102860000E94401160E08091FD090E94101160E01B
:102870008091FC090E94401181E496E09093070A40
:102880008093060A1092A7051092A60510921E06C4
:102890001092400610921C0681E080931B06109255
:1028A000F60561E084E10E94101161E085E10E947B
:1028B00010118091B9008E7F8093B9008091B9008A
:1028C0008D7F8093B90088E48093B80085E480937D
:1028D000BC0080E090E1A0E0B0E08093090A909312
:1028E0000A0AA0930B0AB0930C0A8AE090E0A0E0D9
:1028F000B0E080930D0A90930E0AA0930F0AB09354
:10290000100A80E090E0A0E0B0E48093110A909378
:10291000120AA093130AB093140A60E070E185E0F4
:102920000E94E9126FE979E380E00E94E91209E16F
:102930001AE0A12CB12CC12CD12C24EA422E22E089
:10294000522E3AEE632E32E0732E4BEC842E47E08B
:10295000942E96012450364F1901D90114969C915A
:10296000149712968C91F501E450F64F7F01818FF8
:10297000928F61E00E94401161E0D7015A968C91DC
:102980000E944011F10190858681D8018C93F70156
:10299000968F61E00E94401160E0D7015E968C91B5
:1029A0000E94401161E0F80180810E941011FFB681
:1029B000F89480911304811125C0F2018491F301F0
:1029C0009491E82FF0E0EE0FFF1FE55CFD4FA5911D
:1029D000B4918C91982321F461E085E30E94101159
:1029E00061E085E30E9440118CB580618CBD8CB59F
:1029F00080648CBD61E084E30E94401161E083E368
:102A00000E944011809113048F5F80931304FFBED6
:102A1000C4010197F1F760E0D8018C910E94101178
:102A200088E80E94480E83E00E94480E61E0F801A9
:102A300080810E941011C4010197F1F7C8010E9422
:102A40004F0EF2E0AF0EB11C0E5F1F4FCA94CD289F
:102A500021F0CC24C394D12C7CCF01E21AE0B4E065
:102A6000FB2EF00E60E0D8018D918D010E94401187
:102A7000F012F8CF60E3E62E6AE0F62E0DE21AE0DF
:102A800075E0A72EECE0CE2EF2E09F2EA2E0BA2E4B
:102A9000B00EF8013897D080F80180818C3008F0B2
:102AA00046C061E08D2D0E944011D8018C91A89EF6
:102AB000F0011124EA50F74F9D2D9F732081207C57
:102AC000D22ED92AD082138214826C2D0E943E1CF1
:102AD000BCE08B9FA001112420E030E0B901640F1D
:102AE000751FA69EF001A79EF00D1124EA50F74F26
:102AF000908196FD12C02F5F3F4F2C30310571F74A
:102B000081110BC01092800090928100109285007C
:102B10001092840096BA90926F00D801EC91AE9E0C
:102B2000F0011124EA50F74F808180648083F8011E
:102B30003297908132978081F70131978083F70136
:102B4000908360E00E94401161E0D7018C910E9467
:102B5000401160E0F70180810E9410110F5F1F4F4C
:102B6000F2E0EF0EF11CB01294CFF8941092200115
:102B700089E08093210180E293E090932901809382
:102B80002801109225011092240182E080937300A5
:102B9000789480932408109228088091250860E09A
:102BA0000E94401160E08BE00E94401160E08CE0E8
:102BB0000E94401160E08DE00E94401160E08EE0D4
:102BC0000E94401160E08FE00E94401161E085E3C7
:102BD0000E94401161E087E10E94401161E08DE2B6
:102BE0000E94401161E081E30E9440110E94641242
:102BF00080912904811145C010921B0410921A047F
:102C00008FEF80931E0480931F0480932004809391
:102C10002104809322048093230481E08093240480
:102C2000109226041092250410921D0410921C0488
:102C30008091160490911704892B31F488E194E077
:102C40009093170480931604E0911404F0911504F6
:102C5000309721F088E194E09583848388E194E0C3
:102C60009093150480931404109228041092270462
:102C700087EB92E0909319048093180481E080938D
:102C80002904E0911804F09119040480F581E02DE5
:102C900088E194E0199581E394E090931B0480937C
:102CA0001A0488E790E09093260480932504E0912D
:102CB0001804F09119040284F385E02D88E194E072
:102CC0001995009729F19C0140E050E060E472E41E
:102CD0008FE090E00E94DB1B722F632F0091360A79
:102CE0001091370A2091380A3091390A872F962F90
:102CF000DA0180179107A207B30710F4D901C801C0
:102D00008093360A9093370AA093380AB093390A11
:102D10008FEF80931E0480EB80931F0480EF8093DD
:102D2000200484E68093330A6AE580E00E94BD04B3
:102D30006AE581E00E94BD0433E0632E712C4EE011
:102D4000242E312C52E0452E512C60E070E080E0C2
:102D500090E00E941C0200E010E086E090E00E94FB
:102D60000302F82E85E090E00E940302882359F0C8
:102D70000F5F1F4FC801B3010E944A1C60E070E062
:102D800001960E941C02FF2041F3C801B3010E947A
:102D90004A1C8C014C012FEF821A920A61E070E00C
:102DA000C4010E941C0264E181E00E94BD0466E946
:102DB00080E00E94BD0489EB93E00E9456128BE0F4
:102DC0000E947C110E94981383EC93E00E9456129B
:102DD0008CE00E947C110E9498138DEC93E00E947D
:102DE00056128DE00E947C110E94981360ED77E0EE
:102DF00080E090E00E94C01187ED93E00E9456129F
:102E000010921204109211041092100410920F04E8
:102E100081E090E090930E0480930D04EBE0F2E0EB
:102E2000DE01119688E501900D928A95E1F7E3E6BF
:102E3000F2E0DE01A758BF4F80E201900D928A9523
:102E4000E1F7E3E8F2E0DE01A75ABF4F80E201902C
:102E50000D928A95E1F70115110581F40E94EA1A95
:102E6000B1010E944A1C8C010E94981323E0000FBC
:102E7000111F2A95E1F7E1E0F0E024C001301105CF
:102E800089F40E94EA1A68E070E00E944A1C8C01F2
:102E90000E94981393E0000F111F9A95E1F7E9E75C
:102EA000F0E010C00E94EA1A66E070E00E944A1C3E
:102EB0008C010E94981383E0000F111F8A95E1F79F
:102EC000E9E5F0E0EC0FFD1FE00FF11F008111813B
:102ED000C280D380E480F580A680B780C8010E94BC
:102EE0009813C6010E949813C7010E949813C50148
:102EF0000E94981361E070E0C4010E941C020E94CD
:102F0000670380911104909112040196909312042A
:102F1000809311040E94BA020E94670380910F04FB
:102F20009091100401969093100480930F040E94D6
:102F3000060368EB7BE080E090E00E94C011E016A1
:102F4000F1068CF5B601C8010E941A0480911104A3
:102F500090911204E816F90664F480910D049091A2
:102F60000E048230910509F44CC0019711F40E94BF
:102F7000700268E781E00E94BD04B501C7010E94AC
:102F80001A0480910D0490910E04009719F40E9488
:102F9000BA0204C0029711F40E9406036CE380E0B9
:102FA0000E94BD0441C00E151F0524F5B501C701DF
:102FB0000E941A04809111049091120408171907B5
:102FC00074F480910D0490910E048230910519F4EF
:102FD0000E94060304C0019711F40E94700268E782
:102FE00081E00E94BD0468EB7BE080E090E00E94FD
:102FF000C01117C0CA14DB043CF4B601C8010E941A
:103000001A040E940603B5CFAC14BD046CF4B501DC
:10301000C7010E941A040E94060368E781E00E942B
:10302000BD04B601C801ABCF8FEE93E00E945612EB
:10303000809111049091120402972CF00E94670372
:103040000E944803F5CF84EF93E00E9456128091CE
:103050000F04909110048130910539F40E94BA0256
:103060000E9467030E94060308C0029741F40E9471
:1030700006030E9467030E94BA020E94670340E0B1
:1030800050E060E070E887E19AE00E94870C40E041
:1030900050E0BA0185E19AE00E94870C68E873E18C
:1030A00080E090E00E94C0118CEF93E00E945612E5
:1030B0004DEC5CEC6CE47EE387E19AE00E94870CC7
:1030C0004DEC5CEC6CE47EE385E19AE00E94870CB9
:1030D00068E978E080E090E00E94C01140E050E0B4
:1030E000BA0185E19AE00E94870C40E050E060E080
:1030F00070E887E19AE00E94870C80910D0490911E
:103100000E048130910519F483E090E013C000971C
:1031100029F450920E0440920D0410C082309105A3
:1031200029F410920E0410920D0408C0039731F494
:1031300081E090E090930E0480930D0480910D0443
:1031400090910E040E9498130E948509FECD8091F3
:103150003309909134090C94511D10924406109239
:10316000430688EE93E0A0E0B0E08093450690939C
:103170004606A0934706B093480621ED32E030930F
:103180004206209341061092500610924F068093FB
:10319000510690935206A0935306B093540623EE23
:1031A00032E030934E0620934D0645E351E05093B4
:1031B0005A064093590644E351E050935C0640930D
:1031C0005B0640E351E050935E0640935D0641E3A9
:1031D00051E05093600640935F0642E351E0509304
:1031E00062064093610646E351E0509364064093C3
:1031F0006306109266061092670610926806109297
:1032000069061092ED061092EC068093EE069093FC
:10321000EF06A093F006B093F1063093EB062093EF
:10322000EA0645ED50E05093F7064093F60644ED6C
:1032300050E05093F9064093F80640ED50E050936B
:10324000FB064093FA0641ED50E05093FD06409393
:10325000FC0642ED50E05093FF064093FE0646ED1B
:1032600050E050930107409300071092030710921B
:103270000407109205071092060710928A07109211
:10328000890780938B0790938C07A0938D07B09349
:103290008E07309388072093870785EC90E0909302
:1032A00094078093930784EC90E090939607809323
:1032B000950780EC90E0909398078093970781ECB6
:1032C00090E090939A078093990782EC90E0909316
:1032D0009C0780939B0786EC90E090939E078093D9
:1032E0009D071092A0071092A1071092A2071092BA
:1032F000A30786E380931D0A87E380931E0A88E371
:1033000080931F0A89E38093200A8BE18093210A2E
:103310008DE18093220A8AE18093230A8CE18093D5
:10332000240A84E08093250A87E08093260A10927D
:10333000270A84EB8093280A86E18093290A88E192
:1033400080932A0A87E180932B0A89E180932C0AD3
:10335000E0913209EC3020F08FEF80932D0A10C0FD
:1033600081E08E0F80933209E0932D0A25E0E29FE1
:10337000F0011124EA50F74F88EB9BE092838183A0
:10338000E0913209EC3020F08FEF80932E0A10C0CC
:1033900081E08E0F80933209E0932E0A85E0E89F4A
:1033A000F0011124EA50F74F88EB9BE09283818370
:1033B0008CE08093FC0984E28093FD0986E0809391
:1033C000FE0985E08093FF098FE18093000A8EE17A
:1033D0008093010A83E28093020A82E28093030AC7
:1033E00085E48093040A84E48093050A80E4809352
:1033F000080A10920D0A10920E0A10920F0A1092EB
:10340000100A1092110A1092120A1092130A1092C6
:10341000140AEEE3F9E08FEF9FEFDC0112821382D2
:1034200014821582168217821086118683879487EC
:10343000A587B6878787908BA18BB28B1286118266
:103440001082739629E0EC3FF20741F78DE090E09F
:103450000E94BC1CFC011382128285EF92E09183D2
:103460008083118687E2848384E1828784E0838776
:103470001486F0933B09E0933A0910923C091092AC
:103480003D0985E28093250810922708109234099F
:1034900010923309109236091092350910923809AA
:1034A0001092370961E070E080E090E00E94E91D31
:1034B000009789F09093340980933309109236096C
:1034C000109235092091370930913809232B71F575
:1034D000FC0110822BC08091330990913409009730
:1034E00011F00E94511D109234091092330910926C
:1034F00038091092370910923609109235098FEF6A
:103500008093330A1092350A1092340A10923F0ABF
:1035100010923E0A8FEF9FEFDC0180933A0A90935E
:103520003B0AA0933C0AB0933D0A089510923809D3
:10353000109237096AE074E00E94E01EE0CF8F929B
:103540009F92AF92BF92CF92DF92EF92FF92CF9372
:10355000DF93EC01688179818A819B816115710516
:103560008105910521F464E279ED8BE597E02DE189
:1035700033EF41E050E00E94DB1B49015A019B01FF
:10358000AC01A7EAB1E40E94FA1B6B017C01ACEE2E
:10359000B4EFA50194010E94081CDC01CB018C0D45
:1035A0009D1DAE1DBF1DB7FF03C00197A109B04807
:1035B00088839983AA83BB839F77DF91CF91FF9004
:1035C000EF90DF90CF90BF90AF909F908F90089535
:1035D0000C949F1A81E092E00C949F1AA0E0B0E056
:1035E0008093010290930202A0930302B09304021D
:1035F0000895990F0008550FAA0BE0E8FEEF161684
:103600001706E807F907C0F012161306E407F507D6
:1036100098F0621B730B840B950B39F40A2661F04A
:10362000232B242B252B21F408950A2609F4A140ED
:10363000A6958FEF811D811D08950E94301B0C946B
:10364000A11B0E94931B38F00E949A1B20F0952327
:1036500011F00C948A1B0C94901B11240C94D51B14
:103660000E94B21B70F3959FC1F3950F50E0551F58
:10367000629FF001729FBB27F00DB11D639FAA27C7
:10368000F00DB11DAA1F649F6627B00DA11D661F16
:10369000829F2227B00DA11D621F739FB00DA11D37
:1036A000621F839FA00D611D221F749F3327A00DF1
:1036B000611D231F849F600D211D822F762F6A2F8D
:1036C00011249F5750409AF0F1F088234AF0EE0FF2
:1036D000FF1FBB1F661F771F881F91505040A9F71F
:1036E0009E3F510580F00C948A1B0C94D51B5F3FC4
:1036F000E4F3983ED4F3869577956795B795F7955B
:10370000E7959F5FC1F7FE2B880F911D96958795D2
:1037100097F9089597F99F6780E870E060E0089551
:103720009FEF80EC089500240A94161617061806D9
:103730000906089500240A941216130614060506B5
:103740000895092E0394000C11F4882352F0BB0F46
:1037500040F4BF2B11F460FF04C06F5F7F4F8F4FA9
:103760009F4F089557FD9058440F551F59F05F3FE4
:1037700071F04795880F97FB991F61F09F3F79F093
:1037800087950895121613061406551FF2CF469515
:10379000F1DF08C0161617061806991FF1CF869597
:1037A0007105610508940895E894BB27662777277B
:1037B000CB0197F90895052E97FB1EF400940E9403
:1037C000F21B57FD07D00E940D1C07FC03D04EF4DE
:1037D0000C94F21B50954095309521953F4F4F4FDB
:1037E0005F4F089590958095709561957F4F8F4FAD
:1037F0009F4F08950E942F1CA59F900DB49F900D80
:10380000A49F800D911D11240895B7FF0C94FA1BFD
:103810000E94FA1B821B930B0895A1E21A2EAA1B89
:10382000BB1BFD010DC0AA1FBB1FEE1FFF1FA21770
:10383000B307E407F50720F0A21BB30BE40BF50B6D
:10384000661F771F881F991F1A9469F760957095F6
:10385000809590959B01AC01BD01CF010895A29F79
:10386000B001B39FC001A39F700D811D1124911D54
:10387000B29F700D811D1124911D0895991B79E04F
:1038800004C0991F961708F0961B881F7A95C9F7F0
:103890008095089597FB072E16F4009407D077FDC6
:1038A00009D00E946D1C07FC05D03EF490958195CF
:1038B0009F4F0895709561957F4F0895EE0FFF1FFC
:1038C000881F8BBF0790F691E02D19940E942F1C42
:1038D000B7FF0895821B930B0895AA1BBB1B51E1F0
:1038E00007C0AA1FBB1FA617B70710F0A61BB70B70
:1038F000881F991F5A95A9F780959095BC01CD0115
:1039000008950E94881C6894B1110C94D51B0895E9
:103910000E94BA1B88F09F5798F0B92F9927B7518A
:10392000B0F0E1F0660F771F881F991F1AF0BA9563
:10393000C9F714C0B13091F00E94D41BB1E00895D2
:103940000C94D41B672F782F8827B85F39F0B93FC4
:10395000CCF3869577956795B395D9F73EF4909516
:103960008095709561957F4F8F4F9F4F08950E946E
:10397000F91A08F48FEF0895CF93DF938230910501
:1039800010F482E090E0E091420AF091430A20E0D6
:1039900030E0C0E0D0E0309711F14081518148170C
:1039A0005907C0F04817590761F482819381209725
:1039B00019F09B838A832BC09093430A8093420A19
:1039C00026C02115310519F04217530718F49A0142
:1039D000BE01DF01EF010280F381E02DDCCF211574
:1039E000310509F1281B390B2430310590F412966A
:1039F0008D919C9113976115710521F0FB019383C3
:103A0000828304C09093430A8093420AFD01329658
:103A100044C0FD01E20FF31F8193919322503109BD
:103A20002D933C933AC02091400A3091410A232BB8
:103A300041F420910702309108023093410A20930B
:103A4000400A20910502309106022115310541F40A
:103A50002DB73EB74091090250910A02241B350B45
:103A6000E091400AF091410AE217F307A0F42E1BFF
:103A70003F0B2817390778F0AC014E5F5F4F2417D2
:103A8000350748F04E0F5F1F5093410A4093400A9C
:103A90008193919302C0E0E0F0E0CF01DF91CF91FC
:103AA00008950F931F93CF93DF93009709F48CC071
:103AB000FC013297138212820091420A1091430A4C
:103AC0000115110581F420813181820F931F20910E
:103AD000400A3091410A2817390779F5F093410AD5
:103AE000E093400A71C0D80140E050E0AE17BF0734
:103AF00050F412962D913C911397AD01211531058B
:103B000009F1D901F3CF9D01DA013383228360816A
:103B10007181860F971F8217930769F4EC01288142
:103B20003981260F371F2E5F3F4F318320838A81D3
:103B30009B8193838283452B29F4F093430AE0937E
:103B4000420A42C01396FC93EE931297ED014991FD
:103B500059919E01240F351FE217F30771F48081FC
:103B60009181840F951F029611969C938E9382816A
:103B7000938113969C938E931297E0E0F0E0D80126
:103B800012968D919C911397009719F0F8018C0172
:103B9000F6CF8D919C9198012E5F3F4F820F931F1E
:103BA0002091400A3091410A2817390769F430976B
:103BB00029F41092430A1092420A02C01382128220
:103BC0001093410A0093400ADF91CF911F910F910A
:103BD00008956F927F928F929F92AF92BF92CF92F1
:103BE000DF92EF92FF920F931F93CF93DF93EC013D
:103BF000009789F4CB01DF91CF911F910F91FF9036
:103C0000EF90DF90CF90BF90AF909F908F907F907C
:103C10006F900C94BC1CFC01E60FF71F9C01225016
:103C20003109E217F30708F4ACC0D9010D911C91DA
:103C3000119706171707B0F00530110508F49FC05B
:103C4000C80104978617970708F499C00250110914
:103C5000061B170B019311936D937C93CF010E9468
:103C6000511D8DC05B01A01AB10A4C01800E911E3E
:103C7000A091420AB091430A40E050E0E12CF12CBF
:103C8000109709F44AC0A815B905D1F56D907C903C
:103C90001197630182E0C80ED11CCA14DB0480F1C5
:103CA000A3014A195B096A0182E0C80ED11C129671
:103CB000BC9012971396AC91B5E0CB16D10440F0AE
:103CC000B282A38351834083D9016D937C930AC050
:103CD0000E5F1F4FC301800F911FF90191838083F5
:103CE000EB2DFA2FE114F10431F0D7011396FC9378
:103CF000EE93129744C0F093430AE093420A3FC008
:103D00008D919C9111974817590708F4AC017D01DA
:103D100012960D90BC91A02DB3CF8091400A909146
:103D2000410A88159905E1F446175707C8F48091B0
:103D3000050290910602009741F48DB79EB740911D
:103D4000090250910A02841B950BE817F907C8F481
:103D5000F093410AE093400AF901718360830FC038
:103D6000CB010E94BC1C7C01009759F0A801BE0148
:103D70000E94D71ECE010E94511DC70104C0CE0172
:103D800002C080E090E0DF91CF911F910F91FF90F2
:103D9000EF90DF90CF90BF90AF909F908F907F90EB
:103DA0006F90089581E090E0F8940C94E71EFB0179
:103DB000DC0102C001900D9241505040D8F70895A7
:103DC000FB01DC0101900D920020E1F7089511E064
:103DD000C2EAD1E000E006C0802FFE010E945E1C16
:103DE0002196011DC33AD10780E00807A9F7F8948E
:023DF000FFCF03
:103DF200FF010000000000440A200002000100034D
:103E020000020002000200030001000200010002A1
:103E12000002000200020002000100010001000392
:103E22000001000300010001000100020002000184
:103E32000002000100020003000200030002000170
:103E42000002000200010003000100020002000360
:103E52000002000100020002000200010001000253
:103E62000001000300010002000100030002000241
:103E7200000200030001000300020003000200032D
:103E82000001000300010002000200030002000220
:103E920000010000000000B609B609B609D601FC0F
:103EA200010002000000001908D5075E05D601FCDA
:103EB200015B05640506000D000C000B000000000C
:103EC200004F0F1F0FB309F90E170F080FFA0E005C
:103ED2000000001C095C08A0086309D108AF08C3F0
:103EE2000800000000E0095C08B309B209466F6EE1
:103EF2006374696F6E2043616C63756C6572506F99
:103F0200736974696F6E58203A00494E5445525392
:103F1200454354494F4E00466F6E6374696F6E207D
:103F2200706F736974696F6E6E657242616C6C65F5
:103F3200203A0042616C6C6558203A00706F7369D8
:103F420074696F6E58203A0042616C6C6559203A70
:103F520000706F736974696F6E59203A00466F6E14
:103F62006374696F6E2043616C63756C6572506F28
:103F7200736974696F6E59203A00496E76616C6993
:103F82006420736572766F206964210053657276CE
:103F92006F20616E676C65206973206F7574206F86
:103FA200662072616E6765210044726F69746520D4
:103FB2003A2000476175636865203A200043656EC8
:103FC200747265203A2000466F6E6374696F6E20CA
:103FD2004C616E636572506172746965203A004E7D
:103FE20069636500426F6E6A6F7572003138302006
:0C3FF20064656772C3A973000D0A00002B
:00000001FF
