:100000000C94A3010C94D4010C94D4010C94D4014D
:100010000C94D4010C94D4010C94D4010C94D4010C
:100020000C94D4010C941F110C941F110C941F11EB
:100030000C94D4010C94EE060C94D4010C94D401CD
:100040000C94D4010C946C0F0C94D4010C94D40136
:100050000C94D4010C94D4010C94D4010C949B13F3
:100060000C94D4010C94420D0C94180D0C94D401F2
:100070000C94D4010C94D4010C94D4010C94D401AC
:100080000C94D4010C94D4010C94D4010C94D4019C
:100090000C94D4010C94D4010C94D4010C94291127
:1000A0000C94D4010C94D4010C94D4010C94D4017C
:1000B0000C94D4010C94D4010C94D4010C946C0DC8
:1000C0000C94D4010C94D4010C94D4010C94EE0C37
:1000D0000C94C40C0C94D4010C949A0C0C94700CD9
:1000E0000C94D401B30EB80EBD0EC70ED10E4A0F3C
:1000F000DB0EE30EEB0EF50EFF0E090F180F220FAD
:100100004A0F2C0F360F400F7612791268126C12BC
:100110007212B0127D12811287128B128F129512F9
:1001200099129D12B012A312A712AB120C94AB122B
:100130000C94A3120C947D120C94C70E0C94C90A53
:100140000C94DB0E0C94A7120C94B8100C941F0C9A
:100150000C94E30E0C94B30E0C94EB0E0C94D00B99
:100160000C9408020C9481120C949B100C940D0BAF
:100170000C946C120C94220F0C94DB010C94890BE0
:100180000C94B0120C949D120C94400F0C946812B5
:100190000C94300B0C94C0100C94EC060C941C0BBB
:1001A0000C9476120C9401020C94360F0C94991254
:1001B0000C94F0100C94E8170C94DA190C949E042B
:1001C0000C9495120C949A100C945B040C944B0CA8
:1001D0000C94BD0E0C94090F0C94B80E0C9487125D
:1001E0000C944A0F0C942C0F0C94F50E0C94180FD1
:1001F0000C948F120C94FF0E0C9405020C948B122D
:100200000C94D10E0C9479120C94200C0C94D60101
:100210000C9472120C94A9100C94D9010C943E0BFE
:1002200002000020002300260029002C002F0032AD
:100230000000010000030106010901000021002463
:100240000027002A002D00300033000101000004C7
:100250000107010A0100002200250028002B002EC2
:10026000003100340002010000050108010B010506
:10027000050505070508080808020202020A0A081F
:100280000804040404010101010101010103030345
:100290000303030303040707070C0C0C0C0C0C0CE2
:1002A0000C0202020206060606060606060B0B0BE9
:1002B0000B0B0B0B0B010210202008081020401024
:1002C000204080020102010804020101020408101A
:1002D0002040808040201008040201800402018038
:1002E0004020100804020108040201010204081061
:1002F000204080010204081020408000000A0B0208
:10030000090C0D0E080703040100000000000000A6
:1003100000000000000000000000000000000000DD
:10032000000000000000001211100000000000009A
:1003300000000000000000000000000000000000BD
:100340000000E817DA1911241FBECFEFD1E2DEBF9B
:10035000CDBF00E00CBF13E0A0E0B2E0E8E1FDE3B8
:1003600000E00BBF02C007900D92AA39B107D9F780
:1003700029E0AAE9B3E001C01D92A13FB207E1F76D
:1003800011E0C2EAD1E000E006C021970109802F08
:10039000FE010E94F11BC13AD10780E00807A9F7CE
:1003A0000E94E5130C947A1E0C94000080E991E001
:1003B0000895249A0895CF93DF9300D000D0CDB74D
:1003C000DEB7AB011C821D821E82DC01ED91FC9127
:1003D0000190F081E02D19821A821B829E012F5F0D
:1003E0003F4FBE016C5F7F4F199526960FB6F8946C
:1003F000DEBF0FBECDBFDF91CF910895E0E0F0E00A
:100400001994FC0185859685089580E090E0089513
:100410004F925F926F927F928F92AF92BF92CF92E4
:10042000EF92FF920F931F93CF93DF933C01EB0169
:100430000E943C13F30127853089621B730B6A30DD
:100440007105B0F3F894E881F98155B1506185B137
:100450008F7E85B96A859F81262F291B922F2F8336
:10046000BF844A805B807D85FC84EE847F5FF3944B
:10047000E3943E814885A984CB841181D20120E098
:10048000C32F022F322F3181112788943111390F58
:1004900008F43FEF9195889470FD130F1795889499
:1004A00071FD130F1795889472FD130F179588949B
:1004B00073FD130F1795889474FD130F1795889487
:1004C00075FD130F1795889476FD130F1795889473
:1004D00077FD130F17958894232F7111212F960FF5
:1004E000122F002C55B900C000C017FF85B930810C
:1004F0002227889400C0002C85B931113C0F00C020
:10050000002C55B900C000C016FF85B908F43FEFB4
:10051000C195889400C0002C85B9F0FC230F00C061
:10052000002C55B900C000C015FF85B927958894E7
:10053000F1FC230F00C0002C85B92795889400C0DA
:10054000002C55B900C000C014FF85B9F2FC230F80
:100550002795889400C0002C85B9F3FC230F00C0B8
:10056000002C55B900C000C013FF85B927958894A9
:10057000F4FC230F00C0002C85B92795889400C097
:10058000002C55B900C000C012FF85B9F5FC230F3F
:100590002795889400C0002C85B9F6FC230F00C075
:1005A000002C55B900C000C011FF85B9279588946B
:1005B000F7FC230F00C0002C85B92795889400C054
:1005C000002C55B900C000C010FF85B9132FF110E1
:1005D000122FCA0D00C0002C85B900C000C0002C2D
:1005E00055B900C000C017FF85B932812227889411
:1005F00000C0002C85B93111340F00C0002C55B952
:1006000000C000C016FF85B908F43FEFEB0DF11DE7
:1006100000C0002C85B9E0FC230F00C0002C55B9A8
:1006200000C000C015FF85B927958894E1FC230F11
:1006300000C0002C85B92795889400C0002C55B9BE
:1006400000C000C014FF85B9E2FC230F27958894F1
:1006500000C0002C85B9E3FC230F00C0002C55B965
:1006600000C000C013FF85B927958894E4FC230FD0
:1006700000C0002C85B92795889400C0002C55B97E
:1006800000C000C012FF85B9E5FC230F27958894B0
:1006900000C0002C85B9E6FC230F00C0002C55B922
:1006A00000C000C011FF85B927958894E7FC230F8F
:1006B00000C0002C85B92795889400C0002C55B93E
:1006C00000C000C010FF85B9132FE110122F419513
:1006D00000C0002C85B94C0D00C000C055B900C049
:1006E00000C017FF85B931812227889400C0002CF3
:1006F00085B93111390F00C0002C55B900C000C0B8
:1007000016FF85B908F43FEF9195889400C0002C3E
:1007100085B970FD230F00C0002C55B900C000C082
:1007200015FF85B92795889471FD230F00C0002C13
:1007300085B92795889400C0002C55B900C000C029
:1007400014FF85B972FD230F2795889400C0002CF3
:1007500085B973FD230F00C0002C55B900C000C03F
:1007600013FF85B92795889474FD230F00C0002CD2
:1007700085B92795889400C0002C55B900C000C0E9
:1007800012FF85B975FD230F2795889400C0002CB2
:1007900085B976FD230F00C0002C55B900C000C0FC
:1007A00011FF85B92795889477FD230F00C0002C91
:1007B00085B92795889400C0002C55B900C000C0A9
:1007C00010FF85B9132F7111122F960F00C0002C46
:1007D00085B9119709F086CE20EE31E0D2010E9452
:1007E000F91BDC01CB01F4E0B695A79597958795A9
:1007F000FA95D1F720E030E0A9016AE9469E040CA1
:10080000411D569E400D511D1124450D511D840F53
:10081000951FA11DB11D893E43E09407A105B105B7
:1008200008F434C0885E9340A109B10942E0B6954E
:10083000A795979587954A95D1F747E0849F080E2D
:10084000211D949F200D311D1124290F311D609110
:10085000B50370E0860F971F820F931F40918C05A0
:1008600050918D0560918E0570918F05292F33274A
:10087000420F531F611D711D40938C0550938D05D0
:1008800060938E0570938F058093B50378940E94D2
:100890003C13F301708B6787DF91CF911F910F910C
:1008A000FF90EF90CF90BF90AF908F907F906F9020
:1008B0005F904F9008950F931F93CF93DF93CDB721
:1008C000DEB762970FB6F894DEBF0FBECDBF8C01C6
:1008D000F901DC011C968C917A8369835C834B83DC
:1008E0005E834D8390819D8791819E8792819F87B2
:1008F000813029F4CE0101960E941B1006C01C868F
:100900001B861A86198618861F82188A1A8A198ADF
:10091000D801ED91FC910484F585E02DBE016F5F57
:100920007F4FC801199562960FB6F894DEBF0FBECF
:10093000CDBFDF91CF911F910F9108950F931F931A
:10094000CF93DF93CDB7DEB762970FB6F894DEBFD3
:100950000FBECDBF8C01F901DC011C968C917A830E
:1009600069835C834B835E834D8390819D879181F6
:100970009E8792819F87813029F4CE0101960E9443
:100980001B1006C01C861B861A86198618861F82B5
:1009900083E0888B1A8A198AD801ED91FC9104842E
:1009A000F585E02DBE016F5F7F4FC80119956296F6
:1009B0000FB6F894DEBF0FBECDBFDF91CF911F9170
:1009C0000F9108951F93CF93DF93182F0E941D134B
:1009D0008F3F934059F4812F0E941D13EC010E9418
:1009E000470AC83ED340BCF781E001C080E0DF91F8
:1009F000CF911F910895CF93DF93EC018DE592E0A5
:100A00000E94F7084DEC5CEC6CEC7DE386E699E027
:100A10000E94530E4DEC5CEC6CE47EE388E699E0BA
:100A20000E94530E64EF71E080E090E00E94611339
:100A300084E00E941D1388359240D4F340E050E0DA
:100A4000BA0186E699E00E94530E40E050E060E073
:100A500070E888E699E00E94530E28813981C90127
:100A6000019664E070E00E94DD1B99838883DF912A
:100A7000CF9108950F931F93CF93DF93EC018B01D8
:100A800086E792E00E94F708F80180819181813029
:100A9000910521F488819981019605C0039751F44D
:100AA00088819981019799838883DF91CF911F91E4
:100AB0000F91089581E090E00E947A1E0F931F939A
:100AC000CF93DF9383E992E00E94F70884E00E94CD
:100AD0001D1388359240FCF440E050E0BA0186E6F0
:100AE00099E00E94530E4DEC5CEC6CE47EEB88E6E2
:100AF00099E00E94530E84E00E941D1388359240B5
:100B00003CF462E370E080E090E00E946113F3CF78
:100B1000C0E0D0E002C0C1E0D0E084E00E941D133C
:100B2000883592401CF001E010E022C08091B303B0
:100B30009091B4030197B9F740E050E0BA0186E61E
:100B400099E00E94530E4DEC5CEC6CE47EEB88E681
:100B500099E00E94530E84E00E941D138835924054
:100B600014F762E370E080E090E00E946113F3CF3D
:100B700083E00E941D13BC01990F880B990B0E9402
:100B8000411A20E030E040EC5FE30E94A01A20E030
:100B900030E048EC53E40E943A1A87FF7BC04DECEA
:100BA0005CEC6CE47EE386E699E00E94530E40E044
:100BB00050E060E070E888E699E00E94530E1093E0
:100BC000B4030093B303C130D10529F584E00E943A
:100BD0001D13893592403CF062E370E080E090E0C4
:100BE0000E946113F3CF83E00E941D13BC01990F93
:100BF000880B990B0E94411A20E030E040EC5FE343
:100C00000E94A01A20E030E048EC53E40E944A1C05
:100C1000181674F43FC084E00E941D13883592407A
:100C200014F762E370E080E090E00E946113F3CF7C
:100C300040E050E0BA0186E699E00E94530E4DEC88
:100C40005CEC6CE47EEB88E699E00E94530E109217
:100C5000B4031092B303C130D10571F484E00E9453
:100C60001D13883592400CF083CF62E370E080E082
:100C700090E00E946113F2CF84E00E941D13893539
:100C800092400CF475CF62E370E080E090E00E9447
:100C90006113F2CFDF91CF911F910F910895AF9221
:100CA000BF92CF92DF92EF92FF920F931F93CF9359
:100CB000DF935C016B01EA0179018CEA92E00E940A
:100CC000F7080E945E0588EC92E00E94F708F801A0
:100CD00080819181009721F488819981019605C0D6
:100CE000029751F58881998101979983888385EED0
:100CF00092E00E94E508C5010E94470A8EEE92E04C
:100D00000E94E508888199810E94470A8AEF92E053
:100D10000E94E508C6010E94470A83E093E00E9412
:100D2000E508F701808191810E94470A88819981B5
:100D30008A159B0531F604C081E090E00E947A1E7E
:100D4000F701808191818C159D0594F4F8018081D3
:100D500091810197C9F0C8010E94FB048FE093E0E4
:100D60000E94E508F801808191810E94470AEECF38
:100D7000C816D9064CF4F80180819181039721F0BF
:100D8000C8010E94FB04F7CF0E945E05B801C701AD
:100D90000E943A058EEE92E00E94E50888819981D2
:100DA0000E94470A83E093E00E94E508F7018081F2
:100DB00091810E94470AF701808191818C159D05E0
:100DC00019F7DF91CF911F910F91FF90EF90DF9076
:100DD000CF90BF90AF9008950E94651E1F920F9212
:100DE0000FB60F9211240BB60F922F933F934F9390
:100DF0005F936F937F938F939F93AF93BF93EF9383
:100E0000FF938091B9039091BA03A091BB03B09175
:100E1000BC03892B8A2B8B2B59F18091B803E0916D
:100E2000B603F091B7039081892780838091B9033D
:100E30009091BA03A091BB03B091BC031816190698
:100E40001A061B060CF056C08091B9039091BA03A4
:100E5000A091BB03B091BC030197A109B109809394
:100E6000B9039093BA03A093BB03B093BC0342C0F1
:100E700080910002E0E2F2E0E4919FEF90930002A3
:100E8000E230C9F050F4EE2399F0E13081F5909111
:100E90006F009D7F90936F002AC0E43019F1E0F05D
:100EA000E53029F5909173009D7F909373001FC0EA
:100EB00010926E001CC0909170009D7F9093700006
:100EC00091E09093B0009091B100987F94609093DE
:100ED000B1001092B3000BC0909171009D7F909370
:100EE000710005C0909172009D7F9093720060E048
:100EF0000E94B112FF91EF91BF91AF919F918F919D
:100F00007F916F915F914F913F912F910F900BBE09
:100F10000F900FBE0F901F9018953F924F925F92C7
:100F20006F927F928F929F92AF92BF92CF92DF92F9
:100F3000EF92FF920F931F93CF93DF9300D0CDB723
:100F4000DEB7F82E8091870990918809A0918909D0
:100F5000B0918A09892B8A2B8B2BE9F00E943C13D4
:100F600000919709109198092091990930919A0957
:100F7000DC01CB01801B910BA20BB30B0091870905
:100F8000109188092091890930918A098017910769
:100F9000A207B307B8F20E943C13609397097093BD
:100FA00098098093990990939A09E0918F09F0919B
:100FB0009009309759F040918B0950918C096091BC
:100FC0008D0970918E098F2D1995F82E009190053D
:100FD000109191054F2C512C612C712C011511058C
:100FE00009F461C0D8011C96EC901C97809185098A
:100FF000909186098436910510F41C961C92D801B4
:10100000ED91FC91A280B38019821A821B82F110AB
:1010100014C0F80145855685628173819E012F5F5A
:101020003F4FC801F5011995D8011C96EC921C9709
:1010300014960D911C911597D1CFF8013996CE01D8
:1010400001966C0148019CE0890E911CDF01139709
:101050003C902191332001F12223F1F0822F90E086
:10106000A0E0B0E09C01AD012F5F3F4F4F4F5F4FBD
:10107000C301B2010E94C11B9B01AC01832D90E012
:10108000A0E0B0E0BC01CD016F5F7F4F8F4F9F4F5D
:101090000E94C11BD6018C93BFEFCB1ADB0AE81567
:1010A000F905A1F6B6CF80919509909196099C011A
:1010B0002F5F3F4F309396092093950949970CF481
:1010C00047C08FB7F89400918C0510918D05209141
:1010D0008E0530918F058FBFE0919509F0919609AB
:1010E00088EE93E0E89FB001E99F700DF89F700DC6
:1010F0001124072E000C880B990BC0909109D090F9
:101100009209E0909309F0909409A90198012C1993
:101110003D094E095F090E94901B30938609209378
:10112000850910929609109295092FB7F89480912D
:101130008C0590918D05A0918E05B0918F052FBFE4
:101140008093910990939209A0939309B093940985
:101150000F900F900F90DF91CF911F910F91FF9003
:10116000EF90DF90CF90BF90AF909F908F907F9047
:101170006F905F904F903F900895E8EDF6E0A08962
:10118000B18982E08C93A485B5851C92A685B7852C
:101190008FEC8C93108EA489B58986E08C93A289FC
:1011A000B3898C9180618C93A289B3898C9188607A
:1011B0008C93A289B3898C9180688C930288F3897F
:1011C000E02D80818F7D80830895009769F0FC0178
:1011D00001900020E9F73197AF01481B590BBC0182
:1011E00088ED96E00C94C90A80E090E00895CF93D2
:1011F000DF930E94E508EC018AE793E00E94E5088E
:101200008C0F9D1FDF91CF91089520918B059091B8
:101210008A05213208F04AC0809167058111FCCF10
:1012200032E03093670531E0309366053FEF30934D
:1012300065051092640520936305AAE6B5E043E4D2
:1012400055E0FA013E2F341B321718F43D913193CB
:10125000F9CF1092420520914205990F922B90935D
:10126000420590914105913061F4109241059091B1
:1012700042059093BB009091BC0093FDF8CF95EC94
:1012800001C095EE9093BC00909167059230E1F318
:10129000909165059F3F79F080916505803241F01E
:1012A00080916505803331F084E005C081E003C0A2
:1012B00082E001C083E01092690510928B051092C4
:1012C00068050895EF92FF921F93CF93DF931F92CB
:1012D000CDB7DEB7162F9DE4E92E99E0F92ED701A0
:1012E0001C969C911C9721E02093680590938A0599
:1012F0001092690510928B051A960D90BC91A02D45
:10130000ED91FC9111970190F081E02D682FCD01B6
:1013100079831995F70182859385DC01ED91FC9124
:101320000190F081E02D7981672F1995F701828571
:101330009385DC01ED91FC910190F081E02D612F0E
:1013400019950F90DF91CF911F91FF90EF900C9422
:101350000509CF92DF92EF92FF92CF93DF93823015
:1013600018F08FE493E00AC090917809691720F093
:1013700090917909961750F48DE793E0DF91CF9122
:10138000FF90EF90DF90CF900C94F708E82FF0E0FB
:10139000E259F64FC089CC3008F072C0262F30E0F9
:1013A000D0E085E08C9FF0018D9FF00D1124E95B6A
:1013B000F74F8381283C31059CF528E830E069012E
:1013C000C81AD10887FDD394CC0CDD1CCC0CDD1CD5
:1013D0000D2C000CEE08FF08848128E532E0281B64
:1013E000310987FD3395220F331F220F331FC901A7
:1013F000330FAA0BBB0B9C01AD012C193D094E0903
:101400005F09A62FB0E00E947D1B24EB30E040E096
:1014100050E00E945E1BC20ED31EE41EF51E1EC0CD
:1014200048E850E06A01C81AD10887FDD394CC0C73
:10143000DD1CCC0CDD1C2C153D0584F0448188E5B9
:1014400092E0841B910947FD9395880F991F880F9F
:10145000991F69018C159D050CF46C018FB7F894E8
:1014600095E09C9FF0019D9FF00D1124E95BF74FE3
:1014700096E0C91AD108CC0CDD1CD282C1828FBF84
:10148000DF91CF91FF90EF90DF90CF9008958F92F2
:101490009F92AF92BF92CF92DF92EF92FF920F9303
:1014A0001F93CF93DF93CDB7DEB7A1970FB6F89414
:1014B000DEBF0FBECDBF6C01990FEE08FF08F7FE2F
:1014C00031C0E091D806F091D9060190F081E02D6D
:1014D0006DE288ED96E019958C0122273327A9014A
:1014E0002C193D094E095F0919A2CE0181967C0194
:1014F0009AE0892E912CA12CB12CCA01B901A50129
:1015000094010E94901B605DF70162937F01211599
:1015100031054105510589F7CF010E94E508080F03
:10152000191F1EC0A701960119A28E010F5D1F4F42
:101530008AE0C82ED12CE12CF12CCA01B901A701F7
:1015400096010E94901B605DF80162938F01211546
:1015500031054105510589F7CF010E94E5088C014D
:101560008AE793E00E94E508800F911FA1960FB6CD
:10157000F894DEBF0FBECDBFDF91CF911F910F91C9
:10158000FF90EF90DF90CF90BF90AF909F908F90A3
:101590000895CF92DF92EF92FF920F931F93CF9314
:1015A000DF936C017A018B01C0E0D0E0CE15DF053E
:1015B00089F0D8016D918D01D601ED91FC910190DA
:1015C000F081E02DC6011995892B11F47E0102C02E
:1015D0002196ECCFC701DF91CF911F910F91FF9022
:1015E000EF90DF90CF900895FC01A089B1898C9194
:1015F000A689B78982FD0FC09C91818D8F5F8F7303
:10160000228D821749F0218DDF01A20FB11D5D9659
:101610009C93818F08958C910895FC01538D448D86
:10162000252F30E0842F90E0821B930B541710F08D
:10163000CF96089501970895FC01918D828D98179A
:1016400061F0828DDF01A80FB11D5D968C91928DA6
:101650009F5F9F73928F90E008958FEF9FEF0895A3
:10166000FC01918D828D981731F0828DE80FF11D6C
:10167000858D90E008958FEF9FEF0895FC01918D87
:10168000228D892F90E0805C9F4F821B91098F7380
:10169000992708958EE995E00E943E0B21E0892B61
:1016A00009F420E0822F08958BE396E00E943E0B20
:1016B00021E0892B09F420E0822F089588ED96E03F
:1016C0000E943E0B21E0892B09F420E0822F08952F
:1016D000FC01848DDF01A80FB11DA35ABF4F2C91CF
:1016E000848D90E001968F739927848FA689B7899E
:1016F0002C93A089B1898C9180648C93938D848D77
:10170000981306C00288F389E02D80818F7D808345
:101710000895EF92FF920F931F93CF93DF93EC0105
:1017200081E0888F9B8D8C8D981305C0E889F9899D
:10173000808185FD24C0F62E0B8D10E00F5F1F4FBA
:101740000F731127E02E8C8DE8120CC00FB607FC2A
:10175000FACFE889F989808185FFF5CFCE010E9413
:10176000680BF1CF8B8DFE01E80FF11DE35AFF4F9F
:10177000F0820B8FEA89FB898081806207C0EE8945
:10178000FF896083E889F98980818064808381E0B2
:1017900090E0DF91CF911F910F91FF90EF9008950E
:1017A000CF93DF93EC01888D8823C9F0EA89FB8908
:1017B000808185FD05C0A889B9898C9186FD0FC0FF
:1017C0000FB607FCF5CF808185FFF2CFA889B989D4
:1017D0008C9185FFEDCFCE010E94680BE7CFDF91A2
:1017E000CF91089580E090E0892B21F00E945E0B5C
:1017F000811119C080E090E0892B41F080E090E0F9
:10180000892B21F00E940000811110C00E94540B0E
:1018100081110FC080E090E0892B81F00E944A0B7B
:1018200081110AC008950E940000E4CF0E940000C8
:10183000EDCF0E94FE01EECF0C94000008950895B4
:1018400080E090E00895FC01248131E03093680548
:1018500020938A051092690510928B058485682B68
:1018600082E995E00E94F0100C9405090F931F93F4
:10187000CF938C01C62F64600E94230C6C2F6B7F6A
:10188000C8010E94230C83EC90E00197F1F7CF91FF
:101890001F910F9108950F931F93CF93DF938C01A6
:1018A000C62FD62FD07FD1606D2F0E94230C6D2FB5
:1018B000C8010E94360C80E1C89FB0011124C62FD8
:1018C000C1606C2FC8010E94230C6C2FC8010E94BC
:1018D000360C81E090E0DF91CF911F910F91089538
:1018E0001F920F920FB60F9211240BB60F922F93E7
:1018F0003F934F935F936F937F938F939F93AF9398
:10190000BF93EF93FF938EE995E00E94680BFF91E0
:10191000EF91BF91AF919F918F917F916F915F9167
:101920004F913F912F910F900BBE0F900FBE0F90D4
:101930001F9018951F920F920FB60F9211240BB69D
:101940000F922F933F934F935F936F937F938F9358
:101950009F93AF93BF93EF93FF938EE995E00E941F
:10196000F40AFF91EF91BF91AF919F918F917F9179
:101970006F915F914F913F912F910F900BBE0F9000
:101980000FBE0F901F9018951F920F920FB60F92D7
:1019900011240BB60F922F933F934F935F936F9346
:1019A0007F938F939F93AF93BF93EF93FF938BE3BB
:1019B00096E00E94680BFF91EF91BF91AF919F91CC
:1019C0008F917F916F915F914F913F912F910F90E8
:1019D0000BBE0F900FBE0F901F9018951F920F9285
:1019E0000FB60F9211240BB60F922F933F934F9384
:1019F0005F936F937F938F939F93AF93BF93EF9377
:101A0000FF938BE396E00E94F40AFF91EF91BF9160
:101A1000AF919F918F917F916F915F914F913F9186
:101A20002F910F900BBE0F900FBE0F901F90189527
:101A30001F920F920FB60F9211240BB60F922F9395
:101A40003F934F935F936F937F938F939F93AF9346
:101A5000BF93EF93FF9388ED96E00E94680BFF9190
:101A6000EF91BF91AF919F918F917F916F915F9116
:101A70004F913F912F910F900BBE0F900FBE0F9083
:101A80001F9018951F920F920FB60F9211240BB64C
:101A90000F922F933F934F935F936F937F938F9307
:101AA0009F93AF93BF93EF93FF9388ED96E00E94CF
:101AB000F40AFF91EF91BF91AF919F918F917F9128
:101AC0006F915F914F913F912F910F900BBE0F90AF
:101AD0000FBE0F901F9018951F920F920FB60F9286
:101AE00011240BB60F922F933F934F935F936F93F5
:101AF0007F938F939F93AF93BF93CF93DF93EF9396
:101B0000FF932091760730E0F901E550FD4F849175
:101B1000F901EB54FD4FD491F901E159FD4FC49106
:101B2000CC23A1F081110E945B12EC2FF0E0EE0FAC
:101B3000FF1FEF5DFD4FA591B491EC91ED2331E0D6
:101B400020E009F430E0832F922F02C080E090E083
:101B500020917A0730917B072F5F3F4F30937B07AF
:101B600020937A0720917907253618F026E02093F4
:101B70007507209175072430D9F128F4223069F0D7
:101B80002330D9F060C0253009F453C0263009F065
:101B90005AC021E02093460853C0009709F053C073
:101BA00020917A0730917B072436310508F443C031
:101BB00010924608109279071DC08130910509F0F6
:101BC00042C0E091790721E02E0F20937907F0E0E1
:101BD00020917A0730917B07EE0FFF1FEB58F84FEB
:101BE0003087278310927B0710927A0724E029C060
:101BF0000097B9F4E091790721E02E0F209379073F
:101C0000F0E020917A0730917B07EE0FFF1FEB5831
:101C1000F84F3087278310927B0710927A0723E0D2
:101C200010C020917A0730917B072536310558F096
:101C300007C0009741F410927B0710927A0703C007
:101C400025E020937507209178072223B9F0892B8E
:101C500051F480917707882321F08091770761E024
:101C600009C02F9A0BC080917707882331F08091AB
:101C7000770760E00E94B11201C02F98FF91EF91A9
:101C8000DF91CF91BF91AF919F918F917F916F9194
:101C90005F914F913F912F910F900BBE0F900FBE10
:101CA0000F901F9018958F929F92AF92BF92CF92F4
:101CB000DF92EF92FF920F931F93CF93DF93EC018C
:101CC0006A017B0120E030E04FE753E4C701B60131
:101CD0000E94A01A4B015C0120E030E0A9010E94A3
:101CE0004A1C18161CF4C501B40103C0C501B40197
:101CF00090580E94141C8B0120E030E0A901C7011C
:101D0000B6010E944A1C181614F460E001C061E09C
:101D100089810E94B1120F3F110509F014F41127B7
:101D200002C00FEF10E0C88161E08C2F0E94E11229
:101D30000115110509F4B1C00F3F110509F4AFC039
:101D4000EC2FF0E0E550FD4FE4914E2F50E0FA010A
:101D50003197E231F10508F09DC08827EE58FF4F1A
:101D60008F4F0C94F11B84B5806884BD07BDA7C05C
:101D700084B5806284BD08BDA2C080918000806867
:101D800080938000109389000093880098C0809110
:101D9000800080628093800010938B0000938A0003
:101DA0008EC08091800088608093800010938D00A9
:101DB00000938C0084C08091B00080688093B00054
:101DC0000093B3007CC08091B00080628093B0002B
:101DD0000093B40074C0809190008068809390005C
:101DE00010939900009398006AC0809190008062DF
:101DF0008093900010939B0000939A0060C08091A4
:101E0000900088608093900010939D0000939C0048
:101E100056C08091A00080688093A0008091A000AF
:101E20008F7B8093A0001093A9000093A80047C067
:101E30008091A00080628093A0001093AB0000937B
:101E4000AA003DC08091A00088608093A0001093FC
:101E5000AD000093AC0033C0809120018068809376
:101E60002001109329010093280129C080912001AD
:101E700080628093200110932B0100932A011FC0E0
:101E80008091200188608093200110932D010093A0
:101E90002C0115C00038110514F460E001C061E0A8
:101EA0008C2FDF91CF911F910F91FF90EF90DF90DA
:101EB000CF90BF90AF909F908F900C94B112DF9114
:101EC000CF911F910F91FF90EF90DF90CF90BF9037
:101ED000AF909F908F9008951F920F920FB60F9220
:101EE00011240BB60F922F933F934F935F936F93F1
:101EF0007F938F939F93AF93BF93EF93FF938091C3
:101F00009C0987FF05C0109285001092840016C0BE
:101F100020919C09022E000C330B8091830890E0E5
:101F2000281739075CF430919C0925E03203F00151
:101F30001124E95BF74F808186FD15C080919C09D3
:101F40008F5F80939C0920919C09022E000C330B1B
:101F50008091830890E02817390794F480919C09B8
:101F60008C302CF10DC030919C093203F00111240A
:101F7000E95BF74F808160E08F730E94B112DECF82
:101F8000809184009091850084349C4918F480E409
:101F90009CE905C0809184009091850004969093FF
:101FA0008900809388008FEF80939C092AC040911C
:101FB00084005091850030919C0925E03203F001A6
:101FC0001124E95BF74F81819281840F951F9093D3
:101FD00089008093880030919C093203F00111241C
:101FE000E95BF74F808186FF0CC030919C0932037A
:101FF000F0011124E95BF74F808161E08F730E944B
:10200000B112FF91EF91BF91AF919F918F917F910D
:102010006F915F914F913F912F910F900BBE0F9059
:102020000FBE0F901F9018958EBD00000DB407FED7
:10203000FDCF8EB50895EF92FF920F931F93CF932C
:10204000DF93EC0190919B099F5F292F27702093CC
:102050009B0990FF02C090E801C090E021FD9064D0
:10206000247009F0906220E1290FFE013C967E0168
:102070008FE0E80EF11C00E011E06191662331F081
:1020800070E0C8010E94DD1B6F5F01C060E0DF01EE
:1020900014976C93322F369F030E30E0311D1124BC
:1020A000CF010797311103C0EC01188203C03150F2
:1020B000EC013883662311F061506C93EE15FF0537
:1020C000E1F6DF91CF911F910F91FF90EF9008956E
:1020D00085ED8093BC008091BC0084FDFCCF109204
:1020E000670508954091C609262F30E0240F311D61
:1020F00021323105DCF4209167052430C9F4FC015C
:1021000080E090E0861758F43091C6092191DC01F7
:10211000AC55B64FA30FB11D2C930196F3CF809110
:10212000C609680F6093C60980E0089581E00895AC
:1021300082E00895089581E090E030919E09209119
:102140009D09321710F480E090E0919581959109F6
:10215000089580919E0990919D09891730F48F5FB1
:1021600080939E0980E090E008958FEF9FEF08959F
:1021700080919D0990E020919E09821B910908950C
:10218000CF92DF92EF92FF920F931F93CF93DF9343
:102190007C01262F972F8A0180916805882391F072
:1021A000C62FD72F6E01C40ED51ECC15DD0571F0DC
:1021B0006991D701ED91FC910190F081E02DC7016B
:1021C0001995F3CF642F822F0E947210C801DF91FE
:1021D000CF911F910F91FF90EF90DF90CF900895D6
:1021E000CF93DF931F92CDB7DEB769832091680547
:1021F0002223D1F020918B05203240F021E030E005
:10220000FC013383228380E090E015C08091690552
:10221000E82FF0E0E659FA4F998190838F5F809321
:10222000690580938B0505C061E0CE0101960E948F
:10223000721081E090E00F90DF91CF9108951F928E
:102240000F920FB60F9211240F900FBE0F901F9098
:1022500018951F920F920FB60F9211240BB60F9282
:102260002F933F934F935F936F937F938F939F939E
:10227000AF93BF93EF93FF938091B900887F80362F
:1022800009F49CC068F5883209F45BC090F4803191
:1022900009F454C038F4882309F4F6C0883009F4EE
:1022A0004DC0F6C0883109F44CC0803209F45DC0DD
:1022B000EFC0803409F468C048F4803309F455C095
:1022C000883309F0E5C080936505D8C0803509F4EE
:1022D0004FC0883509F45DC0883409F0D9C0D6C034
:1022E000883909F4C7C0A8F4883709F467C038F4FE
:1022F000883609F463C0803709F460C0C9C08838E3
:1023000009F4B8C0803909F45FC0803809F0C0C052
:102310005BC0803B09F486C038F4803A09F466C09B
:10232000883A09F47FC0B4C0803C09F4A7C0883C57
:1023300009F4A4C0883B09F48AC0AAC08091420570
:1023400010C09091640580916305981770F5E09135
:10235000640581E08E0F80936405F0E0ED5BFA4F39
:1023600080818093BB0085EC86C0809365058EC01C
:10237000E091640581E08E0F809364058091BB003D
:10238000F0E0ED5BFA4F80839091640580916305E6
:102390006EC0E091640581E08E0F809364058091AA
:1023A000BB00F0E0ED5BFA4F808380916605811100
:1023B0006DC081E08093410584EA61C083E0809331
:1023C00067051092EA09CFCF8091EA09803208F0C0
:1023D00051C0E091EA0981E08E0F8093EA09809173
:1023E000BB00F0E0E653F64F8083BDCF85EC8093D1
:1023F000BC00109267058091EA09803230F4E091C8
:10240000EA09F0E0E653F64F10826091EA0970E0C5
:10241000E091C809F091C9098AEC99E019951092E8
:10242000EA0936C084E0809367051092C7091092CC
:10243000C609E091C409F091C50919958091C609B2
:10244000811105C081E08093C6091092A409E09132
:10245000C70981E08E0F8093C709F0E0EC55F64F75
:1024600080818093BB009091C7098091C60998171D
:1024700008F479CF85E88093BC000AC085EC80938E
:10248000BC001092670504C0109265050E94681098
:10249000FF91EF91BF91AF919F918F917F916F913C
:1024A0005F914F913F912F910F900BBE0F900FBEF8
:1024B0000F901F90189590E0FC013197E231F105E3
:1024C00008F04EC08827EC57FF4F8F4F0C94F11B3C
:1024D000809180008F7703C0809180008F7D8093F2
:1024E0008000089580918000877FF9CF84B58F7731
:1024F00002C084B58F7D84BD08958091B0008F7730
:1025000003C08091B0008F7D8093B00008958091CA
:1025100090008F7707C0809190008F7D03C08091DD
:102520009000877F8093900008958091A0008F771E
:1025300007C08091A0008F7D03C08091A000877F9D
:102540008093A0000895809120018F7707C080912B
:1025500020018F7D03C080912001877F809320011F
:1025600008951F93CF93DF93282F30E0F901E550B2
:10257000FD4F8491F901EB54FD4FD491F901E159DC
:10258000FD4FC491CC23C9F0162F81110E945B121C
:10259000EC2FF0E0EE0FFF1FEB5AFD4FA591B49129
:1025A0008FB7F894111105C09C91ED2FE095E923A8
:1025B00002C0EC91ED2BEC938FBFDF91CF911F9177
:1025C0000895CF93DF9390E0FC01EB54FD4F2491ED
:1025D000FC01E159FD4F8491882361F190E0880F5F
:1025E000991FFC01E55CFD4FC591D491FC01EB5AAC
:1025F000FD4FA591B491611109C09FB7F8948881EE
:10260000209582238883EC912E230BC0623061F4E5
:102610009FB7F8943881822F809583238883EC912B
:102620002E2B2C939FBF06C08FB7F894E8812E2BDA
:1026300028838FBFDF91CF910895863308F08653AA
:1026400090917B00282F2870977F922B90937B008E
:102650008770806480937C0080917A00806480938E
:102660007A0080917A0086FDFCCF809178002091DD
:10267000790090E0922B08953FB7F8948091A009DB
:102680009091A109A091A209B091A30926B5A89B98
:1026900005C02F3F19F00196A11DB11D3FBFBA2FF4
:1026A000A92F982F8827820F911DA11DB11DBC0154
:1026B000CD0142E0660F771F881F991F4A95D1F719
:1026C00008958F929F92AF92BF92CF92DF92EF9236
:1026D000FF926B017C010E943C134B015C01C11411
:1026E000D104E104F104F1F00E943C13DC01CB01C0
:1026F00088199909AA09BB09883E9340A105B1052B
:1027000070F321E0C21AD108E108F10888EE880EC2
:1027100083E0981EA11CB11CC114D104E104F10492
:1027200019F7DDCFFF90EF90DF90CF90BF90AF9083
:102730009F908F9008951F920F920FB60F921124C1
:102740002F933F938F939F93AF93BF9380918C056B
:1027500090918D05A0918E05B0918F0530919F09C4
:1027600023E0230F2D3720F40196A11DB11D05C0D4
:1027700026E8230F0296A11DB11D20939F09809387
:102780008C0590938D05A0938E05B0938F05809155
:10279000A0099091A109A091A209B091A309019665
:1027A000A11DB11D8093A0099093A109A093A20936
:1027B000B093A309BF91AF919F918F913F912F91BA
:1027C0000F900FBE0F901F901895CF93DF9300D0FE
:1027D00000D0CDB7DEB7789484B5826084BD84B56F
:1027E000816084BD85B5826085BD85B5816085BD0C
:1027F00080916E00816080936E00109281008091C4
:10280000810082608093810080918100816080934B
:102810008100809180008160809380008091B10070
:1028200084608093B1008091B00081608093B0009B
:1028300080919100826080939100809191008160ED
:1028400080939100809190008160809390008091AE
:10285000A10082608093A1008091A100816080939B
:10286000A1008091A00081608093A000809121014F
:1028700082608093210180912101816080932101F8
:102880008091200181608093200180917A00846092
:1028900080937A0080917A00826080937A008091A0
:1028A0007A00816080937A0080917A0080688093BA
:1028B0007A001092C1000E94BD0861E080914E092B
:1028C0000E94E11260E080914E090E94B11260E026
:1028D00080914D090E94E11282E995E09093580998
:1028E0008093570910929E0910929D0910926905D4
:1028F00010928B051092670581E080936605109217
:10290000410561E084E10E94B11261E085E10E942D
:10291000B1128091B9008E7F8093B9008091B90087
:102920008D7F8093B90088E48093B80085E480931C
:10293000BC0080E090E1A0E0B0E080935A09909361
:102940005B09A0935C09B0935D098AE090E0A0E088
:10295000B0E080935E0990935F09A0936009B09303
:10296000610980E090E0A0E0B0E480936209909378
:102970006309A0936409B093650960E070E185E0A4
:102980000E9462096FE979E380E00E9462090AE629
:1029900019E0812C912CA12CB12C3AEE232E32E09F
:1029A000332E4BEC642E47E0742E5BE8452E552405
:1029B00053949501235B364F6901D90114969C917C
:1029C000149712968C91F401E35BF64F7F01818F8F
:1029D000928F61E00E94E11261E0D7015A968C91DA
:1029E0000E94E112F60190858681D8018C93F7014F
:1029F000968F61E00E94E11260E0D7015E968C91B3
:102A00000E94E11261E0F80180810E94B112FFB6DC
:102A1000F8948091BD03811126C0E4EAF2E094911C
:102A2000F1018491E92FF0E0EE0FFF1FE55CFD4F0F
:102A3000A591B4919C91892321F461E085E30E94E2
:102A4000B11261E085E30E94E1128CB580618CBD1A
:102A50008CB580648CBD61E084E30E94E11261E08A
:102A600083E30E94E1128091BD038F5F8093BD03D9
:102A7000FFBEC3010197F1F760E0D8018C910E947D
:102A8000B11288E80E94141083E00E94141061E0E3
:102A9000F80180810E94B112C3010197F1F760E053
:102AA000D8018C910E94B11288E90E94141080E034
:102AB0000E94141080E00E94141080E00E94141004
:102AC00080E00E94141061E0F80180810E94B11240
:102AD000C2010197F1F760E0D8018C910E94B11218
:102AE00080EE0E94141061E0F80180810E94B11212
:102AF000F2E08F0E911C0E5F1F4FAA94AB2821F0BD
:102B0000AA24A394B12C55CF02E719E084E0F82E53
:102B1000F00E60E0D8018D918D010E94E112F0125B
:102B2000F8CF71E8E72E79E0F72E0EE719E0E5E03F
:102B3000AE2EFCE0CF2EA2E09A2EB2E0BB2EB00E5D
:102B4000F8013897D080F80180818C3008F046C0B9
:102B500061E08D2D0E94E112D8018C91A89EF001B8
:102B60001124E95BF74F9D2D9F732081207CD22E8D
:102B7000D92AD082138214826C2D0E94D11BBCE012
:102B80008B9FA001112420E030E0B901640F751F74
:102B9000A69EF001A79EF00D1124E95BF74F9081EE
:102BA00096FD12C02F5F3F4F2C30310571F7811118
:102BB0000BC01092800090928100109285001092BC
:102BC000840096BA90926F00D801EC91AE9EF0010D
:102BD0001124E95BF74F808180648083F80132978C
:102BE000908132978081F70131978083F70190833C
:102BF00060E00E94E11261E0D7018C910E94E11235
:102C000060E0F70180810E94B1120F5F1F4FF2E078
:102C1000EF0EF11CB01294CFF8941092200189E0CD
:102C20008093210180E293E0909329018093280111
:102C3000109225011092240182E080937300789411
:102C400080937507109279078091760760E00E9463
:102C5000E11261E08DE00E94E1120E94BD088091C6
:102C6000D103811145C01092C3031092C2038FEFAC
:102C70008093C6038093C7038093C8038093C903DE
:102C80008093CA038093CB0381E08093CC0310929E
:102C9000CE031092CD031092C5031092C40380910D
:102CA000900590919105892B31F480EC93E09093FD
:102CB000910580939005E091BE03F091BF0330979A
:102CC00021F080EC93E09583848380EC93E09093F3
:102CD000BF038093BE031092D0031092CF038FE105
:102CE00092E09093C1038093C00381E08093D1036D
:102CF000E091C003F091C1030480F581E02D80ECE8
:102D000093E0199589ED93E09093C3038093C203F8
:102D100088E790E09093CE038093CD03E091C003C9
:102D2000F091C1030284F385E02D80EC93E01995C6
:102D3000009729F19C0140E050E060E472E48FE0EC
:102D400090E00E945E1B722F632F00918709109103
:102D500088092091890930918A09872F962FDA01F5
:102D600080179107A207B30710F4D901C801809317
:102D7000870990938809A0938909B0938A098FEFF6
:102D80008093C60380EB8093C70380EF8093C803D2
:102D900084E6809384096AE080E00E94A9096AEAD7
:102DA00081E00E94A90943E0E42EF12C59EDC52EE3
:102DB00053E0D52E68E6A62EBB24B394812C912C2B
:102DC00034E6432E86E090E00E94E204582E85E02F
:102DD00090E00E94E204882309F44EC02FEF821A8B
:102DE000920AC401B7010E94DD1B8C010E94470AB0
:102DF0000130110541F00230110549F42BEC622E2F
:102E000020EC722E07C0612C77247A9403C06624CC
:102E10006A94712CD601F5011D923197E9F7C3012F
:102E2000770CAA0BBB0B3A2E292E00E010E0F8011C
:102E3000E752FC4F308221826282809184090E9495
:102E40008D076AE070E080E090E00E9461130D5F02
:102E50001F4F043B110559F714E610938409812F85
:102E60000E948D076AE070E080E090E00E946113AC
:102E7000115098F740928409552009F4A3CF8DE1B1
:102E800093E00E94F7088FEF9FEF9E838D8381E090
:102E900090E09C838B831A8219820E942B1A83E014
:102EA00090E00E94470A82E090E00E94470A84E096
:102EB00090E00E94470A81E090E00E94470A85E383
:102EC00093E00E94F7084DEC5CEC6CE47EE386E650
:102ED00099E00E94530E4DEC5CEC6CE47EEB88E6CE
:102EE00099E00E94530E81E00E941D13892B39F056
:102EF00062E370E080E090E00E946113F4CF8E0105
:102F00000F5F1F4F9E012D5F3F4FAE014B5F5F4F25
:102F100061E070E084E090E00E944F068FE493E06F
:102F20000E94F7089E012D5F3F4FAE014B5F5F4F40
:102F300062E070E083E090E00E944F06C8010E94CA
:102F4000FB0489819A81039719F0CE010196F7CF8E
:102F50008B819C81892B51F00E945E05BE016F5FC1
:102F60007F4FCE0103960E943A05F2CF81E693E0AF
:102F70000E94F7084DEC5CEC6CE47EEB86E699E091
:102F80000E94530E4DEC5CEC6CEC7DEB88E699E016
:102F90000E94530E64EF71E080E090E00E946113A4
:102FA00084E00E941D1388359240D4F340E050E045
:102FB000BA0186E699E00E94530E40E050E060E0DE
:102FC00070E888E699E00E94530E0E94F20BF6CE5C
:102FD000109295051092940588EE93E0A0E0B0E081
:102FE0008093960590939705A0939805B0939905C3
:102FF00021E332E030939305209392051092A105CE
:103000001092A0058093A2059093A305A093A40518
:10301000B093A50523E432E030939F0520939E05ED
:1030200045E351E05093AB054093AA0544E351E0DA
:103030005093AD054093AC0540E351E05093AF058C
:103040004093AE0541E351E05093B1054093B00584
:1030500042E351E05093B3054093B20546E351E09B
:103060005093B5054093B4051092B7051092B8057A
:103070001092B9051092BA0510923E0610923D06C4
:1030800080933F0690934006A0934106B09342067A
:1030900030933C0620933B0645ED50E050934806A4
:1030A0004093470644ED50E050934A06409349064A
:1030B00040ED50E050934C0640934B0641ED50E0FC
:1030C00050934E0640934D0642ED50E0509350060B
:1030D00040934F0646ED50E0509352064093510600
:1030E00010925406109255061092560610925706EA
:1030F0001092DB061092DA068093DC069093DD06D0
:10310000A093DE06B093DF063093D9062093D8064D
:1031100085EC90E09093E5068093E40684EC90E0E3
:103120009093E7068093E60680EC90E09093E906A2
:103130008093E80681EC90E09093EB068093EA069A
:1031400082EC90E09093ED068093EC0686EC90E0A4
:103150009093EF068093EE061092F1061092F2061D
:103160001092F3061092F40686E380936E0987E3CB
:1031700080936F0988E38093700989E380937109D4
:103180008BE1809372098DE1809373098AE18093CA
:1031900074098CE18093750984E08093760987E057
:1031A000809377091092780984EB8093790986E1FE
:1031B00080937A0988E180937B0987E180937C0979
:1031C00089E180937D09E0918308EC3020F08FEF56
:1031D00080937E0910C081E08E0F80938308E09376
:1031E0007E0925E0E29FF0011124E95BF74F88EBAF
:1031F0009BE092838183E0918308EC3020F08FEF95
:1032000080937F0910C081E08E0F80938308E09344
:103210007F0985E0E89FF0011124E95BF74F88EB17
:103220009BE0928381838CE080934D0984E28093BC
:103230004E0986E080934F0985E0809350098FE125
:10324000809351098EE18093520983E28093530960
:1032500082E28093540985E48093550984E4809345
:10326000560980E48093590910925E0910925F0913
:10327000109260091092610910926209109263091C
:103280001092640910926509EFE8F8E08FEF9FEF64
:10329000DC01128213821482158216821782108634
:1032A000118683879487A587B6878787908BA18BA4
:1032B000B28B128611821082739629E0ED34F207E8
:1032C00041F78DE090E00E944F1CFC0113821282B6
:1032D00085E592E091838083118687E2848384E18F
:1032E000828784E083871486F0938C08E0938B08B0
:1032F00010928D0810928E0885E2809376071092C6
:10330000780710928508109284081092870810920E
:103310008608109289081092880861E070E080E0C9
:1033200090E00E947C1D009789F09093850880931F
:10333000840810928708109286082091880830919E
:103340008908232B71F5FC0110822BC08091840821
:1033500090918508009711F00E94E41C1092850856
:103360001092840810928908109288081092870899
:10337000109286088FEF809384091092860910922C
:1033800085091092900910928F098FEF9FEFDC0151
:1033900080938B0990938C09A0938D09B0938E092B
:1033A000089510928908109288086CE773E00E94D3
:1033B000731EE0CF80918408909185080C94E41CE2
:1033C0008F929F92AF92BF92CF92DF92EF92FF9235
:1033D000CF93DF93EC01688179818A819B816115AC
:1033E00071058105910521F464E279ED8BE597E0A3
:1033F0002DE133EF41E050E00E945E1B49015A018C
:103400009B01AC01A7EAB1E40E947D1B6B017C012A
:10341000ACEEB4EFA50194010E948B1BDC01CB0143
:103420008C0D9D1DAE1DBF1DB7FF03C00197A109E7
:10343000B04888839983AA83BB839F77DF91CF911C
:10344000FF90EF90DF90CF90BF90AF909F908F90C4
:1034500008950C94E01981E092E00C94E019A0E04A
:10346000B0E08093010290930202A0930302B09314
:10347000040208950E947C1A08F481E00895E894FB
:1034800009C097FB3EF490958095709561957F4FAC
:103490008F4F9F4F9923A9F0F92F96E9BB2793955A
:1034A000F695879577956795B795F111F8CFFAF46A
:1034B000BB0F11F460FF1BC06F5F7F4F8F4F9F4F9B
:1034C00016C0882311F096E911C0772321F09EE8F9
:1034D000872F762F05C0662371F096E8862F70E05F
:1034E00060E02AF09A95660F771F881FDAF7880F39
:1034F0009695879597F90895990F0008550FAA0B8F
:10350000E0E8FEEF16161706E807F907C0F01216F6
:103510001306E407F50798F0621B730B840B950BF9
:1035200039F40A2661F0232B242B252B21F408954E
:103530000A2609F4A140A6958FEF811D811D0895EB
:103540000E94B31A0C94241B0E94161B38F00E9490
:103550001D1B20F0952311F00C940D1B0C94131BD4
:1035600011240C94581B0E94351B70F3959FC1F3D6
:10357000950F50E0551F629FF001729FBB27F00D21
:10358000B11D639FAA27F00DB11DAA1F649F662776
:10359000B00DA11D661F829F2227B00DA11D621FC5
:1035A000739FB00DA11D621F839FA00D611D221F7F
:1035B000749F3327A00D611D231F849F600D211D63
:1035C000822F762F6A2F11249F5750409AF0F1F0E6
:1035D00088234AF0EE0FFF1FBB1F661F771F881F4F
:1035E00091505040A9F79E3F510580F00C940D1B5F
:1035F0000C94581B5F3FE4F3983ED4F3869577957F
:103600006795B795F795E7959F5FC1F7FE2B880FF4
:10361000911D9695879597F9089597F99F6780E88A
:1036200070E060E008959FEF80EC089500240A9414
:103630001616170618060906089500240A9412168D
:103640001306140605060895092E0394000C11F4C0
:10365000882352F0BB0F40F4BF2B11F460FF04C06D
:103660006F5F7F4F8F4F9F4F089557FD9058440FC6
:10367000551F59F05F3F71F04795880F97FB991FD1
:1036800061F09F3F79F0879508951216130614068E
:10369000551FF2CF4695F1DF08C01616170618061B
:1036A000991FF1CF86957105610508940895E894F6
:1036B000BB2766277727CB0197F90895052E97FB3F
:1036C0001EF400940E94751B57FD07D00E94901BAA
:1036D00007FC03D04EF40C94751B50954095309523
:1036E00021953F4F4F4F5F4F08959095809570956E
:1036F00061957F4F8F4F9F4F08950E94B21BA59FEA
:10370000900DB49F900DA49F800D911D11240895DC
:10371000B7FF0C947D1B0E947D1B821B930B0895A9
:10372000A1E21A2EAA1BBB1BFD010DC0AA1FBB1FC5
:10373000EE1FFF1FA217B307E407F50720F0A21B37
:10374000B30BE40BF50B661F771F881F991F1A94A4
:1037500069F760957095809590959B01AC01BD01CE
:10376000CF010895A29FB001B39FC001A39F700D28
:10377000811D1124911DB29F700D811D1124911D79
:103780000895DB018F939F930E947D1BBF91AF91A2
:10379000A29F800D911DA39F900DB29F900D1124AB
:1037A0000895991B79E004C0991F961708F0961B9D
:1037B000881F7A95C9F78095089597FB072E16F410
:1037C000009407D077FD09D00E94001C07FC05D0AB
:1037D0003EF4909581959F4F0895709561957F4F28
:1037E0000895EE0FFF1F881F8BBF0790F691E02D05
:1037F00019940E94B21BB7FF0895821B930B089582
:10380000AA1BBB1B51E107C0AA1FBB1FA617B70706
:1038100010F0A61BB70B881F991F5A95A9F7809522
:103820009095BC01CD0108950E941B1C6894B111B4
:103830000C94581B08950E943D1B88F09F5798F0E8
:10384000B92F9927B751B0F0E1F0660F771F881FA5
:10385000991F1AF0BA95C9F714C0B13091F00E94BF
:10386000571BB1E008950C94571B672F782F8827BA
:10387000B85F39F0B93FCCF3869577956795B395E6
:10388000D9F73EF490958095709561957F4F8F4F55
:103890009F4F08950E947C1A08F48FEF0895CF93EC
:1038A000DF938230910510F482E090E0E091EF091F
:1038B000F091F00920E030E0C0E0D0E0309711F165
:1038C0004081518148175907C0F04817590761F4E2
:1038D00082819381209719F09B838A832BC09093D8
:1038E000F0098093EF0926C02115310519F0421720
:1038F000530718F49A01BE01DF01EF010280F38142
:10390000E02DDCCF2115310509F1281B390B2430BE
:10391000310590F412968D919C9113976115710564
:1039200021F0FB019383828304C09093F00980937C
:10393000EF09FD01329644C0FD01E20FF31F8193B0
:103940009193225031092D933C933AC02091ED0977
:103950003091EE09232B41F42091070230910802A7
:103960003093EE092093ED09209105023091060273
:103970002115310541F42DB73EB740910902509110
:103980000A02241B350BE091ED09F091EE09E217D4
:10399000F307A0F42E1B3F0B2817390778F0AC0172
:1039A0004E5F5F4F2417350748F04E0F5F1F50934F
:1039B000EE094093ED098193919302C0E0E0F0E0BD
:1039C000CF01DF91CF9108950F931F93CF93DF9392
:1039D000009709F48CC0FC01329713821282009187
:1039E000EF091091F0090115110581F42081318151
:1039F000820F931F2091ED093091EE0928173907A6
:103A000079F5F093EE09E093ED0971C0D80140E03B
:103A100050E0AE17BF0750F412962D913C911397CA
:103A2000AD012115310509F1D901F3CF9D01DA016D
:103A30003383228360817181860F971F82179307DA
:103A400069F4EC0128813981260F371F2E5F3F4F23
:103A5000318320838A819B8193838283452B29F440
:103A6000F093F009E093EF0942C01396FC93EE93B4
:103A70001297ED01499159919E01240F351FE217CC
:103A8000F30771F480819181840F951F029611963E
:103A90009C938E938281938113969C938E9312971D
:103AA000E0E0F0E0D80112968D919C911397009779
:103AB00019F0F8018C01F6CF8D919C9198012E5F41
:103AC0003F4F820F931F2091ED093091EE09281787
:103AD000390769F4309729F41092F0091092EF0930
:103AE00002C0138212821093EE090093ED09DF9158
:103AF000CF911F910F9108956F927F928F929F9215
:103B0000AF92BF92CF92DF92EF92FF920F931F93EB
:103B1000CF93DF93EC01009789F4CB01DF91CF9134
:103B20001F910F91FF90EF90DF90CF90BF90AF90DB
:103B30009F908F907F906F900C944F1CFC01E60F2C
:103B4000F71F9C0122503109E217F30708F4ACC0BB
:103B5000D9010D911C91119706171707B0F0053088
:103B6000110508F49FC0C80104978617970708F449
:103B700099C002501109061B170B019311936D9305
:103B80007C93CF010E94E41C8DC05B01A01AB10A96
:103B90004C01800E911EA091EF09B091F00940E018
:103BA00050E0E12CF12C109709F44AC0A815B90592
:103BB000D1F56D907C901197630182E0C80ED11C05
:103BC000CA14DB0480F1A3014A195B096A0182E08F
:103BD000C80ED11C1296BC9012971396AC91B5E00A
:103BE000CB16D10440F0B282A38351834083D90124
:103BF0006D937C930AC00E5F1F4FC301800F911F0E
:103C0000F90191838083EB2DFA2FE114F10431F057
:103C1000D7011396FC93EE93129744C0F093F009EA
:103C2000E093EF093FC08D919C9111974817590778
:103C300008F4AC017D0112960D90BC91A02DB3CF7C
:103C40008091ED099091EE0988159905E1F44617E8
:103C50005707C8F48091050290910602009741F43D
:103C60008DB79EB74091090250910A02841B950BB3
:103C7000E817F907C8F4F093EE09E093ED09F901AC
:103C8000718360830FC0CB010E944F1C7C010097A1
:103C900059F0A801BE010E946A1ECE010E94E41CD8
:103CA000C70104C0CE0102C080E090E0DF91CF9157
:103CB0001F910F91FF90EF90DF90CF90BF90AF904A
:103CC0009F908F907F906F90089581E090E0F8949E
:103CD0000C947A1EFB01DC0102C001900D92415050
:103CE0005040D8F70895FB01DC0101900D920020AF
:103CF000E1F7089511E0C2EAD1E000E006C0802FAC
:103D0000FE010E94F11B2196011DC33AD10780E0FC
:083D10000807A9F7F894FFCFA2
:103D1800FF010000000000F109200000000000EC95
:103D280006EC06EC06DB0101020502000000005B60
:103D3800049E04D901DB010102D60108020000003B
:103D480000F010C010200C9A10B810A9109B100099
:103D5800000000890BC90A0D0BD00B3E0B1C0B3061
:103D68000B000000004B0CC90A200C1F0C466F6E9C
:103D78006374696F6E20746F75726E657244726FCA
:103D8800697465203A00466F6E6374696F6E2043EC
:103D9800616C63756C6572506F736974696F6E5985
:103DA800203A00466F6E6374696F6E20737569768A
:103DB80072655F6C615F6C69676E6500466F6E6304
:103DC80074696F6E20706F736974696F6E6E657257
:103DD80042616C6C65203A00466F6E6374696F6E61
:103DE8002043616C63756C6572506F736974696F99
:103DF8006E58203A0042616C6C6558203A00706F2A
:103E0800736974696F6E58203A0042616C6C655929
:103E1800203A00706F736974696F6E59203A006FA9
:103E28007269656E746174696F6E203A00466F6ED0
:103E38006374696F6E206C616E6365725061727431
:103E48006965203A00466F6E6374696F6E2072650B
:103E58006A6F696E6472654C69676E65203A0049DD
:103E68006E76616C696420736572766F206964216F
:103E780000466F6E6374696F6E20746F75726E653D
:103E880072476175636865203A000D0A00536572D0
:103E9800766F20616E676C65206973206F7574207A
:0A3EA8006F662072616E67652100ED
:00000001FF
