:100000000C94A3010C94D4010C94D4010C94D4014D
:100010000C94D4010C94D4010C94D4010C94D4010C
:100020000C94D4010C94E40C0C94E40C0C94E40CAB
:100030000C94D4010C945D060C94D4010C94D4015E
:100040000C94D4010C94FB110C94D4010C94D401A5
:100050000C94D4010C94D4010C94D4010C94600F32
:100060000C94D4010C94CE070C94A4070C94D401E6
:100070000C94D4010C94D4010C94D4010C94D401AC
:100080000C94D4010C94D4010C94D4010C94D4019C
:100090000C94D4010C94D4010C94D4010C94EE0C67
:1000A0000C94D4010C94D4010C94D4010C94D4017C
:1000B0000C94D4010C94D4010C94D4010C94FB0F37
:1000C0000C94D4010C94D4010C94D4010C947A07B0
:1000D0000C9450070C94D4010C9426070C94FC0645
:1000E0000C94D4013B0E3E0E2D0E310E370E750EC4
:1000F000420E460E4C0E500E540E5A0E5E0E620EFE
:10010000750E680E6C0E700E421147114C1156118F
:100110006011D9116A1172117A1184118E1198111E
:10012000A711B111D911BB11C511CF110C94FC014C
:100130000C9460110C94F8070C947A110C944602FC
:100140000C94370E0C94D6010C94620E0C945E0E37
:100150000C94A7110C9498110C946A190C940C0629
:100160000C94D9110C94AA0F0C945F0C0C944C11A4
:100170000C9449050C94C5110C947D0C0C94600CE6
:100180000C946C050C9478170C94AB0F0C94500ED7
:100190000C9403020C94680E0C948E110C94750E42
:1001A0000C94310E0C9456110C94BB110C94580500
:1001B0000C94B1110C943E0E0C94420E0C947211DE
:1001C0000C94850C0C94FB070C9400020C947A059B
:1001D0000C9484110C94C5050C944C0E0C94460E92
:1001E0000C945B060C94FD070C946A110C940505A5
:1001F0000C94700E0C94B50C0C94CF110C9442110D
:100200000C945A0E0C942D0E0C94540E0C943B0E20
:100210000C94D60F0C946E0C0C946C0E0C9447112D
:100220000200002100240027002A002D00300033A6
:100230000001010000040107010A0100002200255D
:100240000028002B002E00310034000201000005C0
:100250000108010B01050505050705080808080246
:100260000202020A0A08080404040401010101014F
:100270000101010303030303030303040707070C3E
:100280000C0C0C0C0C0C0C020202020606060606F4
:100290000606060B0B0B0B0B0B0B0B0102102020A1
:1002A00008081020401020408002010201080402CA
:1002B0000101020408102040808040201008040240
:1002C0000180040201804020100804020108040299
:1002D000010102040810204080010204081020409F
:1002E0008000000A0B02090C0D0E08070304010030
:1002F00000000000000000000000000000000000FE
:1003000000000000000000000000000000121110BA
:1003100000000000000000000000000000000000DD
:10032000000000000000000000200023002600293B
:10033000002C002F0032000001000003010601091B
:10034000010078176A1911241FBECFEFD1E2DEBF7A
:10035000CDBF00E00CBF13E0A0E0B2E0E8E1FCE3B9
:1003600000E00BBF02C007900D92A23EB107D9F783
:100370002AE0A2EEB3E001C01D92AA31B207E1F774
:1003800011E0C2EAD1E000E006C021970109802F08
:10039000FE010E94711BC13AD10780E00807A9F74E
:1003A0000E9487130C94FA1D0C940000CF93DF93E6
:1003B00000D000D0CDB7DEB7AB011C821D821E82FB
:1003C000DC01ED91FC910190F081E02D19821A82FF
:1003D0001B829E012F5F3F4FBE016C5F7F4F1995BF
:1003E00026960FB6F894DEBF0FBECDBFDF91CF913A
:1003F0000895E0E0F0E01994FC0185859685089564
:1004000080E090E008950F931F93CF93DF93CDB7D3
:10041000DEB762970FB6F894DEBF0FBECDBF8C017A
:10042000F901DC011C968C917A8369835C834B8390
:100430005E834D8390819D8791819E8792819F8766
:10044000813029F4CE0101960E943A1306C01C8621
:100450001B861A86198618861F82188A1A8A198A94
:10046000D801ED91FC910484F585E02DBE016F5F0C
:100470007F4FC801199562960FB6F894DEBF0FBE84
:10048000CDBFDF91CF911F910F9108950F931F93CF
:10049000CF93DF93CDB7DEB762970FB6F894DEBF88
:1004A0000FBECDBF8C01F901DC011C968C917A83C3
:1004B00069835C834B835E834D8390819D879181AB
:1004C0009E8792819F87813029F4CE0101960E94F8
:1004D0003A1306C01C861B861A86198618861F8248
:1004E00083E0888B1A8A198AD801ED91FC910484E3
:1004F000F585E02DBE016F5F7F4FC80119956296AB
:100500000FB6F894DEBF0FBECDBFDF91CF911F9124
:100510000F910895CF93DF9389E999E00E94AA1281
:100520008BE999E00E94AA124DEC5CEC6CE47EEB46
:1005300087E999E00E94E2104DEC5CEC6CE47EEB04
:1005400085E999E00E94E210C0E0D0E0BE01DD0F35
:10055000880B990B0E94D1192FEF3FEF4BE655E422
:100560000E94CA19181664F08BE999E00E94D5120E
:10057000EB016AE070E080E090E00E94260FE6CF99
:1005800040E050E0BA0185E999E00E94E21040E0C5
:1005900050E060E070E887E999E0DF91CF910C943A
:1005A000E210CF93DF9389E999E00E94AA128BE9C8
:1005B00099E00E94AA124DEC5CEC6CE47EEB87E9BA
:1005C00099E00E94E2104DEC5CEC6CE47EEB85E976
:1005D00099E00E94E210C0E0D0E0BE01DD0F880B80
:1005E000990B0E94D1192FEF3FEF4BEE54E40E947C
:1005F000CA1918167CF08BE999E00E94D512EB011C
:10060000CB010E94AB0B6AE070E080E090E00E94BA
:10061000260FE3CF40E050E0BA0185E999E00E945F
:10062000E21040E050E060E070E887E999E0DF9197
:10063000CF910C94E210CF93DF9389E999E00E9467
:10064000AA128BE999E00E94AA124DEC5CEC6CE4D2
:100650007EE387E999E00E94E2104DEC5CEC6CE4EB
:100660007EE385E999E00E94E210C0E0D0E0BE019F
:10067000DD0F880B990B0E94D1192FEF3FEF4BEE46
:1006800054E40E94CA191816BCF089E999E00E9446
:10069000D5129B01AC0188279927DC01821B930BA3
:1006A000A40BB50BEC010E94AB0B6AE070E080E09C
:1006B00090E00E94260FDBCF40E050E0BA0185E9D0
:1006C00099E00E94E21040E050E060E070E887E9C5
:1006D00099E0DF91CF910C94E21083ED92E00E94BB
:1006E000620A8091E2039091E303009731F48091D4
:1006F000E4039091E503019607C0029749F48091C5
:10070000E4039091E50301979093E5038093E4035C
:1007100008950F931F93CF93DF9380EF92E00E9491
:10072000620A4DEC5CEC6CE47EEB87E999E00E9498
:10073000E2104DE35AE067E57EE385E999E00E9427
:10074000E2108DE00E94E20E8C018CE00E94E20E2D
:10075000EC018BE00E94E20E043F114094F7CC3292
:10076000D1407CF78C32914064F7DF91CF911F919B
:100770000F910895EF92FF920F931F93CF93DF9302
:100780004DEC5CEC6CE47EEB87E999E00E94E210B2
:100790004DE35AE067E57EE385E999E00E94E210C7
:1007A0006AEF70E080E090E00E94260F8DE00E94EA
:1007B000E20E7C018CE00E94E20E8C018BE00E9434
:1007C000E20EEC018CE2E81681E0F80654F40C32FB
:1007D00081E018070CF06FC0C43F81E0D80734F304
:1007E0003DC08CE2E81681E0F80601F30C3281E0AE
:1007F00018074CF4C43F81E0D807D4F44DEC5CEC0E
:100800006CE47EE30CC00C3281E01807E1F1C43FD8
:1008100081E0D807C4F54AE959E969E17EE385E951
:1008200099E00E94E2104DEC5CEC6CE47EEB11C0B0
:10083000C43F81E0D80709F4B9CF4DEC5CEC6CE41F
:100840007EE385E999E00E94E2104AE959E969E10D
:100850007EEB87E999E00E94E21015C0C53FD140C8
:100860000CF4A4CF4AE959E969E17EE385E999E00E
:100870000E94E2104DEC5CEC6CE47DEB87E999E0C2
:100880000E94E21093CF0D3211400CF48FCFC53F80
:10089000D1400CF48BCF68EE73E080E090E00E94D2
:1008A000260F8AE093E0DF91CF911F910F91FF9087
:1008B000EF900C94620A0C32114009F477CFC43FD8
:1008C000D1400CF073CF4DEC5CEC6CE47DE385E93A
:1008D00099E00E94E2104AE959E969E17EEBCECF46
:1008E0000F931F93CF93DF938C01EB0187E193E08C
:1008F0000E94620A8091E6039091E70380179107B6
:1009000009F443C00E94BA0383E393E00E94620AA1
:100910008091E2039091E3038130910539F42091B5
:10092000E6033091E7032F5F3F4F08C0039751F470
:100930002091E6033091E703215031093093E7031A
:100940002093E60380E593E00E94500AC8010E94CC
:10095000AB0B89E593E00E94500A8091E6039091E9
:10096000E7030E94AB0B85E693E00E94500ACE019C
:100970000E94AB0B8EE693E00E94500A8091E40344
:100980009091E5030E94AB0BB5CF8091E403909169
:10099000E5038C179D078CF48091E2039091E303AB
:1009A000019711F40E941B038091E2039091E303ED
:1009B000039731F40E94D10203C0C817D90764F32A
:1009C0008091E4039091E5038C179D07C9F00E9484
:1009D000BA030E946D0389E593E00E94500A80915A
:1009E000E6039091E7030E94AB0B8EE693E00E9432
:1009F000500A8091E4039091E5030E94AB0BE0CF95
:100A0000DF91CF911F910F910895CF92DF92EF92D6
:100A1000FF920F931F93CF93DF936C017A018B01A9
:100A2000C0E0D0E0CE15DF0589F0D8016D918D01D1
:100A3000D601ED91FC910190F081E02DC601199550
:100A4000892B11F47E0102C02196ECCFC701DF9102
:100A5000CF911F910F91FF90EF90DF90CF9008956D
:100A6000FC01A089B1898C91A689B78982FD0FC04C
:100A70009C91818D8F5F8F73228D821749F0218D1C
:100A8000DF01A20FB11D5D969C93818F08958C911B
:100A90000895FC01538D448D252F30E0842F90E084
:100AA000821B930B541710F0CF9608950197089569
:100AB000FC01918D828D981761F0828DDF01A80F66
:100AC000B11D5D968C91928D9F5F9F73928F90E088
:100AD00008958FEF9FEF0895FC01918D828D9817F7
:100AE00031F0828DE80FF11D858D90E008958FEF34
:100AF0009FEF0895FC01918D228D892F90E0805CFD
:100B00009F4F821B91098F73992708958DEC95E073
:100B10000E947A0521E0892B09F420E0822F0895B4
:100B20008AE696E00E947A0521E0892B09F420E00C
:100B3000822F089587E097E00E947A0521E0892BB3
:100B400009F420E0822F0895FC01848DDF01A80FB5
:100B5000B11DA35ABF4F2C91848D90E001968F73E5
:100B60009927848FA689B7892C93A089B1898C9104
:100B700080648C93938D848D981306C00288F389CA
:100B8000E02D80818F7D80830895EF92FF920F93F7
:100B90001F93CF93DF93EC0181E0888F9B8D8C8D29
:100BA000981305C0E889F989808185FD24C0F62E57
:100BB0000B8D10E00F5F1F4F0F731127E02E8C8DF0
:100BC000E8120CC00FB607FCFACFE889F9898081DA
:100BD00085FFF5CFCE010E94A405F1CF8B8DFE01DC
:100BE000E80FF11DE35AFF4FF0820B8FEA89FB8972
:100BF0008081806207C0EE89FF896083E889F98976
:100C000080818064808381E090E0DF91CF911F91AB
:100C10000F91FF90EF900895CF93DF93EC01888DB3
:100C20008823C9F0EA89FB89808185FD05C0A889F0
:100C3000B9898C9186FD0FC00FB607FCF5CF808176
:100C400085FFF2CFA889B9898C9185FFEDCFCE01C0
:100C50000E94A405E7CFDF91CF91089580E090E056
:100C6000892B21F00E949A05811119C080E090E043
:100C7000892B41F080E090E0892B21F00E94000058
:100C8000811110C00E94900581110FC080E090E09A
:100C9000892B81F00E94860581110AC008950E9467
:100CA0000000E4CF0E940000EDCF0E94F901EECFDA
:100CB0000C94000008950E94E51D1F920F920FB63C
:100CC0000F9211240BB60F922F933F934F935F9384
:100CD0006F937F938F939F93AF93BF93EF93FF9304
:100CE0008091EB039091EC03A091ED03B091EE03A2
:100CF000892B8A2B8B2B59F18091EA03E091E80331
:100D0000F091E9039081892780838091EB03909192
:100D1000EC03A091ED03B091EE03181619061A0624
:100D20001B060CF056C08091EB039091EC03A09150
:100D3000ED03B091EE030197A109B1098093EB0394
:100D40009093EC03A093ED03B093EE0342C0809127
:100D50000002E0E2F2E0E4919FEF90930002E230C3
:100D6000C9F050F4EE2399F0E13081F590916F00D5
:100D70009D7F90936F002AC0E43019F1E0F0E530D8
:100D800029F5909173009D7F909373001FC010927E
:100D90006E001CC0909170009D7F9093700091E058
:100DA0009093B0009091B100987F94609093B100BF
:100DB0001092B3000BC0909171009D7F90937100D1
:100DC00005C0909172009D7F9093720060E00E9438
:100DD000760EFF91EF91BF91AF919F918F917F918F
:100DE0006F915F914F913F912F910F900BBE0F909C
:100DF0000FBE0F901F9018951F920F920FB60F9273
:100E000011240BB60F922F933F934F935F936F93E1
:100E10007F938F939F93AF93BF93EF93FF938DEC4B
:100E200095E00E94A405FF91EF91BF91AF919F9132
:100E30008F917F916F915F914F913F912F910F9083
:100E40000BBE0F900FBE0F901F9018951F920F9220
:100E50000FB60F9211240BB60F922F933F934F931F
:100E60005F936F937F938F939F93AF93BF93EF9312
:100E7000FF938DEC95E00E943005FF91EF91BF91BB
:100E8000AF919F918F917F916F915F914F913F9122
:100E90002F910F900BBE0F900FBE0F901F901895C3
:100EA0001F920F920FB60F9211240BB60F922F9331
:100EB0003F934F935F936F937F938F939F93AF93E2
:100EC000BF93EF93FF938AE696E00E94A405FF91FB
:100ED000EF91BF91AF919F918F917F916F915F91B2
:100EE0004F913F912F910F900BBE0F900FBE0F901F
:100EF0001F9018951F920F920FB60F9211240BB6E8
:100F00000F922F933F934F935F936F937F938F93A2
:100F10009F93AF93BF93EF93FF938AE696E00E946F
:100F20003005FF91EF91BF91AF919F918F917F918C
:100F30006F915F914F913F912F910F900BBE0F904A
:100F40000FBE0F901F9018951F920F920FB60F9221
:100F500011240BB60F922F933F934F935F936F9390
:100F60007F938F939F93AF93BF93EF93FF9387E00C
:100F700097E00E94A405FF91EF91BF91AF919F91DF
:100F80008F917F916F915F914F913F912F910F9032
:100F90000BBE0F900FBE0F901F9018951F920F92CF
:100FA0000FB60F9211240BB60F922F933F934F93CE
:100FB0005F936F937F938F939F93AF93BF93EF93C1
:100FC000FF9387E097E00E943005FF91EF91BF917A
:100FD000AF919F918F917F916F915F914F913F91D1
:100FE0002F910F900BBE0F900FBE0F901F90189572
:100FF00080E991E00895249A08954F925F926F924C
:101000007F928F92AF92BF92CF92EF92FF920F9307
:101010001F93CF93DF933C01EB010E94010FF3017B
:1010200027853089621B730B6A307105B0F3F89421
:10103000E881F98155B1506185B18F7E85B96A85A6
:101040009F81262F291B922F2F83BF844A805B808C
:101050007D85FC84EE847F5FF394E3943E81488534
:10106000A984CB841181D20120E0C32F022F322F1B
:101070003181112788943111390F08F43FEF919590
:10108000889470FD130F1795889471FD130F1795B1
:10109000889472FD130F1795889473FD130F17959D
:1010A000889474FD130F1795889475FD130F179589
:1010B000889476FD130F1795889477FD130F179575
:1010C0008894232F7111212F960F122F002C55B9C0
:1010D00000C000C017FF85B930812227889400C066
:1010E000002C85B931113C0F00C0002C55B900C04F
:1010F00000C016FF85B908F43FEFC195889400C081
:10110000002C85B9F0FC230F00C0002C55B900C09D
:1011100000C015FF85B927958894F1FC230F00C006
:10112000002C85B92795889400C0002C55B900C0C3
:1011300000C014FF85B9F2FC230F2795889400C0E6
:10114000002C85B9F3FC230F00C0002C55B900C05A
:1011500000C013FF85B927958894F4FC230F00C0C5
:10116000002C85B92795889400C0002C55B900C083
:1011700000C012FF85B9F5FC230F2795889400C0A5
:10118000002C85B9F6FC230F00C0002C55B900C017
:1011900000C011FF85B927958894F7FC230F00C084
:1011A000002C85B92795889400C0002C55B900C043
:1011B00000C010FF85B9132FF110122FCA0D00C007
:1011C000002C85B900C000C0002C55B900C000C07B
:1011D00017FF85B932812227889400C0002C85B979
:1011E0003111340F00C0002C55B900C000C016FFEB
:1011F00085B908F43FEFEB0DF11D00C0002C85B957
:10120000E0FC230F00C0002C55B900C000C015FF42
:1012100085B927958894E1FC230F00C0002C85B97F
:101220002795889400C0002C55B900C000C014FF59
:1012300085B9E2FC230F2795889400C0002C85B95E
:10124000E3FC230F00C0002C55B900C000C013FF01
:1012500085B927958894E4FC230F00C0002C85B93C
:101260002795889400C0002C55B900C000C012FF1B
:1012700085B9E5FC230F2795889400C0002C85B91B
:10128000E6FC230F00C0002C55B900C000C011FFC0
:1012900085B927958894E7FC230F00C0002C85B9F9
:1012A0002795889400C0002C55B900C000C010FFDD
:1012B00085B9132FE110122F419500C0002C85B97C
:1012C0004C0D00C000C055B900C000C017FF85B963
:1012D00031812227889400C0002C85B93111390F43
:1012E00000C0002C55B900C000C016FF85B908F435
:1012F0003FEF9195889400C0002C85B970FD230FB5
:1013000000C0002C55B900C000C015FF85B9279555
:10131000889471FD230F00C0002C85B9279588940F
:1013200000C0002C55B900C000C014FF85B972FD83
:10133000230F2795889400C0002C85B973FD230FD7
:1013400000C0002C55B900C000C013FF85B9279517
:10135000889474FD230F00C0002C85B927958894CC
:1013600000C0002C55B900C000C012FF85B975FD42
:10137000230F2795889400C0002C85B976FD230F94
:1013800000C0002C55B900C000C011FF85B92795D9
:10139000889477FD230F00C0002C85B92795889489
:1013A00000C0002C55B900C000C010FF85B9132F34
:1013B0007111122F960F00C0002C85B9119709F0FA
:1013C00086CE20EE31E0D2010E94791BDC01CB01F8
:1013D000F4E0B695A79597958795FA95D1F720E013
:1013E00030E0A9016AE9469E040C411D569E400D5D
:1013F000511D1124450D511D840F951FA11DB11DB7
:10140000893E43E09407A105B10508F434C0885E25
:101410009340A109B10942E0B695A79597958795A4
:101420004A95D1F747E0849F080E211D949F200D17
:10143000311D1124290F311D6091750570E0860F53
:10144000971F820F931F4091C0095091C10960916D
:10145000C2097091C309292F3327420F531F611D01
:10146000711D4093C0095093C1096093C2097093E4
:10147000C3098093750578940E94010FF301708B66
:101480006787DF91CF911F910F91FF90EF90CF90E1
:10149000BF90AF908F907F906F905F904F90089526
:1014A000009769F0FC0101900020E9F73197AF0146
:1014B000481B590BBC0187E097E00C94050580E0C0
:1014C00090E00895CF93DF930E94500AEC0180EBE7
:1014D00093E00E94500A8C0F9D1FDF91CF910895D9
:1014E000E7E0F7E0A089B18982E08C93A485B58517
:1014F0001C92A685B7858FEC8C93108EA489B58934
:1015000086E08C93A289B3898C9180618C93A289A7
:10151000B3898C9188608C93A289B3898C918068FF
:101520008C930288F389E02D80818F7D80830895DC
:101530002091C0059091BF05213208F04AC08091EA
:101540009C058111FCCF32E030939C0531E0309353
:101550009B053FEF30939A051092990520939805CB
:10156000AFE9B5E048E755E0FA013E2F341B3217EA
:1015700018F43D913193F9CF1092770520917705BA
:10158000990F922B9093770590917605913061F4A5
:1015900010927605909177059093BB009091BC00D6
:1015A00093FDF8CF95EC01C095EE9093BC0090911F
:1015B0009C059230E1F390919A059F3F79F08091DC
:1015C0009A05803241F080919A05803331F084E0B1
:1015D00005C081E003C082E001C083E010929E0557
:1015E0001092C00510929D050895EF92FF921F93EF
:1015F000CF93DF931F92CDB7DEB7162F9CE7E92E6E
:1016000099E0F92ED7011C969C911C9721E020931C
:101610009D059093BF0510929E051092C0051A96E5
:101620000D90BC91A02DED91FC9111970190F0814E
:10163000E02D682FCD0179831995F7018285938577
:10164000DC01ED91FC910190F081E02D7981672F13
:101650001995F70182859385DC01ED91FC9101904C
:10166000F081E02D612F19950F90DF91CF911F919F
:10167000FF90EF900C94980ACF92DF92EF92FF9236
:10168000CF93DF93823018F083EB93E00AC0909100
:10169000A7099B3520F49091A8099A3550F485EC60
:1016A00093E0DF91CF91FF90EF90DF90CF900C947B
:1016B000620AE82FF0E0E356F64FC089CC3008F01C
:1016C00043C085E0C89FE0011124CA58D74F8B81E1
:1016D00028E830E06901C81AD10887FDD394CC0C02
:1016E000DD1CCC0CDD1C0D2C000CEE08FF088C81E1
:1016F00028E532E0281B310987FD3395220F331F7F
:10170000220F331FC901330FAA0BBB0B9C01AD0184
:101710002C193D094E095F09AAE5B0E00E940D1B96
:1017200024EB30E040E050E00E94EE1AC20ED31EDF
:10173000E41EF51E86E0C81AD108CC0CDD1C8FB75C
:10174000F894DA82C9828FBFDF91CF91FF90EF903A
:10175000DF90CF9008958F929F92AF92BF92CF92D9
:10176000DF92EF92FF920F931F93CF93DF93CDB74A
:10177000DEB7A1970FB6F894DEBF0FBECDBF6C01E8
:10178000990FEE08FF08F7FE31C0E0910707F091CE
:1017900008070190F081E02D6DE287E097E0199550
:1017A0008C0122273327A9012C193D094E095F0915
:1017B00019A2CE0181967C019AE0892E912CA12C50
:1017C000B12CCA01B901A50194010E94201B605DE2
:1017D000F70162937F01211531054105510589F714
:1017E000CF010E94500A080F191F1EC0A7019601C1
:1017F00019A28E010F5D1F4F8AE0C82ED12CE12C5B
:10180000F12CCA01B901A70196010E94201B605D5D
:10181000F80162938F01211531054105510589F7C2
:10182000CF010E94500A8C0180EB93E00E94500A85
:10183000800F911FA1960FB6F894DEBF0FBECDBFEB
:10184000DF91CF911F910F91FF90EF90DF90CF909C
:10185000BF90AF909F908F90089585ED8093BC00CE
:101860008091BC0084FDFCCF10929C0508954091AE
:10187000ED09262F30E0240F311D21323105DCF433
:1018800020919C052430C9F4FC0180E090E086178B
:1018900058F43091ED092191DC01A553B64FA30F07
:1018A000B11D2C930196F3CF8091ED09680F6093E1
:1018B000ED0980E0089581E0089582E0089508959B
:1018C00081E090E03091C5092091C409321710F4ED
:1018D00080E090E091958195910908958091C509E6
:1018E0009091C409891730F48F5F8093C50980E017
:1018F00090E008958FEF9FEF08958091C40990E0E4
:101900002091C509821B91090895CF92DF92EF9231
:10191000FF920F931F93CF93DF937C01262F972F76
:101920008A0180919D05882391F0C62FD72F6E01E3
:10193000C40ED51ECC15DD0571F06991D701ED916E
:10194000FC910190F081E02DC7011995F3CF642F30
:10195000822F0E94370CC801DF91CF911F910F9108
:10196000FF90EF90DF90CF900895CF93DF931F9279
:10197000CDB7DEB7698320919D052223D1F0209158
:10198000C005203240F021E030E0FC0133832283A7
:1019900080E090E015C080919E05E82FF0E0E156D0
:1019A000FA4F998190838F5F80939E058093C00545
:1019B00005C061E0CE0101960E94370C81E090E005
:1019C0000F90DF91CF9108951F920F920FB60F9253
:1019D00011240F900FBE0F901F9018951F920F9219
:1019E0000FB60F9211240BB60F922F933F934F9384
:1019F0005F936F937F938F939F93AF93BF93EF9377
:101A0000FF938091B900887F803609F49CC068F507
:101A1000883209F45BC090F4803109F454C038F482
:101A2000882309F4F6C0883009F44DC0F6C0883127
:101A300009F44CC0803209F45DC0EFC0803409F471
:101A400068C048F4803309F455C0883309F0E5C014
:101A500080939A05D8C0803509F44FC0883509F4C1
:101A60005DC0883409F0D9C0D6C0883909F4C7C030
:101A7000A8F4883709F467C038F4883609F463C0DD
:101A8000803709F460C0C9C0883809F4B8C080390B
:101A900009F45FC0803809F0C0C05BC0803B09F426
:101AA00086C038F4803A09F466C0883A09F47FC0E9
:101AB000B4C0803C09F4A7C0883C09F4A4C0883BAA
:101AC00009F48AC0AAC08091770510C09091990549
:101AD00080919805981770F5E091990581E08E0F37
:101AE00080939905F0E0E858FA4F80818093BB001D
:101AF00085EC86C080939A058EC0E091990581E0BF
:101B00008E0F809399058091BB00F0E0E858FA4F62
:101B1000808390919905809198056EC0E091990518
:101B200081E08E0F809399058091BB00F0E0E8582A
:101B3000FA4F808380919B0581116DC081E0809375
:101B4000760584EA61C083E080939C051092110AB7
:101B5000CFCF8091110A803208F051C0E091110A74
:101B600081E08E0F8093110A8091BB00F0E0EF506E
:101B7000F64F8083BDCF85EC8093BC0010929C050E
:101B80008091110A803230F4E091110AF0E0EF50B8
:101B9000F64F10826091110A70E0E091EF09F09128
:101BA000F00981EF99E019951092110A36C084E08E
:101BB00080939C051092EE091092ED09E091EB09DB
:101BC000F091EC0919958091ED09811105C081E032
:101BD0008093ED091092CB09E091EE0981E08E0F20
:101BE0008093EE09F0E0E553F64F80818093BB00CF
:101BF0009091EE098091ED09981708F479CF85E866
:101C00008093BC000AC085EC8093BC0010929C05B8
:101C100004C010929A050E942D0CFF91EF91BF9184
:101C2000AF919F918F917F916F915F914F913F9174
:101C30002F910F900BBE0F900FBE0F901F90189515
:101C400090E0FC013197E231F10508F04EC08827A1
:101C5000EE58FF4F8F4F0C94711B809180008F774F
:101C600003C0809180008F7D8093800008958091D3
:101C70008000877FF9CF84B58F7702C084B58F7DD0
:101C800084BD08958091B0008F7703C08091B0002B
:101C90008F7D8093B0000895809190008F7707C06A
:101CA000809190008F7D03C080919000877F80930A
:101CB000900008958091A0008F7707C08091A000C8
:101CC0008F7D03C08091A000877F8093A00008953E
:101CD000809120018F7707C0809120018F7D03C004
:101CE00080912001877F8093200108951F93CF93D7
:101CF000DF93282F30E0F901EF51FD4F8491F90176
:101D0000E556FD4FD491F901EB5AFD4FC491CC2318
:101D1000C9F0162F81110E94200EEC2FF0E0EE0F7B
:101D2000FF1FE55CFD4FA591B4918FB7F894111199
:101D300005C09C91ED2FE095E92302C0EC91ED2BBD
:101D4000EC938FBFDF91CF911F910895CF93DF93D5
:101D500090E0FC01E556FD4F2491FC01EB5AFD4F4C
:101D60008491882361F190E0880F991FFC01EF5D59
:101D7000FD4FC591D491FC01E55CFD4FA591B49157
:101D8000611109C09FB7F8948881209582238883C8
:101D9000EC912E230BC0623061F49FB7F894388128
:101DA000822F809583238883EC912E2B2C939FBFC9
:101DB00006C08FB7F894E8812E2B28838FBFDF9160
:101DC000CF910895863308F0865390917B00282F99
:101DD0002870977F922B90937B008770806480930C
:101DE0007C0080917A00806480937A0080917A00F0
:101DF00086FDFCCF809178002091790090E0922BB5
:101E000008953FB7F8948091C7099091C809A091AF
:101E1000C909B091CA0926B5A89B05C02F3F19F082
:101E20000196A11DB11D3FBFBA2FA92F982F88275A
:101E3000820F911DA11DB11DBC01CD0142E0660FB5
:101E4000771F881F991F4A95D1F708958F929F9207
:101E5000AF92BF92CF92DF92EF92FF926B017C0123
:101E60000E94010F4B015C01C114D104E104F10493
:101E7000F1F00E94010FDC01CB0188199909AA0930
:101E8000BB09883E9340A105B10570F321E0C21A59
:101E9000D108E108F10888EE880E83E0981EA11CA5
:101EA000B11CC114D104E104F10419F7DDCFFF9096
:101EB000EF90DF90CF90BF90AF909F908F9008955C
:101EC0001F920F920FB60F9211242F933F938F936F
:101ED0009F93AF93BF938091C0099091C109A09146
:101EE000C209B091C3093091C60923E0230F2D37F1
:101EF00020F40196A11DB11D05C026E8230F02960E
:101F0000A11DB11D2093C6098093C0099093C109FA
:101F1000A093C209B093C3098091C7099091C809E1
:101F2000A091C909B091CA090196A11DB11D809364
:101F3000C7099093C809A093C909B093CA09BF9172
:101F4000AF919F918F913F912F910F900FBE0F9066
:101F50001F901895089580E090E00895FC01248179
:101F600031E030939D052093BF0510929E0510929D
:101F7000C0058485682B81EC95E00E94B50C0C941B
:101F8000980A0F931F93CF938C01C62F64600E9411
:101F9000AE0F6C2F6B7FC8010E94AE0F83EC90E0F8
:101FA0000197F1F7CF911F910F9108950F931F9310
:101FB000CF93DF938C01C62FD62FD07FD1606D2FAA
:101FC0000E94AE0F6D2FC8010E94C10F80E1C89F13
:101FD000B0011124C62FC1606C2FC8010E94AE0F42
:101FE0006C2FC8010E94C10F81E090E0DF91CF917A
:101FF0001F910F9108951F920F920FB60F92112407
:102000000BB60F922F933F934F935F936F937F93F2
:102010008F939F93AF93BF93CF93DF93EF93FF93F0
:102020002091A50730E0F901EF51FD4F8491F901AE
:10203000E556FD4FD491F901EB5AFD4FC491CC23E5
:10204000A1F081110E94200EEC2FF0E0EE0FFF1F97
:10205000E95DFC4FA591B491EC91ED2331E020E0D6
:1020600009F430E0832F922F02C080E090E02091AD
:10207000A9073091AA072F5F3F4F3093AA072093FB
:10208000A9072091A807253618F026E02093A40779
:102090002091A4072430D9F128F4223069F02330AC
:1020A000D9F060C0253009F453C0263009F05AC079
:1020B00021E02093750853C0009709F053C0209188
:1020C000A9073091AA072436310508F443C01092BD
:1020D00075081092A8071DC08130910509F042C013
:1020E000E091A80721E02E0F2093A807F0E02091AF
:1020F000A9073091AA07EE0FFF1FEC55F84F308764
:1021000027831092AA071092A90724E029C00097FC
:10211000B9F4E091A80721E02E0F2093A807F0E082
:102120002091A9073091AA07EE0FFF1FEC55F84F39
:10213000308727831092AA071092A90723E010C0C6
:102140002091A9073091AA072536310558F007C01C
:10215000009741F41092AA071092A90703C025E046
:102160002093A4072091A7072223B9F0892B51F4CB
:102170008091A607882321F08091A60761E009C01D
:102180002F9A0BC08091A607882331F08091A60773
:1021900060E00E94760E01C02F98FF91EF91DF91D1
:1021A000CF91BF91AF919F918F917F916F915F91EF
:1021B0004F913F912F910F900BBE0F900FBE0F903C
:1021C0001F9018958F929F92AF92BF92CF92DF92FD
:1021D000EF92FF920F931F93CF93DF93EC016A016D
:1021E0007B0120E030E04FE753E4C701B6010E94D5
:1021F000301A4B015C0120E030E0A9010E94CA1BAB
:1022000018161CF4C501B40103C0C501B4019058EF
:102210000E94941B8B0120E030E0A901C701B601A8
:102220000E94CA1B181614F460E001C061E08981A5
:102230000E94760E0F3F110509F014F4112702C019
:102240000FEF10E0C88161E08C2F0E94A60E0115EF
:10225000110509F4B1C00F3F110509F4AFC0EC2F0F
:10226000F0E0EF51FD4FE4914E2F50E0FA0131972D
:10227000E231F10508F09DC08827EC57FF4F8F4FE2
:102280000C94711B84B5806884BD07BDA7C084B55C
:10229000806284BD08BDA2C0809180008068809368
:1022A0008000109389000093880098C0809180007E
:1022B00080628093800010938B0000938A008EC010
:1022C0008091800088608093800010938D0000933F
:1022D0008C0084C08091B00080688093B00000932F
:1022E000B3007CC08091B00080628093B000009306
:1022F000B40074C080919000806880939000109327
:102300009900009398006AC0809190008062809349
:10231000900010939B0000939A0060C08091900001
:1023200088608093900010939D0000939C0056C09D
:102330008091A00080688093A0008091A0008F7B96
:102340008093A0001093A9000093A80047C080913B
:10235000A00080628093A0001093AB000093AA00BD
:102360003DC08091A00088608093A0001093AD00D4
:102370000093AC0033C080912001806880932001DD
:10238000109329010093280129C0809120018062C7
:102390008093200110932B0100932A011FC080918C
:1023A000200188608093200110932D0100932C015F
:1023B00015C00038110514F460E001C061E08C2FF5
:1023C000DF91CF911F910F91FF90EF90DF90CF9011
:1023D000BF90AF909F908F900C94760EDF91CF912D
:1023E0001F910F91FF90EF90DF90CF90BF90AF9033
:1023F0009F908F9008951F920F920FB60F92112405
:102400000BB60F922F933F934F935F936F937F93EE
:102410008F939F93AF93BF93EF93FF938091150A90
:1024200087FF05C0109285001092840016C020918D
:10243000150A022E000C330B8091B20890E0281789
:1024400039075CF43091150A25E03203F0011124BC
:10245000EA58F74F808186FD15C08091150A8F5F7D
:102460008093150A2091150A022E000C330B8091DF
:10247000B20890E02817390794F48091150A8C303F
:102480002CF10DC03091150A3203F0011124EA58E5
:10249000F74F808160E08F730E94760EDECF8091CF
:1024A00084009091850084349C4918F480E49CE970
:1024B00005C08091840090918500049690938900D6
:1024C000809388008FEF8093150A2AC04091840082
:1024D000509185003091150A25E03203F001112456
:1024E000EA58F74F81819281840F951F909389005C
:1024F000809388003091150A3203F0011124EA58C4
:10250000F74F808186FF0CC03091150A3203F0012D
:102510001124EA58F74F808161E08F730E94760E94
:10252000FF91EF91BF91AF919F918F917F916F91AB
:102530005F914F913F912F910F900BBE0F900FBE67
:102540000F901F9018958EBD00000DB407FEFDCFB3
:102550008EB50895CF93DF93EC0160E088810E94EF
:10256000760E88E90E94A31280E00E94A31280E008
:102570000E94A31280E00E94A31280E00E94A31296
:1025800061E088810E94760E8BE891E00197F1F777
:1025900060E088810E94760E80EE0E94A31261E0C6
:1025A0008881DF91CF910C94760EAF92BF92CF923B
:1025B000DF92EF92FF920F931F93CF93DF93CDB7EC
:1025C000DEB760970FB6F894DEBF0FBECDBF5C01DB
:1025D00060E0FC0180810E94760E80E60E94A312DA
:1025E0008E010F5F1F4F7E01F1E1EF0EF11C6801BC
:1025F00080E00E94A31290E0A0E0B0E0F601819399
:102600009193A193B1936F01EE15FF0589F761E0F6
:10261000F50180810E94760E80E090E0DC01F801F7
:1026200041915191619171918F01BA2FA92F982FEA
:102630008827840F951FA61FB71FEE15FF0579F792
:102640009C01AD0166277727CB01621B730B840BBE
:10265000950B60960FB6F894DEBF0FBECDBFDF912D
:10266000CF911F910F91FF90EF90DF90CF90BF908F
:10267000AF900895EF92FF920F931F93CF93DF9344
:10268000EC019091140A9F5F292F27702093140A60
:1026900090FF02C090E801C090E021FD906424709A
:1026A00009F0906220E1290FFE013C967E018FE047
:1026B000E80EF11C00E011E06191662331F070E05A
:1026C000C8010E945D1B6F5F01C060E0DF011497CD
:1026D0006C93322F369F030E30E0311D1124CF0151
:1026E0000797311103C0EC01188203C03150EC018F
:1026F0003883662311F061506C93EE15FF05E1F607
:10270000DF91CF911F910F91FF90EF900895CF939C
:10271000DF93CDB7DEB7C057D1090FB6F894DEBF4F
:102720000FBECDBF789484B5826084BD84B58160CE
:1027300084BD85B5826085BD85B5816085BD80918C
:102740006E00816080936E00109281008091810004
:1027500082608093810080918100816080938100FC
:10276000809180008160809380008091B1008460BE
:102770008093B1008091B00081608093B00080911F
:10278000910082608093910080919100816080939C
:102790009100809190008160809390008091A100D1
:1027A00082608093A1008091A10081608093A1004C
:1027B0008091A00081608093A000809121018260BF
:1027C000809321018091210181608093210180917A
:1027D000200181608093200180917A008460809341
:1027E0007A0080917A00826080937A0080917A00EA
:1027F000816080937A0080917A00806880937A006B
:102800001092C1000E94700A61E080917D090E94CF
:10281000A60E60E080917D090E94760E60E08091B6
:102820007C090E94A60E81EC95E090938709809325
:1028300086091092C5091092C40910929E05109243
:10284000C00510929C0581E080939B05109276054F
:1028500061E084E10E94760E61E085E10E94760EDF
:102860008091B9008E7F8093B9008091B9008D7FEF
:102870008093B90088E48093B80085E48093BC001D
:1028800080E090E1A0E0B0E08093890990938A090C
:10289000A0938B09B0938C098AE090E0A0E0B0E0AF
:1028A00080938D0990938E09A0938F09B09390091E
:1028B00080E090E0A0E0B0E48093910990939209C9
:1028C000A0939309B093940960E070E185E00E94C1
:1028D000F50A6FE979E380E00E94F50A09E919E059
:1028E000A12CB12CC12CD12C8AE8482E82E0582E84
:1028F00090ED692E92E0792E2BEC822E27E0922E1D
:1029000096012458364F1901D90114969C911497B9
:1029100012968C91F501E458F64F7F01818F928FCA
:1029200061E00E94A60E61E0D7015A968C910E9448
:10293000A60EF10190858681D8018C93F701968FC0
:1029400061E00E94A60E60E0D7015E968C910E9425
:10295000A60E61E0F80180810E94760EFFB6F89421
:102960008091EF03811125C0F2018491F3019491CC
:10297000E82FF0E0EE0FFF1FEF5DFD4FA591B49142
:102980008C91982321F461E085E30E94760E61E04A
:1029900085E30E94A60E8CB580618CBD8CB58064E9
:1029A0008CBD61E084E30E94A60E61E083E30E9497
:1029B000A60E8091EF038F5F8093EF03FFBEC401EB
:1029C0000197F1F760E0D8018C910E94760E88E8BB
:1029D0000E94A31283E00E94A31261E0F8018081AB
:1029E0000E94760EC4010197F1F7C8010E94AA1255
:1029F000F2E0AF0EB11C0E5F1F4FCA94CD2821F03C
:102A0000CC24C394D12C7CCF01EA19E0F4E0FF2E52
:102A1000F00E60E0D8018D918D010E94A60EF0129B
:102A2000F8CF40EBE42E49E0F42E0DEA19E055E032
:102A3000A52E6CE0C62E72E0972EE2E0BE2EB00E00
:102A4000F8013897D080F80180818C3008F046C0BA
:102A500061E08D2D0E94A60ED8018C91A89EF001F8
:102A60001124EA58F74F9D2D9F732081207CD22E90
:102A7000D92AD082138214826C2D0E94511BBCE093
:102A80008B9FA001112420E030E0B901640F751F75
:102A9000A69EF001A79EF00D1124EA58F74F9081F1
:102AA00096FD12C02F5F3F4F2C30310571F7811119
:102AB0000BC01092800090928100109285001092BD
:102AC000840096BA90926F00D801EC91AE9EF0010E
:102AD0001124EA58F74F808180648083F80132978F
:102AE000908132978081F70131978083F70190833D
:102AF00060E00E94A60E61E0D7018C910E94A60EB4
:102B000060E0F70180810E94760E0F5F1F4FF2E0B8
:102B1000EF0EF11CB01294CFF8941092200189E0CE
:102B20008093210180E293E0909329018093280112
:102B3000109225011092240182E080937300789412
:102B40008093A4071092A8078091A50760E00E94D7
:102B5000A60E60E08BE00E94A60E60E08CE00E9472
:102B6000A60E60E08DE00E94A60E60E08EE00E945E
:102B7000A60E60E08FE00E94A60E0E94700A80916F
:102B80000504811145C01092F7031092F6038FEFF0
:102B90008093FA038093FB038093FC038093FD03EF
:102BA0008093FE038093FF0381E0809300041092E2
:102BB0000204109201041092F9031092F80380911C
:102BC000F2039091F303892B31F484EF93E0909317
:102BD000F3038093F203E091F003F091F103309757
:102BE00021F084EF93E09583848384EF93E09093C6
:102BF000F1038093F00310920404109203048FE811
:102C000092E09093F5038093F40381E080930504B0
:102C1000E091F403F091F5030480F581E02D84EF59
:102C200093E019958DE094E09093F7038093F60379
:102C300088E790E09093020480930104E091F4030C
:102C4000F091F5030284F385E02D84EF93E019956C
:102C5000009729F19C0140E050E060E472E48FE0CD
:102C600090E00E94EE1A722F632F0091B609109126
:102C7000B7092091B8093091B909872F962FDA0149
:102C800080179107A207B30710F4D901C8018093F8
:102C9000B6099093B709A093B809B093B9098FEF1B
:102CA0008093FA0380EB8093FB0380EF8093FC0317
:102CB00084E68093B30980E00E943C0B81E00E948F
:102CC0003C0B66246394712C20E7522E3EE0832E49
:102CD000912C8AE793E00E94620A8BE00E94E20E48
:102CE0000E94AB0B84E893E00E94620A8CE00E9491
:102CF000E20E0E94AB0B8EE893E00E94620A8DE028
:102D00000E94E20E0E94AB0B60ED77E080E090E065
:102D10000E94260F88E993E00E94620A1092E7035E
:102D20001092E6031092E5031092E4037092E3031D
:102D30006092E203EBE0F2E0DE011196852D019056
:102D40000D928A95E1F70E94BB19B4010E945D1BA8
:102D5000FC0183E0EE0FFF1F8A95E1F721E030E0F0
:102D60002C0F3D1FE20FF31FE080F180C280D38063
:102D700004811581A680B780C7010E94AB0BC601F4
:102D80000E94AB0BC8010E94AB0BC5010E94AB0BAC
:102D90000E9489038091E6039091E7030196909346
:102DA000E7038093E6030E94D1020E948903809189
:102DB000E4039091E50301969093E5038093E40387
:102DC0000E941B0368EB7BE080E090E00E94260FEE
:102DD0000E151F0544F5B601C7010E9470048091CD
:102DE000E6039091E703081719075CF48091E2036A
:102DF0009091E30382309105B9F1019711F40E949B
:102E00008A02B501C8010E9470048091E20390918A
:102E1000E303009719F40E94D10235C0029799F597
:102E20000E941B0330C0E016F106BCF4B501C801D6
:102E30000E9470048091E6039091E7030817190738
:102E4000FCF48091E2039091E30382309105B1F0AC
:102E50000197B1F40E948A0213C0CA14DB043CF447
:102E6000B601C7010E9470040E941B03CACFAC14B4
:102E7000BD044CF4B501C8010E9470040E941B03FC
:102E8000B601C701C0CFE090E403F090E5030091E4
:102E9000E6031091E70331E0E316F10429F00E9404
:102EA000BA030E946D03F7CF0E94D10260E375E779
:102EB00080E090E00E94260F0E94BA030E941B034C
:102EC0000E94BA030230110571F40E941B0360E3F3
:102ED00075E780E090E00E94260F0E94BA030E94EE
:102EE000D1020E94BA030E948A020E942E06F1CEED
:102EF0001092C4051092C30588EE93E0A0E0B0E004
:102F00008093C5059093C605A093C705B093C805E7
:102F100027EA32E03093C2052093C1051092D00514
:102F20001092CF058093D1059093D205A093D3053D
:102F3000B093D40529EB32E03093CE052093CD0534
:102F400045E351E05093DA054093D90544E351E05D
:102F50005093DC054093DB0540E351E05093DE05E0
:102F60004093DD0541E351E05093E0054093DF05D8
:102F700042E351E05093E2054093E10546E351E01E
:102F80005093E4054093E3051092E6051092E7059F
:102F90001092E8051092E90510926D0610926C06E9
:102FA00080936E0690936F06A0937006B09371069F
:102FB00030936B0620936A0645ED50E050937706F8
:102FC0004093760644ED50E050937906409378069E
:102FD00040ED50E050937B0640937A0641ED50E07F
:102FE00050937D0640937C0642ED50E050937F065F
:102FF00040937E0646ED50E0509381064093800654
:10300000109283061092840610928506109286060E
:1030100010920A071092090780930B0790930C07F0
:10302000A0930D07B0930E0730930807209307076E
:1030300085EC90E0909314078093130784EC90E064
:10304000909316078093150780EC90E090931807F3
:103050008093170781EC90E090931A0780931907EB
:1030600082EC90E090931C0780931B0786EC90E025
:1030700090931E0780931D0710922007109221073E
:10308000109222071092230786E380939D0987E31D
:1030900080939E0988E380939F0989E38093A00928
:1030A0008BE18093A1098DE18093A2098AE180934D
:1030B000A3098CE18093A40984E08093A50987E0AB
:1030C0008093A6091092A70984EB8093A80986E152
:1030D0008093A90988E18093AA0987E18093AB09CD
:1030E00089E18093AC09E091B208EC3020F08FEFD9
:1030F0008093AD0910C081E08E0F8093B208E093F9
:10310000AD0925E0E29FF0011124EA58F74F88EB62
:103110009BE092838183E091B208EC3020F08FEF46
:103120008093AE0910C081E08E0F8093B208E093C7
:10313000AE0985E0E89FF0011124EA58F74F88EBCB
:103140009BE0928381838CE080937C0984E280936E
:103150007D0986E080937E0985E080937F098FE179
:10316000809380098EE18093810983E280938209B4
:1031700082E28093830985E48093840984E48093C8
:10318000850980E48093880910928D0910928E0938
:1031900010928F0910929009109291091092920941
:1031A0001092930910929409EEEBF8E08FEF9FEFE5
:1031B000DC01128213821482158216821782108615
:1031C000118683879487A587B6878787908BA18B85
:1031D000B28B128611821082739629E0EC37F207C7
:1031E00041F78DE090E00E94CF1BFC011382128218
:1031F0008BEC92E091838083118687E2848384E163
:10320000828784E083871486F093BB08E093BA0832
:103210001092BC081092BD0885E28093A507109219
:10322000A7071092B4081092B3081092B608109233
:10323000B5081092B8081092B70861E070E080E01D
:1032400090E00E94FC1C009789F09093B408809352
:10325000B3081092B6081092B5082091B7083091C3
:10326000B808232B71F5FC0110822BC08091B308A4
:103270009091B408009711F00E94641C1092B40859
:103280001092B3081092B8081092B7081092B608BE
:103290001092B5088FEF8093B3091092B509109280
:1032A000B4091092BF091092BE098FEF9FEFDC01A5
:1032B0008093BA099093BB09A093BC09B093BD0950
:1032C00008951092B8081092B70862EB73E00E945C
:1032D000F31DE0CF8091B3089091B4080C94641C66
:1032E0008F929F92AF92BF92CF92DF92EF92FF9216
:1032F000CF93DF93EC01688179818A819B8161158D
:1033000071058105910521F464E279ED8BE597E083
:103310002DE133EF41E050E00E94EE1A49015A01DD
:103320009B01AC01A7EAB1E40E940D1B6B017C017B
:10333000ACEEB4EFA50194010E941B1BDC01CB0194
:103340008C0D9D1DAE1DBF1DB7FF03C00197A109C8
:10335000B04888839983AA83BB839F77DF91CF91FD
:10336000FF90EF90DF90CF90BF90AF909F908F90A5
:1033700008950C94701981E092E00C947019A0E00B
:10338000B0E08093010290930202A0930302B093F5
:10339000040208950E940C1A08F481E00895E8944C
:1033A00009C097FB3EF490958095709561957F4F8D
:1033B0008F4F9F4F9923A9F0F92F96E9BB2793953B
:1033C000F695879577956795B795F111F8CFFAF44B
:1033D000BB0F11F460FF1BC06F5F7F4F8F4F9F4F7C
:1033E00016C0882311F096E911C0772321F09EE8DA
:1033F000872F762F05C0662371F096E8862F70E040
:1034000060E02AF09A95660F771F881FDAF7880F19
:103410009695879597F90895990F0008550FAA0B6F
:10342000E0E8FEEF16161706E807F907C0F01216D7
:103430001306E407F50798F0621B730B840B950BDA
:1034400039F40A2661F0232B242B252B21F408952F
:103450000A2609F4A140A6958FEF811D811D0895CC
:103460000E94431A0C94B41A0E94A61A38F00E94C3
:10347000AD1A20F0952311F00C949D1A0C94A31A08
:1034800011240C94E81A0E94C51A70F3959FC1F399
:10349000950F50E0551F629FF001729FBB27F00D02
:1034A000B11D639FAA27F00DB11DAA1F649F662757
:1034B000B00DA11D661F829F2227B00DA11D621FA6
:1034C000739FB00DA11D621F839FA00D611D221F60
:1034D000749F3327A00D611D231F849F600D211D44
:1034E000822F762F6A2F11249F5750409AF0F1F0C7
:1034F00088234AF0EE0FFF1FBB1F661F771F881F30
:1035000091505040A9F79E3F510580F00C949D1AB0
:103510000C94E81A5F3FE4F3983ED4F386957795D0
:103520006795B795F795E7959F5FC1F7FE2B880FD5
:10353000911D9695879597F9089597F99F6780E86B
:1035400070E060E008959FEF80EC089500240A94F5
:103550001616170618060906089500240A9412166E
:103560001306140605060895092E0394000C11F4A1
:10357000882352F0BB0F40F4BF2B11F460FF04C04E
:103580006F5F7F4F8F4F9F4F089557FD9058440FA7
:10359000551F59F05F3F71F04795880F97FB991FB2
:1035A00061F09F3F79F0879508951216130614066F
:1035B000551FF2CF4695F1DF08C0161617061806FC
:1035C000991FF1CF86957105610508940895E894D7
:1035D000BB2766277727CB0197F90895052E97FB20
:1035E0001EF400940E94051B57FD07D00E94201B6B
:1035F00007FC03D04EF40C94051B50954095309574
:1036000021953F4F4F4F5F4F08959095809570954E
:1036100061957F4F8F4F9F4F08950E94421BA59F3A
:10362000900DB49F900DA49F800D911D11240895BD
:10363000B7FF0C940D1B0E940D1B821B930B08956A
:10364000A1E21A2EAA1BBB1BFD010DC0AA1FBB1FA6
:10365000EE1FFF1FA217B307E407F50720F0A21B18
:10366000B30BE40BF50B661F771F881F991F1A9485
:1036700069F760957095809590959B01AC01BD01AF
:10368000CF010895A29FB001B39FC001A39F700D09
:10369000811D1124911DB29F700D811D1124911D5A
:1036A0000895991B79E004C0991F961708F0961B9E
:1036B000881F7A95C9F78095089597FB072E16F411
:1036C000009407D077FD09D00E94801B07FC05D02D
:1036D0003EF4909581959F4F0895709561957F4F29
:1036E0000895EE0FFF1F881F8BBF0790F691E02D06
:1036F00019940E94421BB7FF0895821B930B0895F3
:10370000AA1BBB1B51E107C0AA1FBB1FA617B70707
:1037100010F0A61BB70B881F991F5A95A9F7809523
:103720009095BC01CD0108950E949B1B6894B11136
:103730000C94E81A08950E94CD1A88F09F5798F0CB
:10374000B92F9927B751B0F0E1F0660F771F881FA6
:10375000991F1AF0BA95C9F714C0B13091F00E94C0
:10376000E71AB1E008950C94E71A672F782F88279D
:10377000B85F39F0B93FCCF3869577956795B395E7
:10378000D9F73EF490958095709561957F4F8F4F56
:103790009F4F08950E940C1A08F48FEF0895CF935D
:1037A000DF938230910510F482E090E0E091180AF6
:1037B000F091190A20E030E0C0E0D0E0309711F13C
:1037C0004081518148175907C0F04817590761F4E3
:1037D00082819381209719F09B838A832BC09093D9
:1037E000190A8093180A26C02115310519F04217CD
:1037F000530718F49A01BE01DF01EF010280F38143
:10380000E02DDCCF2115310509F1281B390B2430BF
:10381000310590F412968D919C9113976115710565
:1038200021F0FB019383828304C09093190A809353
:10383000180AFD01329644C0FD01E20FF31F819387
:103840009193225031092D933C933AC02091160A4E
:103850003091170A232B41F420910702309108027E
:103860003093170A2093160A209105023091060220
:103870002115310541F42DB73EB740910902509111
:103880000A02241B350BE091160AF091170AE21781
:10389000F307A0F42E1B3F0B2817390778F0AC0173
:1038A0004E5F5F4F2417350748F04E0F5F1F509350
:1038B000170A4093160A8193919302C0E0E0F0E06A
:1038C000CF01DF91CF9108950F931F93CF93DF9393
:1038D000009709F48CC0FC01329713821282009188
:1038E000180A1091190A0115110581F420813181FE
:1038F000820F931F2091160A3091170A2817390753
:1039000079F5F093170AE093160A71C0D80140E0E8
:1039100050E0AE17BF0750F412962D913C911397CB
:10392000AD012115310509F1D901F3CF9D01DA016E
:103930003383228360817181860F971F82179307DB
:1039400069F4EC0128813981260F371F2E5F3F4F24
:10395000318320838A819B8193838283452B29F441
:10396000F093190AE093180A42C01396FC93EE9361
:103970001297ED01499159919E01240F351FE217CD
:10398000F30771F480819181840F951F029611963F
:103990009C938E938281938113969C938E9312971E
:1039A000E0E0F0E0D80112968D919C91139700977A
:1039B00019F0F8018C01F6CF8D919C9198012E5F42
:1039C0003F4F820F931F2091160A3091170A281734
:1039D000390769F4309729F41092190A1092180ADD
:1039E00002C0138212821093170A0093160ADF9105
:1039F000CF911F910F9108956F927F928F929F9216
:103A0000AF92BF92CF92DF92EF92FF920F931F93EC
:103A1000CF93DF93EC01009789F4CB01DF91CF9135
:103A20001F910F91FF90EF90DF90CF90BF90AF90DC
:103A30009F908F907F906F900C94CF1BFC01E60FAE
:103A4000F71F9C0122503109E217F30708F4ACC0BC
:103A5000D9010D911C91119706171707B0F0053089
:103A6000110508F49FC0C80104978617970708F44A
:103A700099C002501109061B170B019311936D9306
:103A80007C93CF010E94641C8DC05B01A01AB10A17
:103A90004C01800E911EA091180AB091190A40E0C5
:103AA00050E0E12CF12C109709F44AC0A815B90593
:103AB000D1F56D907C901197630182E0C80ED11C06
:103AC000CA14DB0480F1A3014A195B096A0182E090
:103AD000C80ED11C1296BC9012971396AC91B5E00B
:103AE000CB16D10440F0B282A38351834083D90125
:103AF0006D937C930AC00E5F1F4FC301800F911F0F
:103B0000F90191838083EB2DFA2FE114F10431F058
:103B1000D7011396FC93EE93129744C0F093190AC1
:103B2000E093180A3FC08D919C911197481759074F
:103B300008F4AC017D0112960D90BC91A02DB3CF7D
:103B40008091160A9091170A88159905E1F4461795
:103B50005707C8F48091050290910602009741F43E
:103B60008DB79EB74091090250910A02841B950BB4
:103B7000E817F907C8F4F093170AE093160AF90159
:103B8000718360830FC0CB010E94CF1B7C01009723
:103B900059F0A801BE010E94EA1DCE010E94641CDA
:103BA000C70104C0CE0102C080E090E0DF91CF9158
:103BB0001F910F91FF90EF90DF90CF90BF90AF904B
:103BC0009F908F907F906F90089581E090E0F8949F
:103BD0000C94FA1DFB01DC0102C001900D924150D2
:103BE0005040D8F70895FB01DC0101900D920020B0
:103BF000E1F7089511E0C2EAD1E000E006C0802FAD
:103C0000FE010E94711B2196011DC33AD10780E07D
:083C10000807A9F7F894FFCFA3
:103C1800FF0100000000001A0A2000020001000352
:103C2800000200020002000300010002000100027D
:103C3800000200020002000200010003000200016D
:103C4800000200020002000100010001000100035F
:103C58000001000300010001000100020001000151
:103C6800000200020002000100020001000200033D
:103C7800000200030002000100020002000100032C
:103C88000001000200020003000200000000005BC7
:103C9800065B065B06D601FC01000200000000037B
:103CA800024602FB07D601FC01F807FD070D000CD0
:103CB800000B0000000000B50C850CAB0F5F0C7DFD
:103CC8000C6E0C600C00000000C505050549050CCC
:103CD800067A0558056C0500000000D60F0505ABEF
:103CE8000FAA0F466F6E6374696F6E2043616C6331
:103CF800756C6572506F736974696F6E59203A00FC
:103D0800466F6E6374696F6E2052656A6F696E6480
:103D180072654C69676E65203A00494E54455253A6
:103D2800454354494F4E00466F6E6374696F6E2069
:103D3800706F736974696F6E6E657242616C6C65E1
:103D4800203A00466F6E6374696F6E2043616C633E
:103D5800756C6572506F736974696F6E58203A009C
:103D680042616C6C6558203A00706F736974696FB2
:103D78006E58203A0042616C6C6559203A00706FA9
:103D8800736974696F6E59203A0044726F6974657B
:103D9800203A2000476175636865203A2000436532
:103DA8006E747265203A2000466F6E6374696F6E98
:103DB800204C616E636572506172746965203A00C7
:103DC8000D0A00496E76616C696420736572766FBE
:103DD8002069642100536572766F20616E676C6597
:103DE800206973206F7574206F662072616E676535
:023DF8002100A8
:00000001FF
