:100000000C94A3010C94D4010C94D4010C94D4014D
:100010000C94D4010C94D4010C94D4010C94D4010C
:100020000C94D4010C94CF0B0C94CF0B0C94CF0BED
:100030000C94D4010C94E40E0C94D4010C94D401CF
:100040000C94D4010C947F120C94D4010C94D40120
:100050000C94D4010C94D4010C94D4010C94620936
:100060000C94D4010C9455100C942B100C94D401C6
:100070000C94D4010C94D4010C94D4010C94D401AC
:100080000C94D4010C94D4010C94D4010C94D4019C
:100090000C94D4010C94D4010C94D4010C94D90B7D
:1000A0000C94D4010C94D4010C94D4010C94D4017C
:1000B0000C94D4010C94D4010C94D4010C947F10B2
:1000C0000C94D4010C94D4010C94D4010C94011020
:1000D0000C94D70F0C94D4010C94AD0F0C94830F97
:1000E0000C94D4016D0870085F0863086908A708BC
:1000F000740878087E08820886088C08900894089E
:10010000A7089A089E08A208C611CB11D011DA11CF
:10011000E4115D12EE11F611FE11081212121C12FA
:100120002B1235125D123F12491253120C94DA1140
:100130000C948C080C9463080C94F6110C948E0D9E
:100140000C945D120C943F120C94B2070C94A70807
:100150000C94DE090C947E080C9408120C943B0558
:100160000C9482080C94D0110C9470080C94FC0927
:100170000C94EE110C94BF0E0C9469080C946D084D
:100180000C94E4110C94420E0C94910E0C945312A6
:100190000C9449120C94950E0C9494080C94F60748
:1001A0000C9412120C94040A0C943B0D0C942B1218
:1001B0000C9486080C9478080C94340A0C94B00DB6
:1001C0000C94A2080C94920E0C9490080C94351286
:1001D0000C9474080C9438050C949A080C949E089E
:1001E0000C94A20D0C941C120C9400020C94C611D9
:1001F0000C945F080C947F0D0C94D6010C9441056F
:100200000C94CB110C94FB0D0C94DF090C94501A38
:100210000C94FC010C945E180C94ED090C94FE11E6
:1002200000002100240027002A002D0030003300A8
:1002300001010000040107010A010000220025005D
:1002400028002B002E0031003400020100000501BF
:1002500008010B0105050505070508080808020245
:1002600002020A0A08080404040401010101010150
:1002700001010303030303030303040707070C0C33
:100280000C0C0C0C0C0C02020202060606060606FA
:1002900006060B0B0B0B0B0B0B0B0102102020089F
:1002A00008102040102040800201020108040201D1
:1002B0000102040810204080804020100804020140
:1002C0008004020180402010080402010804020199
:1002D0000102040810204080010204081020408020
:1002E00000000A0B02090C0D0E08070304010000B0
:1002F00000000000000000000000000000000000FE
:1003000000000000000000000000000012111000BA
:1003100000000000000000000000000000000000DD
:10032000000000000000000020002300260029003B
:100330002C002F003200000100000301060109011A
:1003400002005E18501A11241FBECFEFD1E2DEBFAB
:10035000CDBF00E00CBF14E0A0E0B2E0E0E6FDE3BA
:1003600000E00BBF02C007900D92AC34B107D9F783
:100370002AE0ACE4B4E001C01D92A838B207E1F76E
:1003800011E0C2EAD1E000E006C021970109802F08
:10039000FE010E94151CC13AD10780E00807A9F7A9
:1003A0000E94B9130C949E1E0C940000CF93DF930F
:1003B00000D000D0CDB7DEB7AB011C821D821E82FB
:1003C000DC01ED91FC910190F081E02D19821A82FF
:1003D0001B829E012F5F3F4FBE016C5F7F4F1995BF
:1003E00026960FB6F894DEBF0FBECDBFDF91CF913A
:1003F0000895E0E0F0E01994FC0185859685089564
:1004000080E090E008950F931F93CF93DF93EC016A
:100410008B01072E000C880B990B97FF03C00E94DD
:10042000900B03C04AE00E944F0B86E194E00E94CB
:10043000630A602F81E30E940B0D209711F460E0A6
:1004400008C0C130D10551F483E493E00E94750ADD
:1004500061E085E30E940B0D60E014C0C230D1055D
:1004600031F485E493E00E94750A60E007C02397A9
:1004700081F487E493E00E94750A61E085E30E94BD
:100480000B0D61E082E3DF91CF911F910F910C94EE
:100490000B0DDF91CF911F910F91089583EC99E09F
:1004A0000E942E1385EC99E00E942E134DEC5CEC1B
:1004B0006CE47EEB81EC99E00E9466114DEC5CEC03
:1004C0006CE47EEB8FEB99E00E94661160ED77E0C3
:1004D00080E090E00E94280940E050E0BA018FEBF4
:1004E00099E00E94661140E050E060E070E881EC25
:1004F00099E00E94661180914D0490914E048130E4
:10050000910519F483E090E011C0009719F482E09E
:1005100090E00CC08230910529F410924E041092A4
:100520004D0408C0039731F481E090E090934E04AD
:1005300080934D0480914D0490914E040C94B70B20
:1005400083EC99E00E942E1385EC99E00E942E1313
:100550004DEC5CEC6CE47EEB81EC99E00E94661162
:100560004DEC5CEC6CE47EEB8FEB99E00E94661145
:1005700068EE73E080E090E00E94280940E050E0DF
:10058000BA018FEB99E00E94661140E050E060E014
:1005900070E881EC99E00E94661168EE73E080E0FB
:1005A00090E00E94280980914D0490914E0401979B
:1005B00064E070E00E94011C8F3F2FEF920711F45E
:1005C00083E090E090934E0480934D0480914D041D
:1005D00090914E040C94B70B83EC99E00E942E137B
:1005E00085EC99E00E942E134DEC5CEC6CE47EE30C
:1005F00081EC99E00E9466114DEC5CEC6CE47EE3CA
:100600008FEB99E00E94661168EE73E080E090E065
:100610000E94280940E050E0BA018FEB99E00E9467
:10062000661140E050E060E070E881EC99E00E94E3
:10063000661168EE73E080E090E00E9428098091E6
:100640004D0490914E04019664E070E00E94011CFC
:1006500090934E0480934D040C94B70B89E493E07F
:100660000E94750A20914D0430914E0480915104EE
:10067000909152042130310511F4019604C02330C9
:10068000310529F40197909352048093510480918D
:100690005104909152040C94B70B0F931F93CF9376
:1006A000DF934DEC5CEC6CE47EEB81EC99E00E9416
:1006B00066114DE35AE067E57EE38FEB99E00E9417
:1006C00066116AEF70E080E090E00E9428098DE0FA
:1006D0000E94E4088C018CE00E94E408EC018BE0AD
:1006E0000E94E4080E3521E01207BCF4CE3521E06B
:1006F000D2070CF040C0843F21E092070CF050C0BC
:100700004AE057ED63E27CEB8FEB99E00E946611C3
:100710004AE057ED63E27CE353C00E351140B9F275
:10072000CE3521E0D2074CF4843F21E09207D4F487
:100730004DEC5CEC6CE47EE30CC0CE35D14039F27C
:10074000843F21E092070CF040C04AE959E969E191
:100750007EE38FEB99E00E9466114DEC5CEC6CE45B
:100760007EEB2EC0843F914009F4B1CF4DEC5CECA0
:100770006CE47EE30CC0CE35D14009F4A8CF843FB1
:1007800091400CF0A4CF4DEC5CEC6CE47DE38FEB7E
:1007900099E00E9466114AE959E969E17EEB10C0CF
:1007A000853F91400CF493CF4AE959E969E17EE332
:1007B0008FEB99E00E9466114DEC5CEC6CE47DEBF4
:1007C00081EC99E00E94661182CF853F91400CF444
:1007D0007ECF64EF71E080E090E00E94280986E619
:1007E00093E0DF91CF911F910F910C94750A0F93B5
:1007F0001F93CF93DF938C01EB0183E793E00E947B
:10080000750A80915104909152048017910739F133
:100810000E944D030E942E038FE893E00E94630A1A
:10082000C8010E94B70B88E993E00E94630A809197
:100830005104909152040E94B70B84EA93E00E9405
:10084000630ACE010E94B70B8DEA93E00E94630A0F
:1008500080914F04909150040E94B70BD2CF8091A9
:100860004F04909150048C179D0794F480914D048F
:1008700090914E04019711F40E94EC0280914D0476
:1008800090914E04039709F040C00E94A0023DC021
:10089000C817D907D4F580914D0490914E04019763
:1008A00011F40E94A00280914D0490914E04039790
:1008B00061F50E94EC0229C00E944D0389EB93E090
:1008C0000E94750A80914D0490914E04009729F57D
:1008D00080914F049091500401979093500480931D
:1008E0004F0488E993E00E94630A8091510490913B
:1008F00052040E94B70B8DEA93E00E94630A809134
:100900004F04909150040E94B70B80914F04909136
:1009100050048C179D0781F608C0029711F780914B
:100920004F04909150040196D8CFDF91CF911F9141
:100930000F910895CF92DF92EF92FF92CF93DF93C2
:10094000823018F086ED93E00AC09091D1096917C2
:1009500020F09091D209961750F488EE93E0DF9141
:10096000CF91FF90EF90DF90CF900C94750AE82F15
:10097000F0E0E953F64FC089CC3008F072C0262F62
:1009800030E0D0E085E08C9FF0018D9FF00D1124C8
:10099000E056F74F8381283C31059CF528E830E08C
:1009A0006901C81AD10887FDD394CC0CDD1CCC0C8E
:1009B000DD1C0D2C000CEE08FF08848128E532E0D8
:1009C000281B310987FD3395220F331F220F331F58
:1009D000C901330FAA0BBB0B9C01AD012C193D09BA
:1009E0004E095F09A62FB0E00E94B11B24EB30E056
:1009F00040E050E00E94921BC20ED31EE41EF51E82
:100A00001EC048E850E06A01C81AD10887FDD39497
:100A1000CC0CDD1CCC0CDD1C2C153D0584F0448178
:100A200088E592E0841B910947FD9395880F991FF3
:100A3000880F991F69018C159D050CF46C018FB707
:100A4000F89495E09C9FF0019D9FF00D1124E056D5
:100A5000F74F96E0C91AD108CC0CDD1CD282C182B6
:100A60008FBFDF91CF91FF90EF90DF90CF900895EF
:100A700080E991E00895E1E0F1E080818062808387
:100A800008956F927F928F929F92AF92BF92CF9272
:100A9000DF92EF92FF920F931F93CF93DF933C016E
:100AA000EB010E940309F30127853089621B730B58
:100AB0006A307105B0F3F894E881F9815091020130
:100AC0005062809102018F7D80930201EA849F81B0
:100AD0002E2D291B922F2F83DF84AA81BB816D8548
:100AE0007C85FE846F5F7F5FF3943E814885B98487
:100AF000AB84118120E0C32E022F322F31811127C8
:100B000088943111390F08F43FEF9195889460FD76
:100B1000130F1795889461FD130F1795889462FD44
:100B2000130F1795889463FD130F1795889464FD30
:100B3000130F1795889465FD130F1795889466FD1C
:100B4000130F1795889467FD130F17958894232F1B
:100B50006111212F9E0D122F002C5093020100C015
:100B6000002C17FF8093020130812227889400C057
:100B70008093020131113C0D00C05093020100C06E
:100B8000002C16FF8093020108F43FEFC194889473
:100B900000C08093020170FD230F00C0509302013A
:100BA00000C0002C15FF809302012795889471FDE9
:100BB000230F00C0809302012795889400C05093B2
:100BC000020100C0002C14FF8093020172FD230F6C
:100BD0002795889400C08093020173FD230F00C005
:100BE0005093020100C0002C13FF8093020127954F
:100BF000889474FD230F00C0809302012795889488
:100C000000C05093020100C0002C12FF809302012B
:100C100075FD230F2795889400C08093020176FD0F
:100C2000230F00C05093020100C0002C11FF8093DD
:100C300002012795889477FD230F00C0809302015D
:100C40002795889400C05093020100C0002C10FF2B
:100C500080930201132F7111122FCB0C00C08093CF
:100C6000020100C000C05093020100C0002C17FF19
:100C70008093020132812227889400C08093020170
:100C80003111340F00C05093020100C0002C16FF38
:100C90008093020108F43FEFED0DF11D00C0809339
:100CA0000201F0FC230F00C05093020100C0002C91
:100CB00015FF8093020127958894F1FC230F00C053
:100CC000809302012795889400C05093020100C0D0
:100CD000002C14FF80930201F2FC230F27958894C7
:100CE00000C080930201F3FC230F00C05093020167
:100CF00000C0002C13FF8093020127958894F4FC18
:100D0000230F00C0809302012795889400C0509360
:100D1000020100C0002C12FF80930201F5FC230F9A
:100D20002795889400C080930201F6FC230F00C031
:100D30005093020100C0002C11FF809302012795FF
:100D40008894F7FC230F00C08093020127958894B4
:100D500000C05093020100C0002C10FF80930201DC
:100D6000132FF110122F419500C0809302014A0DFC
:100D700000C0002C5093020100C0002C17FF80938C
:100D8000020131812227889400C080930201311131
:100D9000390F00C05093020100C0002C16FF809351
:100DA000020108F43FEF9195889400C080930201FE
:100DB00060FD230F00C05093020100C0002C15FFFE
:100DC000809302012795889461FD230F00C08093D2
:100DD00002012795889400C05093020100C0002CA6
:100DE00014FF8093020162FD230F2795889400C0B1
:100DF0008093020163FD230F00C05093020100C0E5
:100E0000002C13FF809302012795889464FD230F23
:100E100000C0809302012795889400C0509302017E
:100E200000C0002C12FF8093020165FD230F27955F
:100E3000889400C08093020166FD230F00C0509388
:100E4000020100C0002C11FF8093020127958894B5
:100E500067FD230F00C0809302012795889400C08E
:100E60005093020100C0002C10FF80930201132F49
:100E70006111122F9E0D00C080930201119709F09D
:100E80006CCE4A815B8120EE31E0DA010E941D1CAC
:100E9000DC01CB0164E0B695A795979587956A9597
:100EA000D1F760E070E09B01EAE94E9F040E211D3E
:100EB0005E9F200D311D1124250F311D820F931FC0
:100EC000A11DB11D893EE3E09E07A105B10508F40F
:100ED00034C0885E9340A109B10922E0B695A79578
:100EE000979587952A95D1F727E0829F080E611D77
:100EF000929F600D711D1124690F711D20914C048A
:100F000030E0820F931F860F971F4091530450913A
:100F100054046091550470915604292F3327420FD1
:100F2000531F611D711D40935304509354046093EB
:100F300055047093560480934C0478940E940309DE
:100F4000F301708B6787DF91CF911F910F91FF9015
:100F5000EF90DF90CF90BF90AF909F908F907F9059
:100F60006F9008950F931F93CF93DF93CDB7DEB7A4
:100F700062970FB6F894DEBF0FBECDBF8C01F901AA
:100F8000DC011C968C917A8369835C834B835E833E
:100F90004D8390819D8791819E8792819F8781302B
:100FA00029F4CE0101960E94591306C01C861B86A7
:100FB0001A86198618861F8283E0888B1A8A198AF6
:100FC000D801ED91FC910484F585E02DBE016F5FA1
:100FD0007F4FC801199562960FB6F894DEBF0FBE19
:100FE000CDBFDF91CF911F910F9108950F931F9364
:100FF000CF93DF93CDB7DEB762970FB6F894DEBF1D
:101000000FBECDBF8C01F901DC011C968C917A8357
:1010100069835C834B835E834D8390819D8791813F
:101020009E8792819F87813029F4CE0101960E948C
:10103000591306C01C861B861A86198618861F82BD
:10104000188A1A8A198AD801ED91FC910484F585D1
:10105000E02DBE016F5F7F4FC801199562960FB6F4
:10106000F894DEBF0FBECDBFDF91CF911F910F91DE
:1010700008951F93CF93DF93182F0E94E4088F3FAA
:10108000934059F4812F0E94E408EC010E94B70BB1
:10109000C83ED340BCF781E001C080E0DF91CF9132
:1010A0001F91089590E0FC013197E231F10508F0BD
:1010B0004EC08827EE58FF4F8F4F0C94151C80911F
:1010C00080008F7703C0809180008F7D80938000A7
:1010D000089580918000877FF9CF84B58F7702C013
:1010E00084B58F7D84BD08958091B0008F7703C053
:1010F0008091B0008F7D8093B00008958091900022
:101100008F7707C0809190008F7D03C08091900001
:10111000877F8093900008958091A0008F7707C00B
:101120008091A0008F7D03C08091A000877F809375
:10113000A0000895809120018F7707C08091200141
:101140008F7D03C080912001877F809320010895C7
:10115000CF93DF9390E0FC01E656FD4F2491FC0114
:10116000EC5AFD4F8491882361F190E0880F991F1C
:10117000FC01E05EFD4FC591D491FC01E65CFD4FA2
:10118000A591B491611109C09FB7F8948881209509
:1011900082238883EC912E230BC0623061F49FB7C9
:1011A000F8943881822F809583238883EC912E2BAD
:1011B0002C939FBF06C08FB7F894E8812E2B28830D
:1011C0008FBFDF91CF910895863308F086539091B9
:1011D0007B00282F2870977F922B90937B0087703D
:1011E000806480937C0080917A00806480937A0090
:1011F00080917A0086FDFCCF809178002091790063
:1012000090E0922B08953FB7F8948091DE0590917D
:10121000DF05A091E005B091E10526B5A89B05C0CA
:101220002F3F19F00196A11DB11D3FBFBA2FA92F65
:10123000982F8827820F911DA11DB11DBC01CD01E2
:1012400042E0660F771F881F991F4A95D1F70895CE
:101250008F929F92AF92BF92CF92DF92EF92FF92C6
:101260006B017C010E9403094B015C01C114D10494
:10127000E104F104F1F00E940309DC01CB018819BB
:101280009909AA09BB09883E9340A105B10570F3ED
:1012900021E0C21AD108E108F10888EE880E83E047
:1012A000981EA11CB11CC114D104E104F10419F76A
:1012B000DDCFFF90EF90DF90CF90BF90AF909F90E9
:1012C0008F9008951F920F920FB60F9211242F93B3
:1012D0003F938F939F93AF93BF93809153049091CB
:1012E0005404A0915504B09156043091DD0523E0DB
:1012F000230F2D3720F40196A11DB11D05C026E84E
:10130000230F0296A11DB11D2093DD058093530488
:1013100090935404A0935504B09356048091DE0535
:101320009091DF05A091E005B091E1050196A11D26
:10133000B11D8093DE059093DF05A093E005B09387
:10134000E105BF91AF919F918F913F912F910F90A8
:101350000FBE0F901F90189585ED8093BC00809173
:10136000BC0084FDFCCF1092E605089540910C0A64
:10137000262F30E0240F311D21323105DCF420917D
:10138000E6052430C9F4FC0180E090E0861758F4AB
:1013900030910C0A2191DC01A651B64FA30FB11D6B
:1013A0002C930196F3CF80910C0A680F60930C0A7E
:1013B00080E0089581E0089582E00895089581E035
:1013C00090E03091E3052091E205321710F480E0BF
:1013D00090E091958195910908958091E305909110
:1013E000E205891730F48F5F8093E30580E090E099
:1013F00008958FEF9FEF08958091E20590E020918E
:10140000E305821B91090895CF92DF92EF92FF923C
:101410000F931F93CF93DF937C01262F972F8A0181
:101420008091E705882391F0C62FD72F6E01C40E57
:10143000D51ECC15DD0571F06991D701ED91FC91B8
:101440000190F081E02DC7011995F3CF642F822F11
:101450000E94B609C801DF91CF911F910F91FF90B3
:10146000EF90DF90CF900895CF93DF931F92CDB789
:10147000DEB769832091E7052223D1F02091EA05A8
:10148000203240F021E030E0FC013383228380E011
:1014900090E015C08091E805E82FF0E0E95AF54F9B
:1014A000998190838F5F8093E8058093EA0505C05A
:1014B00061E0CE0101960E94B60981E090E00F90B4
:1014C000DF91CF910895009769F0FC010190002011
:1014D000E9F73197AF01481B590BBC0181E397E055
:1014E0000C943B0D80E090E00895CF93DF930E9431
:1014F000630AEC0188E494E00E94630A8C0F9D1F4C
:10150000DF91CF910895E1E3F7E0A089B18982E00E
:101510008C93A485B5851C92A685B7858FEC8C939A
:10152000108EA489B58986E08C93A289B3898C91A9
:1015300080618C93A289B3898C9188608C93A289F5
:10154000B3898C9180688C930288F389E02D808127
:101550008F7D808308952091EA059091E9052132DD
:1015600008F04AC08091E6058111FCCF32E030934B
:10157000E60531E03093E5053FEF3093560A1092CF
:10158000550A2093540AA7E5BAE044E35AE0FA0169
:101590003E2F341B321718F43D913193F9CF10923E
:1015A000330A2091330A990F922B9093330A90912A
:1015B000E405913061F41092E4059091330A909320
:1015C000BB009091BC0093FDF8CF95EC01C095EE67
:1015D0009093BC009091E6059230E1F39091560A09
:1015E0009F3F79F08091560A803241F08091560AEF
:1015F000803331F084E005C081E003C082E001C0A7
:1016000083E01092E8051092EA051092E70508952C
:10161000EF92FF921F93CF93DF931F92CDB7DEB768
:10162000162F96EAE92E99E0F92ED7011C969C9187
:101630001C9721E02093E7059093E9051092E805B7
:101640001092EA051A960D90BC91A02DED91FC9197
:1016500011970190F081E02D682FCD0179831995C4
:10166000F70182859385DC01ED91FC910190F08179
:10167000E02D7981672F1995F70182859385DC012B
:10168000ED91FC910190F081E02D612F19950F9063
:10169000DF91CF911F91FF90EF900C94AB0A8F9246
:1016A0009F92AF92BF920F931F93CF93DF93CDB7CB
:1016B000DEB7A1970FB6F894DEBF0FBECDBF19A25B
:1016C000423008F44AE08E010F5D1F4F842E912CAA
:1016D000A12CB12CA50194010E94C41BE62FB901D5
:1016E000CA0101501109EA3014F4E05D01C0E95C5F
:1016F000D801EC93232B242B252B61F7C8010E94E2
:10170000630AA1960FB6F894DEBF0FBECDBFDF917E
:10171000CF911F910F91BF90AF909F908F900895A0
:10172000CF92DF92EF92FF92CF93DF936B017C0118
:10173000E0913107F09132070190F081E02D6DE2E8
:1017400081E397E01995EC0166277727CB016C19A7
:101750007D098E099F094AE00E944F0B8C0F9D1F47
:10176000DF91CF91FF90EF90DF90CF900895CF93CE
:10177000DF93BC01990F880B990B97FF03C00E9460
:10178000900B03C04AE00E944F0BEC0188E494E008
:101790000E94630A8C0F9D1FDF91CF9108951F92C5
:1017A0000F920FB60F9211240F900FBE0F901F9043
:1017B00018951F920F920FB60F9211240BB60F922D
:1017C0002F933F934F935F936F937F938F939F9349
:1017D000AF93BF93EF93FF938091B900887F8036DA
:1017E00009F49CC068F5883209F45BC090F480313C
:1017F00009F454C038F4882309F4F6C0883009F499
:101800004DC0F6C0883109F44CC0803209F45DC087
:10181000EFC0803409F468C048F4803309F455C03F
:10182000883309F0E5C08093560AD8C0803509F4A2
:101830004FC0883509F45DC0883409F0D9C0D6C0DE
:10184000883909F4C7C0A8F4883709F467C038F4A8
:10185000883609F463C0803709F460C0C9C088388D
:1018600009F4B8C0803909F45FC0803809F0C0C0FD
:101870005BC0803B09F486C038F4803A09F466C046
:10188000883A09F47FC0B4C0803C09F4A7C0883C02
:1018900009F4A4C0883B09F48AC0AAC08091330A25
:1018A00010C09091550A8091540A981770F5E091F4
:1018B000550A81E08E0F8093550AF0E0EC5CF54FFD
:1018C00080818093BB0085EC86C08093560A8EC0D1
:1018D000E091550A81E08E0F8093550A8091BB00FC
:1018E000F0E0EC5CF54F80839091550A8091540AAA
:1018F0006EC0E091550A81E08E0F8093550A809169
:10190000BB00F0E0EC5CF54F80838091E505811130
:101910006DC081E08093E40584EA61C083E0809338
:10192000E6051092300ACFCF8091300A803208F05D
:1019300051C0E091300A81E08E0F8093300A80918F
:10194000BB00F0E0E05FF54F8083BDCF85EC809376
:10195000BC001092E6058091300A803230F4E091AC
:10196000300AF0E0E05FF54F10826091300A70E0DD
:10197000E0910E0AF0910F0A80E19AE01995109219
:10198000300A36C084E08093E60510920D0A10926A
:101990000C0AE0910A0AF0910B0A199580910C0A41
:1019A000811105C081E080930C0A1092EA09E09150
:1019B0000D0A81E08E0F80930D0AF0E0E651F64F9C
:1019C00080818093BB0090910D0A80910C0A98173A
:1019D00008F479CF85E88093BC000AC085EC809339
:1019E000BC001092E60504C01092560A0E94AC0991
:1019F000FF91EF91BF91AF919F918F917F916F91E7
:101A00005F914F913F912F910F900BBE0F900FBEA2
:101A10000F901F9018951F93CF93DF93282F30E0DE
:101A2000F901E052FD4F8491F901E656FD4FD49142
:101A3000F901EC5AFD4FC491CC23C9F0162F811146
:101A40000E945208EC2FF0E0EE0FFF1FE65CFD4F06
:101A5000A591B4918FB7F894111105C09C91ED2F09
:101A6000E095E92302C0EC91ED2BEC938FBFDF9161
:101A7000CF911F910895CF92DF92EF92FF920F9333
:101A80001F93CF93DF936C017A018B01C0E0D0E00C
:101A9000CE15DF0589F0D8016D918D01D601ED914C
:101AA000FC910190F081E02DC6011995892B11F46C
:101AB0007E0102C02196ECCFC701DF91CF911F912B
:101AC0000F91FF90EF90DF90CF900895FC01A089D7
:101AD000B1898C91A689B78982FD0FC09C91818DB7
:101AE0008F5F8F73228D821749F0218DDF01A20F46
:101AF000B11D5D969C93818F08958C910895FC0192
:101B0000538D448D252F30E0842F90E0821B930B62
:101B1000541710F0CF96089501970895FC01918D08
:101B2000828D981761F0828DDF01A80FB11D5D963F
:101B30008C91928D9F5F9F73928F90E008958FEFAD
:101B40009FEF0895FC01918D828D981731F0828D61
:101B5000E80FF11D858D90E008958FEF9FEF0895B8
:101B6000FC01918D228D892F90E0805C9F4F821B1C
:101B700091098F739927089587EF95E00E94B00D22
:101B800021E0892B09F420E0822F089584E996E072
:101B90000E94B00D21E0892B09F420E0822F0895E6
:101BA00081E397E00E94B00D21E0892B09F420E049
:101BB000822F0895FC01848DDF01A80FB11DA35A67
:101BC000BF4F2C91848D90E001968F739927848F5D
:101BD000A689B7892C93A089B1898C9180648C9354
:101BE000938D848D981306C00288F389E02D80813F
:101BF0008F7D80830895EF92FF920F931F93CF9371
:101C0000DF93EC0181E0888F9B8D8C8D981305C04C
:101C1000E889F989808185FD24C0F62E0B8D10E0BE
:101C20000F5F1F4F0F731127E02E8C8DE8120CC031
:101C30000FB607FCFACFE889F989808185FFF5CFD7
:101C4000CE010E94DA0DF1CF8B8DFE01E80FF11D60
:101C5000E35AFF4FF0820B8FEA89FB898081806213
:101C600007C0EE89FF896083E889F98980818064F3
:101C7000808381E090E0DF91CF911F910F91FF90E1
:101C8000EF900895CF93DF93EC01888D8823C9F0FE
:101C9000EA89FB89808185FD05C0A889B9898C9175
:101CA00086FD0FC00FB607FCF5CF808185FFF2CF10
:101CB000A889B9898C9185FFEDCFCE010E94DA0DFC
:101CC000E7CFDF91CF91089580E090E0892B21F05C
:101CD0000E94D00D811119C080E090E0892B41F065
:101CE00080E090E0892B21F00E940000811110C05B
:101CF0000E94C60D81110FC080E090E0892B81F019
:101D00000E94BC0D81110AC008950E940000E4CF1A
:101D10000E940000EDCF0E94F901EECF0C9400006C
:101D20000895089580E090E008950E94891EFC01C6
:101D3000248131E03093E7052093E9051092E8050E
:101D40001092EA058485682B8BEE95E00E94340A98
:101D50000C94AB0A0F931F93CF938C01C62F646032
:101D60000E94970E6C2F6B7FC8010E94970E83EC28
:101D700090E00197F1F7CF911F910F9108950F9384
:101D80001F93CF93DF938C01C62FD62FD07FD160C6
:101D90006D2F0E94970E6D2FC8010E94AA0E80E140
:101DA000C89FB0011124C62FC1606C2FC8010E94CA
:101DB000970E6C2FC8010E94AA0E81E090E0DF917F
:101DC000CF911F910F9108951F920F920FB60F920E
:101DD00011240BB60F922F933F934F935F936F9302
:101DE0007F938F939F93AF93BF93EF93FF938091D4
:101DF0007C0A90917D0AA0917E0AB0917F0A892B7E
:101E00008A2B8B2B59F180917B0AE091790AF09112
:101E10007A0A90818927808380917C0A90917D0A3B
:101E2000A0917E0AB0917F0A181619061A061B06A1
:101E30000CF056C080917C0A90917D0AA0917E0A98
:101E4000B0917F0A0197A109B10980937C0A909310
:101E50007D0AA0937E0AB0937F0A42C0809100025F
:101E6000E0E4F3E0E4919FEF90930002E230C9F0E8
:101E700050F4EE2399F0E13081F590916F009D7F51
:101E800090936F002AC0E43019F1E0F0E53029F5B5
:101E9000909173009D7F909373001FC010926E000D
:101EA0001CC0909170009D7F9093700091E0909382
:101EB000B0009091B100987F94609093B10010921F
:101EC000B3000BC0909171009D7F9093710005C08D
:101ED000909172009D7F9093720060E00E940B0DC4
:101EE000FF91EF91BF91AF919F918F917F916F91F2
:101EF0005F914F913F912F910F900BBE0F900FBEAE
:101F00000F901F9018951F920F920FB60F921124E9
:101F10000BB60F922F933F934F935F936F937F93E3
:101F20008F939F93AF93BF93EF93FF9387EF95E0CA
:101F30000E94DA0DFF91EF91BF91AF919F918F9128
:101F40007F916F915F914F913F912F910F900BBEB9
:101F50000F900FBE0F901F9018951F920F920FB603
:101F60000F9211240BB60F922F933F934F935F93D1
:101F70006F937F938F939F93AF93BF93EF93FF9351
:101F800087EF95E00E94660DFF91EF91BF91AF91B1
:101F90009F918F917F916F915F914F913F912F9181
:101FA0000F900BBE0F900FBE0F901F9018951F92B1
:101FB0000F920FB60F9211240BB60F922F933F93EF
:101FC0004F935F936F937F938F939F93AF93BF9341
:101FD000EF93FF9384E996E00E94DA0DFF91EF9171
:101FE000BF91AF919F918F917F916F915F914F9131
:101FF0003F912F910F900BBE0F900FBE0F901F902F
:1020000018951F920F920FB60F9211240BB60F92D4
:102010002F933F934F935F936F937F938F939F93F0
:10202000AF93BF93EF93FF9384E996E00E94660D10
:10203000FF91EF91BF91AF919F918F917F916F91A0
:102040005F914F913F912F910F900BBE0F900FBE5C
:102050000F901F9018951F920F920FB60F92112498
:102060000BB60F922F933F934F935F936F937F9392
:102070008F939F93AF93BF93EF93FF9381E397E089
:102080000E94DA0DFF91EF91BF91AF919F918F91D7
:102090007F916F915F914F913F912F910F900BBE68
:1020A0000F900FBE0F901F9018951F920F920FB6B2
:1020B0000F9211240BB60F922F933F934F935F9380
:1020C0006F937F938F939F93AF93BF93EF93FF9300
:1020D00081E397E00E94660DFF91EF91BF91AF9170
:1020E0009F918F917F916F915F914F913F912F9130
:1020F0000F900BBE0F900FBE0F901F9018951F9260
:102100000F920FB60F9211240BB60F922F933F939D
:102110004F935F936F937F938F939F93AF93BF93EF
:10212000CF93DF93EF93FF932091CF0730E0F90136
:10213000E052FD4F8491F901E656FD4FD491F9012B
:10214000EC5AFD4FC491CC23A1F081110E9452089A
:10215000EC2FF0E0EE0FFF1FEA5DFC4FA591B4916C
:10216000EC91ED2331E020E009F430E0832F922F51
:1021700002C080E090E02091D3073091D4072F5F18
:102180003F4F3093D4072093D3072091D2072536B1
:1021900018F026E02093CE072091CE072430D9F105
:1021A00028F4223069F02330D9F060C0253009F4DA
:1021B00053C0263009F05AC021E020939F0853C035
:1021C000009709F053C02091D3073091D4072436EB
:1021D000310508F443C010929F081092D2071DC029
:1021E0008130910509F042C0E091D20721E02E0F25
:1021F0002093D207F0E02091D3073091D407EE0F5F
:10220000FF1FE253F84F308727831092D4071092B4
:10221000D30724E029C00097B9F4E091D20721E068
:102220002E0F2093D207F0E02091D3073091D407EE
:10223000EE0FFF1FE253F84F308727831092D40729
:102240001092D30723E010C02091D3073091D40718
:102250002536310558F007C0009741F41092D40795
:102260001092D30703C025E02093CE072091D10719
:102270002223B9F0892B51F48091D007882321F0D3
:102280008091D00761E009C02F9A0BC08091D007E0
:10229000882331F08091D00760E00E940B0D01C0CF
:1022A0002F98FF91EF91DF91CF91BF91AF919F91C7
:1022B0008F917F916F915F914F913F912F910F90EF
:1022C0000BBE0F900FBE0F901F9018958F929F928C
:1022D000AF92BF92CF92DF92EF92FF920F931F9334
:1022E000CF93DF93EC016A017B0120E030E04FE700
:1022F00053E4C701B6010E94D41A4B015C0120E0EF
:1023000030E0A9010E946E1C18161CF4C501B4012E
:1023100003C0C501B40190580E94381C8B0120E015
:1023200030E0A901C701B6010E946E1C181614F412
:1023300060E001C061E089810E940B0D0F3F110533
:1023400009F014F4112702C00FEF10E0C88161E01A
:102350008C2F0E94A8080115110509F4B1C00F3F88
:10236000110509F4AFC0EC2FF0E0E052FD4FE4910D
:102370004E2F50E0FA013197E231F10508F09DC08F
:102380008827EC57FF4F8F4F0C94151C84B580683D
:1023900084BD07BDA7C084B5806284BD08BDA2C04E
:1023A0008091800080688093800010938900009362
:1023B000880098C080918000806280938000109394
:1023C0008B0000938A008EC080918000886080938B
:1023D000800010938D0000938C0084C08091B00029
:1023E00080688093B0000093B3007CC08091B000FF
:1023F00080628093B0000093B40074C0809190001C
:1024000080688093900010939900009398006AC0B0
:102410008091900080628093900010939B000093C5
:102420009A0060C080919000886080939000109323
:102430009D0000939C0056C08091A000806880930E
:10244000A0008091A0008F7B8093A0001093A90032
:102450000093A80047C08091A00080628093A000F4
:102460001093AB000093AA003DC08091A00088604B
:102470008093A0001093AD000093AC0033C0809116
:102480002001806880932001109329010093280186
:1024900029C08091200180628093200110932B013C
:1024A00000932A011FC08091200188608093200141
:1024B00010932D0100932C0115C00038110514F460
:1024C00060E001C061E08C2FDF91CF911F910F91EF
:1024D000FF90EF90DF90CF90BF90AF909F908F9044
:1024E0000C940B0DDF91CF911F910F91FF90EF9006
:1024F000DF90CF90BF90AF909F908F9008951F92E4
:102500000F920FB60F9211240BB60F922F933F9399
:102510004F935F936F937F938F939F93AF93BF93EB
:10252000EF93FF938091780A87FF05C01092850092
:102530001092840016C02091780A022E000C330BF2
:102540008091DC0890E0281739075CF43091780A14
:1025500025E03203F0011124E056F74F808186FD1B
:1025600015C08091780A8F5F8093780A2091780A4D
:10257000022E000C330B8091DC0890E028173907FD
:1025800094F48091780A8C302CF10DC03091780A47
:102590003203F0011124E056F74F808160E08F7321
:1025A0000E940B0DDECF80918400909185008434D1
:1025B0009C4918F480E49CE905C0809184009091C6
:1025C0008500049690938900809388008FEF809314
:1025D000780A2AC040918400509185003091780A91
:1025E00025E03203F0011124E056F74F81819281FA
:1025F000840F951F90938900809388003091780A0A
:102600003203F0011124E056F74F808186FF0CC0A1
:102610003091780A3203F0011124E056F74F80819F
:1026200061E08F730E940B0DFF91EF91BF91AF910D
:102630009F918F917F916F915F914F913F912F91DA
:102640000F900BBE0F900FBE0F901F9018958EBD70
:1026500000000DB407FEFDCF8EB50895CF93DF9334
:10266000EC0160E088810E940B0D88E90E9427132D
:1026700080E00E94271380E00E94271380E00E94E0
:10268000271380E00E94271361E088810E940B0DD0
:102690008BE891E00197F1F760E088810E940B0DD3
:1026A00080EE0E94271361E08881DF91CF910C9426
:1026B0000B0DEF92FF920F931F93CF93DF93EC01DB
:1026C0009091770A9F5F292F27702093770A90FFB8
:1026D00002C090E801C090E021FD9064247009F0F0
:1026E000906220E1290FFE013C967E018FE0E80E0A
:1026F000F11C00E011E06191662331F070E0C80147
:102700000E94011C6F5F01C060E0DF0114976C93B1
:10271000322F369F030E30E0311D1124CF01079771
:10272000311103C0EC01188203C03150EC01388331
:10273000662311F061506C93EE15FF05E1F6DF9111
:10274000CF911F910F91FF90EF900895FC010FB66C
:10275000F8946091800A7091810A8091820A909128
:10276000830A0FBE309721F0608371838283938345
:102770000895CF93DF93CDB7DEB7C05ED1090FB612
:10278000F894DEBF0FBECDBF789484B5826084BD5F
:1027900084B5816084BD85B5826085BD85B5816065
:1027A00085BD80916E00816080936E0010928100E3
:1027B000809181008260809381008091810081609E
:1027C000809381008091800081608093800080915F
:1027D000B10084608093B1008091B00081608093EB
:1027E000B00080919100826080939100809191006F
:1027F000816080939100809190008160809390002F
:102800008091A10082608093A1008091A1008160ED
:102810008093A1008091A00081608093A0008091AE
:102820002101826080932101809121018160809348
:1028300021018091200181608093200180917A00A4
:10284000846080937A0080917A00826080937A001D
:1028500080917A00816080937A0080917A0080680C
:1028600080937A001092C1000E94830A61E08091F7
:10287000A7090E94A80860E08091A7090E940B0D9B
:1028800060E08091A6090E94A8088BEE95E09093E5
:10289000B1098093B0091092E3051092E2051092FD
:1028A000E8051092EA051092E60581E08093E505BF
:1028B0001092E40561E084E10E940B0D61E085E186
:1028C0000E940B0D8091B9008E7F8093B90080919A
:1028D000B9008D7F8093B90088E48093B80085E4C7
:1028E0008093BC0080E090E1A0E0B0E08093B30969
:1028F0009093B409A093B509B093B6098AE090E02B
:10290000A0E0B0E08093B7099093B809A093B9090B
:10291000B093BA0980E090E0A0E0B0E48093BB09F6
:102920009093BC09A093BD09B093BE0960E070E12B
:1029300085E00E94080B6FE979E380E00E94080BB4
:1029400003EC19E0A12CB12CC12CD12C29E8422E8A
:1029500022E0522E3FEC632E32E0732E4BEC842E9D
:1029600047E0942E96012A55364F1901D901149645
:102970009C91149712968C91F501EA55F64F7F01C0
:10298000818F928F61E00E94A80861E0D7015A967A
:102990008C910E94A808F10190858681D8018C93C2
:1029A000F701968F61E00E94A80860E0D7015E966B
:1029B0008C910E94A80861E0F80180810E940B0DB3
:1029C000FFB6F89480915704811125C0F2018491DB
:1029D000F3019491E82FF0E0EE0FFF1FE05EFD4F52
:1029E000A591B4918C91982321F461E085E30E9434
:1029F0000B0D61E085E30E94A8088CB580618CBD59
:102A00008CB580648CBD61E084E30E94A80861E01D
:102A100083E30E94A808809157048F5F8093570436
:102A2000FFBEC4010197F1F760E0D8018C910E94CC
:102A30000B0D88E80E94271383E00E94271361E0B2
:102A4000F80180810E940B0DC4010197F1F7C801C4
:102A50000E942E13F2E0AF0EB11C0E5F1F4FCA94FE
:102A6000CD2821F0CC24C394D12C7CCF0BEC19E0E1
:102A7000B4E0FB2EF00E60E0D8018D918D010E9434
:102A8000A808F012F8CF6AEDE62E69E0F62E07ED01
:102A900019E075E0A72EECE0CE2EF2E09F2EA2E02A
:102AA000BA2EB00EF8013897D080F80180818C30B2
:102AB00008F046C061E08D2D0E94A808D8018C91D5
:102AC000A89EF0011124E056F74F9D2D9F732081A1
:102AD000207CD22ED92AD082138214826C2D0E949F
:102AE000F51BBCE08B9FA001112420E030E0B90170
:102AF000640F751FA69EF001A79EF00D1124E056ED
:102B0000F74F908196FD12C02F5F3F4F2C3031055B
:102B100071F781110BC01092800090928100109289
:102B200085001092840096BA90926F00D801EC91C3
:102B3000AE9EF0011124E056F74F808180648083BF
:102B4000F8013297908132978081F7013197808325
:102B5000F701908360E00E94A80861E0D7018C91A2
:102B60000E94A80860E0F70180810E940B0D0F5FB2
:102B70001F4FF2E0EF0EF11CB01294CFF8941092B8
:102B8000200189E08093210180E293E09093290164
:102B900080932801109225011092240182E08093F5
:102BA000730078948093CE071092D2078091CF075C
:102BB00060E00E94A80860E08BE00E94A80860E046
:102BC0008CE00E94A80860E08DE00E94A80860E008
:102BD0008EE00E94A80860E08FE00E94A80861E0F3
:102BE00081E30E94A80861E085E30E94A80861E0F3
:102BF00082E30E94A8080E94830A80916D048111DB
:102C000045C010925F0410925E048FEF80936204BF
:102C100080936304809364048093650480936604C6
:102C20008093670481E08093680410926A04109294
:102C30006904109261041092600480915A0490918A
:102C40005B04892B31F48CE594E090935B048093D2
:102C50005A04E0915804F0915904309721F08CE522
:102C600094E0958384838CE594E090935904809359
:102C7000580410926C0410926B048FEF92E09093C2
:102C80005D0480935C0481E080936D04E0915C04BA
:102C9000F0915D040480F581E02D8CE594E01995B8
:102CA00085E794E090935F0480935E0488E790E06A
:102CB00090936A0480936904E0915C04F0915D0450
:102CC0000284F385E02D8CE594E01995009729F1B5
:102CD0009C0140E050E060E472E48FE090E00E94EC
:102CE000921B722F632F0091E0091091E10920914E
:102CF000E2093091E309872F962FDA0180179107B7
:102D0000A207B30710F4D901C8018093E00990939A
:102D1000E109A093E209B093E3098FEF8093620485
:102D200080EB8093630480EF8093640484E6809357
:102D3000DD096AE580E00E949A046AE581E00E946C
:102D40009A0433E0632E712C48E0242E312C5EE08F
:102D5000452E512C64E181E00E949A0466E980E0EE
:102D60000E949A0400E010E086E090E00E9439089A
:102D7000F82E85E090E00E943908882359F00F5F13
:102D80001F4FC801B3010E94011C60E070E0019672
:102D90000E940302FF2041F3C801B3010E94011CFD
:102DA0004C0180E090E00E94A613CB010E94A51A7E
:102DB00085E094E00E94750A8BE00E94E4080E947E
:102DC000B70B8FE094E00E94750A8CE00E94E40843
:102DD0000E94B70B89E194E00E94750A8DE00E9481
:102DE000E4080E94B70B60ED77E080E090E00E947D
:102DF000280983E294E00E94750A1092520410920E
:102E000051041092500410924F0421E030E03093AE
:102E10004E0420934D04EBE0F2E0DE01119680E7D2
:102E200001900D928A95E1F7EBE7F2E0DE01AF58F1
:102E3000BF4F80E401900D928A95E1F7EBEBF2E051
:102E4000DE01AF54BF4F80E301900D928A95E1F708
:102E50008114910481F40E94A11AB2010E94011C04
:102E60008C010E94B70B23E0000F111F2A95E1F798
:102E7000E1E0F0E024C031E08316910481F40E9487
:102E8000A11AB1010E94011C8C010E94B70B93E0B2
:102E9000000F111F9A95E1F7E1E7F0E010C00E94E2
:102EA000A11A66E070E00E94011C8C010E94B70B21
:102EB00083E0000F111F8A95E1F7E1EBF0E0EC0FE2
:102EC000FD1FE00FF11F00811181C280D380E480DB
:102ED000F580A680B780C8010E94B70BC6010E948A
:102EE000B70BC7010E94B70BC5010E94B70B61E089
:102EF00070E0C40101960E9403020E944D0380917C
:102F0000510490915204019690935204809351047D
:102F10000E94A0020E944D0380914F0490915004A2
:102F200001969093500480934F040E94EC0268EB4A
:102F30007BE080E090E00E942809E016F1068CF525
:102F4000B601C8010E94F703809151049091520488
:102F5000E816F90664F480914D0490914E04823095
:102F6000910509F44CC0019711F40E944E0268E7E4
:102F700081E00E949A04B501C7010E94F703809185
:102F80004D0490914E04009719F40E94A00204C0D1
:102F9000029711F40E94EC026CE380E00E949A0414
:102FA00041C00E151F0524F5B501C7010E94F703A6
:102FB00080915104909152040817190774F480917C
:102FC0004D0490914E048230910519F40E94EC0258
:102FD00004C0019711F40E944E0268E781E00E944C
:102FE0009A0468EB7BE080E090E00E94280917C01B
:102FF000CA14DB043CF4B601C8010E94F7030E9426
:10300000EC02B5CFAC14BD046CF4B501C7010E944D
:10301000F7030E94EC0268E781E00E949A04B6017F
:10302000C801ABCF8BE394E00E94750A80915104F4
:103030009091520402972CF00E944D030E942E039F
:10304000F5CF80E494E00E94750A80914F0490913E
:1030500050048130910549F40E94A00260E375E7B5
:1030600080E090E00E9428091EC020915104309118
:1030700052042230310569F40E94EC0260E375E7E6
:1030800080E090E00E9428090E944D030E94A00267
:103090000EC0029771F480914D0490914E040297F6
:1030A00041F40E944E020E944D030E94EC020E94D5
:1030B0004D030E944E020E94640E4CCE1092EE050B
:1030C0001092ED0588EE93E0A0E0B0E08093EF056C
:1030D0009093F005A093F105B093F20527E133E05A
:1030E0003093EC052093EB051092FA051092F90548
:1030F0008093FB059093FC05A093FD05B093FE051E
:1031000029E233E03093F8052093F70545E351E0D9
:10311000509304064093030644E351E0509306069F
:103120004093050640E351E050930806409307069C
:1031300041E351E050930A064093090642E351E00F
:1031400050930C0640930B0646E351E050930E0655
:1031500040930D061092100610921106109212065E
:103160001092130610929706109296068093980676
:1031700090939906A0939A06B0939B063093950678
:103180002093940645ED50E05093A1064093A0068D
:1031900044ED50E05093A3064093A20640ED50E06A
:1031A0005093A5064093A40641ED50E05093A70626
:1031B0004093A60642ED50E05093A9064093A8061E
:1031C00046ED50E05093AB064093AA061092AD0630
:1031D0001092AE061092AF061092B006109234070D
:1031E000109233078093350790933607A0933707E3
:1031F000B0933807309332072093310785EC90E085
:1032000090933E0780933D0784EC90E090934007B5
:1032100080933F0780EC90E09093420780934107B2
:1032200081EC90E0909344078093430782EC90E018
:10323000909346078093450786EC90E0909348076B
:103240008093470710924A0710924B0710924C0741
:1032500010924D0786E38093C70987E38093C809DE
:1032600088E38093C90989E38093CA098BE180933D
:10327000CB098DE18093CC098AE18093CD098CE163
:103280008093CE0984E08093CF0987E08093D009B2
:103290001092D10984EB8093D20986E18093D309FF
:1032A00088E18093D40987E18093D50989E18093EF
:1032B000D609E091DC08EC3020F08FEF8093D7093D
:1032C00010C081E08E0F8093DC08E093D70925E0E1
:1032D000E29FF0011124E056F74F88EB9BE09283C8
:1032E0008183E091DC08EC3020F08FEF8093D809E7
:1032F00010C081E08E0F8093DC08E093D80985E050
:10330000E89FF0011124E056F74F88EB9BE0928391
:1033100081838CE08093A60984E28093A70986E0EC
:103320008093A80985E08093A9098FE18093AA0979
:103330008EE18093AB0983E28093AC0982E28093B3
:10334000AD0985E48093AE0984E48093AF0980E4FD
:103350008093B2091092B7091092B8091092B90976
:103360001092BA091092BB091092BC091092BD09C3
:103370001092BE09E8EEF8E08FEF9FEFDC011282B9
:103380001382148215821682178210861186838713
:103390009487A587B6878787908BA18BB28B12867F
:1033A00011821082739629E0E63AF20741F78DE028
:1033B00090E00E94731CFC01138212828BE393E065
:1033C00091838083118687E2848384E1828784E00D
:1033D00083871486F093E508E093E4081092E608EA
:1033E0001092E70885E28093CF071092D1071092E0
:1033F000DE081092DD081092E0081092DF081092AB
:10340000E2081092E10861E070E080E090E00E9444
:10341000A01D009789F09093DE088093DD0810923C
:10342000E0081092DF082091E1083091E208232B98
:1034300071F5FC0110822BC08091DD089091DE08AF
:10344000009711F00E94081D1092DE081092DD080E
:103450001092E2081092E1081092E0081092DF0842
:103460008FEF8093DD091092DF091092DE09109230
:10347000E9091092E8098FEF9FEFDC018093E409DE
:103480009093E509A093E609B093E7090895109297
:10349000E2081092E1086AE474E00E94971EE0CF0F
:1034A0008091DD089091DE080C94081D8F929F9208
:1034B000AF92BF92CF92DF92EF92FF92CF93DF93C2
:1034C000EC01688179818A819B8161157105810593
:1034D000910521F464E279ED8BE597E02DE133EF7E
:1034E00041E050E00E94921B49015A019B01AC014E
:1034F000A7EAB1E40E94B11B6B017C01ACEEB4EF12
:10350000A50194010E94BF1BDC01CB018C0D9D1D08
:10351000AE1DBF1DB7FF03C00197A109B048888346
:103520009983AA83BB839F77DF91CF91FF90EF9020
:10353000DF90CF90BF90AF909F908F9008950C94A4
:10354000561A81E092E00C94561AA0E0B0E0809305
:10355000010290930202A0930302B0930402089523
:10356000990F0008550FAA0BE0E8FEEF1616170694
:10357000E807F907C0F012161306E407F50798F0FC
:10358000621B730B840B950B39F40A2661F0232B15
:10359000242B252B21F408950A2609F4A140A69591
:1035A0008FEF811D811D08950E94E71A0C94581B0E
:1035B0000E944A1B38F00E94511B20F0952311F005
:1035C0000C94411B0C94471B11240C948C1B0E94DF
:1035D000691B70F3959FC1F3950F50E0551F629FD3
:1035E000F001729FBB27F00DB11D639FAA27F00D5C
:1035F000B11DAA1F649F6627B00DA11D661F829F83
:103600002227B00DA11D621F739FB00DA11D621F67
:10361000839FA00D611D221F749F3327A00D611D84
:10362000231F849F600D211D822F762F6A2F112466
:103630009F5750409AF0F1F088234AF0EE0FFF1F99
:10364000BB1F661F771F881F91505040A9F79E3FF0
:10365000510580F00C94411B0C948C1B5F3FE4F3EC
:10366000983ED4F3869577956795B795F795E79546
:103670009F5FC1F7FE2B880F911D9695879597F94F
:10368000089597F99F6780E870E060E008959FEFE4
:1036900080EC089500240A941616170618060906E9
:1036A000089500240A9412161306140605060895B8
:1036B000092E0394000C11F4882352F0BB0F40F440
:1036C000BF2B11F460FF04C06F5F7F4F8F4F9F4F80
:1036D000089557FD9058440F551F59F05F3F71F002
:1036E0004795880F97FB991F61F09F3F79F0879569
:1036F0000895121613061406551FF2CF4695F1DFF2
:1037000008C0161617061806991FF1CF8695710581
:10371000610508940895E894BB2766277727CB01B5
:1037200097F90895052E97FB1EF400940E94A91B9B
:1037300057FD07D00E94C41B07FC03D04EF40C9425
:10374000A91B50954095309521953F4F4F4F5F4FA6
:10375000089590958095709561957F4F8F4F9F4FFD
:1037600008950E94E61BA59F900DB49F900DA49F05
:10377000800D911D11240895B7FF0C94B11B0E9478
:10378000B11B821B930B0895A1E21A2EAA1BBB1B2F
:10379000FD010DC0AA1FBB1FEE1FFF1FA217B3071D
:1037A000E407F50720F0A21BB30BE40BF50B661F33
:1037B000771F881F991F1A9469F7609570958095F7
:1037C00090959B01AC01BD01CF010895A29FB0016E
:1037D000B39FC001A39F700D811D1124911DB29F45
:1037E000700D811D1124911D0895991B79E004C06D
:1037F000991F961708F0961B881F7A95C9F7809530
:10380000089597FB072E16F4009407D077FD09D092
:103810000E94241C07FC05D03EF4909581959F4F93
:103820000895709561957F4F0895EE0FFF1F881FD3
:103830008BBF0790F691E02D19940E94E61BB7FF0D
:103840000895821B930B0895AA1BBB1B51E107C06F
:10385000AA1FBB1FA617B70710F0A61BB70B881F20
:10386000991F5A95A9F780959095BC01CD010895AF
:103870000E943F1C6894B1110C948C1B08950E9407
:10388000711B88F09F5798F0B92F9927B751B0F066
:10389000E1F0660F771F881F991F1AF0BA95C9F7D4
:1038A00014C0B13091F00E948B1BB1E008950C94CC
:1038B0008B1B672F782F8827B85F39F0B93FCCF37F
:1038C000869577956795B395D9F73EF49095809551
:1038D000709561957F4F8F4F9F4F08950E94B01A4A
:1038E00008F48FEF0895CF93DF938230910510F4A1
:1038F00082E090E0E091860AF091870A20E030E0D3
:10390000C0E0D0E0309711F140815181481759074C
:10391000C0F04817590761F482819381209719F00C
:103920009B838A832BC09093870A8093860A26C044
:103930002115310519F04217530718F49A01BE01F9
:10394000DF01EF010280F381E02DDCCF211531058D
:1039500009F1281B390B2430310590F412968D9112
:103960009C9113976115710521F0FB01938382836C
:1039700004C09093870A8093860AFD01329644C062
:10398000FD01E20FF31F81939193225031092D9392
:103990003C933AC02091840A3091850A232B41F44C
:1039A00020910702309108023093850A2093840AFF
:1039B00020910502309106022115310541F42DB701
:1039C0003EB74091090250910A02241B350BE09149
:1039D000840AF091850AE217F307A0F42E1B3F0B2F
:1039E0002817390778F0AC014E5F5F4F2417350771
:1039F00048F04E0F5F1F5093850A4093840A8193CD
:103A0000919302C0E0E0F0E0CF01DF91CF91089503
:103A10000F931F93CF93DF93009709F48CC0FC01A1
:103A20003297138212820091860A1091870A01153B
:103A3000110581F420813181820F931F2091840A26
:103A40003091850A2817390779F5F093850AE093B4
:103A5000840A71C0D80140E050E0AE17BF0750F4AF
:103A600012962D913C911397AD012115310509F165
:103A7000D901F3CF9D01DA01338322836081718103
:103A8000860F971F8217930769F4EC01288139810B
:103A9000260F371F2E5F3F4F318320838A819B8102
:103AA00093838283452B29F4F093870AE093860A57
:103AB00042C01396FC93EE931297ED0149915991F0
:103AC0009E01240F351FE217F30771F48081918165
:103AD000840F951F029611969C938E9382819381F9
:103AE00013969C938E931297E0E0F0E0D801129623
:103AF0008D919C911397009719F0F8018C01F6CFE6
:103B00008D919C9198012E5F3F4F820F931F2091C2
:103B1000840A3091850A2817390769F4309729F407
:103B20001092870A1092860A02C0138212821093A2
:103B3000850A0093840ADF91CF911F910F91089518
:103B40006F927F928F929F92AF92BF92CF92DF92AD
:103B5000EF92FF920F931F93CF93DF93EC010097A7
:103B600089F4CB01DF91CF911F910F91FF90EF90DE
:103B7000DF90CF90BF90AF909F908F907F906F908D
:103B80000C94731CFC01E60FF71F9C0122503109B5
:103B9000E217F30708F4ACC0D9010D911C911197FD
:103BA00006171707B0F00530110508F49FC0C801CB
:103BB00004978617970708F499C002501109061B4D
:103BC000170B019311936D937C93CF010E94081DF5
:103BD0008DC05B01A01AB10A4C01800E911EA0910C
:103BE000860AB091870A40E050E0E12CF12C109752
:103BF00009F44AC0A815B905D1F56D907C901197CC
:103C0000630182E0C80ED11CCA14DB0480F1A30159
:103C10004A195B096A0182E0C80ED11C1296BC9059
:103C200012971396AC91B5E0CB16D10440F0B28256
:103C3000A38351834083D9016D937C930AC00E5FA7
:103C40001F4FC301800F911FF90191838083EB2DDA
:103C5000FA2FE114F10431F0D7011396FC93EE939F
:103C6000129744C0F093870AE093860A3FC08D9173
:103C70009C9111974817590708F4AC017D011296E1
:103C80000D90BC91A02DB3CF8091840A9091850AAC
:103C900088159905E1F446175707C8F48091050285
:103CA00090910602009741F48DB79EB740910902AA
:103CB00050910A02841B950BE817F907C8F4F0939A
:103CC000850AE093840AF901718360830FC0CB01F8
:103CD0000E94731C7C01009759F0A801BE010E944C
:103CE0008E1ECE010E94081DC70104C0CE0102C075
:103CF00080E090E0DF91CF911F910F91FF90EF90C6
:103D0000DF90CF90BF90AF909F908F907F906F90FB
:103D1000089581E090E0F8940C949E1EFB01DC0174
:103D200002C001900D9241505040D8F70895FB0118
:103D3000DC0101900D920020E1F7089511E0C2EA44
:103D4000D1E000E006C0802FFE010E94151C2196E4
:103D5000011DC33AD10780E00807A9F7F894FFCF07
:103D6000FF010000000000880A200002000100039B
:103D70000002000200020003000100020001000234
:103D80000002000200020002000100030002000124
:103D90000002000200020001000100010001000316
:103DA0000001000300010001000100020001000108
:103DB00000020002000200010002000100020003F4
:103DC00000020003000200010002000200010003E3
:103DD00000010002000200030002000100010003D4
:103DE00000020001000200030001000300020001C4
:103DF00000010003000100010002000100020002B6
:103E000000020001000100020001000300010002A5
:103E10000001000300020002000200030001000391
:103E20000002000300020003000100010001000283
:103E30000002000100020002000100030001000274
:103E400000020003000200020001000000000095D3
:103E50000E950E950ED601FC01000200000000F642
:103E600007B2073B05D601FC01380541050D000CE2
:103E7000000B0000000000340A040A920EDE09FC68
:103E800009ED09DF0900000000FB0D3B0D7F0D422D
:103E90000EB00D8E0DA20D00000000BF0E3B0D9266
:103EA0000E910E310032003300466F6E6374696FFD
:103EB0006E2043616C63756C6572506F73697469D1
:103EC0006F6E58203A00494E544552534543544969
:103ED0004F4E00466F6E6374696F6E20706F73692A
:103EE00074696F6E6E657242616C6C65203A004257
:103EF000616C6C6558203A00706F736974696F6EFD
:103F000058203A0042616C6C6559203A00706F731A
:103F10006974696F6E59203A00466F6E6374696FF9
:103F20006E2043616C63756C6572506F7369746960
:103F30006F6E59203A00496E76616C696420736532
:103F400072766F2069642100536572766F20616E0E
:103F5000676C65206973206F7574206F66207261CD
:103F60006E6765210044726F697465203A200047CE
:103F70006175636865203A200043656E7472652040
:103F80003A2000466F6E6374696F6E204C616E63F9
:103F90006572506172746965203A004E696365000C
:0C3FA000426F6E6A6F7572000D0A00001F
:00000001FF
