:100000000C94A3010C94D4010C94D4010C94D4014D
:100010000C94D4010C94D4010C94D4010C94D4010C
:100020000C94D4010C944A100C944A100C944A106D
:100030000C94D4010C946C0A0C94D4010C94D4014B
:100040000C94D4010C94070E0C94D4010C94D4019C
:100050000C94D4010C94D4010C94D4010C94C612C9
:100060000C94D4010C94DD0B0C94B30B0C94D401C0
:100070000C94D4010C94D4010C94D4010C94D401AC
:100080000C94D4010C94D4010C94D4010C94D4019C
:100090000C94D4010C94D4010C94D4010C945410FD
:1000A0000C94D4010C94D4010C94D4010C94D4017C
:1000B0000C94D4010C94D4010C94D4010C94070C2E
:1000C0000C94D4010C94D4010C94D4010C94890B9D
:1000D0000C945F0B0C94D4010C94350B0C940B0B0B
:1000E0000C94D4014E0D530D580D620D6C0DE50DA1
:1000F000760D7E0D860D900D9A0DA40DB30DBD0DE0
:10010000E50DC70DD10DDB0DA111A41193119711B0
:100110009D11DB11A811AC11B211B611BA11C011A9
:10012000C411C811DB11CE11D211D6110C94B30D2C
:100130000C94C8110C94D6010C94C3080C940709B4
:100140000C94E30F0C94A40D0C94E50D0C94A411E5
:100150000C94A8110C94D2110C94470A0C943C08EE
:100160000C94D10D0C94C60F0C94071A0C94C0116A
:100170000C94C70D0C949A0D0C94C5050C94C205F3
:100180000C946C0D0C941D0A0C940D1A0C94BD0D5E
:100190000C94FC010C949D110C94190A0C944E0DB6
:1001A0000C94B2110C942A090C94C50F0C94000203
:1001B0000C94C4110C9480080C94580D0C94A1114B
:1001C0000C94900D0C94760D0C94DB0D0C94BA11DC
:1001D0000C9497110C9493110C941A0A0C94DB1143
:1001E0000C94CA090C94530D0C9483090C94860D3D
:1001F0000C94CB050C94AC110C94D40F0C94620DA0
:100200000C947E0D0C9438090C94B6110C94CE11FC
:100210000C94D6110C941B100C9416090C94EB0F33
:10022000000020002300260029002C002F003200AF
:100230000001000003010601090102000021002461
:100240000027002A002D00300033000101000004C7
:100250000107010A0100002200250028002B002EC2
:10026000003100340002010000050108010B010506
:10027000050505070508080808020202020A0A081F
:100280000804040404010101010101010103030345
:100290000303030303040707070C0C0C0C0C0C0CE2
:1002A0000C0202020206060606060606060B0B0BE9
:1002B0000B0B0B0B0B010210202008081020401024
:1002C000204080020102010804020101020408101A
:1002D0002040808040201008040201800402018038
:1002E0004020100804020108040201010204081061
:1002F000204080010204081020408000000A0B0208
:10030000090C0D0E080703040100000000000000A6
:1003100000000000000000000000000000000000DD
:10032000000000000000001211100000000000009A
:1003300000000000000000000000000000000000BD
:1003400000000D1A071A11241FBECFEFD1E2DEBF45
:10035000CDBF00E00CBF14E0A0E0B2E0ECE2F1E4BD
:1003600000E00BBF02C007900D92AA30B107D9F789
:100370002AE0AAE0B4E001C01D92A234B207E1F77E
:1003800011E0C2EAD1E000E006C021970109802F08
:10039000FE010E94FB1DC13AD10780E00807A9F7C2
:1003A0000E947C140C9484200C940000CF93DF9363
:1003B00000D000D0CDB7DEB7AB011C821D821E82FB
:1003C000DC01ED91FC910190F081E02D19821A82FF
:1003D0001B829E012F5F3F4FBE016C5F7F4F1995BF
:1003E00026960FB6F894DEBF0FBECDBFDF91CF913A
:1003F0000895E0E0F0E01994FC0185859685089564
:1004000080E090E008951F93CF93DF93182F0E9410
:1004100048128F3F934059F4812F0E944812EC01FB
:100420000E946414C83ED340BCF781E001C080E064
:10043000DF91CF911F9108950F931F93CF93DF9377
:10044000EC01162F072FBC01990F880B990B97FF12
:1004500003C00E943D1403C04AE00E94FC1381EDDA
:1004600093E00E941013812F902F0E946414612F3B
:1004700081E30E94DC11209731F461E08DE20E945B
:10048000DC1161E01DC0C130D10531F461E08DE2C5
:100490000E94DC1160E008C0C230D10551F460E078
:1004A0008DE20E94DC1161E087E10E94DC1160E0D6
:1004B0000BC0239781F460E08DE20E94DC1160E0C4
:1004C00087E10E94DC1161E085E3DF91CF911F910C
:1004D0000F910C94DC11DF91CF911F910F91089532
:1004E000CF92DF92EF92FF9289E19AE00E94B60EDE
:1004F00087E19AE00E94B60E4DEC5CEC6CE47EE382
:1005000085E19AE00E94EE0C4DEC5CEC6CE47EE33D
:1005100083E19AE00E94EE0C87E19AE00E94E10EEE
:10052000CC24DD247601C61AD70AE80AF90AC601E6
:100530000E9464146AE070E080E090E00E948C12F7
:10054000B601DD0C880B990B0E945B1C20E030E0AB
:1005500042E855E40E94541E1816F4F640E050E0BC
:10056000BA0183E19AE00E94EE0C40E050E060E0C6
:1005700070E885E19AE00E94EE0C80910A04909167
:100580000B048130910519F483E090E011C00097CD
:1005900019F482E090E00CC08230910529F41092A9
:1005A0000B0410920A0408C0039731F481E090E034
:1005B00090930B0480930A0480910A0490910B0499
:1005C000FF90EF90DF90CF900C946414CF92DF9265
:1005D000EF92FF9289E19AE00E94B60E87E19AE0DD
:1005E0000E94B60E4FE155E86BE67EE385E19AE0A6
:1005F0000E94EE0C4DEC5CEC6CE47EE383E19AE04F
:100600000E94EE0C87E19AE00E94E10ECC24DD24EA
:100610007601C61AD70AE80AF90AC6010E946414CC
:100620006AE070E080E090E00E948C12B601DD0C80
:10063000880B990B0E945B1C20E030E04CED54E4E9
:100640000E94541E1816F4F640E050E0BA0183E10F
:100650009AE00E94EE0C40E050E060E070E885E136
:100660009AE00E94EE0C68EE73E080E090E00E9459
:100670008C1280910A0490910B04019664E070E062
:100680000E94E71D90930B0480930A04FF90EF9063
:10069000DF90CF900C946414CF92DF92EF92FF9290
:1006A00089E19AE00E94B60E87E19AE00E94B60EB8
:1006B0004DEC5CEC6CE47EEB85E19AE00E94EE0C84
:1006C0004FE155E86BE67EEB83E19AE00E94EE0C89
:1006D00089E19AE00E94E10E6B017C01CB010E944E
:1006E00064146AE070E080E090E00E948C12B60131
:1006F000DD0C880B990B0E945B1C2FEF3FEF43ED45
:1007000054E40E94541E18161CF740E050E0BA0151
:1007100083E19AE00E94EE0C40E050E060E070E877
:1007200085E19AE00E94EE0C68EE73E080E090E0D4
:100730000E948C1280910A0490910B04019764E04E
:1007400070E00E94E71D8F3F2FEF920711F483E0C6
:1007500090E090930B0480930A0480910A04909196
:100760000B04FF90EF90DF90CF900C9464148BEF0C
:1007700092E00E94221320910A0430910B04809190
:100780000E0490910F042130310511F4019604C03C
:100790002330310529F4019790930F0480930E04C0
:1007A00080910E0490910F040C9464140F931F9386
:1007B000CF93DF934DEC5CEC6CE47EEB85E19AE04B
:1007C0000E94EE0C4DE35AE067E57EE383E19AE098
:1007D0000E94EE0C6AEF70E080E090E00E948C12C4
:1007E0008DE00E9448128C018CE00E944812EC01BE
:1007F0008BE00E9448120E3521E012074CF4CE35F2
:1008000021E0D20794F5843F21E092074CF342C0E7
:100810000E35114029F3CE3521E0D2074CF4843F48
:1008200021E09207D4F44DEC5CEC6CE47EE30CC068
:10083000CE35D140A9F2843F21E092070CF03FC0B1
:100840004AE959E969E17EE383E19AE00E94EE0C0E
:100850004DEC5CEC6CE47EEB2DC0843F914001F2EA
:100860004DEC5CEC6CE47EE30CC0CE35D14009F479
:10087000B7CF843F91400CF0B3CF4DEC5CEC6CE40F
:100880007DE383E19AE00E94EE0C4AE959E969E1CF
:100890007EEB10C0853F91400CF4A2CF4AE959E9A4
:1008A00069E17EE383E19AE00E94EE0C4DEC5CECA2
:1008B0006CE47DEB85E19AE00E94EE0C91CF853FE0
:1008C00091400CF48DCF4DEC5CEC6CE47EEB85E15B
:1008D0009AE00E94EE0C4DE35AE067E57EE383E187
:1008E0009AE00E94EE0C68E572E080E090E00E94E1
:1008F0008C1288E193E0DF91CF911F910F910C94BE
:1009000022130F931F93CF93DF938C01EB0185E2AA
:1009100093E00E94221380910E0490910F0480179F
:10092000910739F10E94D6030E94B70381E493E056
:100930000E941013C8010E9464148AE493E00E948C
:10094000101380910E0490910F040E94641486E5A8
:1009500093E00E941013CE010E9464148FE593E08F
:100960000E94101380910C0490910D040E94641455
:10097000D2CF80910C0490910D048C179D0794F4B4
:1009800080910A0490910B04019711F40E94E602F1
:1009900080910A0490910B04039709F040C00E94D3
:1009A0004C033DC0C817D907D4F580910A04909133
:1009B0000B04019711F40E944C0380910A0490915A
:1009C0000B04039761F50E94E60229C00E94D6033A
:1009D0008BE693E00E94221380910A0490910B040D
:1009E000009729F580910C0490910D040197909344
:1009F0000D0480930C048AE493E00E94101380910C
:100A00000E0490910F040E9464148FE593E00E94FD
:100A1000101380910C0490910D040E946414809135
:100A20000C0490910D048C179D0781F608C0029765
:100A300011F780910C0490910D040196D8CFDF91AD
:100A4000CF911F910F910895CF92DF92EF92FF9275
:100A5000CF93DF93823018F088E893E00AC090913A
:100A6000250A691720F09091260A961750F48AE912
:100A700093E0DF91CF91FF90EF90DF90CF900C94B7
:100A80002213E82FF0E0E55EF54FC089CC3008F086
:100A900072C0262F30E0D0E085E08C9FF0018D9F62
:100AA000F00D1124EC50F74F8381283C31059CF563
:100AB00028E830E06901C81AD10887FDD394CC0C2E
:100AC000DD1CCC0CDD1C0D2C000CEE08FF08848115
:100AD00028E532E0281B310987FD3395220F331FAB
:100AE000220F331FC901330FAA0BBB0B9C01AD01B1
:100AF0002C193D094E095F09A62FB0E00E94971DF1
:100B000024EB30E040E050E00E94781DC20ED31E7E
:100B1000E41EF51E1EC048E850E06A01C81AD1085C
:100B200087FDD394CC0CDD1CCC0CDD1C2C153D05B5
:100B300084F0448188E592E0841B910947FD9395F8
:100B4000880F991F880F991F69018C159D050CF45A
:100B50006C018FB7F89495E09C9FF0019D9FF00D7C
:100B60001124EC50F74F96E0C91AD108CC0CDD1CCB
:100B7000D282C1828FBFDF91CF91FF90EF90DF9043
:100B8000CF90089580E991E00895E1E0F1E080815F
:100B90008062808308956F927F928F929F92AF922E
:100BA000BF92CF92DF92EF92FF920F931F93CF935A
:100BB000DF933C01EB010E946712F3012785308926
:100BC000621B730B6A307105B0F3F894E881F98108
:100BD000509102015062809102018F7D8093020149
:100BE000EA849F812E2D291B922F2F83DF84AA81D7
:100BF000BB816D857C85FE846F5F7F5FF3943E8152
:100C00004885B984AB84118120E0C32E022F322F96
:100C10003181112788943111390F08F43FEF9195F4
:100C2000889460FD130F1795889461FD130F179535
:100C3000889462FD130F1795889463FD130F179521
:100C4000889464FD130F1795889465FD130F17950D
:100C5000889466FD130F1795889467FD130F1795F9
:100C60008894232F6111212F9E0D122F002C509359
:100C7000020100C0002C17FF80930201308122275F
:100C8000889400C08093020131113C0D00C0509344
:100C9000020100C0002C16FF8093020108F43FEF10
:100CA000C194889400C08093020170FD230F00C09E
:100CB0005093020100C0002C15FF8093020127957C
:100CC000889471FD230F00C08093020127958894BA
:100CD00000C05093020100C0002C14FF8093020159
:100CE00072FD230F2795889400C08093020173FD45
:100CF000230F00C05093020100C0002C13FF80930B
:100D000002012795889474FD230F00C0809302018F
:100D10002795889400C05093020100C0002C12FF58
:100D20008093020175FD230F2795889400C080935E
:100D3000020176FD230F00C05093020100C0002C79
:100D400011FF809302012795889477FD230F00C03F
:100D5000809302012795889400C05093020100C03F
:100D6000002C10FF80930201132F7111122FCB0C56
:100D700000C08093020100C000C05093020100C077
:100D8000002C17FF8093020132812227889400C033
:100D9000809302013111340F00C05093020100C052
:100DA000002C16FF8093020108F43FEFED0DF11DBA
:100DB00000C080930201F0FC230F00C05093020199
:100DC00000C0002C15FF8093020127958894F1FC48
:100DD000230F00C0809302012795889400C0509390
:100DE000020100C0002C14FF80930201F2FC230FCB
:100DF0002795889400C080930201F3FC230F00C064
:100E00005093020100C0002C13FF8093020127952C
:100E10008894F4FC230F00C08093020127958894E6
:100E200000C05093020100C0002C12FF8093020109
:100E3000F5FC230F2795889400C080930201F6FCEF
:100E4000230F00C05093020100C0002C11FF8093BB
:100E5000020127958894F7FC230F00C080930201BC
:100E60002795889400C05093020100C0002C10FF09
:100E700080930201132FF110122F419500C080932F
:100E800002014A0D00C0002C5093020100C0002C4A
:100E900017FF8093020131812227889400C080933C
:100EA00002013111390F00C05093020100C0002C23
:100EB00016FF8093020108F43FEF9195889400C0DB
:100EC0008093020160FD230F00C05093020100C017
:100ED000002C15FF809302012795889461FD230F54
:100EE00000C0809302012795889400C050930201AE
:100EF00000C0002C14FF8093020162FD230F279590
:100F0000889400C08093020163FD230F00C05093BA
:100F1000020100C0002C13FF8093020127958894E2
:100F200064FD230F00C0809302012795889400C0C0
:100F30005093020100C0002C12FF8093020165FD56
:100F4000230F2795889400C08093020166FD230F2C
:100F500000C05093020100C0002C11FF80930201D9
:100F60002795889467FD230F00C080930201279581
:100F7000889400C05093020100C0002C10FF8093A1
:100F80000201132F6111122F9E0D00C080930201E8
:100F9000119709F06CCE4A815B8120EE31E0DA01D5
:100FA0000E94031EDC01CB0164E0B695A7959795DE
:100FB00087956A95D1F760E070E09B01EAE94E9F62
:100FC000040E211D5E9F200D311D1124250F311DA2
:100FD000820F931FA11DB11D893EE3E09E07A1056D
:100FE000B10508F434C0885E9340A109B10922E03C
:100FF000B695A795979587952A95D1F727E0829F73
:10100000080E611D929F600D711D1124690F711DE5
:101010002091960530E0820F931F860F971F409115
:10102000A0055091A1056091A2057091A305292FFB
:101030003327420F531F611D711D4093A00550932C
:10104000A1056093A2057093A305809396057894FB
:101050000E946712F301708B6787DF91CF911F9118
:101060000F91FF90EF90DF90CF90BF90AF909F9047
:101070008F907F906F9008950F931F93CF93DF937E
:10108000CDB7DEB762970FB6F894DEBF0FBECDBF07
:101090008C01F901DC011C968C917A8369835C8355
:1010A0004B835E834D8390819D8791819E87928142
:1010B0009F87813029F4CE0101960E94460F06C019
:1010C0001C861B861A86198618861F8283E0888BE9
:1010D0001A8A198AD801ED91FC910484F585E02DD6
:1010E000BE016F5F7F4FC801199562960FB6F894E5
:1010F000DEBF0FBECDBFDF91CF911F910F9108953D
:101100000F931F93CF93DF93CDB7DEB762970FB6E0
:10111000F894DEBF0FBECDBF8C01F901DC011C9637
:101120008C917A8369835C834B835E834D8390814A
:101130009D8791819E8792819F87813029F4CE017E
:1011400001960E94460F06C01C861B861A861986C9
:1011500018861F82188A1A8A198AD801ED91FC9183
:101160000484F585E02DBE016F5F7F4FC80119959E
:1011700062960FB6F894DEBF0FBECDBFDF91CF9160
:101180001F910F910895CF92DF92EF92FF920F93EC
:101190001F93CF93DF936C017A018B01C0E0D0E005
:1011A000CE15DF0589F0D8016D918D01D601ED9145
:1011B000FC910190F081E02DC6011995892B11F465
:1011C0007E0102C02196ECCFC701DF91CF911F9124
:1011D0000F91FF90EF90DF90CF900895FC01A089D0
:1011E000B1898C91A689B78982FD0FC09C91818DB0
:1011F0008F5F8F73228D821749F0218DDF01A20F3F
:10120000B11D5D969C93818F08958C910895FC018A
:10121000538D448D252F30E0842F90E0821B930B5B
:10122000541710F0CF96089501970895FC01918D01
:10123000828D981761F0828DDF01A80FB11D5D9638
:101240008C91928D9F5F9F73928F90E008958FEFA6
:101250009FEF0895FC01918D828D981731F0828D5A
:10126000E80FF11D858D90E008958FEF9FEF0895B1
:10127000FC01918D228D892F90E0805C9F4F821B15
:1012800091098F73992708958BE496E00E9438099D
:1012900021E0892B09F420E0822F089588EE96E062
:1012A0000E94380921E0892B09F420E0822F08955B
:1012B00085E897E00E94380921E0892B09F420E0B5
:1012C000822F0895FC01848DDF01A80FB11DA35A60
:1012D000BF4F2C91848D90E001968F739927848F56
:1012E000A689B7892C93A089B1898C9180648C934D
:1012F000938D848D981306C00288F389E02D808138
:101300008F7D80830895EF92FF920F931F93CF9369
:10131000DF93EC0181E0888F9B8D8C8D981305C045
:10132000E889F989808185FD24C0F62E0B8D10E0B7
:101330000F5F1F4F0F731127E02E8C8DE8120CC02A
:101340000FB607FCFACFE889F989808185FFF5CFD0
:10135000CE010E946209F1CF8B8DFE01E80FF11DD5
:10136000E35AFF4FF0820B8FEA89FB89808180620C
:1013700007C0EE89FF896083E889F98980818064EC
:10138000808381E090E0DF91CF911F910F91FF90DA
:10139000EF900895CF93DF93EC01888D8823C9F0F7
:1013A000EA89FB89808185FD05C0A889B9898C916E
:1013B00086FD0FC00FB607FCF5CF808185FFF2CF09
:1013C000A889B9898C9185FFEDCFCE010E94620971
:1013D000E7CFDF91CF91089580E090E0892B21F055
:1013E0000E945809811119C080E090E0892B41F0DA
:1013F00080E090E0892B21F00E940000811110C054
:101400000E944E0981110FC080E090E0892B81F08D
:101410000E94440981110AC008950E940000E4CF8F
:101420000E940000EDCF0E94F901EECF0C94000065
:101430000895089580E090E008950E946F20FC01D7
:10144000248131E030931B0620933D0610921C0648
:1014500010923E068485682B8FE396E00E941B1055
:101460000C9458130F931F93CF938C01C62F646075
:101470000E941F0A6C2F6B7FC8010E941F0A83EC19
:1014800090E00197F1F7CF911F910F9108950F937D
:101490001F93CF93DF938C01C62FD62FD07FD160BF
:1014A0006D2F0E941F0A6D2FC8010E94320A80E131
:1014B000C89FB0011124C62FC1606C2FC8010E94C3
:1014C0001F0A6C2FC8010E94320A81E090E0DF9170
:1014D000CF911F910F9108951F920F920FB60F9207
:1014E00011240BB60F922F933F934F935F936F93FB
:1014F0007F938F939F93AF93BF93EF93FF938091CD
:101500009C0590919D05A0919E05B0919F05892B0A
:101510008A2B8B2B59F180919B05E0919905F091D5
:101520009A0590818927808380919C0590919D05E3
:10153000A0919E05B0919F05181619061A061B0664
:101540000CF056C080919C0590919D05A0919E0540
:10155000B0919F050197A109B10980939C059093D3
:101560009D05A0939E05B0939F0542C08091000207
:10157000EAE3F2E0E4919FEF90930002E230C9F0D9
:1015800050F4EE2399F0E13081F590916F009D7F4A
:1015900090936F002AC0E43019F1E0F0E53029F5AE
:1015A000909173009D7F909373001FC010926E0006
:1015B0001CC0909170009D7F9093700091E090937B
:1015C000B0009091B100987F94609093B100109218
:1015D000B3000BC0909171009D7F9093710005C086
:1015E000909172009D7F9093720060E00E94DC11E8
:1015F000FF91EF91BF91AF919F918F917F916F91EB
:101600005F914F913F912F910F900BBE0F900FBEA6
:101610000F901F9018951F920F920FB60F921124E2
:101620000BB60F922F933F934F935F936F937F93DC
:101630008F939F93AF93BF93EF93FF938BE496E0C9
:101640000E946209FF91EF91BF91AF919F918F919D
:101650007F916F915F914F913F912F910F900BBEB2
:101660000F900FBE0F901F9018951F920F920FB6FC
:101670000F9211240BB60F922F933F934F935F93CA
:101680006F937F938F939F93AF93BF93EF93FF934A
:101690008BE496E00E94EE08FF91EF91BF91AF912D
:1016A0009F918F917F916F915F914F913F912F917A
:1016B0000F900BBE0F900FBE0F901F9018951F92AA
:1016C0000F920FB60F9211240BB60F922F933F93E8
:1016D0004F935F936F937F938F939F93AF93BF933A
:1016E000EF93FF9388EE96E00E946209FF91EF91DD
:1016F000BF91AF919F918F917F916F915F914F912A
:101700003F912F910F900BBE0F900FBE0F901F9027
:1017100018951F920F920FB60F9211240BB60F92CD
:101720002F933F934F935F936F937F938F939F93E9
:10173000AF93BF93EF93FF9388EE96E00E94EE087D
:10174000FF91EF91BF91AF919F918F917F916F9199
:101750005F914F913F912F910F900BBE0F900FBE55
:101760000F901F9018951F920F920FB60F92112491
:101770000BB60F922F933F934F935F936F937F938B
:101780008F939F93AF93BF93EF93FF9385E897E079
:101790000E946209FF91EF91BF91AF919F918F914C
:1017A0007F916F915F914F913F912F910F900BBE61
:1017B0000F900FBE0F901F9018951F920F920FB6AB
:1017C0000F9211240BB60F922F933F934F935F9379
:1017D0006F937F938F939F93AF93BF93EF93FF93F9
:1017E00085E897E00E94EE08FF91EF91BF91AF91DD
:1017F0009F918F917F916F915F914F913F912F9129
:101800000F900BBE0F900FBE0F901F9018951F9258
:101810000F920FB60F9211240BB60F922F933F9396
:101820004F935F936F937F938F939F93AF93BF93E8
:10183000CF93DF93EF93FF932091230830E0F901DA
:10184000E550FD4F8491F901EB54FD4FD491F9011E
:10185000E159FD4FC491CC23A1F081110E94861162
:10186000EC2FF0E0EE0FFF1FE05EFD4FA591B4916D
:10187000EC91ED2331E020E009F430E0832F922F4A
:1018800002C080E090E020912708309128082F5F67
:101890003F4F3093280820932708209126082536AB
:1018A00018F026E020932208209122082430D9F154
:1018B00028F4223069F02330D9F060C0253009F4D3
:1018C00053C0263009F05AC021E02093F30853C0DA
:1018D000009709F053C0209127083091280824363A
:1018E000310508F443C01092F308109226081DC079
:1018F0008130910509F042C0E091260821E02E0FC9
:1019000020932608F0E02091270830912808EE0F58
:10191000FF1FEE5DF74F3087278310922808109243
:10192000270824E029C00097B9F4E091260821E0B7
:101930002E0F20932608F0E02091270830912808E8
:10194000EE0FFF1FEE5DF74F3087278310922808B8
:101950001092270823E010C0209127083091280812
:101960002536310558F007C0009741F41092280839
:101970001092270803C025E0209322082091250813
:101980002223B9F0892B51F480912408882321F077
:101990008091240861E009C02F9A0BC0809124082F
:1019A000882331F08091240860E00E94DC1101C09E
:1019B0002F98FF91EF91DF91CF91BF91AF919F91C0
:1019C0008F917F916F915F914F913F912F910F90E8
:1019D0000BBE0F900FBE0F901F9018958F929F9285
:1019E000AF92BF92CF92DF92EF92FF920F931F932D
:1019F000CF93DF93EC016A017B0120E030E04FE7F9
:101A000053E4C701B6010E94BA1C4B015C0120E0FF
:101A100030E0A9010E94541E18161CF4C501B4013F
:101A200003C0C501B40190580E941E1E8B0120E026
:101A300030E0A901C701B6010E94541E181614F423
:101A400060E001C061E089810E94DC110F3F110557
:101A500009F014F4112702C00FEF10E0C88161E013
:101A60008C2F0E940C120115110509F4B1C00F3F13
:101A7000110509F4AFC0EC2FF0E0E550FD4FE49103
:101A80004E2F50E0FA013197E231F10508F09DC088
:101A90008827EE58FF4F8F4F0C94FB1D84B580684C
:101AA00084BD07BDA7C084B5806284BD08BDA2C047
:101AB000809180008068809380001093890000935B
:101AC000880098C08091800080628093800010938D
:101AD0008B0000938A008EC0809180008860809384
:101AE000800010938D0000938C0084C08091B00022
:101AF00080688093B0000093B3007CC08091B000F8
:101B000080628093B0000093B40074C08091900014
:101B100080688093900010939900009398006AC0A9
:101B20008091900080628093900010939B000093BE
:101B30009A0060C08091900088608093900010931C
:101B40009D0000939C0056C08091A0008068809307
:101B5000A0008091A0008F7B8093A0001093A9002B
:101B60000093A80047C08091A00080628093A000ED
:101B70001093AB000093AA003DC08091A000886044
:101B80008093A0001093AD000093AC0033C080910F
:101B9000200180688093200110932901009328017F
:101BA00029C08091200180628093200110932B0135
:101BB00000932A011FC0809120018860809320013A
:101BC00010932D0100932C0115C00038110514F459
:101BD00060E001C061E08C2FDF91CF911F910F91E8
:101BE000FF90EF90DF90CF90BF90AF909F908F903D
:101BF0000C94DC11DF91CF911F910F91FF90EF902A
:101C0000DF90CF90BF90AF909F908F9008951F92DC
:101C10000F920FB60F9211240BB60F922F933F9392
:101C20004F935F936F937F938F939F93AF93BF93E4
:101C3000EF93FF938091980587FF05C01092850070
:101C40001092840016C020919805022E000C330BD0
:101C50008091300990E0281739075CF4309198059D
:101C600025E03203F0011124EC50F74F808186FD0E
:101C700015C0809198058F5F8093980520919805F5
:101C8000022E000C330B8091300990E028173907A1
:101C900094F4809198058C302CF10DC0309198050A
:101CA0003203F0011124EC50F74F808160E08F7314
:101CB0000E94DC11DECF80918400909185008434F5
:101CC0009C4918F480E49CE905C0809184009091BF
:101CD0008500049690938900809388008FEF80930D
:101CE00098052AC040918400509185003091980554
:101CF00025E03203F0011124EC50F74F81819281ED
:101D0000840F951F909389008093880030919805E7
:101D10003203F0011124EC50F74F808186FF0CC094
:101D2000309198053203F0011124EC50F74F808177
:101D300061E08F730E94DC11FF91EF91BF91AF9131
:101D40009F918F917F916F915F914F913F912F91D3
:101D50000F900BBE0F900FBE0F901F9018958EBD69
:101D600000000DB407FEFDCF8EB50895CF93DF932D
:101D7000EC0160E088810E94DC1188E90E94AF0ECE
:101D800080E00E94AF0E80E00E94AF0E80E00E94D3
:101D9000AF0E80E00E94AF0E61E088810E94DC11EE
:101DA0008BE891E00197F1F760E088810E94DC11F7
:101DB00080EE0E94AF0E61E08881DF91CF910C949C
:101DC000DC11AF92BF92CF92DF92EF92FF920F930E
:101DD0001F93CF93DF93CDB7DEB760970FB6F8941C
:101DE000DEBF0FBECDBF5C0160E0FC0180810E94C0
:101DF000DC1180E60E94AF0E8E010F5F1F4F7E0147
:101E0000F1E1EF0EF11C680180E00E94AF0E90E05E
:101E1000A0E0B0E0F60181939193A193B1936F019B
:101E2000EE15FF0589F761E0F50180810E94DC1164
:101E300080E090E0DC01F801419151916191719154
:101E40008F01BA2FA92F982F8827840F951FA61FBF
:101E5000B71FEE15FF0579F79C01AD0166277727BF
:101E6000CB01621B730B840B950B60960FB6F89435
:101E7000DEBF0FBECDBFDF91CF911F910F91FF90BD
:101E8000EF90DF90CF90BF90AF900895EF92FF92C8
:101E90000F931F93CF93DF93EC01909197059F5F72
:101EA000292F27702093970590FF02C090E801C06A
:101EB00090E021FD9064247009F0906220E1290FE8
:101EC000FE013C967E018FE0E80EF11C00E011E07F
:101ED0006191662331F070E0C8010E94E71D6F5FD9
:101EE00001C060E0DF0114976C93322F369F030E20
:101EF00030E0311D1124CF010797311103C0EC01EF
:101F0000188203C03150EC013883662311F0615010
:101F10006C93EE15FF05E1F6DF91CF911F910F91C4
:101F2000FF90EF90089585ED8093BC008091BC00F8
:101F300084FDFCCF10921A0608954091CD05262FFE
:101F400030E0240F311D21323105DCF420911A06D6
:101F50002430C9F4FC0180E090E0861758F43091F9
:101F6000CD052191DC01A555BA4FA30FB11D2C93CE
:101F70000196F3CF8091CD05680F6093CD0580E089
:101F8000089581E0089582E00895089581E090E049
:101F90003091A5052091A405321710F480E090E05F
:101FA00091958195910908958091A5059091A40539
:101FB000891730F48F5F8093A50580E090E0089545
:101FC0008FEF9FEF08958091A40590E02091A505E3
:101FD000821B91090895CF92DF92EF92FF920F93A7
:101FE0001F93CF93DF937C01262F972F8A01809137
:101FF0001B06882391F0C62FD72F6E01C40ED51E65
:10200000CC15DD0571F06991D701ED91FC9101903E
:10201000F081E02DC7011995F3CF642F822F0E9424
:102020009D0FC801DF91CF911F910F91FF90EF900D
:10203000DF90CF900895CF93DF931F92CDB7DEB797
:10204000698320911B062223D1F020913E06203285
:1020500040F021E030E0FC013383228380E090E017
:1020600015C080911C06E82FF0E0E35EF94F9981DE
:1020700090838F5F80931C0680933E0605C061E0CD
:10208000CE0101960E949D0F81E090E00F90DF91BC
:10209000CF9108951F920F920FB60F9211240F90B7
:1020A0000FBE0F901F9018951F920F920FB60F92B0
:1020B00011240BB60F922F933F934F935F936F931F
:1020C0007F938F939F93AF93BF93EF93FF938091F1
:1020D000B900887F803609F49CC068F5883209F41D
:1020E0005BC090F4803109F454C038F4882309F4BB
:1020F000F6C0883009F44DC0F6C0883109F44CC0F0
:10210000803209F45DC0EFC0803409F468C048F43F
:10211000803309F455C0883309F0E5C08093180670
:10212000D8C0803509F44FC0883509F45DC08834C3
:1021300009F0D9C0D6C0883909F4C7C0A8F48837D7
:1021400009F467C038F4883609F463C0803709F4AD
:1021500060C0C9C0883809F4B8C0803909F45FC0CC
:10216000803809F0C0C05BC0803B09F486C038F4F9
:10217000803A09F466C0883A09F47FC0B4C0803C54
:1021800009F4A7C0883C09F4A4C0883B09F48AC0BC
:10219000AAC08091F50510C090911706809116068F
:1021A000981770F5E091170681E08E0F809317065F
:1021B000F0E0EA50FA4F80818093BB0085EC86C046
:1021C000809318068EC0E091170681E08E0F8093F1
:1021D00017068091BB00F0E0EA50FA4F808390919F
:1021E0001706809116066EC0E091170681E08E0FEB
:1021F000809317068091BB00F0E0EA50FA4F80838D
:102200008091190681116DC081E08093F40584EA04
:1022100061C083E080931A061092F105CFCF8091C0
:10222000F105803208F051C0E091F10581E08E0F98
:102230008093F1058091BB00F0E0EF52FA4F80836C
:10224000BDCF85EC8093BC0010921A068091F105F9
:10225000803230F4E091F105F0E0EF52FA4F108255
:102260006091F10570E0E091CF05F091D00581ED2E
:1022700095E019951092F10536C084E080931A0616
:102280001092CE051092CD05E091CB05F091CC05D2
:1022900019958091CD05811105C081E08093CD0510
:1022A0001092AB05E091CE0581E08E0F8093CE05B4
:1022B000F0E0E555FA4F80818093BB009091CE0508
:1022C0008091CD05981708F479CF85E88093BC00FC
:1022D0000AC085EC8093BC0010921A0604C01092CC
:1022E00018060E94930FFF91EF91BF91AF919F91BC
:1022F0008F917F916F915F914F913F912F910F90AF
:102300000BBE0F900FBE0F901F90189590E0FC0130
:102310003197E231F10508F04EC08827EC57FF4FA6
:102320008F4F0C94FB1D809180008F7703C08091AC
:1023300080008F7D80938000089580918000877F4A
:10234000F9CF84B58F7702C084B58F7D84BD0895A1
:102350008091B0008F7703C08091B0008F7D809313
:10236000B0000895809190008F7707C08091900011
:102370008F7D03C080919000877F809390000895A7
:102380008091A0008F7707C08091A0008F7D03C04F
:102390008091A000877F8093A00008958091200104
:1023A0008F7707C0809120018F7D03C0809120012D
:1023B000877F8093200108951F93CF93DF93282F69
:1023C00030E0F901E550FD4F8491F901EB54FD4FE8
:1023D000D491F901E159FD4FC491CC23C9F0162FD6
:1023E00081110E948611EC2FF0E0EE0FFF1FEB5AD7
:1023F000FD4FA591B4918FB7F894111105C09C9130
:10240000ED2FE095E92302C0EC91ED2BEC938FBF0B
:10241000DF91CF911F910895CF93DF9390E0FC015E
:10242000EB54FD4F2491FC01E159FD4F8491882329
:1024300061F190E0880F991FFC01E55CFD4FC591AB
:10244000D491FC01EB5AFD4FA591B491611109C0E3
:102450009FB7F8948881209582238883EC912E235E
:102460000BC0623061F49FB7F8943881822F809559
:1024700083238883EC912E2B2C939FBF06C08FB7AC
:10248000F894E8812E2B28838FBFDF91CF91089598
:10249000863308F0865390917B00282F2870977F11
:1024A000922B90937B008770806480937C00809156
:1024B0007A00806480937A0080917A0086FDFCCF58
:1024C000809178002091790090E0922B08953FB799
:1024D000F8948091A7059091A805A091A905B091C5
:1024E000AA0526B5A89B05C02F3F19F00196A11D8E
:1024F000B11D3FBFBA2FA92F982F8827820F911D9A
:10250000A11DB11DBC01CD0142E0660F771F881FE0
:10251000991F4A95D1F708958F929F92AF92BF92DB
:10252000CF92DF92EF92FF926B017C010E946712C3
:102530004B015C01C114D104E104F104F1F00E94EB
:102540006712DC01CB0188199909AA09BB09883EE9
:102550009340A105B10570F321E0C21AD108E1084A
:10256000F10888EE880E83E0981EA11CB11CC114EE
:10257000D104E104F10419F7DDCFFF90EF90DF9073
:10258000CF90BF90AF909F908F9008951F920F9221
:102590000FB60F9211242F933F938F939F93AF9376
:1025A000BF938091A0059091A105A091A205B09143
:1025B000A3053091A60523E0230F2D3720F40196C3
:1025C000A11DB11D05C026E8230F0296A11DB11D56
:1025D0002093A6058093A0059093A105A093A20542
:1025E000B093A3058091A7059091A805A091A90596
:1025F000B091AA050196A11DB11D8093A7059093E6
:10260000A805A093A905B093AA05BF91AF919F918A
:102610008F913F912F910F900FBE0F901F901895A3
:10262000009769F0FC0101900020E9F73197AF01B4
:10263000481B590BBC0185E897E00C94C30880E067
:1026400090E00895CF93DF930E941013EC0186E091
:1026500094E00E9410138C0F9D1FDF91CF9108957D
:10266000E5E8F7E0A089B18982E08C93A485B5857F
:102670001C92A685B7858FEC8C93108EA489B589A2
:1026800086E08C93A289B3898C9180618C93A28916
:10269000B3898C9188608C93A289B3898C9180686E
:1026A0008C930288F389E02D80818F7D808308954B
:1026B00020913E0690913D06213208F04AC080915B
:1026C0001A068111FCCF32E030931A0631E03093C4
:1026D00019063FEF3093180610921706209316063E
:1026E000ADE1B6E046EF55E0FA013E2F341B32175C
:1026F00018F43D913193F9CF1092F5052091F5052D
:10270000990F922B9093F5059091F405913061F417
:102710001092F4059091F5059093BB009091BC0048
:1027200093FDF8CF95EC01C095EE9093BC0090918D
:102730001A069230E1F3909118069F3F79F080914C
:102740001806803241F080911806803331F084E021
:1027500005C081E003C082E001C083E010921C0646
:1027600010923E0610921B060895EF92FF921F935F
:10277000CF93DF931F92CDB7DEB7162F9AEFE92ED6
:1027800099E0F92ED7011C969C911C9721E020938B
:102790001B0690933D0610921C0610923E061A9658
:1027A0000D90BC91A02DED91FC9111970190F081BD
:1027B000E02D682FCD0179831995F70182859385E6
:1027C000DC01ED91FC910190F081E02D7981672F82
:1027D0001995F70182859385DC01ED91FC910190BB
:1027E000F081E02D612F19950F90DF91CF911F910E
:1027F000FF90EF900C9458138F929F92AF92BF92DC
:102800000F931F93CF93DF93CDB7DEB7A1970FB68A
:10281000F894DEBF0FBECDBF19A2423008F44AE0E3
:102820008E010F5D1F4F842E912CA12CB12CA50180
:1028300094010E94AA1DE62FB901CA010150110995
:10284000EA3014F4E05D01C0E95CD801EC93232B7D
:10285000242B252B61F7C8010E941013A1960FB6F7
:10286000F894DEBF0FBECDBFDF91CF911F910F91C6
:10287000BF90AF909F908F900895CF92DF92EF928C
:10288000FF92CF93DF936B017C01E0918507F0917C
:1028900086070190F081E02D6DE285E897E01995BB
:1028A000EC0166277727CB016C197D098E099F09FA
:1028B0004AE00E94FC138C0F9D1FDF91CF91FF9087
:1028C000EF90DF90CF900895CF93DF93BC01990FE5
:1028D000880B990B97FF03C00E943D1403C04AE088
:1028E0000E94FC13EC0186E094E00E9410138C0F10
:1028F0009D1FDF91CF910895CF93DF93CDB7DEB7C2
:10290000C859D1090FB6F894DEBF0FBECDBF789479
:1029100084B5826084BD84B5816084BD85B58260E4
:1029200085BD85B5816085BD80916E008160809395
:102930006E001092810080918100826080938100FE
:10294000809181008160809381008091800081600E
:10295000809380008091B10084608093B100809169
:10296000B00081608093B00080919100826080937C
:1029700091008091910081608093910080919000FE
:102980008160809390008091A10082608093A1007B
:102990008091A10081608093A1008091A00081605E
:1029A0008093A00080912101826080932101809119
:1029B00021018160809321018091200181608093B9
:1029C000200180917A00846080937A0080917A005F
:1029D000826080937A0080917A00816080937A008F
:1029E00080917A00806880937A001092C1000E94E2
:1029F000301361E08091FB090E940C1260E080912D
:102A0000FB090E94DC1160E08091FA090E940C121F
:102A10008FE396E09093050A8093040A1092A5052F
:102A20001092A40510921C0610923E0610921A06EF
:102A300081E0809319061092F40561E084E10E9420
:102A4000DC1161E085E10E94DC118091B9008E7F8C
:102A50008093B9008091B9008D7F8093B90088E49C
:102A60008093B80085E48093BC0080E090E1A0E012
:102A7000B0E08093070A9093080AA093090AB093E4
:102A80000A0A8AE090E0A0E0B0E080930B0A9093FD
:102A90000C0AA0930D0AB0930E0A80E090E0A0E02B
:102AA000B0E480930F0A9093100AA093110AB09398
:102AB000120A60E070E185E00E94B5136FE979E3E6
:102AC00080E00E94B51307E11AE0812C912CA12C23
:102AD000B12C24EA222E22E0322E3AEE432E32E0AE
:102AE000532E4BEC642E47E0742E95012650364F42
:102AF0006901D90114969C91149712968C91F40156
:102B0000E650F64F7F01818F928F61E00E940C1298
:102B100061E0D7015A968C910E940C12F6019085C3
:102B20008681D8018C93F701968F61E00E940C1288
:102B300060E0D7015E968C910E940C1261E0F80172
:102B400080810E94DC11FFB6F894809110048111FD
:102B500025C0F1018491F2019491E82FF0E0EE0F8D
:102B6000FF1FE55CFD4FA591B4918C91982321F452
:102B700061E085E30E94DC1161E085E30E940C12B4
:102B80008CB580618CBD8CB580648CBD61E084E3C4
:102B90000E940C1261E083E30E940C1280911004E9
:102BA0008F5F80931004FFBEC3010197F1F760E0CF
:102BB000D8018C910E94DC1188E80E94AF0E83E05E
:102BC0000E94AF0E61E0F80180810E94DC11C30118
:102BD0000197F1F7C8010E94B60EF2E08F0E911C2A
:102BE0000E5F1F4FAA94AB2821F0AA24A394B12C06
:102BF0007CCF0FE11AE0B4E0FB2EF00E60E0D801CC
:102C00008D918D010E940C12F012F8CF6EE2E62E2B
:102C10006AE0F62E0BE21AE075E0A72EECE0CE2E6D
:102C2000F2E09F2EA2E0BA2EB00EF8013897D080C5
:102C3000F80180818C3008F046C061E08D2D0E9443
:102C40000C12D8018C91A89EF0011124EC50F74F82
:102C50009D2D9F732081207CD22ED92AD082138271
:102C600014826C2D0E94DB1DBCE08B9FA0011124FF
:102C700020E030E0B901640F751FA69EF001A79E09
:102C8000F00D1124EC50F74F908196FD12C02F5F8C
:102C90003F4F2C30310571F781110BC0109280002D
:102CA00090928100109285001092840096BA9092C2
:102CB0006F00D801EC91AE9EF0011124EC50F74F5B
:102CC000808180648083F80132979081329780817F
:102CD000F70131978083F701908360E00E940C1226
:102CE00061E0D7018C910E940C1260E0F7018081B5
:102CF0000E94DC110F5F1F4FF2E0EF0EF11CB012CB
:102D000094CFF8941092200189E08093210180E211
:102D100093E090932901809328011092250110924D
:102D2000240182E0809373007894809322081092AB
:102D300026088091230860E00E940C1260E08BE07E
:102D40000E940C1260E08CE00E940C1260E08DE0AA
:102D50000E940C1260E08EE00E940C1260E08FE096
:102D60000E940C1261E085E30E940C1261E087E191
:102D70000E940C1261E08DE20E940C1261E081E37E
:102D80000E940C120E94301380912604811145C0CC
:102D900010921804109217048FEF80931B048093F5
:102DA0001C0480931D0480931E0480931F04809351
:102DB000200481E0809321041092230410922204C5
:102DC00010921A0410921904809113049091140423
:102DD000892B31F485E194E09093140480931304DB
:102DE000E0911104F0911204309721F085E194E014
:102DF0009583848385E194E0909312048093110479
:102E0000109225041092240487EB92E0909316040C
:102E10008093150481E080932604E0911504F091DD
:102E200016040480F581E02D85E194E019958EE289
:102E300094E0909318048093170488E790E09093AF
:102E4000230480932204E0911504F0911604028477
:102E5000F385E02D85E194E01995009729F19C0117
:102E600040E050E060E472E48FE090E00E94781D62
:102E7000722F632F0091340A1091350A2091360A7F
:102E80003091370A872F962FDA0180179107A20712
:102E9000B30710F4D901C8018093340A9093350A1E
:102EA000A093360AB093370A8FEF80931B0480EB10
:102EB00080931C0480EF80931D0484E68093310A84
:102EC0006AE580E00E9424056AE581E00E9424050D
:102ED00033E0632E712C4EE0242E312C52E0452E2F
:102EE000512C87EB93E00E94221360E070E080E0B9
:102EF00090E00E941C0200E010E086E090E00E945A
:102F00000302F82E85E090E00E940302882359F026
:102F10000F5F1F4FC801B3010E94E71D60E070E022
:102F200001960E941C02FF2041F3C801B3010E94D8
:102F3000E71D8C014C012FEF821A920A61E070E0CC
:102F4000C4010E941C0264E181E00E94240566E93C
:102F500080E00E9424058FEB93E00E9422138BE017
:102F60000E9448120E94641489EC93E00E9422138C
:102F70008CE00E9448120E94641483ED93E00E944A
:102F800022138DE00E9448120E94641460ED77E0E5
:102F900080E090E00E948C128DED93E00E9422135D
:102FA00010920F0410920E0410920D0410920C0453
:102FB00081E090E090930B0480930A04EBE0F2E050
:102FC000DE01119688E501900D928A95E1F7E3E61E
:102FD000F2E0DE01A758BF4F80E201900D928A9582
:102FE000E1F7E3E8F2E0DE01A75ABF4F80E201908B
:102FF0000D928A95E1F70115110581F40E944A1C92
:10300000B1010E94E71D8C010E94641423E0000FAF
:10301000111F2A95E1F7E1E0F0E024C0013011052D
:1030200089F40E944A1C68E070E00E94E71D8C0150
:103030000E94641493E0000F111F9A95E1F7E9E7ED
:10304000F0E010C00E944A1C66E070E00E94E71D9C
:103050008C010E94641483E0000F111F8A95E1F730
:10306000E9E5F0E0EC0FFD1FE00FF11F0081118199
:10307000C280D380E480F580A680B780C8010E941A
:103080006414C6010E946414C7010E946414C5013F
:103090000E94641461E070E0C4010E941C020E945E
:1030A000D60380910E0490910F04019690930F0423
:1030B00080930E040E944C030E94D60380910C045E
:1030C00090910D04019690930D0480930C040E943E
:1030D000E60268EE73E080E090E00E948C12E01659
:1030E000F106F4F5B601C8010E94810480910E0436
:1030F00090910F04E816F90674F480910A049091F7
:103100000B048230910519F40E94E60204C0019775
:1031100011F40E94700268E781E00E942405B50165
:10312000C7010E94810480910A0490910B040097CA
:1031300019F40E944C0304C0029711F40E94E602A5
:1031400040E050E060E070E885E19AE00E94EE0C1B
:1031500040E050E0BA0183E19AE00E94EE0C89C0A1
:103160000E151F050CF041C0B501C7010E94810476
:1031700080910E0490910F040817190774F4809140
:103180000A0490910B048230910519F40E94E60222
:1031900004C0019711F40E94700240E050E060E02A
:1031A00070E885E19AE00E94EE0C40E050E0BA0140
:1031B00083E19AE00E94EE0C64EF71E080E090E021
:1031C0000E948C1268E781E00E94240564EF71E0A0
:1031D00080E090E00E948C1268EB7BE080E090E061
:1031E0000E948C12B601C8019CCFCA14DB04BCF447
:1031F000B601C8010E9481040E94E60264EF71E0FA
:1032000080E090E00E948C1268E781E00E94240533
:1032100064EF71E080E090E00E948C1280CFAC14EB
:10322000BD04BCF5B501C7010E9481040E94E602FD
:1032300064EF71E080E090E00E948C1268E781E02A
:103240000E94240564EF71E080E090E00E948C12FF
:10325000B601C8010E94810480910A0490910B0478
:10326000009719F40E944C0304C0029711F40E94C5
:10327000E60264EF71E080E090E00E948C126CE363
:1032800080E00E94240564EF71E080E090E00E94FD
:103290008C1285EF93E00E94221380910E0490918E
:1032A0000F0402972CF00E94D6030E94B703F5CFBB
:1032B00087EB93E00E94221380910C0490910D04FF
:1032C0008130910539F40E944C030E94D6030E947C
:1032D000E60208C0029741F40E94E6020E94D6036B
:1032E0000E944C030E94D60340E050E060E070E88A
:1032F00085E19AE00E94EE0C40E050E0BA0183E1E3
:103300009AE00E94EE0C68E873E180E090E00E9491
:103310008C128AEF93E00E94221389E19AE00E94C6
:10332000B60E87E19AE00E94B60E4DEC5CEC6CE4C0
:103330007EEB85E19AE00E94EE0C4DEC5CEC6CE4D7
:103340007EEB83E19AE00E94EE0C68EE73E080E091
:1033500090E00E948C1289E19AE00E94E10E6B01DC
:103360007C01CB010E9464146AE070E080E090E090
:103370000E948C12B601DD0C880B990B0E945B1C1D
:103380002FEF3FEF4BE655E40E94541E18161CF732
:1033900040E050E0BA0183E19AE00E94EE0C40E088
:1033A00050E060E070E885E19AE00E94EE0C68EE83
:1033B00073E080E090E00E948C1280910A0490916A
:1033C0000B048130910519F483E090E013C000975D
:1033D00029F450920B0440920A0410C082309105E7
:1033E00029F410920B0410920A0408C0039731F4D8
:1033F00081E090E090930B0480930A0480910A048A
:1034000090910B040E9464140E94EC096ACD809193
:103410003109909132090C94EE1E109242061092DE
:10342000410688EE93E0A0E0B0E0809343069093DD
:103430004406A0934506B09346062FEC32E0309345
:10344000400620933F0610924E0610924D06809340
:103450004F0690935006A0935106B093520621EE6A
:1034600032E030934C0620934B0645E351E05093F5
:1034700058064093570644E351E050935A06409350
:10348000590640E351E050935C0640935B0641E3EC
:1034900051E050935E0640935D0642E351E0509345
:1034A000600640935F0646E351E050936206409306
:1034B00061061092640610926506109266061092DC
:1034C00067061092EB061092EA068093EC06909342
:1034D000ED06A093EE06B093EF063093E906209335
:1034E000E80645ED50E05093F5064093F40644EDB0
:1034F00050E05093F7064093F60640ED50E05093AD
:10350000F9064093F80641ED50E05093FB064093D6
:10351000FA0642ED50E05093FD064093FC0646ED5E
:1035200050E05093FF064093FE0610920107109260
:103530000207109203071092040710928807109256
:1035400087078093890790938A07A0938B07B0938E
:103550008C07309386072093850785EC90E0909345
:1035600092078093910784EC90E090939407809366
:10357000930780EC90E0909396078093950781ECF9
:1035800090E0909398078093970782EC90E0909357
:103590009A078093990786EC90E090939C0780931C
:1035A0009B0710929E0710929F071092A0071092FF
:1035B000A10786E380931B0A87E380931C0A88E3B4
:1035C00080931D0A89E380931E0A8BE180931F0A72
:1035D0008DE18093200A8AE18093210A8CE1809317
:1035E000220A84E08093230A87E08093240A1092C1
:1035F000250A84EB8093260A86E18093270A88E1D6
:103600008093280A87E18093290A89E180932A0A16
:10361000E0913009EC3020F08FEF80932B0A10C03E
:1036200081E08E0F80933009E0932B0A25E0E29F22
:10363000F0011124EC50F74F88EB9BE092838183DB
:10364000E0913009EC3020F08FEF80932C0A10C00D
:1036500081E08E0F80933009E0932C0A85E0E89F8B
:10366000F0011124EC50F74F88EB9BE092838183AB
:103670008CE08093FA0984E28093FB0986E08093D2
:10368000FC0985E08093FD098FE18093FE098EE1BE
:103690008093FF0983E28093000A82E28093010A0B
:1036A00085E48093020A84E48093030A80E4809393
:1036B000060A10920B0A10920C0A10920D0A109230
:1036C0000E0A10920F0A1092100A1092110A10920C
:1036D000120AECE3F9E08FEF9FEFDC011282138214
:1036E000148215821682178210861186838794872A
:1036F000A587B6878787908BA18BB28B12861182A4
:103700001082739629E0EA3FF20741F78DE090E0DE
:103710000E94591EFC011382128283EF92E0918372
:103720008083118687E2848384E1828784E08387B3
:103730001486F0933909E093380910923A091092EF
:103740003B0985E2809323081092250810923209E4
:1037500010923109109234091092330910923609EF
:103760001092350961E070E080E090E00E94861FD1
:10377000009789F0909332098093310910923409AF
:10378000109233092091350930913609232B71F5B8
:10379000FC0110822BC08091310990913209009771
:1037A00011F00E94EE1E109232091092310910920F
:1037B00036091092350910923409109233098FEFAF
:1037C0008093310A1092330A1092320A10923D0A05
:1037D00010923C0A8FEF9FEFDC018093380A9093A0
:1037E000390AA0933A0AB0933B0A08951092360919
:1037F0001092350968E074E00E947D20E0CF8F923E
:103800009F92AF92BF92CF92DF92EF92FF92CF93AF
:10381000DF93EC01688179818A819B816115710553
:103820008105910521F464E279ED8BE597E02DE1C6
:1038300033EF41E050E00E94781D49015A019B019D
:10384000AC01A7EAB1E40E94971D6B017C01ACEECC
:10385000B4EFA50194010E94A51DDC01CB018C0DE4
:103860009D1DAE1DBF1DB7FF03C00197A109B04844
:1038700088839983AA83BB839F77DF91CF91FF9041
:10388000EF90DF90CF90BF90AF909F908F90089572
:103890000C94FF1B81E092E00C94FF1BA0E0B0E0D1
:1038A0008093010290930202A0930302B09304025A
:1038B0000895E89409C097FB3EF490958095709523
:1038C00061957F4F8F4F9F4F9923A9F0F92F96E96C
:1038D000BB279395F695879577956795B795F111E1
:1038E000F8CFFAF4BB0F11F460FF1BC06F5F7F4F7E
:1038F0008F4F9F4F16C0882311F096E911C0772390
:1039000021F09EE8872F762F05C0662371F096E898
:10391000862F70E060E02AF09A95660F771F881F67
:10392000DAF7880F9695879597F90895990F00080B
:10393000550FAA0BE0E8FEEF16161706E807F90781
:10394000C0F012161306E407F50798F0621B730B1C
:10395000840B950B39F40A2661F0232B242B252B9D
:1039600021F408950A2609F4A140A6958FEF811D40
:10397000811D08950E94CD1C0C943E1D0E94301D97
:1039800038F00E94371D20F0952311F00C94271D6C
:103990000C942D1D11240C94721D0E944F1D70F368
:1039A000959FC1F3950F50E0551F629FF001729FE4
:1039B000BB27F00DB11D639FAA27F00DB11DAA1FF3
:1039C000649F6627B00DA11D661F829F2227B00D40
:1039D000A11D621F739FB00DA11D621F839FA00DCB
:1039E000611D221F749F3327A00D611D231F849F1B
:1039F000600D211D822F762F6A2F11249F57504072
:103A00009AF0F1F088234AF0EE0FFF1FBB1F661FEC
:103A1000771F881F91505040A9F79E3F510580F0B5
:103A20000C94271D0C94721D5F3FE4F3983ED4F371
:103A3000869577956795B795F795E7959F5FC1F759
:103A4000FE2B880F911D9695879597F9089597F904
:103A50009F6780E870E060E008959FEF80EC089534
:103A600000240A941616170618060906089500245D
:103A70000A9412161306140605060895092E0394D7
:103A8000000C11F4882352F0BB0F40F4BF2B11F44B
:103A900060FF04C06F5F7F4F8F4F9F4F089557FDAA
:103AA0009058440F551F59F05F3F71F04795880FAC
:103AB00097FB991F61F09F3F79F087950895121643
:103AC00013061406551FF2CF4695F1DF08C01616EF
:103AD00017061806991FF1CF8695710561050894A0
:103AE0000895E894BB2766277727CB0197F90895B7
:103AF000052E97FB1EF400940E948F1D57FD07D0E2
:103B00000E94AA1D07FC03D04EF40C948F1D509503
:103B10004095309521953F4F4F4F5F4F08959095B9
:103B20008095709561957F4F8F4F9F4F08950E94AC
:103B3000CC1DA59F900DB49F900DA49F800D911D4D
:103B400011240895B7FF0C94971D0E94971D821BA6
:103B5000930B0895A1E21A2EAA1BBB1BFD010DC0F9
:103B6000AA1FBB1FEE1FFF1FA217B307E407F5072D
:103B700020F0A21BB30BE40BF50B661F771F881F09
:103B8000991F1A9469F760957095809590959B019F
:103B9000AC01BD01CF010895A29FB001B39FC00148
:103BA000A39F700D811D1124911DB29F700D811D69
:103BB0001124911D0895991B79E004C0991F96174F
:103BC00008F0961B881F7A95C9F78095089597FB92
:103BD000072E16F4009407D077FD09D00E940A1E24
:103BE00007FC05D03EF4909581959F4F0895709500
:103BF00061957F4F0895EE0FFF1F881F8BBF0790C1
:103C0000F691E02D19940E94CC1DB7FF0895821BF8
:103C1000930B0895AA1BBB1B51E107C0AA1FBB1F32
:103C2000A617B70710F0A61BB70B881F991F5A9548
:103C3000A9F780959095BC01CD0108950E94251E9D
:103C40006894B1110C94721D08950E94571D88F05C
:103C50009F5798F0B92F9927B751B0F0E1F0660F50
:103C6000771F881F991F1AF0BA95C9F714C0B13091
:103C700091F00E94711DB1E008950C94711D672FA1
:103C8000782F8827B85F39F0B93FCCF386957795C0
:103C90006795B395D9F73EF49095809570956195A9
:103CA0007F4F8F4F9F4F08950E94961C08F48FEF0F
:103CB0000895CF93DF938230910510F482E090E075
:103CC000E091400AF091410A20E030E0C0E0D0E00D
:103CD000309711F14081518148175907C0F04817BA
:103CE000590761F482819381209719F09B838A831D
:103CF0002BC09093410A8093400A26C021153105BC
:103D000019F04217530718F49A01BE01DF01EF01C1
:103D10000280F381E02DDCCF2115310509F1281B4C
:103D2000390B2430310590F412968D919C911397A4
:103D30006115710521F0FB019383828304C0909388
:103D4000410A8093400AFD01329644C0FD01E20F12
:103D5000F31F81939193225031092D933C933AC0E4
:103D600020913E0A30913F0A232B41F42091070213
:103D70003091080230933F0A20933E0A20910502B9
:103D8000309106022115310541F42DB73EB740911F
:103D9000090250910A02241B350BE0913E0AF09172
:103DA0003F0AE217F307A0F42E1B3F0B2817390731
:103DB00078F0AC014E5F5F4F2417350748F04E0F87
:103DC0005F1F50933F0A40933E0A8193919302C034
:103DD000E0E0F0E0CF01DF91CF9108950F931F93C2
:103DE000CF93DF93009709F48CC0FC0132971382C4
:103DF00012820091400A1091410A0115110581F4C7
:103E000020813181820F931F20913E0A30913F0A19
:103E10002817390779F5F0933F0AE0933E0A71C0FD
:103E2000D80140E050E0AE17BF0750F412962D9134
:103E30003C911397AD012115310509F1D901F3CF5B
:103E40009D01DA013383228360817181860F971F80
:103E50008217930769F4EC0128813981260F371FF7
:103E60002E5F3F4F318320838A819B81938382839E
:103E7000452B29F4F093410AE093400A42C013967F
:103E8000FC93EE931297ED01499159919E01240FF5
:103E9000351FE217F30771F480819181840F951F1C
:103EA000029611969C938E938281938113969C9394
:103EB0008E931297E0E0F0E0D80112968D919C91DC
:103EC0001397009719F0F8018C01F6CF8D919C9112
:103ED00098012E5F3F4F820F931F20913E0A309131
:103EE0003F0A2817390769F4309729F41092410ADC
:103EF0001092400A02C01382128210933F0A00936C
:103F00003E0ADF91CF911F910F9108956F927F929A
:103F10008F929F92AF92BF92CF92DF92EF92FF92D9
:103F20000F931F93CF93DF93EC01009789F4CB019C
:103F3000DF91CF911F910F91FF90EF90DF90CF9085
:103F4000BF90AF909F908F907F906F900C94591E70
:103F5000FC01E60FF71F9C0122503109E217F3071D
:103F600008F4ACC0D9010D911C91119706171707E1
:103F7000B0F00530110508F49FC0C80104978617FA
:103F8000970708F499C002501109061B170B0193FB
:103F900011936D937C93CF010E94EE1E8DC05B0147
:103FA000A01AB10A4C01800E911EA091400AB09156
:103FB000410A40E050E0E12CF12C109709F44AC08E
:103FC000A815B905D1F56D907C901197630182E039
:103FD000C80ED11CCA14DB0480F1A3014A195B0985
:103FE0006A0182E0C80ED11C1296BC9012971396FB
:103FF000AC91B5E0CB16D10440F0B282A3835183DB
:104000004083D9016D937C930AC00E5F1F4FC3019B
:10401000800F911FF90191838083EB2DFA2FE1141A
:10402000F10431F0D7011396FC93EE93129744C03C
:10403000F093410AE093400A3FC08D919C91119703
:104040004817590708F4AC017D0112960D90BC91F8
:10405000A02DB3CF80913E0A90913F0A8815990513
:10406000E1F446175707C8F48091050290910602C3
:10407000009741F48DB79EB74091090250910A0212
:10408000841B950BE817F907C8F4F0933F0AE093F7
:104090003E0AF901718360830FC0CB010E94591E53
:1040A0007C01009759F0A801BE010E947420CE0146
:1040B0000E94EE1EC70104C0CE0102C080E090E065
:1040C000DF91CF911F910F91FF90EF90DF90CF90F4
:1040D000BF90AF909F908F907F906F90089581E0F8
:1040E00090E0F8940C948420FB01DC0102C0019064
:1040F0000D9241505040D8F70895FB01DC0101902A
:104100000D920020E1F7089511E0C2EAD1E000E04D
:1041100006C0802FFE010E94FB1D2196011DC33A9F
:0C412000D10780E00807A9F7F894FFCF52
:10412C00FF010000000000420A2000020001000311
:10413C000002000200020003000100020001000264
:10414C000002000200020002000100010001000355
:10415C000001000300010001000100020002000147
:10416C000002000100020003000200030002000133
:10417C000002000200010003000100020002000323
:10418C000002000100020002000200010001000216
:10419C000001000300010002000100030002000204
:1041AC0000020003000100030002000300020003F0
:1041BC0000010003000100020002000300020002E3
:1041CC00000100000000001D0A1D0A1D0AD601FC9A
:1041DC000100020000000080083C08C505D601FC67
:1041EC0001C205CB050D000C000B00000000001BEC
:1041FC0010EB0F1A0AC50FE30FD40FC60F00000007
:10420C00008309C3080709CA09380916092A0900D5
:10421C00000000470AC3081A0A190A466F6E637435
:10422C00696F6E2043616C63756C6572506F736956
:10423C0074696F6E58203A00494E544552534543A9
:10424C0054494F4E00466F6E6374696F6E20706FE9
:10425C00736974696F6E6E657242616C6C65203A3D
:10426C000042616C6C6558203A00706F7369746918
:10427C006F6E58203A0042616C6C6559203A0070A0
:10428C006F736974696F6E59203A00466F6E637470
:10429C00696F6E2043616C63756C6572506F7369E6
:1042AC0074696F6E59203A00496E76616C696420AE
:1042BC00736572766F2069642100536572766F2086
:1042CC00616E676C65206973206F7574206F662052
:1042DC0072616E67652100426F6E6A6F7572004481
:1042EC00726F697465203A200047617563686520B8
:1042FC003A200043656E747265203A2000466F6E5A
:10430C006374696F6E204C616E6365725061727478
:10431C006965203A004E6963650031383020646568
:0A432C006772C3A973000D0A0000B8
:00000001FF
