:100000000C9484010C94B5010C94B5010C94B501C9
:100010000C94B5010C94B5010C94B5010C94B50188
:100020000C94B5010C94390B0C94390B0C94390BCE
:100030000C94B5010C9463070C94B5010C94B501B4
:100040000C94B5010C9488090C94B5010C94B5017D
:100050000C94B5010C94B5010C94B5010C941907DE
:100060000C94B5010C94D4080C94AA080C94B50116
:100070000C94B5010C94B5010C94B5010C94B50128
:100080000C945A090C94B5010C94B5010C94B5016B
:100090000C94B5010C94B5010C94B5010C94430B70
:1000A0000C94B5010C94B5010C942C090C94B50179
:1000B0000C94B5010C94B5010C94B5010C94FE0898
:1000C0000C94B5010C94B5010C94B5010C94800806
:1000D0000C9456080C94B5010C942C080C9402084E
:1000E0000C94B5017B03800385038F0399031204ED
:1000F000A303AB03B303BD03C703D103E003EA03C8
:100100001204F403FE030804A40CA70C960C9A0C2A
:100110009E0CDE0CAB0CAF0CB50CB90CBD0CC30CBB
:10012000C70CCB0CDE0CD10CD50CD90C0C94D90C13
:100130000C94B90C0C94FE030C94AB030C949E0C21
:100140000C94B7010C94B50C0C94E9090C943E0A7C
:100150000C94AB0C0C94FB010C94C70C0C94A303F3
:100160000C942C020C94A40C0C94AF0C0C949903DA
:100170000C94A70C0C9485030C944F0F0C947B03E8
:100180000C94B3030C94F7090C948F030C94800324
:100190000C94F4030C94BD0C0C94BD030C94C30C90
:1001A0000C94D50C0C94550F0C94D1030C940406AC
:1001B0000C94E8090C94EA030C94CB0C0C94770291
:1001C0000C94960C0C949A0C0C94060A0C94D10C7A
:1001D0000C9408040C940A020C94E0030C94C703DA
:1001E0000C9412040C94DE0C0C9417030C94BE02B5
:1001F0000C9418030C940E0A0C941E0202000021A9
:1002000000240027002A002D0030003300010100E7
:1002100000040107010A0100002200250028002B2C
:10022000002E003100340002010000050108010B1E
:100230000105050505070508080808020202020A6B
:100240000A08080404040401010101010101010379
:1002500003030303030303040707070C0C0C0C0C34
:100260000C0C0C0202020206060606060606060B27
:100270000B0B0B0B0B0B0B0102102020080810209E
:100280004010204080020102010804020101020422
:1002900008102040808040201008040201800402E1
:1002A0000180402010080402010804020101020438
:1002B0000810204080010204081020408000000A3D
:1002C0000B02090C0D0E08070304010000000000DA
:1002D000000000000000000000000000000000001E
:1002E00000000000000000000012111000000000DB
:1002F00000000000000000000000000000000000FE
:1003000000000000550F4F0F11241FBECFEFD1E2A8
:10031000DEBFCDBF00E00CBF12E0A0E0B2E0E8EE2F
:10032000F9E200E00BBF02C007900D92A234B107C2
:10033000D9F726E0A2E4B2E001C01D92A231B207D3
:10034000E1F711E0C3E8D1E000E006C02197010920
:10035000802FFE010E946D12C238D10780E008078D
:10036000A9F70E94680D0C94E2140C940000CF923F
:10037000DF92EF92FF920F931F93CF93DF936C0165
:100380007A018B01C0E0D0E0CE15DF0589F0D801FD
:100390006D918D01D601ED91FC910190F081E02DE0
:1003A000C6011995892B11F47E0102C02196ECCF6C
:1003B000C701DF91CF911F910F91FF90EF90DF90D8
:1003C000CF900895FC01A089B1898C91A689B78945
:1003D00082FD0FC09C91818D8F5F8F73228D82175C
:1003E00049F0218DDF01A20FB11D5D969C93818F95
:1003F00008958C910895FC01538D448D252F30E094
:10040000842F90E0821B930B541710F0CF96089521
:1004100001970895FC01918D828D981761F0828D6E
:10042000DF01A80FB11D5D968C91928D9F5F9F7328
:10043000928F90E008958FEF9FEF0895FC01918DCA
:10044000828D981731F0828DE80FF11D858D90E037
:1004500008958FEF9FEF0895FC01918D228D892FD4
:1004600090E0805C9F4F821B91098F7399270895BC
:1004700081E992E00E942C0221E0892B09F420E01E
:10048000822F08958EE293E00E942C0221E0892BB6
:1004900009F420E0822F08958BEC93E00E942C0257
:1004A00021E0892B09F420E0822F0895FC01848D3E
:1004B000DF01A80FB11DA35ABF4F2C91848D90E08E
:1004C00001968F739927848FA689B7892C93A08969
:1004D000B1898C9180648C93938D848D981306C020
:1004E0000288F389E02D80818F7D80830895EF92CB
:1004F000FF920F931F93CF93DF93EC0181E0888FDE
:100500009B8D8C8D981305C0E889F989808185FDC4
:1005100024C0F62E0B8D10E00F5F1F4F0F731127B5
:10052000E02E8C8DE8120CC00FB607FCFACFE889DC
:10053000F989808185FFF5CFCE010E945602F1CF67
:100540008B8DFE01E80FF11DE35AFF4FF0820B8FF8
:10055000EA89FB898081806207C0EE89FF89608318
:10056000E889F98980818064808381E090E0DF916F
:10057000CF911F910F91FF90EF900895CF93DF934C
:10058000EC01888D8823C9F0EA89FB89808185FD8B
:1005900005C0A889B9898C9186FD0FC00FB607FCEC
:1005A000F5CF808185FFF2CFA889B9898C9185FF2D
:1005B000EDCFCE010E945602E7CFDF91CF91089593
:1005C000E0E0F0E0199480E090E0892B21F00E94B7
:1005D0004C02811119C080E090E0892B41F080E04D
:1005E00090E0892B21F00E940000811110C00E9430
:1005F000420281110FC080E090E0892B81F00E94BF
:10060000380281110AC008950E940000E4CF0E94C0
:100610000000EDCF0E94E002EECF0C9400000895A0
:100620008EBD00000DB407FEFDCF8EB50895089570
:1006300080E090E008958F929F92AF92BF92CF9208
:10064000DF92EF92FF920F931F93CF93DF93EC0112
:100650006A017B0120E030E04FE753E4C701B601B7
:100660000E945F114B015C0120E030E0A9010E9473
:10067000B21218161CF4C501B40103C0C501B401BF
:1006800090580E947C128B0120E030E0A901C70144
:10069000B6010E94B212181614F460E001C061E0C5
:1006A00089810E94750C0F3F110509F014F4112780
:1006B00002C00FEF10E0C88161E08C2F0E94F20CA5
:1006C0000115110509F4B1C00F3F110509F4AFC0C0
:1006D000EC2FF0E0E354FD4FE4914E2F50E0FA018F
:1006E0003197E231F10508F09DC08827EE58FF4FA1
:1006F0008F4F0C946D1284B5806884BD07BDA7C070
:1007000084B5806284BD08BDA2C0809180008068ED
:1007100080938000109389000093880098C0809196
:10072000800080628093800010938B0000938A0089
:100730008EC08091800088608093800010938D002F
:1007400000938C0084C08091B00080688093B000DA
:100750000093B3007CC08091B00080628093B000B1
:100760000093B40074C080919000806880939000E2
:1007700010939900009398006AC080919000806265
:100780008093900010939B0000939A0060C080912A
:10079000900088608093900010939D0000939C00CF
:1007A00056C08091A00080688093A0008091A00036
:1007B0008F7B8093A0001093A9000093A80047C0EE
:1007C0008091A00080628093A0001093AB00009302
:1007D000AA003DC08091A00088608093A000109383
:1007E000AD000093AC0033C08091200180688093FD
:1007F0002001109329010093280129C08091200134
:1008000080628093200110932B0100932A011FC066
:100810008091200188608093200110932D01009326
:100820002C0115C00038110514F460E001C061E02E
:100830008C2FDF91CF911F910F91FF90EF90DF9060
:10084000CF90BF90AF909F908F900C94750CDF91DC
:10085000CF911F910F91FF90EF90DF90CF90BF90BD
:10086000AF909F908F90089540E050E060E070E876
:1008700081E792E00E941B034AE959E969E17FE3BD
:100880008FE692E00E941B0368EA72E080E090E04D
:100890000E942E0D40E050E0BA018FE692E00E94E7
:1008A0001B0340E050E060E070E881E792E00C94C8
:1008B0001B038130910511F40C943404892B21F52C
:1008C0004AE959E969E17FEB81E792E00E941B0365
:1008D00040E050E0BA018FE692E00E941B0368EA14
:1008E00072E080E090E00E942E0D40E050E0BA01FE
:1008F0008FE692E00E941B0340E050E060E070E869
:1009000081E792E00C941B030895CF93DF93EC01F1
:1009100060E088810E94750C88E90E94100380E0E5
:100920000E94100380E00E94100380E00E941003E8
:1009300080E00E94100361E088810E94750C8BE8C2
:1009400091E00197F1F760E088810E94750C80EEDC
:100950000E94100361E08881DF91CF910C94750CA7
:100960000F931F93CF93DF93EC01862F6883498306
:1009700061E00E94F20C60E089810E94F20C61E06B
:1009800088810E94750C1FB7F89480915F028111D5
:1009900027C0E6E6F2E09491ECEAF2E08491E92FD8
:1009A000F0E0EE0FFF1FE350FE4FA591B491EC91E4
:1009B000E82321F461E085E30E94750C61E085E3A2
:1009C0000E94F20C8CB580618CBD8CB580648CBDAE
:1009D00061E084E30E94F20C61E083E30E94F20C88
:1009E00080915F028F5F80935F021FBF0BEC17E067
:1009F000C8010197F1F760E088810E94750C88E8D2
:100A00000E94100383E00E94100361E088810E942D
:100A1000750CC8010197F1F7CE01DF91CF911F91BD
:100A20000F910C948504CF92DF92EF92FF920F9377
:100A30001F93CF93DF936C018B017A01EC01C55AB0
:100A4000DD4F888187FF04C0FB011182108224C022
:100A50008CE08C9D90018D9D300D11248881A90121
:100A6000480F511D87FD5A958091F80490E0481772
:100A7000590794F48881A901480F511D87FD5A95A3
:100A8000CA01FA01EE0FFF1F8E0F9F1FFC01E859EC
:100A9000FB4F808186FD19C088818F5F88838CE041
:100AA0008C9D90018D9D300D11248881A901480FE6
:100AB000511D87FD5A958091F80490E04817590719
:100AC000BCF488818C3044F113C08881280F311D1B
:100AD00087FD3A95F901EE0FFF1F2E0F3F1FF90119
:100AE000E859FB4F808160E08F730E94750CD4CF72
:100AF000F80180819181049680349C4918F480E447
:100B00009CE904C0F801808191810496F7019183EA
:100B100080838FEF888345C0F801408151818881AF
:100B2000B901680F711D87FD7A95CB01FB01EE0FAE
:100B3000FF1F8E0F9F1FFC01E859FB4F818192819F
:100B4000840F951FF701918380838881A901480F45
:100B5000511D87FD5A95CA01FA01EE0FFF1F8E0F36
:100B60009F1FFC01E859FB4F808186FF1AC08881D6
:100B7000280F311D87FD3A95F901EE0FFF1F2E0F4B
:100B80003F1FF901E859FB4F808161E08F73DF91CE
:100B9000CF911F910F91FF90EF90DF90CF900C9429
:100BA000750CDF91CF911F910F91FF90EF90DF9027
:100BB000CF9008950E94CD14FC01248131E0309340
:100BC0008102209383021092820210928402848513
:100BD000682B85E892E00E943E0A0C94950A0F93D8
:100BE0001F93CF938C01C62F64600E94DC056C2F8D
:100BF0006B7FC8010E94DC0583EC90E00197F1F760
:100C0000CF911F910F9108950F931F93CF93DF936F
:100C10008C01C62FD62FD07FD1606D2F0E94DC05AE
:100C20006D2FC8010E94EF0580E1C89FB00111241B
:100C3000C62FC1606C2FC8010E94DC056C2FC80153
:100C40000E94EF0581E090E0DF91CF911F910F911D
:100C500008954F925F926F927F92AF92BF92CF9220
:100C6000DF92EF92FF920F931F93CF93DF93CDB755
:100C7000DEB760970FB6F894DEBF0FBECDBFBC01E4
:100C8000990F880B990B0E9400112DEC3CEC4CE85D
:100C90005FE30E945F110E947C12DB012EE435E0CD
:100CA0000E9475122AE030E040E050E00E941D12E0
:100CB00029013A0168EE73E080E090E00E942E0D79
:100CC00045E050E067E372E08BEC93E00E94B701EF
:100CD0008BE692E00E94850440E050E060E07FE314
:100CE0008FE692E00E941B0340E050E060E07FEB63
:100CF00081E792E00E941B03C12CD12C76015E019A
:100D000081E1A80EB11CC414D504E604F704DCF597
:100D100060E080916B020E94750C80E60E941003D7
:100D20008E010F5F1F4F780180E00E94100390E05A
:100D3000A0E0B0E0F70181939193A193B1937F017B
:100D4000EA15FB0589F761E080916B020E94750C42
:100D5000C12CD12C7601F80181919191A191B19191
:100D60008F01FE2CED2CDC2CCC24C80ED91EEA1EE3
:100D7000FB1EEA15FB0579F765E070E080E090E086
:100D80000E942E0DC0CF40E050E0BA018FE692E005
:100D90000E941B0340E050E060E070E881E792E0D1
:100DA0000E941B0343E050E06DE372E08BEC93E0A4
:100DB0000E94B70168EC70E080E090E060960FB6AA
:100DC000F894DEBF0FBECDBFDF91CF911F910F9181
:100DD000FF90EF90DF90CF90BF90AF907F906F909B
:100DE0005F904F900C942E0D3FB7F894809178024D
:100DF00090917902A0917A02B0917B0226B5A89BCE
:100E000005C02F3F19F00196A11DB11D3FBFBA2F9C
:100E1000A92F982F8827820F911DA11DB11DBC01FC
:100E2000CD0142E0660F771F881F991F4A95D1F7C1
:100E300008951F920F920FB60F9211242F933F9394
:100E40008F939F93AF93BF9380917402909175029B
:100E5000A0917602B09177023091730223E0230FC4
:100E60002D3720F40196A11DB11D05C026E8230FE2
:100E70000296A11DB11D209373028093740290937A
:100E80007502A0937602B0937702809178029091D8
:100E90007902A0917A02B0917B020196A11DB11D49
:100EA0008093780290937902A0937A02B0937B02A8
:100EB000BF91AF919F918F913F912F910F900FBE56
:100EC0000F901F9018951F920F920FB60F9211243A
:100ED0000BB60F922F933F934F935F936F937F9334
:100EE0008F939F93AF93BF93EF93FF938091630290
:100EF00090916402A0916502B0916602892B8A2BC1
:100F00008B2B59F180916202E0916002F0916102B5
:100F10009081892780838091630290916402A091DF
:100F20006502B0916602181619061A061B060CF027
:100F300056C08091630290916402A0916502B091C5
:100F400066020197A109B10980936302909364023C
:100F5000A0936502B093660242C080910002ECEF5C
:100F6000F1E0E4919FEF90930002E230C9F050F479
:100F7000EE2399F0E13081F590916F009D7F909381
:100F80006F002AC0E43019F1E0F0E53029F59091C6
:100F900073009D7F909373001FC010926E001CC061
:100FA000909170009D7F9093700091E09093B000BD
:100FB0009091B100987F94609093B1001092B3002B
:100FC0000BC0909171009D7F9093710005C090912E
:100FD00072009D7F9093720060E00E94750CFF91FB
:100FE000EF91BF91AF919F918F917F916F915F91A1
:100FF0004F913F912F910F900BBE0F900FBE0F900E
:101000001F9018951F920F920FB60F9211240BB6D6
:101010000F922F933F934F935F936F937F938F9391
:101020009F93AF93BF93EF93FF9381E992E00E9468
:101030005602FF91EF91BF91AF919F918F917F9158
:101040006F915F914F913F912F910F900BBE0F9039
:101050000FBE0F901F9018951F920F920FB60F9210
:1010600011240BB60F922F933F934F935F936F937F
:101070007F938F939F93AF93BF93EF93FF9381E9F8
:1010800092E00E94E201FF91EF91BF91AF919F9199
:101090008F917F916F915F914F913F912F910F9021
:1010A0000BBE0F900FBE0F901F9018951F920F92BE
:1010B0000FB60F9211240BB60F922F933F934F93BD
:1010C0005F936F937F938F939F93AF93BF93EF93B0
:1010D000FF938EE293E00E945602FF91EF91BF9141
:1010E000AF919F918F917F916F915F914F913F91C0
:1010F0002F910F900BBE0F900FBE0F901F90189561
:101100001F920F920FB60F9211240BB60F922F93CE
:101110003F934F935F936F937F938F939F93AF937F
:10112000BF93EF93FF938EE293E00E94E201FF9161
:10113000EF91BF91AF919F918F917F916F915F914F
:101140004F913F912F910F900BBE0F900FBE0F90BC
:101150001F9018951F920F920FB60F9211240BB685
:101160000F922F933F934F935F936F937F938F9340
:101170009F93AF93BF93EF93FF938BEC93E00E9409
:101180005602FF91EF91BF91AF919F918F917F9107
:101190006F915F914F913F912F910F900BBE0F90E8
:1011A0000FBE0F901F9018951F920F920FB60F92BF
:1011B00011240BB60F922F933F934F935F936F932E
:1011C0007F938F939F93AF93BF93EF93FF938BEC9A
:1011D00093E00E94E201FF91EF91BF91AF919F9147
:1011E0008F917F916F915F914F913F912F910F90D0
:1011F0000BBE0F900FBE0F901F9018951F920F926D
:101200000FB60F9211240BB60F922F933F934F936B
:101210005F936F937F938F939F93AF93BF93EF935E
:10122000FF9348E251E064E271E080E090E00E94C8
:101230001305FF91EF91BF91AF919F918F917F9196
:101240006F915F914F913F912F910F900BBE0F9037
:101250000FBE0F901F9018951F920F920FB60F920E
:1012600011240BB60F922F933F934F935F936F937D
:101270007F938F939F93AF93BF93EF93FF9348EA2E
:1012800050E064EA70E083E090E00E941305FF9173
:10129000EF91BF91AF919F918F917F916F915F91EE
:1012A0004F913F912F910F900BBE0F900FBE0F905B
:1012B0001F9018951F920F920FB60F9211240BB624
:1012C0000F922F933F934F935F936F937F938F93DF
:1012D0009F93AF93BF93EF93FF9348E950E064E986
:1012E00070E082E090E00E941305FF91EF91BF91C2
:1012F000AF919F918F917F916F915F914F913F91AE
:101300002F910F900BBE0F900FBE0F901F9018954E
:101310001F920F920FB60F9211240BB60F922F93BC
:101320003F934F935F936F937F938F939F93AF936D
:10133000BF93EF93FF9348E850E064E870E081E0EA
:1013400090E00E941305FF91EF91BF91AF919F91A3
:101350008F917F916F915F914F913F912F910F905E
:101360000BBE0F900FBE0F901F90189585ED8093C8
:10137000BC008091BC0084FDFCCF109280020895D7
:101380004091A305262F30E0240F311D2132310575
:10139000DCF4209180022430C9F4FC0180E090E06C
:1013A000861758F43091A3052191DC01AF57BA4F4D
:1013B000A30FB11D2C930196F3CF8091A305680F65
:1013C0006093A30580E0089581E0089582E0089588
:1013D000089581E090E030917D0220917C023217E7
:1013E00010F480E090E091958195910908958091A5
:1013F0007D0290917C02891730F48F5F80937D028B
:1014000080E090E008958FEF9FEF089580917C0237
:1014100090E020917D02821B91090895CF92DF9286
:10142000EF92FF920F931F93CF93DF937C01262FB0
:10143000972F8A0180918102882391F0C62FD72FA0
:101440006E01C40ED51ECC15DD0571F06991D70172
:10145000ED91FC910190F081E02DC7011995F3CF3A
:10146000642F822F0E94C009C801DF91CF911F9184
:101470000F91FF90EF90DF90CF900895CF93DF937F
:101480001F92CDB7DEB76983209181022223D1F06C
:1014900020918402203240F021E030E0FC013383CF
:1014A000228380E090E015C080918202E82FF0E076
:1014B000E251FA4F998190838F5F809382028093EB
:1014C000840205C061E0CE0101960E94C00981E05E
:1014D00090E00F90DF91CF910895EBECF3E0A089BD
:1014E000B18982E08C93A485B5851C92A685B785C9
:1014F0008FEC8C93108EA489B58986E08C93A28999
:10150000B3898C9180618C93A289B3898C91886016
:101510008C93A289B3898C9180688C930288F3891B
:10152000E02D80818F7D80830895209184029091A9
:101530008302213208F04AC0809180028111FCCFE1
:1015400032E03093800231E030937F023FEF3093FE
:10155000ED051092EC052093EB05AEEEB5E04BECFB
:1015600055E0FA013E2F341B321718F43D913193A8
:10157000F9CF1092CA052091CA05990F922B90932A
:10158000CA0590917E02913061F410927E02909192
:10159000CA059093BB009091BC0093FDF8CF95ECE9
:1015A00001C095EE9093BC00909180029230E1F3DF
:1015B0009091ED059F3F79F08091ED05803241F0EB
:1015C0008091ED05803331F084E005C081E003C0F7
:1015D00082E001C083E01092820210928402109295
:1015E00081020895EF92FF921F93CF93DF931F9292
:1015F000CDB7DEB7162F94E6E92E95E0F92ED70188
:101600001C969C911C9721E0209381029093830269
:1016100010928202109284021A960D90BC91A02D15
:10162000ED91FC9111970190F081E02D682FCD0193
:1016300079831995F70182859385DC01ED91FC9101
:101640000190F081E02D7981672F1995F70182854E
:101650009385DC01ED91FC910190F081E02D612FEB
:1016600019950F90DF91CF911F91FF90EF900C94FF
:10167000950A1F920F920FB60F9211240F900FBE72
:101680000F901F9018951F920F920FB60F92112472
:101690000BB60F922F933F934F935F936F937F936C
:1016A0008F939F93AF93BF93EF93FF938091B90074
:1016B000887F803609F49CC068F5883209F45BC0E5
:1016C00090F4803109F454C038F4882309F4F6C04A
:1016D000883009F44DC0F6C0883109F44CC080321E
:1016E00009F45DC0EFC0803409F468C048F4803369
:1016F00009F455C0883309F0E5C08093ED05D8C0E2
:10170000803509F44FC0883509F45DC0883409F08C
:10171000D9C0D6C0883909F4C7C0A8F4883709F4FD
:1017200067C038F4883609F463C0803709F460C0B4
:10173000C9C0883809F4B8C0803909F45FC080385E
:1017400009F0C0C05BC0803B09F486C038F4803A21
:1017500009F466C0883A09F47FC0B4C0803C09F43B
:10176000A7C0883C09F4A4C0883B09F48AC0AAC079
:101770008091CA0510C09091EC058091EB059817F7
:1017800070F5E091EC0581E08E0F8093EC05F0E0C0
:10179000E553FA4F80818093BB0085EC86C080932F
:1017A000ED058EC0E091EC0581E08E0F8093EC0595
:1017B0008091BB00F0E0E553FA4F80839091EC05F7
:1017C0008091EB056EC0E091EC0581E08E0F809377
:1017D000EC058091BB00F0E0E553FA4F80838091E7
:1017E0007F0281116DC081E080937E0284EA61C036
:1017F00083E0809380021092C705CFCF8091C70508
:10180000803208F051C0E091C70581E08E0F8093CF
:10181000C7058091BB00F0E0E955FA4F8083BDCF4A
:1018200085EC8093BC00109280028091C7058032C5
:1018300030F4E091C705F0E0E955FA4F108260916D
:10184000C70570E0E091A505F091A60587EA95E04F
:1018500019951092C70536C084E0809380021092DB
:10186000A4051092A305E091A105F091A205199598
:101870008091A305811105C081E08093A30510929A
:101880008105E091A40581E08E0F8093A405F0E02E
:10189000EF57FA4F80818093BB009091A40580910F
:1018A000A305981708F479CF85E88093BC000AC097
:1018B00085EC8093BC001092800204C01092ED056C
:1018C0000E94B609FF91EF91BF91AF919F918F91C7
:1018D0007F916F915F914F913F912F910F900BBE30
:1018E0000F900FBE0F901F901895362F90E0FC01BF
:1018F000E354FD4F4491FC01E958FD4F2491FC0154
:10190000EF5CFD4F9491992309F46BC0442309F4D3
:1019100055C050E0FA013197E231F10508F04EC0B0
:101920008827EC57FF4F8F4F0C946D1280918000E9
:101930008F7707C0809180008F7D03C080918000E9
:10194000877F809380003AC084B58F7702C084B5CA
:101950008F7D84BD33C08091B0008F7703C08091AC
:10196000B0008F7D8093B00029C0809190008F7768
:1019700007C0809190008F7D03C080919000877F89
:10198000809390001BC08091A0008F7707C080914A
:10199000A0008F7D03C08091A000877F8093A0006E
:1019A0000DC0809120018F7707C0809120018F7D2D
:1019B00003C080912001877F80932001E92FF0E010
:1019C000EE0FFF1FE95EFD4FA591B4918FB7F8941C
:1019D000EC91311103C020952E2301C02E2B2C93A6
:1019E0008FBF0895CF93DF9390E0FC01E958FD4F3E
:1019F0002491FC01EF5CFD4F8491882361F190E01C
:101A0000880F991FFC01E350FE4FC591D491FC0152
:101A1000E95EFD4FA591B491611109C09FB7F8949B
:101A20008881209582238883EC912E230BC062301D
:101A300061F49FB7F8943881822F8095832388833F
:101A4000EC912E2B2C939FBF06C08FB7F894E881A2
:101A50002E2B28838FBFDF91CF9108958F929F9275
:101A6000AF92BF92CF92DF92EF92FF926B017C0117
:101A70000E94F4064B015C01C114D104E104F1049D
:101A8000F1F00E94F406DC01CB0188199909AA093A
:101A9000BB09883E9340A105B10570F321E0C21A4D
:101AA000D108E108F10888EE880E83E0981EA11C99
:101AB000B11CC114D104E104F10419F7DDCFFF908A
:101AC000EF90DF90CF90BF90AF909F908F90089550
:101AD000789484B5826084BD84B5816084BD85B509
:101AE000826085BD85B5816085BD80916E00816015
:101AF00080936E00109281008091810082608093BB
:101B000081008091810081608093810080918000BC
:101B10008160809380008091B10084608093B100E7
:101B20008091B00081608093B000809191008260CC
:101B300080939100809191008160809391008091C9
:101B400090008160809390008091A10082608093DA
:101B5000A1008091A10081608093A1008091A000EC
:101B600081608093A0008091210182608093210197
:101B70008091210181608093210180912001816009
:101B80008093200180917A00846080937A00809114
:101B90007A00826080937A0080917A0081608093DD
:101BA0007A0080917A00806880937A001092C10058
:101BB0000E946D0A86E080936F028FE1809370022D
:101BC00061E086E00E94F20C61E0809170020E9468
:101BD000F20C85E0809371028EE18093720261E0E5
:101BE00085E00E94F20C61E0809172020E94F20C8A
:101BF00045E463E28BE692E00E94B00444E462E2D2
:101C00008DE692E00E94B00486E18093670287E14E
:101C10008093680260E086E10E94F20C61E08091AE
:101C200068020E94F20C60E0809168020E94750CCC
:101C300088E18093690289E180936A0260E088E12B
:101C40000E94F20C61E080916A020E94F20C60E056
:101C500080916A020E94750C61E0809165050E9486
:101C6000F20C60E0809165050E94750C60E0809147
:101C700064050E94F20C85E892E090936F058093D2
:101C80006E0510927D0210927C02109282021092D8
:101C900084021092800281E080937F0210927E0283
:101CA00061E084E10E94750C61E085E10E94750CA1
:101CB0008091B9008E7F8093B9008091B9008D7FAB
:101CC0008093B90088E48093B80085E48093BC00D9
:101CD00080E090E1A0E0B0E0809371059093720500
:101CE000A0937305B09374058AE090E0A0E0B0E0A3
:101CF0008093750590937605A0937705B09378054A
:101D000082E090E0A0E0B0E08093790590937A05BE
:101D1000A0937B05B0937C0560E070E185E00E94B4
:101D2000F20A6FE979E380E00E94F20AC6E6D5E0A4
:101D30001C2F1C5F60E089910E94F20C1C13FACFEB
:101D400061E08DE00E94F20C0E946D0A60ED77E088
:101D500080E090E00E942E0D8EEB90E00E9429061C
:101D600080E090E00E9459048EE190E00E942906F4
:101D70000E94340489E190E00E9429060E94340404
:101D80008EE190E00E9429064AE959E969E17FEB7A
:101D900081E792E00E941B0340E050E0BA018FE629
:101DA00092E00E941B0368E671E080E090E00E94F0
:101DB0002E0D40E050E0BA018FE692E00E941B0336
:101DC00040E050E060E070E881E792E00E941B0391
:101DD00082E390E00E94290680E090E00E9459048E
:101DE00082E390E00E94290640E050E060E070E865
:101DF00081E792E00E941B034AE959E969E17FE328
:101E00008FE692E00E941B0368E671E080E090E0BC
:101E10000E942E0D40E050E0BA018FE692E00E9451
:101E20001B0340E050E060E070E881E792E00E9430
:101E30001B038EE190E00E94290640E050E060E044
:101E400070E881E792E00E941B034AE959E969E1E1
:101E50007FE38FE692E00E941B036AEF70E080E070
:101E600090E00E942E0D40E050E0BA018FE692E033
:101E70000E941B0340E050E060E070E881E792E0E0
:101E80000E941B038BE490E00E94290668E873E13E
:101E900080E090E00E942E0D0E94E30257CF8091D7
:101EA000F9049091FA040C944C1310928802109249
:101EB000870288EE93E0A0E0B0E0809389029093DF
:101EC0008A02A0938B02B0938C022BE032E0309315
:101ED00086022093850210929402109293028093BE
:101EE000950290939602A0939702B09398022DE1E9
:101EF00032E0309392022093910245E351E05093F7
:101F00009E0240939D0244E351E05093A00240930F
:101F10009F0240E351E05093A2024093A10241E3AB
:101F200051E05093A4024093A30242E351E0509346
:101F3000A6024093A50246E351E05093A8024093C5
:101F4000A7021092AA021092AB021092AC02109259
:101F5000AD021092310310923003809332039093BC
:101F60003303A0933403B093350330932F032093AE
:101F70002E0345ED50E050933B0340933A0344ED6C
:101F800050E050933D0340933C0340ED50E05093AC
:101F90003F0340933E0341ED50E050934103409393
:101FA000400342ED50E0509343034093420346ED1B
:101FB00050E050934503409344031092470310921E
:101FC00048031092490310924A031092CE031092D4
:101FD000CD038093CF039093D003A093D103B0930C
:101FE000D2033093CC032093CB0385EC90E0909305
:101FF000D8038093D70384EC90E09093DA03809326
:10200000D90380EC90E09093DC038093DB0381ECB8
:1020100090E09093DE038093DD0382EC90E0909358
:10202000E0038093DF0386EC90E09093E2038093DB
:10203000E1031092E4031092E5031092E60310927C
:10204000E7038DE090E00E94B712FC011382128238
:102050008FE292E091838083118687E2848384E11A
:10206000828784E083871486F0937E05E0937D0564
:1020700010927F05109280058CE08093640584E2C5
:10208000809365058BE1809366058DE180936705FC
:102090008AE1809368058CE18093690586E38093EB
:1020A0006A0587E380936B0588E380936C0589E379
:1020B00080936D0580E480937005109275051092F1
:1020C0007605109277051092780510927905109296
:1020D0007A0510927B0510927C058091F80480337C
:1020E00020F09FEF90935E0511C080935E05282F2E
:1020F00030E0F901EE0FFF1F2E0F3F1FF901E859E5
:10210000FB4F28EB3BE0328321838F5F803390F4D9
:1021100080936105282F30E0F901EE0FFF1F2E0F8D
:102120003F1FF901E859FB4F28EB3BE03283218345
:102130008F5F03C09FEF909361058093F804EFEFEA
:10214000F4E08FEF9FEFDC0112821382148215827C
:10215000168217821086118683879487A587B68793
:102160008787908BA18BB28B128611821082739617
:1021700025E0EE35F20741F71092FA041092F904C7
:102180001092FC041092FB041092FE041092FD04C5
:1021900061E070E080E090E00E94E413009789F035
:1021A0009093FA048093F9041092FC041092FB04BB
:1021B0002091FD043091FE04232BC1F4FC01108218
:1021C00015C08091F9049091FA04009711F00E94D3
:1021D0004C131092FA041092F9041092FE0410921B
:1021E000FD041092FC041092FB0408951092FE046A
:1021F0001092FD0460E472E00C94DB14E89409C0D2
:1022000097FB3EF490958095709561957F4F8F4F29
:102210009F4F9923A9F0F92F96E9BB279395F6953F
:10222000879577956795B795F111F8CFFAF4BB0FBD
:1022300011F460FF1BC06F5F7F4F8F4F9F4F16C021
:10224000882311F096E911C0772321F09EE8872FAB
:10225000762F05C0662371F096E8862F70E060E067
:102260002AF09A95660F771F881FDAF7880F9695E0
:10227000879597F90895990F0008550FAA0BE0E884
:10228000FEEF16161706E807F907C0F01216130638
:10229000E407F50798F0621B730B840B950B39F478
:1022A0000A2661F0232B242B252B21F408950A26DE
:1022B00009F4A140A6958FEF811D811D08950E940C
:1022C00072110C94E3110E94D51138F00E94DC11B8
:1022D00020F0952311F00C94CC110C94D211112400
:1022E0000C9417120E94F41170F3959FC1F3950F8F
:1022F00050E0551F629FF001729FBB27F00DB11D8A
:10230000639FAA27F00DB11DAA1F649F6627B00D19
:10231000A11D661F829F2227B00DA11D621F739F02
:10232000B00DA11D621F839FA00D611D221F749F10
:102330003327A00D611D231F849F600D211D822F57
:10234000762F6A2F11249F5750409AF0F1F088237E
:102350004AF0EE0FFF1FBB1F661F771F881F9150AB
:102360005040A9F79E3F510580F00C94CC110C947D
:1023700017125F3FE4F3983ED4F3869577956795FF
:10238000B795F795E7959F5FC1F7FE2B880F911DD5
:102390009695879597F9089597F99F6780E870E07B
:1023A00060E008959FEF80EC089500240A941616CB
:1023B000170618060906089500240A941216130633
:1023C000140605060895092E0394000C11F48823C1
:1023D00052F0BB0F40F4BF2B11F460FF04C06F5FDD
:1023E0007F4F8F4F9F4F089557FD9058440F551FB3
:1023F00059F05F3F71F04795880F97FB991F61F087
:102400009F3F79F087950895121613061406551FFD
:10241000F2CF4695F1DF08C0161617061806991F69
:10242000F1CF86957105610508940895E894BB275E
:1024300066277727CB0197F90895052E97FB1EF4A1
:1024400000940E94341257FD07D00E943C1207FCF2
:1024500003D04EF40C94341250954095309521954C
:102460003F4F4F4F5F4F08959095809570956195C0
:102470007F4F8F4F9F4F0895A1E21A2EAA1BBB1BBF
:10248000FD010DC0AA1FBB1FEE1FFF1FA217B30740
:10249000E407F50720F0A21BB30BE40BF50B661F56
:1024A000771F881F991F1A9469F76095709580951A
:1024B00090959B01AC01BD01CF010895A29FB00191
:1024C000B39FC001A39F700D811D1124911DB29F68
:1024D000700D811D1124911D0895EE0FFF1F881F9F
:1024E0008BBF0790F691E02D19940E945E12B7FF02
:1024F0000895821B930B08950E9483126894B11172
:102500000C94171208950E94FC1188F09F5798F0C0
:10251000B92F9927B751B0F0E1F0660F771F881FE8
:10252000991F1AF0BA95C9F714C0B13091F00E9402
:102530001612B1E008950C941612672F782F882791
:10254000B85F39F0B93FCCF3869577956795B39529
:10255000D9F73EF490958095709561957F4F8F4F98
:102560009F4F08950E943B1108F48FEF0895CF9379
:10257000DF938230910510F482E090E0E091100644
:10258000F091110620E030E0C0E0D0E0309711F18A
:102590004081518148175907C0F04817590761F425
:1025A00082819381209719F09B838A832BC090931B
:1025B00011068093100626C02115310519F0421727
:1025C000530718F49A01BE01DF01EF010280F38185
:1025D000E02DDCCF2115310509F1281B390B243002
:1025E000310590F412968D919C91139761157105A8
:1025F00021F0FB019383828304C0909311068093A2
:102600001006FD01329644C0FD01E20FF31F8193D5
:102610009193225031092D933C933AC020910E069C
:1026200030910F06232B41F42091030230910402D4
:1026300030930F0620930E06209101023091020282
:102640002115310541F42DB73EB740910502509157
:102650000602241B350BE0910E06F0910F06E217DF
:10266000F307A0F42E1B3F0B2817390778F0AC01B5
:102670004E5F5F4F2417350748F04E0F5F1F509392
:102680000F0640930E068193919302C0E0E0F0E0C4
:10269000CF01DF91CF9108950F931F93CF93DF93D5
:1026A000009709F48CC0FC013297138212820091CA
:1026B0001006109111060115110581F42081318158
:1026C000820F931F20910E0630910F0628173907AD
:1026D00079F5F0930F06E0930E0671C0D80140E043
:1026E00050E0AE17BF0750F412962D913C9113970E
:1026F000AD012115310509F1D901F3CF9D01DA01B1
:102700003383228360817181860F971F821793071D
:1027100069F4EC0128813981260F371F2E5F3F4F66
:10272000318320838A819B8193838283452B29F483
:10273000F0931106E093100642C01396FC93EE93BB
:102740001297ED01499159919E01240F351FE2170F
:10275000F30771F480819181840F951F0296119681
:102760009C938E938281938113969C938E93129760
:10277000E0E0F0E0D80112968D919C9113970097BC
:1027800019F0F8018C01F6CF8D919C9198012E5F84
:102790003F4F820F931F20910E0630910F0628178E
:1027A000390769F4309729F4109211061092100637
:1027B00002C01382128210930F0600930E06DF915F
:1027C000CF911F910F9108956F927F928F929F9258
:1027D000AF92BF92CF92DF92EF92FF920F931F932F
:1027E000CF93DF93EC01009789F4CB01DF91CF9178
:1027F0001F910F91FF90EF90DF90CF90BF90AF901F
:102800009F908F907F906F900C94B712FC01E60F11
:10281000F71F9C0122503109E217F30708F4ACC0FE
:10282000D9010D911C91119706171707B0F00530CB
:10283000110508F49FC0C80104978617970708F48C
:1028400099C002501109061B170B019311936D9348
:102850007C93CF010E944C138DC05B01A01AB10A7A
:102860004C01800E911EA0911006B091110640E01F
:1028700050E0E12CF12C109709F44AC0A815B905D5
:10288000D1F56D907C901197630182E0C80ED11C48
:10289000CA14DB0480F1A3014A195B096A0182E0D2
:1028A000C80ED11C1296BC9012971396AC91B5E04D
:1028B000CB16D10440F0B282A38351834083D90167
:1028C0006D937C930AC00E5F1F4FC301800F911F51
:1028D000F90191838083EB2DFA2FE114F10431F09B
:1028E000D7011396FC93EE93129744C0F093110610
:1028F000E09310063FC08D919C911197481759079E
:1029000008F4AC017D0112960D90BC91A02DB3CFBF
:1029100080910E0690910F0688159905E1F44617EF
:102920005707C8F48091010290910202009741F488
:102930008DB79EB74091050250910602841B950BFE
:10294000E817F907C8F4F0930F06E0930E06F901B3
:10295000718360830FC0CB010E94B7127C01009786
:1029600059F0A801BE010E94D214CE010E944C135E
:10297000C70104C0CE0102C080E090E0DF91CF919A
:102980001F910F91FF90EF90DF90CF90BF90AF908D
:102990009F908F907F906F90089581E090E0F894E1
:1029A0000C94E214FB01DC0102C001900D92415035
:1029B0005040D8F70895FB01DC0101900D920020F2
:1029C000E1F7089511E0C3E8D1E000E006C0802FF0
:1029D000FE010E946D122196011DC438D10780E0CE
:0829E0000807A9F7F894FFCFE6
:1029E800FF000012062000000000003E0A0E0A1830
:1029F80003E809060AF709E909000000007702B7A9
:102A080001FB01BE022C020A021E020000000004A3
:102A180006B70118031703535441525400454E4456
:022A28000000AC
:00000001FF
