:100000000C945D010C948E010C948E010C948E0165
:100010000C948E010C948E010C948E010C948E0124
:100020000C948E010C9424070C9424070C94240740
:100030000C948E010C9443030C948E010C948E014D
:100040000C948E010C94C5050C948E010C948E01B9
:100050000C948E010C948E010C948E010C94470923
:100060000C948E010C94B4040C948A040C948E01AC
:100070000C948E010C948E010C948E010C948E01C4
:100080000C948E010C948E010C948E010C948E01B4
:100090000C948E010C948E010C948E010C942E07FE
:1000A0000C948E010C948E010C948E010C948E0194
:1000B0000C948E010C948E010C948E010C94DE0431
:1000C0000C948E010C948E010C948E010C9460049F
:1000D0000C9436040C948E010C940C040C94E203E2
:1000E0000C948E017B087E086D0871087708B508AE
:1000F000820886088C08900894089A089E08A2082E
:10010000B508A808AC08B0080C94C5060C941E03EA
:100110000C9450020C947E080C9482080C94F50DFB
:100120000C9497020C948C080C94D4010C949A08AB
:100130000C9494080C9490010C94FB0D0C94710891
:100140000C94B5080C94E3010C94F5060C94B008DB
:100150000C94A0060C94AE060C949F060C94BD065D
:100160000C9486080C949E080C9490080C947708C4
:100170000C94AC080C94F7010C94F0020C94A208B7
:100180000C94F1020C947B080C946D080C94A80854
:100190000C940502000020002300260029002C00FA
:1001A0002F003200000100000301060109010200D6
:1001B000002100240027002A002D00300033000118
:1001C000010000040107010A0100002200250028A7
:1001D000002B002E00310034000201000005010850
:1001E000010B0105050505070508080808020202BC
:1001F000020A0A08080404040401010101010101C2
:10020000010303030303030303040707070C0C0C98
:100210000C0C0C0C0C020202020606060606060670
:10022000060B0B0B0B0B0B0B0B010210202008080D
:100230001020401020408002010201080402010148
:100240000204081020408080402010080402018031
:100250000402018040201008040201080402010188
:100260000204081020408001020408102040800091
:10027000000A0B02090C0D0E080703040100000020
:10028000000000000000000000000000000000006E
:10029000000000000000000000000012111000002B
:1002A000000000000000000000000000000000004E
:1002B000000000000000FB0DF50D11241FBECFEF64
:1002C000D1E2DEBFCDBF00E00CBF12E0A0E0B2E0A3
:1002D000E8E1F6E200E00BBF02C007900D92A63CF9
:1002E000B107D9F727E0A6ECB2E001C01D92AD3707
:1002F000B207E1F711E0CCE5D1E000E006C02197BC
:100300000109802FFE010E94B310CB35D10780E098
:100310000807A9F70E94F10A0C94FA120C94000045
:10032000CF92DF92EF92FF920F931F93CF93DF93C1
:100330006C017A018B01C0E0D0E0CE15DF0589F0B9
:10034000D8016D918D01D601ED91FC910190F08164
:10035000E02DC6011995892B11F47E0102C021966A
:10036000ECCFC701DF91CF911F910F91FF90EF90DC
:10037000DF90CF900895FC01A089B1898C91A68966
:10038000B78982FD0FC09C91818D8F5F8F73228D05
:10039000821749F0218DDF01A20FB11D5D969C935C
:1003A000818F08958C910895FC01538D448D252FE4
:1003B00030E0842F90E0821B930B541710F0CF96FF
:1003C000089501970895FC01918D828D981761F031
:1003D000828DDF01A80FB11D5D968C91928D9F5F7C
:1003E0009F73928F90E008958FEF9FEF0895FC0127
:1003F000918D828D981731F0828DE80FF11D858DDA
:1004000090E008958FEF9FEF0895FC01918D228D6C
:10041000892F90E0805C9F4F821B91098F739927F1
:10042000089583E993E00E94050221E0892B09F4F5
:1004300020E0822F089580E394E00E94050221E0ED
:10044000892B09F420E0822F08958DEC94E00E941E
:10045000050221E0892B09F420E0822F0895FC0198
:10046000848DDF01A80FB11DA35ABF4F2C91848D3D
:1004700090E001968F739927848FA689B7892C9372
:10048000A089B1898C9180648C93938D848D98130D
:1004900006C00288F389E02D80818F7D80830895D6
:1004A000EF92FF920F931F93CF93DF93EC0181E0C4
:1004B000888F9B8D8C8D981305C0E889F989808180
:1004C00085FD24C0F62E0B8D10E00F5F1F4F0F73BC
:1004D0001127E02E8C8DE8120CC00FB607FCFACF66
:1004E000E889F989808185FFF5CFCE010E942F022E
:1004F000F1CF8B8DFE01E80FF11DE35AFF4FF08223
:100500000B8FEA89FB898081806207C0EE89FF89B1
:100510006083E889F98980818064808381E090E04C
:10052000DF91CF911F910F91FF90EF900895CF939E
:10053000DF93EC01888D8823C9F0EA89FB898081EB
:1005400085FD05C0A889B9898C9186FD0FC00FB6BD
:1005500007FCF5CF808185FFF2CFA889B9898C91FE
:1005600085FFEDCFCE010E942F02E7CFDF91CF9123
:100570000895E0E0F0E0199480E090E0892B21F00C
:100580000E942502811119C080E090E0892B41F082
:1005900080E090E0892B21F00E940000811110C0C2
:1005A0000E941B0281110FC080E090E0892B81F036
:1005B0000E94110281110AC008950E940000E4CF38
:1005C0000E940000EDCF0E94B902EECF0C94000013
:1005D00008958EBD00000DB407FEFDCF8EB50895C1
:1005E000089580E090E008950E94E512FC012481C6
:1005F00031E03093630320938503109264031092DB
:1006000086038485682B87E893E00E94F5060C94A6
:10061000CB090F931F93CF938C01C62F64600E9468
:10062000F6026C2F6B7FC8010E94F60283EC90E00B
:100630000197F1F7CF911F910F9108950F931F9399
:10064000CF93DF938C01C62FD62FD07FD1606D2F33
:100650000E94F6026D2FC8010E94090380E1C89F25
:10066000B0011124C62FC1606C2FC8010E94F60290
:100670006C2FC8010E94090381E090E0DF91CF91C7
:100680001F910F9108951F920F920FB60F92112490
:100690000BB60F922F933F934F935F936F937F937C
:1006A0008F939F93AF93BF93EF93FF938091E30258
:1006B0009091E402A091E502B091E602892B8A2B89
:1006C0008B2B59F18091E202E091E002F091E1027E
:1006D0009081892780838091E3029091E402A09128
:1006E000E502B091E602181619061A061B060CF070
:1006F00056C08091E3029091E402A091E502B0918E
:10070000E6020197A109B1098093E3029093E40204
:10071000A093E502B093E60242C080910002EEEAA7
:10072000F1E0E4919FEF90930002E230C9F050F4C1
:10073000EE2399F0E13081F590916F009D7F9093C9
:100740006F002AC0E43019F1E0F0E53029F590910E
:1007500073009D7F909373001FC010926E001CC0A9
:10076000909170009D7F9093700091E09093B00005
:100770009091B100987F94609093B1001092B30073
:100780000BC0909171009D7F9093710005C0909176
:1007900072009D7F9093720060E00E94B608FF9106
:1007A000EF91BF91AF919F918F917F916F915F91E9
:1007B0004F913F912F910F900BBE0F900FBE0F9056
:1007C0001F9018951F920F920FB60F9211240BB61F
:1007D0000F922F933F934F935F936F937F938F93DA
:1007E0009F93AF93BF93EF93FF9383E993E00E94AE
:1007F0002F02FF91EF91BF91AF919F918F917F91C8
:100800006F915F914F913F912F910F900BBE0F9081
:100810000FBE0F901F9018951F920F920FB60F9258
:1008200011240BB60F922F933F934F935F936F93C7
:100830007F938F939F93AF93BF93EF93FF9383E93E
:1008400093E00E94BB01FF91EF91BF91AF919F9107
:100850008F917F916F915F914F913F912F910F9069
:100860000BBE0F900FBE0F901F9018951F920F9206
:100870000FB60F9211240BB60F922F933F934F9305
:100880005F936F937F938F939F93AF93BF93EF93F8
:10089000FF9380E394E00E942F02FF91EF91BF91BC
:1008A000AF919F918F917F916F915F914F913F9108
:1008B0002F910F900BBE0F900FBE0F901F901895A9
:1008C0001F920F920FB60F9211240BB60F922F9317
:1008D0003F934F935F936F937F938F939F93AF93C8
:1008E000BF93EF93FF9380E394E00E94BB01FF91DD
:1008F000EF91BF91AF919F918F917F916F915F9198
:100900004F913F912F910F900BBE0F900FBE0F9004
:100910001F9018951F920F920FB60F9211240BB6CD
:100920000F922F933F934F935F936F937F938F9388
:100930009F93AF93BF93EF93FF938DEC94E00E944E
:100940002F02FF91EF91BF91AF919F918F917F9176
:100950006F915F914F913F912F910F900BBE0F9030
:100960000FBE0F901F9018951F920F920FB60F9207
:1009700011240BB60F922F933F934F935F936F9376
:100980007F938F939F93AF93BF93EF93FF938DECE0
:1009900094E00E94BB01FF91EF91BF91AF919F91B5
:1009A0008F917F916F915F914F913F912F910F9018
:1009B0000BBE0F900FBE0F901F9018951F920F92B5
:1009C0000FB60F9211240BB60F922F933F934F93B4
:1009D0005F936F937F938F939F93AF93BF93CF93C7
:1009E000DF93EF93FF9320916B0530E0F901E1591C
:1009F000FD4F8491F901E75DFD4FD491F901ED516F
:100A0000FE4FC491CC23A1F081110E946008EC2F0D
:100A1000F0E0EE0FFF1FEC56FE4FA591B491EC9164
:100A2000ED2331E020E009F430E0832F922F02C063
:100A300080E090E020916F05309170052F5F3F4F6F
:100A40003093700520936F0520916E05253618F0C0
:100A500026E020936A0520916A052430D9F128F414
:100A6000223069F02330D9F060C0253009F453C03A
:100A7000263009F05AC021E020933B0653C000976E
:100A800009F053C020916F0530917005243631056F
:100A900008F443C010923B0610926E051DC08130D1
:100AA000910509F042C0E0916E0521E02E0F2093E0
:100AB0006E05F0E020916F0530917005EE0FFF1F7D
:100AC000E659FA4F308727831092700510926F0510
:100AD00024E029C00097B9F4E0916E0521E02E0FC3
:100AE00020936E05F0E020916F0530917005EE0FB8
:100AF000FF1FE659FA4F3087278310927005109236
:100B00006F0523E010C020916F05309170052536E8
:100B1000310558F007C0009741F41092700510920B
:100B20006F0503C025E020936A0520916D052223FF
:100B3000B9F0892B51F480916C05882321F08091C4
:100B40006C0561E009C02F9A0BC080916C05882369
:100B500031F080916C0560E00E94B60801C02F98CA
:100B6000FF91EF91DF91CF91BF91AF919F918F91C5
:100B70007F916F915F914F913F912F910F900BBE9D
:100B80000F900FBE0F901F9018951F920F920FB6E7
:100B90000F9211240BB60F922F933F934F935F93B5
:100BA0006F937F938F939F93AF93BF93EF93FF9335
:100BB0008091DF0287FF05C01092850010928400AB
:100BC00016C02091DF02022E000C330B80917806B4
:100BD00090E0281739075CF43091DF0225E03203FA
:100BE000F0011124E45CF94F808186FD15C08091ED
:100BF000DF028F5F8093DF022091DF02022E000C64
:100C0000330B8091780690E02817390794F480918F
:100C1000DF028C302CF10DC03091DF023203F00185
:100C20001124E45CF94F808160E08F730E94B60864
:100C3000DECF809184009091850084349C4918F423
:100C400080E49CE905C08091840090918500049621
:100C500090938900809388008FEF8093DF022AC0F1
:100C600040918400509185003091DF0225E03203ED
:100C7000F0011124E45CF94F81819281840F951F6A
:100C800090938900809388003091DF023203F00155
:100C90001124E45CF94F808186FF0CC03091DF02A3
:100CA0003203F0011124E45CF94F808161E08F731D
:100CB0000E94B608FF91EF91BF91AF919F918F91E4
:100CC0007F916F915F914F913F912F910F900BBE4C
:100CD0000F900FBE0F901F90189585ED8093BC006C
:100CE0008091BC0084FDFCCF109262030895409176
:100CF0001503262F30E0240F311D21323105DCF49D
:100D0000209162032430C9F4FC0180E090E0861752
:100D100058F4309115032191DC01AD50BD4FA30F64
:100D2000B11D2C930196F3CF80911503680F60934A
:100D3000150380E0089581E0089582E00895089504
:100D400081E090E03091E9022091E802321710F43E
:100D500080E090E091958195910908958091E90254
:100D60009091E802891730F48F5F8093E90280E068
:100D700090E008958FEF9FEF08958091E80290E052
:100D80002091E902821B91090895CF92DF92EF92A0
:100D9000FF920F931F93CF93DF937C01262F972F02
:100DA0008A0180916303882391F0C62FD72F6E01AB
:100DB000C40ED51ECC15DD0571F06991D701ED91FA
:100DC000FC910190F081E02DC7011995F3CF642FBC
:100DD000822F0E947706C801DF91CF911F910F915A
:100DE000FF90EF90DF90CF900895CF93DF931F9205
:100DF000CDB7DEB76983209163032223D1F0209120
:100E00008603203240F021E030E0FC01338322836E
:100E100080E090E015C080916403E82FF0E0EB598A
:100E2000FC4F998190838F5F809364038093860346
:100E300005C061E0CE0101960E94770681E090E056
:100E40000F90DF91CF9108951F920F920FB60F92DE
:100E500011240F900FBE0F901F9018951F920F92A4
:100E60000FB60F9211240BB60F922F933F934F930F
:100E70005F936F937F938F939F93AF93BF93EF9302
:100E8000FF938091B900887F803609F49CC068F593
:100E9000883209F45BC090F4803109F454C038F40E
:100EA000882309F4F6C0883009F44DC0F6C08831B3
:100EB00009F44CC0803209F45DC0EFC0803409F4FD
:100EC00068C048F4803309F455C0883309F0E5C0A0
:100ED00080936003D8C0803509F44FC0883509F489
:100EE0005DC0883409F0D9C0D6C0883909F4C7C0BC
:100EF000A8F4883709F467C038F4883609F463C069
:100F0000803709F460C0C9C0883809F4B8C0803996
:100F100009F45FC0803809F0C0C05BC0803B09F4B1
:100F200086C038F4803A09F466C0883A09F47FC074
:100F3000B4C0803C09F4A7C0883C09F4A4C0883B35
:100F400009F48AC0AAC080913D0310C090915F034C
:100F500080915E03981770F5E0915F0381E08E0F3A
:100F600080935F03F0E0E25CFC4F80818093BB00E4
:100F700085EC86C0809360038EC0E0915F0381E0C2
:100F80008E0F80935F038091BB00F0E0E25CFC4F2A
:100F9000808390915F0380915E036EC0E0915F0358
:100FA00081E08E0F80935F038091BB00F0E0E25CF4
:100FB000FC4F80838091610381116DC081E080933B
:100FC0003C0384EA61C083E080936203109239039A
:100FD000CFCF80913903803208F051C0E0913903BE
:100FE00081E08E0F809339038091BB00F0E0E75ED3
:100FF000FC4F8083BDCF85EC8093BC0010926203D0
:1010000080913903803230F4E0913903F0E0E75EFB
:10101000FC4F10826091390370E0E0911703F0916A
:10102000180389E193E019951092390336C084E0E2
:10103000809362031092160310921503E09113033C
:10104000F0911403199580911503811105C081E079
:10105000809315031092F302E091160381E08E0F46
:1010600080931603F0E0ED50FD4F80818093BB002C
:101070009091160380911503981708F479CF85E8AD
:101080008093BC000AC085EC8093BC001092620380
:1010900004C0109260030E946D06FF91EF91BF9112
:1010A000AF919F918F917F916F915F914F913F9100
:1010B0002F910F900BBE0F900FBE0F901F901895A1
:1010C00090E0FC013197E231F10508F04EC088272D
:1010D000EE58FF4F8F4F0C94B310809180008F77A4
:1010E00003C0809180008F7D80938000089580915F
:1010F0008000877FF9CF84B58F7702C084B58F7D5C
:1011000084BD08958091B0008F7703C08091B000B6
:101110008F7D8093B0000895809190008F7707C0F5
:10112000809190008F7D03C080919000877F809395
:10113000900008958091A0008F7707C08091A00053
:101140008F7D03C08091A000877F8093A0000895C9
:10115000809120018F7707C0809120018F7D03C08F
:1011600080912001877F8093200108951F93CF9362
:10117000DF93282F30E0F901E159FD4F8491F90107
:10118000E75DFD4FD491F901ED51FE4FC491CC23A1
:10119000C9F0162F81110E946008EC2FF0E0EE0FCD
:1011A000FF1FE753FE4FA591B4918FB7F89411112B
:1011B00005C09C91ED2FE095E92302C0EC91ED2B49
:1011C000EC938FBFDF91CF911F910895CF93DF9361
:1011D00090E0FC01E75DFD4F2491FC01ED51FE4FD5
:1011E0008491882361F190E0880F991FFC01E155FB
:1011F000FE4FC591D491FC01E753FE4FA591B491E8
:10120000611109C09FB7F894888120958223888353
:10121000EC912E230BC0623061F49FB7F8943881B3
:10122000822F809583238883EC912E2B2C939FBF54
:1012300006C08FB7F894E8812E2B28838FBFDF91EB
:10124000CF9108953FB7F8948091EF029091F0020A
:10125000A091F102B091F20226B5A89B05C02F3FE4
:1012600019F00196A11DB11D3FBFBA2FA92F982FCC
:101270008827820F911DA11DB11DBC01CD0142E047
:10128000660F771F881F991F4A95D1F708951F92FF
:101290000F920FB60F9211242F933F938F939F932A
:1012A000AF93BF938091EB029091EC02A091ED027D
:1012B000B091EE023091EA0223E0230F2D3720F4A3
:1012C0000196A11DB11D05C026E8230F0296A11DA0
:1012D000B11D2093EA028093EB029093EC02A0935D
:1012E000ED02B093EE028091EF029091F002A09196
:1012F000F102B091F2020196A11DB11D8093EF029F
:101300009093F002A093F102B093F202BF91AF91DB
:101310009F918F913F912F910F900FBE0F901F9033
:101320001895EDECF4E0A089B18982E08C93A48556
:10133000B5851C92A685B7858FEC8C93108EA489F9
:10134000B58986E08C93A289B3898C9180618C9356
:10135000A289B3898C9188608C93A289B3898C917E
:1013600080688C930288F389E02D80818F7D808353
:101370000895009769F0FC0101900020E9F731978A
:10138000AF01481B590BBC018DEC94E00C9490010B
:1013900080E090E0089520918603909185032132AA
:1013A00008F04AC0809162038111FCCF32E0309393
:1013B000620331E0309361033FEF3093600310929A
:1013C0005F0320935E03A5E6B3E04EE353E0FA012A
:1013D0003E2F341B321718F43D913193F9CF109200
:1013E0003D0320913D03990F922B90933D039091E3
:1013F0003C03913061F410923C0390913D03909333
:10140000BB009091BC0093FDF8CF95EC01C095EE28
:101410009093BC00909162039230E1F3909160034D
:101420009F3F79F080916003803241F080916003AA
:10143000803331F084E005C081E003C082E001C068
:1014400083E0109264031092860310926303089560
:10145000EF92FF921F93CF93DF931F92CDB7DEB72A
:10146000162F92E4E92E97E0F92ED7011C969C9155
:101470001C9721E0209363039093850310926403EB
:10148000109286031A960D90BC91A02DED91FC91BF
:1014900011970190F081E02D682FCD017983199586
:1014A000F70182859385DC01ED91FC910190F0813B
:1014B000E02D7981672F1995F70182859385DC01ED
:1014C000ED91FC910190F081E02D612F19950F9025
:1014D000DF91CF911F91FF90EF900C94CB098F92E9
:1014E0009F92AF92BF92CF92DF92EF92FF920F93B3
:1014F0001F93CF93DF93CDB7DEB7A1970FB6F894C4
:10150000DEBF0FBECDBF6C01990FEE08FF08F7FEDE
:1015100031C0E091CD04F091CE040190F081E02D36
:101520006DE28DEC94E019958C0122273327A901F7
:101530002C193D094E095F0919A2CE0181967C0143
:101540009AE0892E912CA12CB12CCA01B901A501D8
:1015500094010E946210605DF70162937F01211582
:1015600031054105510589F7CF010E94B909080FDE
:10157000191F1EC0A701960119A28E010F5D1F4FF2
:101580008AE0C82ED12CE12CF12CCA01B901A701A7
:1015900096010E946210605DF80162938F0121152F
:1015A00031054105510589F7CF010E94B9098C0128
:1015B00083EC92E00E94B909800F911FA1960FB6AB
:1015C000F894DEBF0FBECDBFDF91CF911F910F9179
:1015D000FF90EF90DF90CF90BF90AF909F908F9053
:1015E0000895CF93DF93CDB7DEB7C057D1090FB6BB
:1015F000F894DEBF0FBECDBF789484B5826084BD01
:1016000084B5816084BD85B5826085BD85B5816006
:1016100085BD80916E00816080936E001092810084
:10162000809181008260809381008091810081603F
:101630008093810080918000816080938000809100
:10164000B10084608093B1008091B000816080938C
:10165000B000809191008260809391008091910010
:1016600081608093910080919000816080939000D0
:101670008091A10082608093A1008091A10081608F
:101680008093A1008091A00081608093A000809150
:1016900021018260809321018091210181608093EA
:1016A00021018091200181608093200180917A0046
:1016B000846080937A0080917A00826080937A00BF
:1016C00080917A00816080937A0080917A008068AE
:1016D00080937A001092C1000E94910961E080918C
:1016E00043070E94E60860E0809143070E94B60825
:1016F00060E0809142070E94E60887E893E09093BB
:101700004D0780934C071092E9021092E802109264
:101710006403109286031092620381E08093610358
:1017200010923C0361E084E10E94B60861E085E12B
:101730000E94B6088091B9008E7F8093B900809195
:10174000B9008D7F8093B90088E48093B80085E468
:101750008093BC0080E090E1A0E0B0E080934F0770
:1017600090935007A0935107B09352078AE090E0FE
:10177000A0E0B0E08093530790935407A0935507DF
:10178000B093560780E090E0A0E0B0E48093570764
:1017900090935807A0935907B0935A0760E070E1FF
:1017A00085E00E94280A6FE979E380E00E94280A18
:1017B0000FE517E0812C912CA12CB12C4EE5242EA5
:1017C00042E0342E5BEC652E57E0752E6BE8462E1A
:1017D0005524539495012E5B384F6901D901149615
:1017E0009C91149712968C91F401EE5BF84F7F0157
:1017F000818F928F61E00E94E60861E0D7015A96DE
:101800008C910E94E608F60190858681D8018C9320
:10181000F701968F61E00E94E60860E0D7015E96CE
:101820008C910E94E60861E0F80180810E94B60870
:10183000FFB6F8948091E702811126C0E8E1F2E05A
:101840009491F1018491E92FF0E0EE0FFF1FE15533
:10185000FE4FA591B4919C91892321F461E085E329
:101860000E94B60861E085E30E94E6088CB58061BD
:101870008CBD8CB580648CBD61E084E30E94E60879
:1018800061E083E30E94E6088091E7028F5F809326
:10189000E702FFBEC3010197F1F760E0D8018C9128
:1018A0000E94B60888E80E94E90283E00E94E902EB
:1018B00061E0F80180810E94B608C3010197F1F749
:1018C00060E0D8018C910E94B60888E90E94E90284
:1018D00080E00E94E90280E00E94E90280E00E942C
:1018E000E90280E00E94E90261E0F80180810E9443
:1018F000B608C2010197F1F760E0D8018C910E940F
:10190000B60880EE0E94E90261E0F80180810E9441
:10191000B608F2E08F0E911C0E5F1F4FAA94AB2801
:1019200021F0AA24A394B12C55CF07E617E094E048
:10193000F92EF00E60E0D8018D918D010E94E6082D
:10194000F012F8CFE6E7EE2EE7E0FE2E03E717E011
:10195000F5E0AF2EACE0CA2EB2E09B2E82E0B82EAE
:10196000B00EF8013897D080F80180818C3008F0F3
:1019700046C061E08D2D0E94E608D8018C91A89E9A
:10198000F0011124E45CF94F9D2D9F732081207C90
:10199000D22ED92AD082138214826C2D0E949310E9
:1019A000BCE08B9FA001112420E030E0B901640F5E
:1019B000751FA69EF001A79EF00D1124E45CF94F5F
:1019C000908196FD12C02F5F3F4F2C30310571F78B
:1019D00081110BC0109280009092810010928500BE
:1019E0001092840096BA90926F00D801EC91AE9E4E
:1019F000F0011124E45CF94F808180648083F80158
:101A00003297908132978081F70131978083F70177
:101A1000908360E00E94E60861E0D7018C910E940B
:101A2000E60860E0F70180810E94B6080F5F1F4F53
:101A3000F2E0EF0EF11CB01294CFF8941092200156
:101A400089E08093210180E293E0909329018093C3
:101A50002801109225011092240182E080937300E6
:101A6000789480936A0510926E0580916B0560E012
:101A70000E94E60861E08DE00E94E6080E9491095C
:101A800043E0C42ED12C50E3352E60E2262E74E0C4
:101A9000E72EF12C8BEA92E00E94B90983EC92E0E8
:101AA0000E94B9090E942110B6010E949F10EBE02C
:101AB000F2E0DE011196232D01900D922A95E1F7B7
:101AC000EBE3F2E0DE01AF5ABF4F222D01900D9201
:101AD0002A95E1F7EBE5F2E0DE01D196222D0190A7
:101AE0000D922A95E1F70097B1F40E94211066E06B
:101AF00070E00E949F108C010E946F0AF80133E091
:101B0000EE0FFF1F3A95E1F721E030E02C0F3D1F6B
:101B1000E20FF31F13C00197D1F40E942110B70107
:101B20000E949F10FC0123E0EE0FFF1F2A95E1F7B2
:101B300081E590E08C0F9D1FE80FF91F8081918156
:101B400062807380048115814680578019C00E948D
:101B50002110B7010E949F10FC0193E0EE0FFF1FC0
:101B60009A95E1F7A1E0B0E0AC0FBD1FEA0FFB1FB3
:101B700080A991A962A873A804A915A946A857A885
:101B80000E946F0AC3010E946F0AC8010E946F0A77
:101B9000C2010E946F0A0E9422094B015C0188E881
:101BA000482E83E1582E612C712C0E942209DC0101
:101BB000CB0188199909AA09BB09883E9340A10560
:101BC000B10558F0B1E04B1A510861087108E8EE10
:101BD0008E0EE3E09E1EA11CB11C41145104610451
:101BE000710419F70E94BC0255CF8091790690913B
:101BF0007A060C94641110928A031092890388EE7D
:101C000093E0A0E0B0E080938B0390938C03A093CB
:101C10008D03B0938E032FE732E030938803209337
:101C200087031092960310929503809397039093E5
:101C30009803A0939903B0939A0321E932E030937B
:101C400094032093930345E351E05093A003409302
:101C50009F0344E351E05093A2034093A10340E368
:101C600051E05093A4034093A30341E351E0509308
:101C7000A6034093A50342E351E05093A803409389
:101C8000A70346E351E05093AA034093A90310929F
:101C9000AC031092AD031092AE031092AF031092FA
:101CA0003304109232048093340490933504A0934B
:101CB0003604B0933704309331042093300445ED5B
:101CC00050E050933D0440933C0444ED50E0509369
:101CD0003F0440933E0440ED50E050934104409354
:101CE000400441ED50E0509343044093420442EDE0
:101CF00050E0509345044093440446ED50E0509327
:101D00004704409346041092490410924A041092EA
:101D10004B0410924C041092D0041092CF04809384
:101D2000D1049093D204A093D304B093D4043093FD
:101D3000CE042093CD0485EC90E09093DA04809358
:101D4000D90484EC90E09093DC048093DB0480EC75
:101D500090E09093DE048093DD0481EC90E090931A
:101D6000E0048093DF0482EC90E09093E20480939F
:101D7000E10486EC90E09093E4048093E3041092F5
:101D8000E6041092E7041092E8041092E90486E356
:101D90008093630787E38093640788E380936507F4
:101DA00089E3809366078BE1809367078DE18093D9
:101DB00068078AE1809369078CE180936A0784E071
:101DC00080936B0787E080936C0710926D0784EB1C
:101DD00080936E0786E180936F0788E18093700798
:101DE00087E18093710789E180937207E09178061B
:101DF000EC3020F08FEF8093730710C081E08E0FDE
:101E000080937806E093730725E0E29FF0011124A8
:101E1000E45CF94F88EB9BE092838183E091780644
:101E2000EC3020F08FEF8093740710C081E08E0FAC
:101E300080937806E093740785E0E89FF001112411
:101E4000E45CF94F88EB9BE0928381838CE0809384
:101E5000420784E28093430786E08093440785E04D
:101E6000809345078FE1809346078EE18093470773
:101E700083E28093480782E28093490785E4809358
:101E80004A0784E480934B0780E480934E071092C6
:101E9000530710925407109255071092560710924C
:101EA0005707109258071092590710925A07E4E802
:101EB000F6E08FEF9FEFDC0112821382148215820D
:101EC000168217821086118683879487A587B68726
:101ED0008787908BA18BB28B1286118210827396AA
:101EE00027E0E234F20741F78DE090E00E94CF1046
:101EF000FC011382128283EA92E09183808311862F
:101F000087E2848384E1828784E083871486F09368
:101F10008106E0938006109282061092830685E285
:101F200080936B0510926D0510927A0610927906D7
:101F300010927C0610927B0610927E0610927D060F
:101F400061E070E080E090E00E94FC11009789F071
:101F500090937A068093790610927C0610927B0605
:101F600020917D0630917E06232BC1F4FC01108266
:101F700015C08091790690917A06009711F00E9421
:101F8000641110927A061092790610927E061092D1
:101F90007D0610927C0610927B06089510927E06B4
:101FA00010927D0665EC72E00C94F3128F929F9272
:101FB000AF92BF92CF92DF92EF92FF92CF93DF93D7
:101FC000EC01688179818A819B81611571058105A8
:101FD000910521F464E279ED8BE597E02DE133EF93
:101FE00041E050E00E94301049015A019B01AC01D0
:101FF000A7EAB1E40E944F106B017C01ACEEB4EF94
:10200000A50194010E945D10DC01CB018C0D9D1D8A
:10201000AE1DBF1DB7FF03C00197A109B04888835B
:102020009983AA83BB839F77DF91CF91FF90EF9035
:10203000DF90CF90BF90AF909F908F9008950C94B9
:10204000D60F81E092E00C94D60FA0E0B0E0809330
:10205000010290930202A0930302B0930402089538
:10206000052E97FB1EF400940E94471057FD07D0E1
:102070000E94621007FC03D04EF40C944710509558
:102080004095309521953F4F4F4F5F4F0895909564
:102090008095709561957F4F8F4F9F4F08950E9457
:1020A0008410A59F900DB49F900DA49F800D911D4D
:1020B00011240895B7FF0C944F100E944F10821BFB
:1020C000930B0895A1E21A2EAA1BBB1BFD010DC0A4
:1020D000AA1FBB1FEE1FFF1FA217B307E407F507D8
:1020E00020F0A21BB30BE40BF50B661F771F881FB4
:1020F000991F1A9469F760957095809590959B014A
:10210000AC01BD01CF010895A29FB001B39FC001F2
:10211000A39F700D811D1124911DB29F700D811D13
:102120001124911D0895991B79E004C0991F9617F9
:1021300008F0961B881F7A95C9F78095089597FB3C
:10214000072E16F4009407D077FD09D00E94BB102B
:1021500007FC05D03EF4909581959F4F08957095AA
:1021600061957F4F0895EE0FFF1F881F8BBF07906B
:10217000F691E02D1994AA1BBB1B51E107C0AA1FC1
:10218000BB1FA617B70710F0A61BB70B881F991F18
:102190005A95A9F780959095BC01CD010895CF93EC
:1021A000DF938230910510F482E090E0E0917B07AC
:1021B000F0917C0720E030E0C0E0D0E0309711F1F2
:1021C0004081518148175907C0F04817590761F4F9
:1021D00082819381209719F09B838A832BC09093EF
:1021E0007C0780937B0726C02115310519F0421723
:1021F000530718F49A01BE01DF01EF010280F38159
:10220000E02DDCCF2115310509F1281B390B2430D5
:10221000310590F412968D919C911397611571057B
:1022200021F0FB019383828304C090937C07809309
:102230007B07FD01329644C0FD01E20FF31F81933D
:102240009193225031092D933C933AC02091790704
:1022500030917A07232B41F4209107023091080234
:1022600030937A0720937907209105023091060276
:102270002115310541F42DB73EB740910902509127
:102280000A02241B350BE0917907F0917A07E217D7
:10229000F307A0F42E1B3F0B2817390778F0AC0189
:1022A0004E5F5F4F2417350748F04E0F5F1F509366
:1022B0007A07409379078193919302C0E0E0F0E0C0
:1022C000CF01DF91CF9108950F931F93CF93DF93A9
:1022D000009709F48CC0FC0132971382128200919E
:1022E0007B0710917C070115110581F42081318154
:1022F000820F931F2091790730917A0728173907A9
:1023000079F5F0937A07E093790771C0D80140E03E
:1023100050E0AE17BF0750F412962D913C911397E1
:10232000AD012115310509F1D901F3CF9D01DA0184
:102330003383228360817181860F971F82179307F1
:1023400069F4EC0128813981260F371F2E5F3F4F3A
:10235000318320838A819B8193838283452B29F457
:10236000F0937C07E0937B0742C01396FC93EE93B7
:102370001297ED01499159919E01240F351FE217E3
:10238000F30771F480819181840F951F0296119655
:102390009C938E938281938113969C938E93129734
:1023A000E0E0F0E0D80112968D919C911397009790
:1023B00019F0F8018C01F6CF8D919C9198012E5F58
:1023C0003F4F820F931F2091790730917A0728178A
:1023D000390769F4309729F410927C0710927B0733
:1023E00002C01382128210937A0700937907DF915B
:1023F000CF911F910F9108956F927F928F929F922C
:10240000AF92BF92CF92DF92EF92FF920F931F9302
:10241000CF93DF93EC01009789F4CB01DF91CF914B
:102420001F910F91FF90EF90DF90CF90BF90AF90F2
:102430009F908F907F906F900C94CF10FC01E60FCF
:10244000F71F9C0122503109E217F30708F4ACC0D2
:10245000D9010D911C91119706171707B0F005309F
:10246000110508F49FC0C80104978617970708F460
:1024700099C002501109061B170B019311936D931C
:102480007C93CF010E9464118DC05B01A01AB10A38
:102490004C01800E911EA0917B07B0917C0740E01B
:1024A00050E0E12CF12C109709F44AC0A815B905A9
:1024B000D1F56D907C901197630182E0C80ED11C1C
:1024C000CA14DB0480F1A3014A195B096A0182E0A6
:1024D000C80ED11C1296BC9012971396AC91B5E021
:1024E000CB16D10440F0B282A38351834083D9013B
:1024F0006D937C930AC00E5F1F4FC301800F911F25
:10250000F90191838083EB2DFA2FE114F10431F06E
:10251000D7011396FC93EE93129744C0F0937C0777
:10252000E0937B073FC08D919C9111974817590705
:1025300008F4AC017D0112960D90BC91A02DB3CF93
:102540008091790790917A0788159905E1F44617EB
:102550005707C8F48091050290910602009741F454
:102560008DB79EB74091090250910A02841B950BCA
:10257000E817F907C8F4F0937A07E0937907F901AF
:10258000718360830FC0CB010E94CF107C01009744
:1025900059F0A801BE010E94EA12CE010E94641106
:1025A000C70104C0CE0102C080E090E0DF91CF916E
:1025B0001F910F91FF90EF90DF90CF90BF90AF9061
:1025C0009F908F907F906F90089581E090E0F894B5
:1025D0000C94FA12FB01DC0102C001900D924150F3
:1025E0005040D8F70895FB01DC0101900D920020C6
:1025F000E1F7089511E0CCE5D1E000E006C0802FBE
:10260000FE010E94B3102196011DCD35D10780E057
:082610000807A9F7F894FFCFB9
:10261800FF0100000000007D07200001000100000C
:102628000000000100010000000200030001000496
:102638000000000300010004000200010001000482
:102648000000000300010000000200010001000278
:102658000000000300010002000200030002000461
:10266800000100010000000000010000000100035B
:102678000001000000010004000100040001000046
:10268800000100030001000100010000000000F546
:1026980006C506F1029F06BD06AE06A006000000AC
:1026A8000050029001D40197020502E301F70100EE
:1026B8000000001E039001F102F002466F6E637481
:1026C800696F6E206C616E636572506172746965C2
:0626D800203A000D0A008B
:00000001FF
