:100000000C9491010C94C2010C94C2010C94C20195
:100010000C94C2010C94C2010C94C2010C94C20154
:100020000C94C2010C94AF0A0C94AF0A0C94AF0A62
:100030000C94C2010C9438080C94C2010C94C201B7
:100040000C94C2010C9445040C94C2010C94C2019E
:100050000C94C2010C94C2010C94C2010C94060DC4
:100060000C94C2010C94A9090C947F090C94C20150
:100070000C94C2010C94C2010C94C2010C94C201F4
:100080000C94C2010C94C2010C94C2010C94C201E4
:100090000C94C2010C94C2010C94C2010C94B90AD4
:1000A0000C94C2010C94C2010C94C2010C94C201C4
:1000B0000C94C2010C94C2010C94C2010C94450230
:1000C0000C94C2010C94C2010C94C2010C94550909
:1000D0000C942B090C94C2010C9401090C94D708C0
:1000E0000C94C2018C0391039603A003AA0323047A
:1000F000B403BC03C403CE03D803E203F103FB0340
:10010000230405040F041904060C090CF80BFC0B5E
:10011000020C400C0D0C110C170C1B0C1F0C250CA9
:10012000290C2D0C400C330C370C3B0C0C941F0C81
:100130000C945B0A0C94BE0E0C948C030C94230A52
:100140000C94F1030C94D8030C941B0C0C94E20354
:100150000C943B0C0C94CD070C9496030C94F40176
:100160000C94F5010C9414080C94060A0C94330CAE
:100170000C942D0C0C940F040C9423040C9419046F
:100180000C94140A0C94FC0B0C94060C0C94FB03BA
:100190000C94110C0C94CE030C940D0C0C9482074F
:1001A0000C94BB110C9420020C940D070C94050ABE
:1001B0000C94090C0C9491030C94370C0C942B0A9E
:1001C0000C94290C0C94B4030C94F80B0C94510768
:1001D0000C94AA030C94170C0C94250C0C94740723
:1001E0000C9405040C94A0030C94020C0C94C4030E
:1001F0000C94BC030C94400C0C946007000020008D
:100200002300260029002C002F00320000010000EE
:100210000301060109010200002100240027002A31
:10022000002D003000330001010000040107010A25
:100230000100002200250028002B002E0031003490
:100240000002010000050108010B01050505050775
:100250000508080808020202020A0A080804040441
:10026000040101010101010101030303030303036D
:1002700003040707070C0C0C0C0C0C0C0C020202FC
:100280000206060606060606060B0B0B0B0B0B0BEF
:100290000B0102102020080810204010204080028E
:1002A00001020108040201010204081020408080BC
:1002B0004020100804020180040201804020100840
:1002C0000402010804020101020408102040800118
:1002D0000204081020408000000A0B02090C0D0ED9
:1002E00008070304010000000000000000000000F7
:1002F00000000000000000000000000000000000FE
:1003000000000012111000000000000000000000BA
:100310000000000000000000000000000000BB1111
:10032000BE0E11241FBECFEFD1E2DEBFCDBF00E075
:100330000CBF13E0A0E0B2E0E0E2FFE200E00BBFA0
:1003400002C007900D92A835B107D9F728E0A8E5BB
:10035000B3E001C01D92A131B207E1F711E0C0E99D
:10036000D1E000E006C021970109802FFE010E9424
:10037000FC14CF38D10780E00807A9F70E94C40E0B
:100380000C947E170C940000E0E0F0E0199480E0FB
:1003900090E0892B21F00E94A207811119C080E012
:1003A00090E0892B41F080E090E0892B21F00E94C1
:1003B0000000811110C00E94980781110FC080E0D9
:1003C00090E0892B81F00E948E0781110AC0089568
:1003D0000E940000E4CF0E940000EDCF0E94C40103
:1003E000EECF0C9400000895089580E090E0089509
:1003F000FC01248131E03093F7032093190410921B
:10040000F80310921A048485682B8BE194E00E9413
:100410005B0A0C94980D0F931F93CF938C01C62FFA
:1004200064600E94F8016C2F6B7FC8010E94F80184
:1004300083EC90E00197F1F7CF911F910F91089510
:100440000F931F93CF93DF938C01C62FD62FD07FAE
:10045000D1606D2F0E94F8016D2FC8010E940B0220
:1004600080E1C89FB0011124C62FC1606C2FC80164
:100470000E94F8016C2FC8010E940B0281E090E0FD
:10048000DF91CF911F910F9108951F920F920FB698
:100490000F9211240BB60F922F933F934F935F93BC
:1004A0006F937F938F939F93AF93BF93CF93DF937C
:1004B000EF93FF932091FF0530E0F901E952FD4FE2
:1004C0008491F901EF56FD4FD491F901E55BFD4FA1
:1004D000C491CC23A1F081110E94EB0BEC2FF0E032
:1004E000EE0FFF1FE450FE4FA591B491EC91ED2368
:1004F00031E020E009F430E0832F922F02C080E049
:1005000090E020910306309104062F5F3F4F309317
:1005100004062093030620910206253618F026E0F3
:100520002093FE052091FE052430D9F128F42230D5
:1005300069F02330D9F060C0253009F453C026306B
:1005400009F05AC021E02093CF0653C0009709F06C
:1005500053C020910306309104062436310508F477
:1005600043C01092CF06109202061DC08130910543
:1005700009F042C0E091020621E02E0F209302060E
:10058000F0E02091030630910406EE0FFF1FE250C9
:10059000FA4F30872783109204061092030624E056
:1005A00029C00097B9F4E091020621E02E0F2093B4
:1005B0000206F0E02091030630910406EE0FFF1FC3
:1005C000E250FA4F308727831092040610920306F8
:1005D00023E010C020910306309104062536310532
:1005E00058F007C0009741F41092040610920306D9
:1005F00003C025E02093FE05209101062223B9F0D7
:10060000892B51F480910006882321F08091000607
:1006100061E009C02F9A0BC080910006882331F059
:100620008091000660E00E94410C01C02F98FF916C
:10063000EF91DF91CF91BF91AF919F918F917F917A
:100640006F915F914F913F912F910F900BBE0F9043
:100650000FBE0F901F9018958F929F92AF92BF92EE
:10066000CF92DF92EF92FF920F931F93CF93DF937E
:10067000EC016A017B0120E030E04FE753E4C70161
:10068000B6010E94FC134B015C0120E030E0A9019F
:100690000E944E1518161CF4C501B40103C0C50113
:1006A000B40190580E9418158B0120E030E0A90198
:1006B000C701B6010E944E15181614F460E001C07F
:1006C00061E089810E94410C0F3F110509F014F48B
:1006D000112702C00FEF10E0C88161E08C2F0E944B
:1006E000710C0115110509F4B1C00F3F110509F492
:1006F000AFC0EC2FF0E0E952FD4FE4914E2F50E0F7
:10070000FA013197E231F10508F09DC08827EE58D3
:10071000FF4F8F4F0C94FC1484B5806884BD07BDD7
:10072000A7C084B5806284BD08BDA2C0809180004E
:10073000806880938000109389000093880098C09F
:100740008091800080628093800010938B000093E2
:100750008A008EC080918000886080938000109312
:100760008D0000938C0084C08091B00080688093DD
:10077000B0000093B3007CC08091B0008062809391
:10078000B0000093B40074C08091900080688093A2
:10079000900010939900009398006AC08091900097
:1007A00080628093900010939B0000939A0060C039
:1007B0008091900088608093900010939D0000933A
:1007C0009C0056C08091A00080688093A00080911A
:1007D000A0008F7B8093A0001093A9000093A80035
:1007E00047C08091A00080628093A0001093AB006E
:1007F0000093AA003DC08091A00088608093A00073
:100800001093AD000093AC0033C08091200180684C
:1008100080932001109329010093280129C0809121
:10082000200180628093200110932B0100932A0104
:100830001FC08091200188608093200110932D01BA
:1008400000932C0115C00038110514F460E001C0BC
:1008500061E08C2FDF91CF911F910F91FF90EF906E
:10086000DF90CF90BF90AF909F908F900C94410CF1
:10087000DF91CF911F910F91FF90EF90DF90CF907C
:10088000BF90AF909F908F9008951F920F920FB6D8
:100890000F9211240BB60F922F933F934F935F93B8
:1008A0006F937F938F939F93AF93BF93EF93FF9338
:1008B0008091730387FF05C0109285001092840019
:1008C00016C020917303022E000C330B80910C078D
:1008D00090E0281739075CF43091730325E0320368
:1008E000F0011124E053F94F808186FD15C08091FD
:1008F00073038F5F8093730320917303022E000CA8
:10090000330B80910C0790E02817390794F48091FD
:1009100073038C302CF10DC0309173033203F0015E
:100920001124E053F94F808160E08F730E94410CE5
:10093000DECF809184009091850084349C4918F426
:1009400080E49CE905C08091840090918500049624
:1009500090938900809388008FEF809373032AC05F
:1009600040918400509185003091730325E032035B
:10097000F0011124E053F94F81819281840F951F7A
:100980009093890080938800309173033203F001C3
:100990001124E053F94F808186FF0CC0309173031E
:1009A0003203F0011124E053F94F808161E08F732D
:1009B0000E94410CFF91EF91BF91AF919F918F9158
:1009C0007F916F915F914F913F912F910F900BBE4F
:1009D0000F900FBE0F901F9018958EBD00000DB4A4
:1009E00007FEFDCF8EB50895CF93DF93EC0187E32B
:1009F00092E00E948A0D4AE959E969E17EE38FEEAF
:100A000097E00E942C034DEC5CEC6CEC7DE381EFF5
:100A100097E00E942C0384E00E94AD0C893592403F
:100A20003CF062E370E080E090E00E94CC0CF3CFF9
:100A300084E00E94AD0C883592403CF462E370E0A3
:100A400080E090E00E94CC0CF3CF40E050E0BA018F
:100A50008FEE97E00E942C0340E050E060E070E8E9
:100A600081EF97E00E942C0328813981C90101960A
:100A700064E070E00E94E81499838883DF91CF914D
:100A800008950F931F93CF93DF93EC018B0180E5C3
:100A900092E00E948A0DF801808191818130910558
:100AA00021F488819981019605C0039751F48881CA
:100AB0009981019799838883DF91CF911F910F913D
:100AC000089581E090E00E947E170F931F93CF93CB
:100AD000DF938DE692E00E948A0D84E00E94AD0CC7
:100AE00088359240FCF440E050E0BA018FEE97E088
:100AF0000E942C034DEC5CEC6CE47EEB81EF97E004
:100B00000E942C0384E00E94AD0C883592403CF496
:100B100062E370E080E090E00E94CC0CF3CFC0E094
:100B2000D0E002C0C1E0D0E084E00E94AD0C883586
:100B300092401CF001E010E022C08091710390917E
:100B400072030197B9F740E050E0BA018FEE97E0E9
:100B50000E942C034DEC5CEC6CE47EEB81EF97E0A3
:100B60000E942C0384E00E94AD0C8835924014F75B
:100B700062E370E080E090E00E94CC0CF3CF83E071
:100B80000E94AD0CBC01990F880B990B0E949D131C
:100B900020E030E040EC5FE30E94FC1320E030E016
:100BA00048EC53E40E94961387FF49C04DEC5CEC7F
:100BB0006CE47EE38FEE97E00E942C0340E050E06F
:100BC00060E070E881EF97E00E942C0310937203BD
:100BD00000937103C130D10529F584E00E94AD0C6A
:100BE000893592403CF062E370E080E090E00E9442
:100BF000CC0CF3CF83E00E94AD0CBC01990F880BA5
:100C0000990B0E949D1320E030E040EC5FE30E94CE
:100C1000FC1320E030E048EC53E40E944E15181617
:100C20006CF50DC084E00E94AD0C8835924014F73D
:100C300062E370E080E090E00E94CC0CF3CF64E6C9
:100C400070E080E090E00E94CC0C40E050E0BA01FF
:100C50008FEE97E00E942C0340E050E060E070E8E7
:100C600081EF97E00E942C0368EE73E080E090E053
:100C7000DF91CF911F910F910C94CC0C40E050E08C
:100C8000BA018FEE97E00E942C034DEC5CEC6CE413
:100C90007EEB81EF97E00E942C031092720310927A
:100CA0007103C130D10571F484E00E94AD0C883528
:100CB00092400CF064CF62E370E080E090E00E942C
:100CC000CC0CF2CF84E00E94AD0C893592400CF43C
:100CD00056CF62E370E080E090E00E94CC0CF2CF4F
:100CE000AF92BF92CF92DF92EF92FF920F931F933A
:100CF000CF93DF935C016B01EA01790186E892E012
:100D00000E948A0D0E94650582EA92E00E948A0D87
:100D1000F80180819181009721F488819981019661
:100D200005C0029751F5888199810197998388833D
:100D30008FEB92E00E94780DC5010E943C0E88EC7A
:100D400092E00E94780D888199810E943C0E84ED8A
:100D500092E00E94780DC6010E943C0E8DED92E05B
:100D60000E94780DF701808191810E943C0E88815C
:100D700099818A159B0531F604C081E090E00E94BC
:100D80007E17F701808191818C159D0594F4F801FF
:100D9000808191810197C9F0C8010E94F40489EE15
:100DA00092E00E94780DF801808191810E943C0EB2
:100DB000EECFC816D9064CF4F801808191810397D3
:100DC00021F0C8010E94F404F7CF0E946505B80124
:100DD000C7010E94410588EC92E00E94780D88814D
:100DE00099810E943C0E8DED92E00E94780DF701F2
:100DF000808191810E943C0EF701808191818C1548
:100E00009D0519F7DF91CF911F910F91FF90EF9002
:100E1000DF90CF90BF90AF900895CF92DF92EF9286
:100E2000FF920F931F93CF93DF936C017A018B0195
:100E3000C0E0D0E0CE15DF0589F0D8016D918D01BD
:100E4000D601ED91FC910190F081E02DC60119953C
:100E5000892B11F47E0102C02196ECCFC701DF91EE
:100E6000CF911F910F91FF90EF90DF90CF90089559
:100E7000FC01A089B1898C91A689B78982FD0FC038
:100E80009C91818D8F5F8F73228D821749F0218D08
:100E9000DF01A20FB11D5D969C93818F08958C9107
:100EA0000895FC01538D448D252F30E0842F90E070
:100EB000821B930B541710F0CF9608950197089555
:100EC000FC01918D828D981761F0828DDF01A80F52
:100ED000B11D5D968C91928D9F5F9F73928F90E074
:100EE00008958FEF9FEF0895FC01918D828D9817E3
:100EF00031F0828DE80FF11D858D90E008958FEF20
:100F00009FEF0895FC01918D228D892F90E0805CE8
:100F10009F4F821B91098F739927089587E294E070
:100F20000E94820721E0892B09F420E0822F089596
:100F300084EC94E00E94820721E0892B09F420E0F0
:100F4000822F089581E695E00E94820721E0892B97
:100F500009F420E0822F0895FC01848DDF01A80FA1
:100F6000B11DA35ABF4F2C91848D90E001968F73D1
:100F70009927848FA689B7892C93A089B1898C91F0
:100F800080648C93938D848D981306C00288F389B6
:100F9000E02D80818F7D80830895EF92FF920F93E3
:100FA0001F93CF93DF93EC0181E0888F9B8D8C8D15
:100FB000981305C0E889F989808185FD24C0F62E43
:100FC0000B8D10E00F5F1F4F0F731127E02E8C8DDC
:100FD000E8120CC00FB607FCFACFE889F9898081C6
:100FE00085FFF5CFCE010E94AC07F1CF8B8DFE01BE
:100FF000E80FF11DE35AFF4FF0820B8FEA89FB895E
:101000008081806207C0EE89FF896083E889F98961
:1010100080818064808381E090E0DF91CF911F9197
:101020000F91FF90EF900895CF93DF93EC01888D9F
:101030008823C9F0EA89FB89808185FD05C0A889DC
:10104000B9898C9186FD0FC00FB607FCF5CF808162
:1010500085FFF2CFA889B9898C9185FFEDCFCE01AC
:101060000E94AC07E7CFDF91CF9108950E946917E6
:101070001F920F920FB60F9211240BB60F922F935F
:101080003F934F935F936F937F938F939F93AF9310
:10109000BF93EF93FF938091770390917803A09192
:1010A0007903B0917A03892B8A2B8B2B59F180918C
:1010B0007603E0917403F091750390818927808312
:1010C0008091770390917803A0917903B0917A038E
:1010D000181619061A061B060CF056C080917703E5
:1010E00090917803A0917903B0917A030197A109B7
:1010F000B1098093770390937803A0937903B09319
:101100007A0342C080910002E6E1F2E0E4919FEFB1
:1011100090930002E230C9F050F4EE2399F0E130F0
:1011200081F590916F009D7F90936F002AC0E4300D
:1011300019F1E0F0E53029F5909173009D7F9093CF
:1011400073001FC010926E001CC0909170009D7FB4
:101150009093700091E09093B0009091B100987FCF
:1011600094609093B1001092B3000BC09091710005
:101170009D7F9093710005C0909172009D7F909328
:10118000720060E00E94410CFF91EF91BF91AF911E
:101190009F918F917F916F915F914F913F912F918F
:1011A0000F900BBE0F900FBE0F901F9018951F92BF
:1011B0000F920FB60F9211240BB60F922F933F93FD
:1011C0004F935F936F937F938F939F93AF93BF934F
:1011D000EF93FF9387E294E00E94AC07FF91EF91B9
:1011E000BF91AF919F918F917F916F915F914F913F
:1011F0003F912F910F900BBE0F900FBE0F901F903D
:1012000018951F920F920FB60F9211240BB60F92E2
:101210002F933F934F935F936F937F938F939F93FE
:10122000AF93BF93EF93FF9387E294E00E94380758
:10123000FF91EF91BF91AF919F918F917F916F91AE
:101240005F914F913F912F910F900BBE0F900FBE6A
:101250000F901F9018951F920F920FB60F921124A6
:101260000BB60F922F933F934F935F936F937F93A0
:101270008F939F93AF93BF93EF93FF9384EC94E08E
:101280000E94AC07FF91EF91BF91AF919F918F9119
:101290007F916F915F914F913F912F910F900BBE76
:1012A0000F900FBE0F901F9018951F920F920FB6C0
:1012B0000F9211240BB60F922F933F934F935F938E
:1012C0006F937F938F939F93AF93BF93EF93FF930E
:1012D00084EC94E00E943807FF91EF91BF91AF91A9
:1012E0009F918F917F916F915F914F913F912F913E
:1012F0000F900BBE0F900FBE0F901F9018951F926E
:101300000F920FB60F9211240BB60F922F933F93AB
:101310004F935F936F937F938F939F93AF93BF93FD
:10132000EF93FF9381E695E00E94AC07FF91EF9168
:10133000BF91AF919F918F917F916F915F914F91ED
:101340003F912F910F900BBE0F900FBE0F901F90EB
:1013500018951F920F920FB60F9211240BB60F9291
:101360002F933F934F935F936F937F938F939F93AD
:10137000AF93BF93EF93FF9381E695E00E94380708
:10138000FF91EF91BF91AF919F918F917F916F915D
:101390005F914F913F912F910F900BBE0F900FBE19
:1013A0000F901F90189585ED8093BC008091BC0034
:1013B00084FDFCCF1092F60308954091A903262FD7
:1013C00030E0240F311D21323105DCF42091F60389
:1013D0002430C9F4FC0180E090E0861758F4309185
:1013E000A9032191DC01A957BC4FA30FB11D2C9378
:1013F0000196F3CF8091A903680F6093A90380E061
:10140000089581E0089582E00895089581E090E0D4
:1014100030917D0320917C03321710F480E090E03E
:10142000919581959109089580917D0390917C0318
:10143000891730F48F5F80937D0380E090E00895FA
:101440008FEF9FEF089580917C0390E020917D03C2
:10145000821B91090895CF92DF92EF92FF920F9332
:101460001F93CF93DF937C01262F972F8A018091C2
:10147000F703882391F0C62FD72F6E01C40ED51E17
:10148000CC15DD0571F06991D701ED91FC910190CA
:10149000F081E02DC7011995F3CF642F822F0E94B0
:1014A000DD09C801DF91CF911F910F91FF90EF905F
:1014B000DF90CF900895CF93DF931F92CDB7DEB723
:1014C00069832091F7032223D1F020911A0420325E
:1014D00040F021E030E0FC013383228380E090E0A3
:1014E00015C08091F803E82FF0E0E750FC4F998198
:1014F00090838F5F8093F80380931A0405C061E0A6
:10150000CE0101960E94DD0981E090E00F90DF910D
:10151000CF9108953FB7F89480918303909184030D
:10152000A0918503B091860326B5A89B05C02F3FE7
:1015300019F00196A11DB11D3FBFBA2FA92F982FF9
:101540008827820F911DA11DB11DBC01CD0142E074
:10155000660F771F881F991F4A95D1F708951F922C
:101560000F920FB60F9211240F900FBE0F901F9085
:1015700018951F920F920FB60F9211240BB60F926F
:101580002F933F934F935F936F937F938F939F938B
:10159000AF93BF93EF93FF938091B900887F80361C
:1015A00009F49CC068F5883209F45BC090F480317E
:1015B00009F454C038F4882309F4F6C0883009F4DB
:1015C0004DC0F6C0883109F44CC0803209F45DC0CA
:1015D000EFC0803409F468C048F4803309F455C082
:1015E000883309F0E5C08093F403D8C0803509F44E
:1015F0004FC0883509F45DC0883409F0D9C0D6C021
:10160000883909F4C7C0A8F4883709F467C038F4EA
:10161000883609F463C0803709F460C0C9C08838CF
:1016200009F4B8C0803909F45FC0803809F0C0C03F
:101630005BC0803B09F486C038F4803A09F466C088
:10164000883A09F47FC0B4C0803C09F4A7C0883C44
:1016500009F4A4C0883B09F48AC0AAC08091D103D0
:1016600010C09091F3038091F203981770F5E09108
:10167000F30381E08E0F8093F303F0E0EE52FC4F12
:1016800080818093BB0085EC86C08093F4038EC07C
:10169000E091F30381E08E0F8093F3038091BB0010
:1016A000F0E0EE52FC4F80839091F3038091F203BF
:1016B0006EC0E091F30381E08E0F8093F30380917D
:1016C000BB00F0E0EE52FC4F80838091F503811166
:1016D0006DC081E08093D00384EA61C083E0809391
:1016E000F6031092CD03CFCF8091CD03803208F066
:1016F00051C0E091CD0381E08E0F8093CD038091A6
:10170000BB00F0E0E355FC4F8083BDCF85EC8093B8
:10171000BC001092F6038091CD03803230F4E0914A
:10172000CD03F0E0E355FC4F10826091CD0370E0F3
:10173000E091AB03F091AC038DEA93E01995109220
:10174000CD0336C084E08093F6031092AA03109272
:10175000A903E091A703F091A80319958091A9032B
:10176000811105C081E08093A90310928703E09165
:10177000AA0381E08E0F8093AA03F0E0E957FC4FA3
:1017800080818093BB009091AA038091A903981750
:1017900008F479CF85E88093BC000AC085EC80937B
:1017A000BC001092F60304C01092F4030E94D30907
:1017B000FF91EF91BF91AF919F918F917F916F9129
:1017C0005F914F913F912F910F900BBE0F900FBEE5
:1017D0000F901F90189590E0FC013197E231F105D0
:1017E00008F04EC08827EC57FF4F8F4F0C94FC1425
:1017F000809180008F7703C0809180008F7D8093DF
:101800008000089580918000877FF9CF84B58F771D
:1018100002C084B58F7D84BD08958091B0008F771C
:1018200003C08091B0008F7D8093B00008958091B7
:1018300090008F7707C0809190008F7D03C08091CA
:101840009000877F8093900008958091A0008F770B
:1018500007C08091A0008F7D03C08091A000877F8A
:101860008093A0000895809120018F7707C0809118
:1018700020018F7D03C080912001877F809320010C
:1018800008951F93CF93DF93282F30E0F901E95299
:10189000FD4F8491F901EF56FD4FD491F901E55BBD
:1018A000FD4FC491CC23C9F0162F81110E94EB0B80
:1018B000EC2FF0E0EE0FFF1FEF5CFD4FA591B49110
:1018C0008FB7F894111105C09C91ED2FE095E92395
:1018D00002C0EC91ED2BEC938FBFDF91CF911F9164
:1018E0000895CF93DF9390E0FC01EF56FD4F2491D4
:1018F000FC01E55BFD4F8491882361F190E0880F46
:10190000991FFC01E95EFD4FC591D491FC01EF5C8C
:10191000FD4FA591B491611109C09FB7F8948881DA
:10192000209582238883EC912E230BC0623061F4D2
:101930009FB7F8943881822F809583238883EC9118
:101940002E2B2C939FBF06C08FB7F894E8812E2BC7
:1019500028838FBFDF91CF910895863308F0865397
:1019600090917B00282F2870977F922B90937B007B
:101970008770806480937C0080917A00806480937B
:101980007A0080917A0086FDFCCF809178002091CA
:10199000790090E0922B08958F929F92AF92BF9220
:1019A000CF92DF92EF92FF926B017C010E948A0A34
:1019B0004B015C01C114D104E104F104F1F00E9477
:1019C0008A0ADC01CB0188199909AA09BB09883E5A
:1019D0009340A105B10570F321E0C21AD108E108D6
:1019E000F10888EE880E83E0981EA11CB11CC1147A
:1019F000D104E104F10419F7DDCFFF90EF90DF90FF
:101A0000CF90BF90AF909F908F9008951F920F92AC
:101A10000FB60F9211242F933F938F939F93AF9301
:101A2000BF9380917F0390918003A0918103B09137
:101A3000820330917E0323E0230F2D3720F401969B
:101A4000A11DB11D05C026E8230F0296A11DB11DE1
:101A500020937E0380937F0390938003A093810360
:101A6000B09382038091830390918403A0918503B6
:101A7000B09186030196A11DB11D809383039093BD
:101A80008403A0938503B0938603BF91AF919F9188
:101A90008F913F912F910F900FBE0F901F9018952F
:101AA000E1E6F5E0A089B18982E08C93A485B58553
:101AB0001C92A685B7858FEC8C93108EA489B5896E
:101AC00086E08C93A289B3898C9180618C93A289E2
:101AD000B3898C9188608C93A289B3898C9180683A
:101AE0008C930288F389E02D80818F7D8083089517
:101AF000009769F0FC0101900020E9F73197AF01F0
:101B0000481B590BBC0181E695E00C940D0780E061
:101B100090E00895CF93DF930E94780DEC0184E567
:101B200093E00E94780D8C0F9D1FDF91CF91089557
:101B300020911A0490911904213208F04AC0809132
:101B4000F6038111FCCF32E03093F60331E030939D
:101B5000F5033FEF3093F4031092F3032093F20365
:101B6000A9EFB3E042ED53E0FA013E2F341B3217E8
:101B700018F43D913193F9CF1092D1032091D10304
:101B8000990F922B9093D1039091D003913061F4EF
:101B90001092D0039091D1039093BB009091BC0020
:101BA00093FDF8CF95EC01C095EE9093BC00909119
:101BB000F6039230E1F39091F4039F3F79F0809126
:101BC000F403803241F08091F403803331F084E0FB
:101BD00005C081E003C082E001C083E01092F803F9
:101BE00010921A041092F7030895EF92FF921F9338
:101BF000CF93DF931F92CDB7DEB7162F96EDE92E68
:101C000097E0F92ED7011C969C911C9721E0209318
:101C1000F703909319041092F80310921A041A967D
:101C20000D90BC91A02DED91FC9111970190F08148
:101C3000E02D682FCD0179831995F7018285938571
:101C4000DC01ED91FC910190F081E02D7981672F0D
:101C50001995F70182859385DC01ED91FC91019046
:101C6000F081E02D612F19950F90DF91CF911F9199
:101C7000FF90EF900C94980D8F929F92AF92BF922D
:101C8000CF92DF92EF92FF920F931F93CF93DF9348
:101C9000CDB7DEB7A1970FB6F894DEBF0FBECDBFAC
:101CA0006C01990FEE08FF08F7FE31C0E091610565
:101CB000F09162050190F081E02D6DE281E695E002
:101CC00019958C0122273327A9012C193D094E09AA
:101CD0005F0919A2CE0181967C019AE0892E912C90
:101CE000A12CB12CCA01B901A50194010E94BA141A
:101CF000605DF70162937F012115310541055105B2
:101D000089F7CF010E94780D080F191F1EC0A70187
:101D1000960119A28E010F5D1F4F8AE0C82ED12CAB
:101D2000E12CF12CCA01B901A70196010E94BA1455
:101D3000605DF80162938F01211531054105510560
:101D400089F7CF010E94780D8C0184E593E00E9411
:101D5000780D800F911FA1960FB6F894DEBF0FBECD
:101D6000CDBFDF91CF911F910F91FF90EF90DF904A
:101D7000CF90BF90AF909F908F90089580910D0766
:101D800090910E070C94E815CF93DF9300D000D00C
:101D9000CDB7DEB7789484B5826084BD84B58160A8
:101DA00084BD85B5826085BD85B5816085BD809126
:101DB0006E00816080936E0010928100809181009E
:101DC0008260809381008091810081608093810096
:101DD000809180008160809380008091B100846058
:101DE0008093B1008091B00081608093B0008091B9
:101DF0009100826080939100809191008160809336
:101E00009100809190008160809390008091A1006A
:101E100082608093A1008091A10081608093A100E5
:101E20008091A00081608093A00080912101826058
:101E30008093210180912101816080932101809113
:101E4000200181608093200180917A0084608093DA
:101E50007A0080917A00826080937A0080917A0083
:101E6000816080937A0080917A00806880937A0004
:101E70001092C1000E94500D61E08091D7070E942E
:101E8000710C60E08091D7070E94410C60E0809166
:101E9000D6070E94710C8BE194E09093E107809348
:101EA000E00710927D0310927C031092F8031092C9
:101EB0001A041092F60381E08093F5031092D00388
:101EC00061E084E10E94410C61E085E10E94410CE7
:101ED0008091B9008E7F8093B9008091B9008D7F89
:101EE0008093B90088E48093B80085E48093BC00B7
:101EF00080E090E1A0E0B0E08093E3079093E407F6
:101F0000A093E507B093E6078AE090E0A0E0B0E098
:101F10008093E7079093E807A093E907B093EA0757
:101F200080E090E0A0E0B0E48093EB079093EC07B2
:101F3000A093ED07B093EE0760E070E185E00E94AA
:101F4000F50D6FE979E380E00E94F50D03EF17E0EE
:101F5000A12CB12CC12CD12C80E8282E82E0382E67
:101F60009BEC892E97E0992E2BE8622E77247394B0
:101F700096012A52384F2901D90114969C91149741
:101F800012968C91F501EA52F84F7F01818F928F62
:101F900061E00E94710C61E0D7015A968C910E9419
:101FA000710CF20190858681D8018C93F701968F90
:101FB00061E00E94710C60E0D7015E968C910E94F6
:101FC000710C61E0F80180810E94410CFFB6F89429
:101FD00080917B03811126C0F1018491E6ECF2E04F
:101FE0009491E82FF0E0EE0FFF1FE95EFD4FA59101
:101FF000B4918C91982321F461E085E30E94410C17
:1020000061E085E30E94710C8CB580618CBD8CB55C
:1020100080648CBD61E084E30E94710C61E083E325
:102020000E94710C80917B038F5F80937B03FFBEC6
:10203000C4010197F1F760E0D8018C910E94410C36
:1020400088E80E94ED0483E00E94ED0461E0F8015D
:1020500080810E94410CC4010197F1F760E0D80132
:102060008C910E94410C88E90E94ED0480E00E945E
:10207000ED0480E00E94ED0480E00E94ED0480E029
:102080000E94ED0461E0F80180810E94410CC301CF
:102090000197F1F760E0D8018C910E94410C80EE2D
:1020A0000E94ED0461E0F80180810E94410CF2E0A1
:1020B000AF0EB11C0E5F1F4FCA94CD2821F0CC2467
:1020C000C394D12C55CF0BEF17E074E0F72EF00E30
:1020D00060E0D8018D918D010E94710CF012F8CF53
:1020E0002AE0E22E28E0F22E07E018E035E0A32EE9
:1020F0004CE0C42E52E0952E62E0B62EB00EF801F0
:102100003897D080F80180818C3008F046C061E0BB
:102110008D2D0E94710CD8018C91A89EF001112484
:10212000E053F94F9D2D9F732081207CD22ED92A18
:10213000D082138214826C2D0E94DC14BCE08B9F31
:10214000A001112420E030E0B901640F751FA69EA4
:10215000F001A79EF00D1124E053F94F908196FDF8
:1021600012C02F5F3F4F2C30310571F781110BC02A
:10217000109280009092810010928500109284004D
:1021800096BA90926F00D801EC91AE9EF0011124A6
:10219000E053F94F808180648083F8013297908109
:1021A00032978081F70131978083F701908360E057
:1021B0000E94710C61E0D7018C910E94710C60E06B
:1021C000F70180810E94410C0F5F1F4FF2E0EF0E7C
:1021D000F11CB01294CFF8941092200189E0809302
:1021E000210180E293E090932901809328011092CD
:1021F00025011092240182E08093730078948093EB
:10220000FE05109202068091FF0560E00E94710CAD
:1022100061E08DE00E94710C0E94500DEE24EA9462
:10222000FE2CCC24C394D12C87EF92E00E948A0D1F
:10223000FE82ED82DC82CB821A8219828FE093E0EB
:102240000E948A0D4DEC5CEC6CE47EE38FEE97E02F
:102250000E942C034DEC5CEC6CE47EEB81EF97E08C
:102260000E942C0381E00E94AD0C892B39F062E3BF
:1022700070E080E090E00E94CC0CF4CF8E010F5F04
:102280001F4F9E012D5F3F4FAE014B5F5F4F61E0DF
:1022900070E083E090E00E947006C8010E94F404A0
:1022A00089E293E00E948A0D9E012D5F3F4FAE01AF
:1022B0004B5F5F4F62E070E080E090E00E9470064C
:1022C00089E293E00E948A0D89819A81039729F01F
:1022D000CE0101960E94F404F7CF8B819C81892B5B
:1022E00051F00E946505BE016F5F7F4FCE010396DE
:1022F0000E944105F2CF8BE393E00E948A0D4DECE2
:102300005CEC6CEC7DEB8FEE97E00E942C034AE9CD
:1023100059E969E17EEB81EF97E00E942C0384E0AC
:102320000E94AD0C893592403CF062E370E080E0A1
:1023300090E00E94CC0CF3CF84E00E94AD0C883575
:1023400092403CF462E370E080E090E00E94CC0CAC
:10235000F3CF40E050E0BA018FEE97E00E942C03EB
:1023600040E050E060E070E881EF97E00E942C03CD
:102370000E94C70159CF10921E0410921D0488EECE
:1023800093E0A0E0B0E080931F0490932004A0931A
:102390002104B09322042BE032E030931C042093FC
:1023A0001B0410922A041092290480932B0490930A
:1023B0002C04A0932D04B0932E042DE132E0309331
:1023C00028042093270445E351E0509334044093BC
:1023D000330444E351E0509336044093350440E322
:1023E00051E0509338044093370441E351E0509357
:1023F0003A044093390442E351E050933C04409343
:102400003B0446E351E050933E0440933D04109258
:10241000400410924104109242041092430410921E
:10242000C7041092C6048093C8049093C904A09373
:10243000CA04B093CB043093C5042093C40445ED83
:1024400050E05093D1044093D00444ED50E05093B9
:10245000D3044093D20440ED50E05093D504409310
:10246000D40441ED50E05093D7044093D60442ED9C
:1024700050E05093D9044093D80446ED50E0509377
:10248000DB044093DA041092DD041092DE04109213
:10249000DF041092E00410926405109263058093AB
:1024A000650590936605A0936705B0936805309322
:1024B00062052093610585EC90E090936E05809312
:1024C0006D0584EC90E09093700580936F0580EC2F
:1024D00090E0909372058093710581EC90E0909369
:1024E00074058093730582EC90E090937605809359
:1024F000750586EC90E090937805809377051092AF
:102500007A0510927B0510927C0510927D0586E37A
:102510008093F70787E38093F80788E38093F907B0
:1025200089E38093FA078BE18093FB078DE1809329
:10253000FC078AE18093FD078CE18093FE0784E02D
:102540008093FF0787E0809300081092010884EBD6
:102550008093020886E18093030888E18093040851
:1025600087E18093050889E180930608E0910C07D4
:10257000EC3020F08FEF8093070810C081E08E0FC1
:1025800080930C07E093070825E0E29FF0011124F7
:10259000E053F94F88EB9BE092838183E0910C0735
:1025A000EC3020F08FEF8093080810C081E08E0F90
:1025B00080930C07E093080885E0E89FF001112460
:1025C000E053F94F88EB9BE0928381838CE080930A
:1025D000D60784E28093D70786E08093D80785E00A
:1025E0008093D9078FE18093DA078EE18093DB0730
:1025F00083E28093DC0782E28093DD0785E48093A9
:10260000DE0784E48093DF0780E48093E207109282
:10261000E7071092E8071092E9071092EA07109274
:10262000EB071092EC071092ED071092EE07E8E12D
:10263000F7E08FEF9FEFDC01128213821482158284
:10264000168217821086118683879487A587B6879E
:102650008787908BA18BB28B128611821082739622
:1026600027E0E63DF20741F78DE090E00E94531528
:10267000FC01138212828FE292E0918380831186A3
:1026800087E2848384E1828784E083871486F093E1
:102690001507E0931407109216071092170785E2AA
:1026A0008093FF051092010610920E0710920D07FD
:1026B0001092100710920F07109212071092110734
:1026C00061E070E080E090E00E948016009789F061
:1026D00090930E0780930D071092100710920F072A
:1026E0002091110730911207232BC1F4FC011082B5
:1026F00015C080910D0790910E07009711F00E9470
:10270000E81510920E0710920D0710921207109202
:1027100011071092100710920F07089510921207D8
:102720001092110766E573E00C9477170E94D81396
:1027300008F481E00895E89409C097FB3EF4909571
:102740008095709561957F4F8F4F9F4F9923A9F08A
:10275000F92F96E9BB279395F69587957795679519
:10276000B795F111F8CFFAF4BB0F11F460FF1BC05D
:102770006F5F7F4F8F4F9F4F16C0882311F096E9F0
:1027800011C0772321F09EE8872F762F05C066239E
:1027900071F096E8862F70E060E02AF09A95660F57
:1027A000771F881FDAF7880F9695879597F9089510
:1027B000990F0008550FAA0BE0E8FEEF1616170652
:1027C000E807F907C0F012161306E407F50798F0BA
:1027D000621B730B840B950B39F40A2661F0232BD3
:1027E000242B252B21F408950A2609F4A140A6954F
:1027F0008FEF811D811D08950E940F140C94801489
:102800000E94721438F00E94791420F0952311F080
:102810000C9469140C946F1411240C94B4140E9439
:10282000911470F3959FC1F3950F50E0551F629F6F
:10283000F001729FBB27F00DB11D639FAA27F00D19
:10284000B11DAA1F649F6627B00DA11D661F829F40
:102850002227B00DA11D621F739FB00DA11D621F25
:10286000839FA00D611D221F749F3327A00D611D42
:10287000231F849F600D211D822F762F6A2F112424
:102880009F5750409AF0F1F088234AF0EE0FFF1F57
:10289000BB1F661F771F881F91505040A9F79E3FAE
:1028A000510580F00C9469140C94B4145F3FE4F368
:1028B000983ED4F3869577956795B795F795E79504
:1028C0009F5FC1F7FE2B880F911D9695879597F90D
:1028D000089597F99F6780E870E060E008959FEFA2
:1028E00080EC089500240A941616170618060906A7
:1028F000089500240A941216130614060506089576
:10290000092E0394000C11F4882352F0BB0F40F4FD
:10291000BF2B11F460FF04C06F5F7F4F8F4F9F4F3D
:10292000089557FD9058440F551F59F05F3F71F0BF
:102930004795880F97FB991F61F09F3F79F0879526
:102940000895121613061406551FF2CF4695F1DFAF
:1029500008C0161617061806991FF1CF869571053F
:10296000610508940895E894BB2766277727CB0173
:1029700097F90895A1E21A2EAA1BBB1BFD010DC0F9
:10298000AA1FBB1FEE1FFF1FA217B307E407F5071F
:1029900020F0A21BB30BE40BF50B661F771F881FFB
:1029A000991F1A9469F760957095809590959B0191
:1029B000AC01BD01CF010895991B79E004C0991FB6
:1029C000961708F0961B881F7A95C9F78095089589
:1029D00097FB072E16F4009407D077FD09D00E94CC
:1029E000041507FC05D03EF4909581959F4F0895FE
:1029F000709561957F4F0895EE0FFF1F881F8BBF65
:102A00000790F691E02D1994AA1BBB1B51E107C05A
:102A1000AA1FBB1FA617B70710F0A61BB70B881F6E
:102A2000991F5A95A9F780959095BC01CD010895FD
:102A30000E941F156894B1110C94B41408950E945B
:102A4000991488F09F5798F0B92F9927B751B0F093
:102A5000E1F0660F771F881F991F1AF0BA95C9F722
:102A600014C0B13091F00E94B314B1E008950C94F9
:102A7000B314672F782F8827B85F39F0B93FCCF3AC
:102A8000869577956795B395D9F73EF4909580959F
:102A9000709561957F4F8F4F9F4F08950E94D81377
:102AA00008F48FEF0895CF93DF938230910510F4EF
:102AB00082E090E0E0910F08F091100820E030E013
:102AC000C0E0D0E0309711F140815181481759079B
:102AD000C0F04817590761F482819381209719F05B
:102AE0009B838A832BC09093100880930F0826C085
:102AF0002115310519F04217530718F49A01BE0148
:102B0000DF01EF010280F381E02DDCCF21153105DB
:102B100009F1281B390B2430310590F412968D9160
:102B20009C9113976115710521F0FB0193838283BA
:102B300004C09093100880930F08FD01329644C0A2
:102B4000FD01E20FF31F81939193225031092D93E0
:102B50003C933AC020910D0830910E08232B41F48C
:102B6000209103023091040230930E0820930D0847
:102B700020910102309102022115310541F42DB757
:102B80003EB74091050250910602241B350BE0919F
:102B90000D08F0910E08E217F307A0F42E1B3F0B6F
:102BA0002817390778F0AC014E5F5F4F24173507BF
:102BB00048F04E0F5F1F50930E0840930D0881930D
:102BC000919302C0E0E0F0E0CF01DF91CF91089552
:102BD0000F931F93CF93DF93009709F48CC0FC01F0
:102BE00032971382128200910F081091100801157C
:102BF000110581F420813181820F931F20910D08EE
:102C000030910E082817390779F5F0930E08E093F4
:102C10000D0871C0D80140E050E0AE17BF0750F476
:102C200012962D913C911397AD012115310509F1B3
:102C3000D901F3CF9D01DA01338322836081718151
:102C4000860F971F8217930769F4EC012881398159
:102C5000260F371F2E5F3F4F318320838A819B8150
:102C600093838283452B29F4F0931008E0930F0897
:102C700042C01396FC93EE931297ED01499159913E
:102C80009E01240F351FE217F30771F480819181B3
:102C9000840F951F029611969C938E938281938147
:102CA00013969C938E931297E0E0F0E0D801129671
:102CB0008D919C911397009719F0F8018C01F6CF34
:102CC0008D919C9198012E5F3F4F820F931F209111
:102CD0000D0830910E082817390769F4309729F448
:102CE0001092100810920F0802C0138212821093E3
:102CF0000E0800930D08DF91CF911F910F91089559
:102D00006F927F928F929F92AF92BF92CF92DF92FB
:102D1000EF92FF920F931F93CF93DF93EC010097F5
:102D200089F4CB01DF91CF911F910F91FF90EF902C
:102D3000DF90CF90BF90AF909F908F907F906F90DB
:102D40000C945315FC01E60FF71F9C01225031092A
:102D5000E217F30708F4ACC0D9010D911C9111974B
:102D600006171707B0F00530110508F49FC0C80119
:102D700004978617970708F499C002501109061B9B
:102D8000170B019311936D937C93CF010E94E8156B
:102D90008DC05B01A01AB10A4C01800E911EA0915A
:102DA0000F08B091100840E050E0E12CF12C109792
:102DB00009F44AC0A815B905D1F56D907C9011971A
:102DC000630182E0C80ED11CCA14DB0480F1A301A8
:102DD0004A195B096A0182E0C80ED11C1296BC90A8
:102DE00012971396AC91B5E0CB16D10440F0B282A5
:102DF000A38351834083D9016D937C930AC00E5FF6
:102E00001F4FC301800F911FF90191838083EB2D28
:102E1000FA2FE114F10431F0D7011396FC93EE93ED
:102E2000129744C0F0931008E0930F083FC08D91B3
:102E30009C9111974817590708F4AC017D0112962F
:102E40000D90BC91A02DB3CF80910D0890910E08EC
:102E500088159905E1F446175707C8F480910102D7
:102E600090910202009741F48DB79EB74091050200
:102E700050910602841B950BE817F907C8F4F093EC
:102E80000E08E0930D08F901718360830FC0CB0138
:102E90000E9453157C01009759F0A801BE010E94C1
:102EA0006E17CE010E94E815C70104C0CE0102C012
:102EB00080E090E0DF91CF911F910F91FF90EF9014
:102EC000DF90CF90BF90AF909F908F907F906F904A
:102ED000089581E090E0F8940C947E17FB01DC01EA
:102EE00002C001900D9241505040D8F70895FB0167
:102EF000DC0101900D920020E1F7089511E0C0E996
:102F0000D1E000E006C0802FFE010E94FC14219653
:102F1000011DC139D10780E00807A9F7F894FFCF58
:102F2000FF000011082000000000005B0A2B0AF5DA
:102F300001050A230A140A060A00000000CD070D45
:102F4000075107140882076007740700000000207B
:102F5000020D07F501F401466F6E6374696F6E2010
:102F6000746F75726E657244726F697465203A0091
:102F7000466F6E6374696F6E2043616C63756C6538
:102F800072506F736974696F6E59203A00466F6EA4
:102F90006374696F6E207375697672655F6C615FCB
:102FA0006C69676E6500466F6E6374696F6E207042
:102FB0006F736974696F6E6E657242616C6C6520C7
:102FC0003A00466F6E6374696F6E2043616C63757F
:102FD0006C6572506F736974696F6E58203A004265
:102FE000616C6C6558203A00706F736974696F6E1C
:102FF00058203A0042616C6C6559203A00706F733A
:103000006974696F6E59203A006F7269656E7461F8
:1030100074696F6E203A00466F6E6374696F6E203C
:103020006C616E636572506172746965203A004626
:103030006F6E6374696F6E2072656A6F696E647219
:10304000654C69676E65203A00496E76616C69640B
:1030500020736572766F2069642100466F6E637419
:10306000696F6E20746F75726E6572476175636803
:0830700065203A000D0A000082
:00000001FF
