:100000000C94A3010C94D4010C94D4010C94D4014D
:100010000C94D4010C94D4010C94D4010C94D4010C
:100020000C94D4010C94540C0C94540C0C94540C5B
:100030000C94D4010C942D050C94D4010C94D4018F
:100040000C94D4010C94260A0C94D4010C94D40181
:100050000C94D4010C94D4010C94D4010C94F10FA1
:100060000C94D4010C9472070C9474060C94D40173
:100070000C94D4010C94D4010C94D4010C94D401AC
:100080000C94D4010C94D4010C94D4010C94D4019C
:100090000C94D4010C94D4010C94D4010C945E0CF7
:1000A0000C94D4010C94D4010C94D4010C94D4017C
:1000B0000C94D4010C94D4010C94D4010C94260813
:1000C0000C94D4010C94D4010C94D4010C944A06E1
:1000D0000C9420060C94D4010C94F6050C94CC05D9
:1000E0000C94D4016D097209770981098B09040AFE
:1000F00095099D09A509AF09B909C309D209DC0908
:10010000040AE609F009FA09AB0DAE0D9D0DA10D2B
:10011000A70DE50DB20DB60DBC0DC00DC40DCA0D79
:10012000CE0DD20DE50DD80DDC0DE00D0C949D0D1E
:100130000C9408070C94F0090C94DB010C94C40D8A
:100140000C94AD060C94AE0D0C949F040C94C30952
:100150000C9408020C94AF090C94A70D0C94D901CF
:100160000C946D090C94DC0D0C9477090C94630BC2
:100170000C940D050C94E2040C9434070C94B9090A
:100180000C94DC090C949D090C94040A0C94B60D93
:100190000C94E00D0C94B20D0C94AA0B0C94A10DD0
:1001A0000C94BD070C9495090C94F2130C94D2098D
:1001B0000C9405020C94550B0C94E6090C94720BEC
:1001C0000C94AB0D0C94CF060C9409070C94810988
:1001D0000C94D20D0C948B090C94C1060C94E50D73
:1001E0000C94CE0D0C94A5090C947A0B0C94CA0DAA
:1001F0000C94540B0C94BC0D0C94D6010C94C00DB3
:100200000C94D80D0C94EC130C94FA090C949E06E3
:100210000C9472090C945B040C9404080C94010275
:1002200002000020002300260029002C002F0032AD
:100230000000010000030106010901000021002463
:100240000027002A002D00300033000101000004C7
:100250000107010A0100002200250028002B002EC2
:10026000003100340002010000050108010B010506
:10027000050505070508080808020202020A0A081F
:100280000804040404010101010101010103030345
:100290000303030303040707070C0C0C0C0C0C0CE2
:1002A0000C0202020206060606060606060B0B0BE9
:1002B0000B0B0B0B0B010210202008081020401024
:1002C000204080020102010804020101020408101A
:1002D0002040808040201008040201800402018038
:1002E0004020100804020108040201010204081061
:1002F000204080010204081020408000000A0B0208
:10030000090C0D0E080703040100000000000000A6
:1003100000000000000000000000000000000000DD
:10032000000000000000001211100000000000009A
:1003300000000000000000000000000000000000BD
:100340000000F213EC1311241FBECFEFD1E2DEBF89
:10035000CDBF00E00CBF12E0A0E0B2E0E8EBF3E3B9
:1003600000E00BBF02C007900D92A23EB107D9F783
:1003700029E0A2EEB2E001C01D92AD32B207E1F772
:1003800011E0C2EAD1E000E006C021970109802F08
:10039000FE010E944117C13AD10780E00807A9F782
:1003A0000E943B100C94CA190C94000080E991E063
:1003B0000895249A0895CF93DF9300D000D0CDB74D
:1003C000DEB7AB011C821D821E82DC01ED91FC9127
:1003D0000190F081E02D19821A821B829E012F5F0D
:1003E0003F4FBE016C5F7F4F199526960FB6F8946C
:1003F000DEBF0FBECDBFDF91CF910895E0E0F0E00A
:100400001994FC0185859685089580E090E0089513
:100410004F925F926F927F928F92AF92BF92CF92E4
:10042000EF92FF920F931F93CF93DF933C01EB0169
:100430000E94CC0FF30127853089621B730B6A3051
:100440007105B0F3F894E881F98155B1506185B137
:100450008F7E85B96A859F81262F291B922F2F8336
:10046000BF844A805B807D85FC84EE847F5FF3944B
:10047000E3943E814885A984CB841181D20120E098
:10048000C32F022F322F3181112788943111390F58
:1004900008F43FEF9195889470FD130F1795889499
:1004A00071FD130F1795889472FD130F179588949B
:1004B00073FD130F1795889474FD130F1795889487
:1004C00075FD130F1795889476FD130F1795889473
:1004D00077FD130F17958894232F7111212F960FF5
:1004E000122F002C55B900C000C017FF85B930810C
:1004F0002227889400C0002C85B931113C0F00C020
:10050000002C55B900C000C016FF85B908F43FEFB4
:10051000C195889400C0002C85B9F0FC230F00C061
:10052000002C55B900C000C015FF85B927958894E7
:10053000F1FC230F00C0002C85B92795889400C0DA
:10054000002C55B900C000C014FF85B9F2FC230F80
:100550002795889400C0002C85B9F3FC230F00C0B8
:10056000002C55B900C000C013FF85B927958894A9
:10057000F4FC230F00C0002C85B92795889400C097
:10058000002C55B900C000C012FF85B9F5FC230F3F
:100590002795889400C0002C85B9F6FC230F00C075
:1005A000002C55B900C000C011FF85B9279588946B
:1005B000F7FC230F00C0002C85B92795889400C054
:1005C000002C55B900C000C010FF85B9132FF110E1
:1005D000122FCA0D00C0002C85B900C000C0002C2D
:1005E00055B900C000C017FF85B932812227889411
:1005F00000C0002C85B93111340F00C0002C55B952
:1006000000C000C016FF85B908F43FEFEB0DF11DE7
:1006100000C0002C85B9E0FC230F00C0002C55B9A8
:1006200000C000C015FF85B927958894E1FC230F11
:1006300000C0002C85B92795889400C0002C55B9BE
:1006400000C000C014FF85B9E2FC230F27958894F1
:1006500000C0002C85B9E3FC230F00C0002C55B965
:1006600000C000C013FF85B927958894E4FC230FD0
:1006700000C0002C85B92795889400C0002C55B97E
:1006800000C000C012FF85B9E5FC230F27958894B0
:1006900000C0002C85B9E6FC230F00C0002C55B922
:1006A00000C000C011FF85B927958894E7FC230F8F
:1006B00000C0002C85B92795889400C0002C55B93E
:1006C00000C000C010FF85B9132FE110122F419513
:1006D00000C0002C85B94C0D00C000C055B900C049
:1006E00000C017FF85B931812227889400C0002CF3
:1006F00085B93111390F00C0002C55B900C000C0B8
:1007000016FF85B908F43FEF9195889400C0002C3E
:1007100085B970FD230F00C0002C55B900C000C082
:1007200015FF85B92795889471FD230F00C0002C13
:1007300085B92795889400C0002C55B900C000C029
:1007400014FF85B972FD230F2795889400C0002CF3
:1007500085B973FD230F00C0002C55B900C000C03F
:1007600013FF85B92795889474FD230F00C0002CD2
:1007700085B92795889400C0002C55B900C000C0E9
:1007800012FF85B975FD230F2795889400C0002CB2
:1007900085B976FD230F00C0002C55B900C000C0FC
:1007A00011FF85B92795889477FD230F00C0002C91
:1007B00085B92795889400C0002C55B900C000C0A9
:1007C00010FF85B9132F7111122F960F00C0002C46
:1007D00085B9119709F086CE20EE31E0D2010E9452
:1007E0004917DC01CB01F4E0B695A795979587955D
:1007F000FA95D1F720E030E0A9016AE9469E040CA1
:10080000411D569E400D511D1124450D511D840F53
:10081000951FA11DB11D893E43E09407A105B105B7
:1008200008F434C0885E9340A109B10942E0B6954E
:10083000A795979587954A95D1F747E0849F080E2D
:10084000211D949F200D311D1124290F311D609110
:10085000FB0270E0860F971F820F931F40912009C3
:10086000509121096091220970912309292F332782
:10087000420F531F611D711D4093200950932109A0
:1008800060932209709323098093FB0278940E945D
:10089000CC0FF301708B6787DF91CF911F910F9180
:1008A000FF90EF90CF90BF90AF908F907F906F9020
:1008B0005F904F9008950F931F93CF93DF93CDB721
:1008C000DEB762970FB6F894DEBF0FBECDBF8C01C6
:1008D000F901DC011C968C917A8369835C834B83DC
:1008E0005E834D8390819D8791819E8792819F87B2
:1008F000813029F4CE0101960E94D50A06C01C86DB
:100900001B861A86198618861F8283E0888B1A8AAE
:10091000198AD801ED91FC910484F585E02DBE0182
:100920006F5F7F4FC801199562960FB6F894DEBFCE
:100930000FBECDBFDF91CF911F910F9108950F93FF
:100940001F93CF93DF93CDB7DEB762970FB6F894BE
:10095000DEBF0FBECDBF8C01F901DC011C968C916E
:100960007A8369835C834B835E834D8390819D870B
:1009700091819E8792819F87813029F4CE010196D3
:100980000E94D50A06C01C861B861A861986188600
:100990001F82188A1A8A198AD801ED91FC91048461
:1009A000F585E02DBE016F5F7F4FC80119956296F6
:1009B0000FB6F894DEBF0FBECDBFDF91CF911F9170
:1009C0000F910895CF92DF92EF92FF920F931F93B2
:1009D000CF93DF936C017A018B01C0E0D0E0CE159C
:1009E000DF0589F0D8016D918D01D601ED91FC9163
:1009F0000190F081E02DC6011995892B11F47E013B
:100A000002C02196ECCFC701DF91CF911F910F91CA
:100A1000FF90EF90DF90CF9008950E94B5198DE27E
:100A200095E00E94CF0621E0892B09F420E0822F77
:100A300008958AEC95E00E94CF0621E0892B09F405
:100A400020E0822F089587E696E00E94CF0621E0FD
:100A5000892B09F420E0822F08951F920F920FB680
:100A60000F9211240BB60F922F933F934F935F93E6
:100A70006F937F938F939F93AF93BF93EF93FF9366
:100A80008091FF0290910003A0910103B0910203B5
:100A9000892B8A2B8B2B59F18091FE02E091FC026D
:100AA000F091FD029081892780838091FF029091CF
:100AB0000003A0910103B0910203181619061A064B
:100AC0001B060CF056C08091FF0290910003A0918C
:100AD0000103B09102030197A109B1098093FF02BC
:100AE00090930003A0930103B093020342C080914E
:100AF0000002E0E2F2E0E4919FEF90930002E23026
:100B0000C9F050F4EE2399F0E13081F590916F0037
:100B10009D7F90936F002AC0E43019F1E0F0E5303A
:100B200029F5909173009D7F909373001FC01092E0
:100B30006E001CC0909170009D7F9093700091E0BA
:100B40009093B0009091B100987F94609093B10021
:100B50001092B3000BC0909171009D7F9093710033
:100B600005C0909172009D7F9093720060E00E949A
:100B7000E60DFF91EF91BF91AF919F918F917F9182
:100B80006F915F914F913F912F910F900BBE0F90FE
:100B90000FBE0F901F9018951F920F920FB60F92D5
:100BA00011240BB60F922F933F934F935F936F9344
:100BB0007F938F939F93AF93BF93EF93FF938DE2B8
:100BC00095E00E949C07FF91EF91BF91AF919F919B
:100BD0008F917F916F915F914F913F912F910F90E6
:100BE0000BBE0F900FBE0F901F9018951F920F9283
:100BF0000FB60F9211240BB60F922F933F934F9382
:100C00005F936F937F938F939F93AF93BF93EF9374
:100C1000FF938DE295E00E945907FF91EF91BF91FC
:100C2000AF919F918F917F916F915F914F913F9184
:100C30002F910F900BBE0F900FBE0F901F90189525
:100C40001F920F920FB60F9211240BB60F922F9393
:100C50003F934F935F936F937F938F939F93AF9344
:100C6000BF93EF93FF938AEC95E00E949C07FF915E
:100C7000EF91BF91AF919F918F917F916F915F9114
:100C80004F913F912F910F900BBE0F900FBE0F9081
:100C90001F9018951F920F920FB60F9211240BB64A
:100CA0000F922F933F934F935F936F937F938F9305
:100CB0009F93AF93BF93EF93FF938AEC95E00E94CD
:100CC0005907FF91EF91BF91AF919F918F917F91C4
:100CD0006F915F914F913F912F910F900BBE0F90AD
:100CE0000FBE0F901F9018951F920F920FB60F9284
:100CF00011240BB60F922F933F934F935F936F93F3
:100D00007F938F939F93AF93BF93EF93FF9387E668
:100D100096E00E949C07FF91EF91BF91AF919F9148
:100D20008F917F916F915F914F913F912F910F9094
:100D30000BBE0F900FBE0F901F901895FC01538DA6
:100D4000448D252F30E0842F90E0821B930B5417A5
:100D500010F0CF96089501970895FC01918D828D32
:100D6000981761F0828DDF01A80FB11D5D968C91FF
:100D7000928D9F5F9F73928F90E008958FEF9FEF0A
:100D80000895FC01918D828D981731F0828DE80FC6
:100D9000F11D858D90E008958FEF9FEF0895FC0180
:100DA000918D228D892F90E0805C9F4F821B91094D
:100DB0008F739927089580E090E0892B21F00E949D
:100DC0002305811119C080E090E0892B41F080E07B
:100DD00090E0892B21F00E940000811110C00E9438
:100DE000190581110FC080E090E0892B81F00E94ED
:100DF0000F0581110AC008950E940000E4CF0E94EF
:100E00000000EDCF0E94FE01EECF0C94000008958B
:100E1000089580E090E00895FC01248131E0309352
:100E2000FD0420931F051092FE0410922005848576
:100E3000682B81E295E00E94AA0B0C949A0E0F9306
:100E40001F93CF938C01C62F64600E940C076C2FF8
:100E50006B7FC8010E940C0783EC90E00197F1F7CB
:100E6000CF911F910F9108950F931F93CF93DF930D
:100E70008C01C62FD62FD07FD1606D2F0E940C071A
:100E80006D2FC8010E941F0780E1C89FB001112487
:100E9000C62FC1606C2FC8010E940C076C2FC801BF
:100EA0000E941F0781E090E0DF91CF911F910F9189
:100EB0000895FC01A089B1898C91A689B78982FD2A
:100EC0000FC09C91818D8F5F8F73228D821749F0A7
:100ED000218DDF01A20FB11D5D969C93818F089536
:100EE0008C9108951F920F920FB60F9211240BB69A
:100EF0000F922F933F934F935F936F937F938F93B3
:100F00009F93AF93BF93EF93FF9387E696E00E9482
:100F10005907FF91EF91BF91AF919F918F917F9171
:100F20006F915F914F913F912F910F900BBE0F905A
:100F30000FBE0F901F901895FC01848DDF01A80F44
:100F4000B11DA35ABF4F2C91848D90E001968F73F1
:100F50009927848FA689B7892C93A089B1898C9110
:100F600080648C93938D848D981306C00288F389D6
:100F7000E02D80818F7D80830895EF92FF920F9303
:100F80001F93CF93DF93EC0181E0888F9B8D8C8D35
:100F9000981305C0E889F989808185FD24C0F62E63
:100FA0000B8D10E00F5F1F4F0F731127E02E8C8DFC
:100FB000E8120CC00FB607FCFACFE889F9898081E6
:100FC00085FFF5CFCE010E949C07F1CF8B8DFE01EE
:100FD000E80FF11DE35AFF4FF0820B8FEA89FB897E
:100FE0008081806207C0EE89FF896083E889F98982
:100FF00080818064808381E090E0DF91CF911F91B8
:101000000F91FF90EF900895CF93DF93EC01888DBF
:101010008823C9F0EA89FB89808185FD05C0A889FC
:10102000B9898C9186FD0FC00FB607FCF5CF808182
:1010300085FFF2CFA889B9898C9185FFEDCFCE01CC
:101040000E949C07E7CFDF91CF9108951F920F92E6
:101050000FB60F9211240BB60F922F933F934F931D
:101060005F936F937F938F939F93AF93BF93CF9330
:10107000DF93EF93FF932091050730E0F901E550EE
:10108000FD4F8491F901EB54FD4FD491F901E159E1
:10109000FD4FC491CC23A1F081110E94900DEC2F43
:1010A000F0E0EE0FFF1FEF5DFD4FA591B491EC91C5
:1010B000ED2331E020E009F430E0832F922F02C0CD
:1010C00080E090E02091090730910A072F5F3F4FA1
:1010D00030930A072093090720910807253618F056
:1010E00026E020930407209104072430D9F128F446
:1010F000223069F02330D9F060C0253009F453C0A4
:10110000263009F05AC021E02093D50753C000973C
:1011100009F053C02091090730910A0724363105A0
:1011200008F443C01092D507109208071DC0813003
:10113000910509F042C0E091080721E02E0F2093AD
:101140000807F0E02091090730910A07EE0FFF1F12
:10115000EC5FF84F3087278310920A071092090737
:1011600024E029C00097B9F4E091080721E02E0F90
:1011700020930807F0E02091090730910A07EE0F4D
:10118000FF1FEC5FF84F3087278310920A071092F9
:10119000090723E010C02091090730910A0725367E
:1011A000310558F007C0009741F410920A071092D9
:1011B000090703C025E02093040720910707222395
:1011C000B9F0892B51F480910607882321F0809192
:1011D000060761E009C02F9A0BC08091060788239B
:1011E00031F08091060760E00E94E60D01C02F9863
:1011F000FF91EF91DF91CF91BF91AF919F918F912F
:101200007F916F915F914F913F912F910F900BBE06
:101210000F900FBE0F901F9018958F929F92AF92D4
:10122000BF92CF92DF92EF92FF920F931F93CF93D3
:10123000DF93EC016A017B0120E030E04FE753E4EB
:10124000C701B6010E9408164B015C0120E030E0A6
:10125000A9010E949A1718161CF4C501B40103C015
:10126000C501B40190580E9464178B0120E030E062
:10127000A901C701B6010E949A17181614F460E07C
:1012800001C061E089810E94E60D0F3F110509F060
:1012900014F4112702C00FEF10E0C88161E08C2F19
:1012A0000E94160E0115110509F4B1C00F3F11057A
:1012B00009F4AFC0EC2FF0E0E550FD4FE4914E2F64
:1012C00050E0FA013197E231F10508F09DC088271E
:1012D000EE58FF4F8F4F0C94411784B5806884BD42
:1012E00007BDA7C084B5806284BD08BDA2C080913F
:1012F00080008068809380001093890000938800AC
:1013000098C08091800080628093800010938B0051
:1013100000938A008EC08091800088608093800056
:1013200010938D0000938C0084C08091B000806881
:101330008093B0000093B3007CC08091B0008062C5
:101340008093B0000093B40074C0809190008068D6
:101350008093900010939900009398006AC0809148
:10136000900080628093900010939B0000939A00FD
:1013700060C08091900088608093900010939D00E1
:1013800000939C0056C08091A00080688093A000CC
:101390008091A0008F7B8093A0001093A900009300
:1013A000A80047C08091A00080628093A0001093A5
:1013B000AB000093AA003DC08091A000886080939C
:1013C000A0001093AD000093AC0033C080912001C9
:1013D000806880932001109329010093280129C07F
:1013E0008091200180628093200110932B01009353
:1013F0002A011FC0809120018860809320011093F2
:101400002D0100932C0115C00038110514F460E083
:1014100001C061E08C2FDF91CF911F910F91FF9060
:10142000EF90DF90CF90BF90AF909F908F900C94F3
:10143000E60DDF91CF911F910F91FF90EF90DF901C
:10144000CF90BF90AF909F908F9008951F920F9272
:101450000FB60F9211240BB60F922F933F934F9319
:101460005F936F937F938F939F93AF93BF93EF930C
:10147000FF9380918A0487FF05C010928500109227
:10148000840016C020918A04022E000C330B809138
:10149000120890E0281739075CF430918A0425E09F
:1014A0003203F0011124EA52F84F808186FD15C005
:1014B00080918A048F5F80938A0420918A04022E8F
:1014C000000C330B8091120890E02817390794F430
:1014D00080918A048C302CF10DC030918A04320343
:1014E000F0011124EA52F84F808160E08F730E946E
:1014F000E60DDECF809184009091850084349C4974
:1015000018F480E49CE905C08091840090918500E6
:10151000049690938900809388008FEF80938A04CB
:101520002AC0409184005091850030918A0425E0C2
:101530003203F0011124EA52F84F81819281840F25
:10154000951F909389008093880030918A0432031C
:10155000F0011124EA52F84F808186FF0CC03091CF
:101560008A043203F0011124EA52F84F808161E0CD
:101570008F730E94E60DFF91EF91BF91AF919F9104
:101580008F917F916F915F914F913F912F910F902C
:101590000BBE0F900FBE0F901F9018958EBD0000D0
:1015A0000DB407FEFDCF8EB50895EF92FF920F9315
:1015B0001F93CF93DF93EC01909189049F5F292FB4
:1015C00027702093890490FF02C090E801C090E04A
:1015D00021FD9064247009F0906220E1290FFE0142
:1015E0003C967E018FE0E80EF11C00E011E0619175
:1015F000662331F070E0C8010E942D176F5F01C0B3
:1016000060E0DF0114976C93322F369F030E30E0B9
:10161000311D1124CF010797311103C0EC0118824D
:1016200003C03150EC013883662311F061506C9394
:10163000EE15FF05E1F6DF91CF911F910F91FF901D
:10164000EF90089585ED8093BC008091BC0084FDEF
:10165000FCCF1092FC0408954091AF04262F30E097
:10166000240F311D21323105DCF42091FC0424309B
:10167000C9F4FC0180E090E0861758F43091AF0483
:101680002191DC01A357BB4FA30FB11D2C930196F1
:10169000F3CF8091AF04680F6093AF0480E00895AA
:1016A00081E0089582E00895089581E090E030910E
:1016B0008C0420918B04321710F480E090E0919517
:1016C00081959109089580918C0490918B048917DC
:1016D00030F48F5F80938C0480E090E008958FEF6A
:1016E0009FEF089580918B0490E020918C04821BE1
:1016F00091090895CF92DF92EF92FF920F931F937B
:10170000CF93DF937C01262F972F8A018091FD04D0
:10171000882391F0C62FD72F6E01C40ED51ECC158D
:10172000DD0571F06991D701ED91FC910190F08197
:10173000E02DC7011995F3CF642F822F0E942C0B47
:10174000C801DF91CF911F910F91FF90EF90DF9033
:10175000CF900895CF93DF931F92CDB7DEB7698303
:101760002091FD042223D1F020912005203240F069
:1017700021E030E0FC013383228380E090E015C05B
:101780008091FE04E82FF0E0E150FB4F99819083B7
:101790008F5F8093FE048093200505C061E0CE0139
:1017A00001960E942C0B81E090E00F90DF91CF9189
:1017B00008958F929F92AF92BF92CF92DF92EF9255
:1017C000FF920F931F93CF93DF93CDB7DEB7A1970F
:1017D0000FB6F894DEBF0FBECDBF6C01990FEE08B7
:1017E000FF08F7FE31C0E0916706F09168060190AE
:1017F000F081E02D6DE287E696E019958C012227B5
:101800003327A9012C193D094E095F0919A2CE0100
:1018100081967C019AE0892E912CA12CB12CCA01D1
:10182000B901A50194010E94F016605DF701629371
:101830007F01211531054105510589F7CF010E942E
:101840007A0E800F911F1DC0A701960119A28E016B
:101850000F5D1F4F8AE0C82ED12CE12CF12CCA015C
:10186000B901A70196010E94F016605DF80162932C
:101870008F01211531054105510589F7CF010E94DE
:101880007A0EA1960FB6F894DEBF0FBECDBFDF91E2
:10189000CF911F910F91FF90EF90DF90CF90BF906D
:1018A000AF909F908F9008951F920F920FB60F9256
:1018B00011240F900FBE0F901F9018951F920F923A
:1018C0000FB60F9211240BB60F922F933F934F93A5
:1018D0005F936F937F938F939F93AF93BF93EF9398
:1018E000FF938091B900887F803609F49CC068F529
:1018F000883209F45BC090F4803109F454C038F4A4
:10190000882309F4F6C0883009F44DC0F6C0883148
:1019100009F44CC0803209F45DC0EFC0803409F492
:1019200068C048F4803309F455C0883309F0E5C035
:101930008093FA04D8C0803509F44FC0883509F483
:101940005DC0883409F0D9C0D6C0883909F4C7C051
:10195000A8F4883709F467C038F4883609F463C0FE
:10196000803709F460C0C9C0883809F4B8C080392C
:1019700009F45FC0803809F0C0C05BC0803B09F447
:1019800086C038F4803A09F466C0883A09F47FC00A
:10199000B4C0803C09F4A7C0883C09F4A4C0883BCB
:1019A00009F48AC0AAC08091D70410C09091F904AC
:1019B0008091F804981770F5E091F90481E08E0F9A
:1019C0008093F904F0E0E852FB4F80818093BB00E4
:1019D00085EC86C08093FA048EC0E091F90481E022
:1019E0008E0F8093F9048091BB00F0E0E852FB4F2A
:1019F00080839091F9048091F8046EC0E091F9041D
:101A000081E08E0F8093F9048091BB00F0E0E852F2
:101A1000FB4F80838091FB0481116DC081E0809336
:101A2000D60484EA61C083E08093FC041092D3045E
:101A3000CFCF8091D304803208F051C0E091D3041D
:101A400081E08E0F8093D3048091BB00F0E0ED54D1
:101A5000FB4F8083BDCF85EC8093BC001092FC04CB
:101A60008091D304803230F4E091D304F0E0ED545F
:101A7000FB4F10826091D30470E0E091B104F091CB
:101A8000B20483EB94E019951092D30436C084E03D
:101A90008093FC041092B0041092AF04E091AD0466
:101AA000F091AE0419958091AF04811105C081E0D9
:101AB0008093AF0410928D04E091B00481E08E0F0A
:101AC0008093B004F0E0E357FB4F80818093BB002C
:101AD0009091B0048091AF04981708F479CF85E80D
:101AE0008093BC000AC085EC8093BC001092FC047B
:101AF00004C01092FA040E94220BFF91EF91BF9153
:101B0000AF919F918F917F916F915F914F913F9195
:101B10002F910F900BBE0F900FBE0F901F90189536
:101B200090E0FC013197E231F10508F04EC08827C2
:101B3000EC57FF4F8F4F0C944117809180008F77A7
:101B400003C0809180008F7D8093800008958091F4
:101B50008000877FF9CF84B58F7702C084B58F7DF1
:101B600084BD08958091B0008F7703C08091B0004C
:101B70008F7D8093B0000895809190008F7707C08B
:101B8000809190008F7D03C080919000877F80932B
:101B9000900008958091A0008F7707C08091A000E9
:101BA0008F7D03C08091A000877F8093A00008955F
:101BB000809120018F7707C0809120018F7D03C025
:101BC00080912001877F8093200108951F93CF93F8
:101BD000DF93282F30E0F901E550FD4F8491F901A2
:101BE000EB54FD4FD491F901E159FD4FC491CC2341
:101BF000C9F0162F81110E94900DEC2FF0E0EE0F2E
:101C0000FF1FEB5AFD4FA591B4918FB7F8941111B6
:101C100005C09C91ED2FE095E92302C0EC91ED2BDE
:101C2000EC938FBFDF91CF911F910895CF93DF93F6
:101C300090E0FC01EB54FD4F2491FC01E159FD4F74
:101C40008491882361F190E0880F991FFC01E55C85
:101C5000FD4FC591D491FC01EB5AFD4FA591B49174
:101C6000611109C09FB7F8948881209582238883E9
:101C7000EC912E230BC0623061F49FB7F894388149
:101C8000822F809583238883EC912E2B2C939FBFEA
:101C900006C08FB7F894E8812E2B28838FBFDF9181
:101CA000CF910895E7E6F6E0A089B18982E08C93B0
:101CB000A485B5851C92A685B7858FEC8C93108E74
:101CC000A489B58986E08C93A289B3898C918061BF
:101CD0008C93A289B3898C9188608C93A289B389F3
:101CE0008C9180688C930288F389E02D80818F7DB0
:101CF00080830895009769F0FC0101900020E9F7C6
:101D00003197AF01481B590BBC0187E696E00C9454
:101D1000E20480E090E00895CF93DF930E947A0E72
:101D2000EC0180EB92E00E947A0E8C0F9D1FDF91F8
:101D3000CF9108952091200590911F05213208F040
:101D40004AC08091FC048111FCCF32E03093FC0446
:101D500031E03093FB043FEF3093FA041092F90422
:101D60002093F804AFEFB4E048ED54E0FA013E2FC1
:101D7000341B321718F43D913193F9CF1092D704E8
:101D80002091D704990F922B9093D7049091D60469
:101D9000913061F41092D6049091D7049093BB00D7
:101DA0009091BC0093FDF8CF95EC01C095EE909317
:101DB000BC009091FC049230E1F39091FA049F3FB3
:101DC00079F08091FA04803241F08091FA048033F6
:101DD00031F084E005C081E003C082E001C083E00F
:101DE0001092FE04109220051092FD040895EF92C7
:101DF000FF921F93CF93DF931F92CDB7DEB7162FBD
:101E00009CEDE92E98E0F92ED7011C969C911C9729
:101E100021E02093FD0490931F051092FE04109280
:101E200020051A960D90BC91A02DED91FC91119773
:101E30000190F081E02D682FCD0179831995F7018C
:101E400082859385DC01ED91FC910190F081E02D7C
:101E50007981672F1995F70182859385DC01ED91D2
:101E6000FC910190F081E02D612F19950F90DF9189
:101E7000CF911F91FF90EF900C949A0ECF92DF922A
:101E8000EF92FF92CF93DF93823018F083EB92E0D2
:101E90000AC0909107099B3520F4909108099A3562
:101EA00050F485EC92E0DF91CF91FF90EF90DF90BE
:101EB000CF900C948C0EE82FF0E0E350F74FC089E0
:101EC000CC3008F043C085E0C89FE0011124CA521D
:101ED000D84F8B8128E830E06901C81AD10887FD06
:101EE000D394CC0CDD1CCC0CDD1C0D2C000CEE08AE
:101EF000FF088C8128E532E0281B310987FD3395E6
:101F0000220F331F220F331FC901330FAA0BBB0B44
:101F10009C01AD012C193D094E095F09AAE5B0E00D
:101F20000E94E51624EB30E040E050E00E94C61627
:101F3000C20ED31EE41EF51E86E0C81AD108CC0CD2
:101F4000DD1C8FB7F894DA82C9828FBFDF91CF9101
:101F5000FF90EF90DF90CF900895863308F086537E
:101F600090917B00282F2870977F922B90937B0075
:101F70008770806480937C0080917A008064809375
:101F80007A0080917A0086FDFCCF809178002091C4
:101F9000790090E0922B08953FB7F894809125093D
:101FA00090912609A0912709B091280926B5A89BF0
:101FB00005C02F3F19F00196A11DB11D3FBFBA2FDB
:101FC000A92F982F8827820F911DA11DB11DBC013B
:101FD000CD0142E0660F771F881F991F4A95D1F700
:101FE00008951F920F920FB60F9211242F933F93D3
:101FF0008F939F93AF93BF93809120099091210974
:10200000A0912209B09123093091240923E0230FE4
:102010002D3720F40196A11DB11D05C026E8230F20
:102020000296A11DB11D209324098093200990934D
:102030002109A0932209B093230980912509909149
:102040002609A0912709B09128090196A11DB11D6B
:102050008093250990932609A0932709B093280916
:10206000BF91AF919F918F913F912F910F900FBE94
:102070000F901F901895789484B5826084BD84B5C4
:10208000816084BD85B5826085BD85B5816085BD73
:1020900080916E00816080936E001092810080912B
:1020A00081008260809381008091810081608093B3
:1020B0008100809180008160809380008091B100D8
:1020C00084608093B1008091B00081608093B00003
:1020D0008091910082608093910080919100816055
:1020E0008093910080919000816080939000809116
:1020F000A10082608093A1008091A1008160809303
:10210000A1008091A00081608093A00080912101B6
:10211000826080932101809121018160809321015F
:102120008091200181608093200180917A008460F9
:1021300080937A0080917A00826080937A00809107
:102140007A00816080937A0080917A008068809321
:102150007A001092C1000E94520E61E08091DD0869
:102160000E94160E60E08091DD080E94E60D60E09E
:102170008091DC080E94160E81E295E09093E708BA
:102180008093E60810928C0410928B041092FE0447
:10219000109220051092FC0481E08093FB041092C1
:1021A000D60461E084E10E94E60D61E085E10E94D1
:1021B000E60D8091B9008E7F8093B9008091B900BF
:1021C0008D7F8093B90088E48093B80085E4809384
:1021D000BC0080E090E1A0E0B0E08093E90890933B
:1021E000EA08A093EB08B093EC088AE090E0A0E046
:1021F000B0E08093ED089093EE08A093EF08B093C1
:10220000F00880E090E0A0E0B0E48093F1089093C3
:10221000F208A093F308B093F40860E070E185E061
:102220000E94F70E6FE979E380E00E94F70EC9EF94
:10223000D8E0C12CD12CE12CF12C64EA262E62E0EE
:10224000362E7AEE472E72E0572EEBECAE2EE7E0FC
:10225000BE2EFBE88F2E99249394C7018452974F8A
:102260003C01FC019481828186010452174FF801E0
:10227000818F928F61E00E94160E61E0F801828DDD
:102280000E94160EF301908586818883F801968F4F
:1022900061E00E94160E60E0F801868D0E94160E25
:1022A00061E088810E94E60D1FB7F89480910303D6
:1022B000811125C0F1018491F2019491E82FF0E0A1
:1022C000EE0FFF1FE55CFD4FA591B4918C91982313
:1022D00021F461E085E30E94E60D61E085E30E9460
:1022E000160E8CB580618CBD8CB580648CBD61E0B0
:1022F00084E30E94160E61E083E30E94160E809133
:1023000003038F5F809303031FBFC5010197F1F79C
:1023100060E088810E94E60D88E80E94CE0A83E092
:102320000E94CE0A61E088810E94E60DC5010197F6
:10233000F1F760E088810E94E60D88E90E94CE0AEC
:1023400080E00E94CE0A80E00E94CE0A80E00E94D7
:10235000CE0A80E00E94CE0A61E088810E94E60DEC
:10236000C4010197F1F760E088810E94E60D80EEDC
:102370000E94CE0A61E088810E94E60DF2E0CF0E55
:10238000D11C2296EA94EF2821F0EE24E394F12C5C
:1023900064CFC1E0D9E01C2F1C5F60E089910E94EE
:1023A000160E1C13FACF00E119E0CDE0D9E095E05C
:1023B000C92E2CE0E22E32E0B32EDC2ED394D3943F
:1023C000FE013897F08088818C3008F044C061E0CD
:1023D0008F2D0E94160E8881C89EF0011124EA52AA
:1023E000F84F9F2D9F732081207CF22EF92AF082D6
:1023F000138214826E2D0E9421179CE0899FA001F8
:10240000112420E030E0B901640F751FC69EF00171
:10241000C79EF00D1124EA52F84F908196FD12C02C
:102420002F5F3F4F2C30310571F781110BC0109297
:102430008000B09281001092850010928400B6BA9C
:10244000B0926F00E881CE9EF0011124EA52F84F5D
:10245000808180648083FE013297908132978081F1
:10246000F80131978083F801908360E00E94160E96
:1024700061E0F80180810E94160E60E0F801808121
:102480000E94E60D21960E5F1F4FDC1299CFF89443
:102490001092200189E08093210180E293E09093E3
:1024A000290180932801109225011092240182E0D5
:1024B00080937300789480930407109208078091AA
:1024C000050760E00E94160E60E08BE00E94160E89
:1024D00060E08CE00E94160E60E08DE00E94160E17
:1024E00060E08EE00E94160E60E08FE00E94160E03
:1024F0000E94520E80911903811145C010920B0366
:1025000010920A038FEF80930E0380930F03809342
:10251000100380931103809312038093130381E0CF
:1025200080931403109216031092150310920D035A
:1025300010920C038091060390910703892B31F4CC
:1025400088E093E09093070380930603E0910403EF
:10255000F0910503309721F088E093E09583848320
:1025600088E093E09093050380930403109218038E
:10257000109217038BE192E0909309038093080374
:1025800081E080931903E0910803F091090304802E
:10259000F581E02D88E093E0199581E293E0909336
:1025A0000B0380930A0388E790E0909316038093CF
:1025B0001503E0910803F09109030284F385E02DEF
:1025C00088E093E01995009729F19C0140E050E0E4
:1025D00060E472E48FE090E00E94C616722F632FD1
:1025E00000911609109117092091180930911909C5
:1025F000872F962FDA0180179107A207B30710F4EF
:10260000D901C8018093160990931709A09318095E
:10261000B09319098FEF80930E0380EB80930F0323
:1026200080EF8093100384E68093130980E00E947A
:102630003E0F81E00E943E0F0E94CC0F4B015C01D7
:1026400084E6C82ED12CE12CF12C0E94CC0FDC01A9
:10265000CB0188199909AA09BB09883E9340A105B5
:10266000B10558F021E0C21AD108E108F10888EE5E
:10267000880E83E0981EA11CB11CC114D104E10492
:10268000F10419F78DE00E94AD0F7C018CE00E94EF
:10269000AD0F8C018BE00E94AD0FEC01C8010E94D0
:1026A000D90B8BE592E00E947A0EC7010E94D90BEC
:1026B0008BE592E00E947A0ECE010E94D90B89E54B
:1026C00092E00E947A0EFCE2EF16F1E0FF066CF455
:1026D0000C3221E012070CF046C0CC3281E0D80762
:1026E0000CF058C08DE592E072C09CE2E91691E0D2
:1026F000F90609F46EC00C32E1E01E076CF4CC322E
:10270000F1E0DF071CF585E692E00E948C0E4DECAF
:102710005CEC6CE47EE311C00C32114009F459C04A
:10272000CC3281E0D8070CF04DC081E792E00E94E6
:102730008C0E4AE959E969E17EE385EF98E00E9451
:102740000D094DEC5CEC6CE47EEB37C0CC32D14033
:1027500009F43FC08CE792E00E948C0E4DEC5CECDB
:102760006CE47EE30EC00C32114099F1CC32D140C2
:1027700084F588E892E00E948C0E4DEC5CEC6CE4F1
:102780007DE385EF98E00E940D094AE959E969E186
:102790007EEB13C0CD32D140E4F085E992E00E9497
:1027A0008C0E4AE959E969E17EE385EF98E00E94E1
:1027B0000D094DEC5CEC6CE47DEB87EF98E00E943A
:1027C0000D0907C0CD32D14024F083EA92E00E9487
:1027D0008C0E0E94DB0630CF809113089091140874
:1027E0000C943418109224051092230588EE93E07F
:1027F000A0E0B0E08093250590932605A0932705DF
:10280000B09328052DE232E0309322052093210574
:102810001092300510922F05809331059093320568
:10282000A0933305B09334052FE332E030932E05A7
:1028300020932D0545E351E050933A054093390527
:1028400044E351E050933C0540933B0540E351E0A5
:1028500050933E0540933D0541E351E050934005C0
:1028600040933F0542E351E05093420540934105B8
:1028700046E351E0509344054093430510924605CA
:102880001092470510924805109249051092CD0507
:102890001092CC058093CE059093CF05A093D005E0
:1028A000B093D1053093CB052093CA0545ED50E098
:1028B0005093D7054093D60544ED50E05093D90589
:1028C0004093D80540ED50E05093DB054093DA0586
:1028D00041ED50E05093DD054093DC0542ED50E0C2
:1028E0005093DF054093DE0546ED50E05093E1053F
:1028F0004093E0051092E3051092E4051092E5057F
:102900001092E60510926A061092690680936B0693
:1029100090936C06A0936D06B0936E063093680694
:102920002093670685EC90E090937406809373067D
:1029300084EC90E0909376068093750680EC90E0AE
:10294000909378068093770681EC90E090937A06D6
:102950008093790682EC90E090937C0680937B06CE
:1029600086EC90E090937E0680937D061092800620
:1029700010928106109282061092830686E380935D
:10298000FD0887E38093FE0888E38093FF0889E3CE
:10299000809300098BE1809301098DE18093020906
:1029A0008AE1809303098CE18093040984E0809399
:1029B000050987E0809306091092070984EB80934C
:1029C000080986E18093090988E180930A0987E173
:1029D00080930B0989E180930C09E0911208EC3097
:1029E00020F08FEF80930D0910C081E08E0F80934F
:1029F0001208E0930D0925E0E29FF0011124EA524C
:102A0000F84F88EB9BE092838183E0911208EC30D1
:102A100020F08FEF80930E0910C081E08E0F80931D
:102A20001208E0930E0985E0E89FF0011124EA52B4
:102A3000F84F88EB9BE0928381838CE08093DC08E5
:102A400084E28093DD0886E08093DE0885E0809351
:102A5000DF088FE18093E0088EE18093E10883E254
:102A60008093E20882E28093E30885E48093E4089F
:102A700084E48093E50880E48093E8081092ED08F0
:102A80001092EE081092EF081092F0081092F108E0
:102A90001092F2081092F3081092F408EEE1F8E0B8
:102AA0008FEF9FEFDC01128213821482158216824F
:102AB00017821086118683879487A587B6878787B4
:102AC000908BA18BB28B128611821082739628E0B4
:102AD000EC3DF20741F78DE090E00E949F17FC016A
:102AE0001382128281E592E091838083118687E2CE
:102AF000848384E1828784E083871486F0931B08B3
:102B0000E0931A0810921C0810921D0885E2809329
:102B100005071092070710921408109213081092DC
:102B2000160810921508109218081092170861E004
:102B300070E080E090E00E94CC18009789F09093BC
:102B4000140880931308109216081092150820910B
:102B5000170830911808232B71F5FC0110822BC047
:102B60008091130890911408009711F00E94341876
:102B70001092140810921308109218081092170857
:102B800010921608109215088FEF80931309109277
:102B900015091092140910921F0910921E098FEF47
:102BA0009FEFDC0180931A0990931B09A0931C09E5
:102BB000B0931D090895109218081092170862EB3F
:102BC00072E00E94C319E0CF990F0008550FAA0BBD
:102BD000E0E8FEEF16161706E807F907C0F0121630
:102BE0001306E407F50798F0621B730B840B950B33
:102BF00039F40A2661F0232B242B252B21F4089588
:102C00000A2609F4A140A6958FEF811D811D089524
:102C10000E941B160C948C160E947E1638F00E949F
:102C2000851620F0952311F00C9475160C947B16E4
:102C300011240C94C0160E949D1670F3959FC1F349
:102C4000950F50E0551F629FF001729FBB27F00D5A
:102C5000B11D639FAA27F00DB11DAA1F649F6627AF
:102C6000B00DA11D661F829F2227B00DA11D621FFE
:102C7000739FB00DA11D621F839FA00D611D221FB8
:102C8000749F3327A00D611D231F849F600D211D9C
:102C9000822F762F6A2F11249F5750409AF0F1F01F
:102CA00088234AF0EE0FFF1FBB1F661F771F881F88
:102CB00091505040A9F79E3F510580F00C94751635
:102CC0000C94C0165F3FE4F3983ED4F38695779555
:102CD0006795B795F795E7959F5FC1F7FE2B880F2E
:102CE000911D9695879597F9089597F99F6780E8C4
:102CF00070E060E008959FEF80EC089500240A944E
:102D00001616170618060906089500240A941216C6
:102D10001306140605060895092E0394000C11F4F9
:102D2000882352F0BB0F40F4BF2B11F460FF04C0A6
:102D30006F5F7F4F8F4F9F4F089557FD9058440FFF
:102D4000551F59F05F3F71F04795880F97FB991F0A
:102D500061F09F3F79F087950895121613061406C7
:102D6000551FF2CF4695F1DF08C016161706180654
:102D7000991FF1CF86957105610508940895E8942F
:102D8000BB2766277727CB0197F90895052E97FB78
:102D90001EF400940E94DD1657FD07D00E94F01625
:102DA00007FC03D04EF40C94DD16509540953095F9
:102DB00021953F4F4F4F5F4F0895909580957095A7
:102DC00061957F4F8F4F9F4F08950E941217A59FC7
:102DD000900DB49F900DA49F800D911D1124089516
:102DE000A1E21A2EAA1BBB1BFD010DC0AA1FBB1F0F
:102DF000EE1FFF1FA217B307E407F50720F0A21B81
:102E0000B30BE40BF50B661F771F881F991F1A94ED
:102E100069F760957095809590959B01AC01BD0117
:102E2000CF010895A29FB001B39FC001A39F700D71
:102E3000811D1124911DB29F700D811D1124911DC2
:102E40000895991B79E004C0991F961708F0961B06
:102E5000881F7A95C9F78095089597FB072E16F479
:102E6000009407D077FD09D00E94501707FC05D0C9
:102E70003EF4909581959F4F0895709561957F4F91
:102E80000895EE0FFF1F881F8BBF0790F691E02D6E
:102E900019940E941217B7FF0895821B930B08958F
:102EA000AA1BBB1B51E107C0AA1FBB1FA617B70770
:102EB00010F0A61BB70B881F991F5A95A9F780958C
:102EC0009095BC01CD0108950E946B176894B111D3
:102ED0000C94C01608950E94A51688F09F5798F08C
:102EE000B92F9927B751B0F0E1F0660F771F881F0F
:102EF000991F1AF0BA95C9F714C0B13091F00E9429
:102F0000BF16B1E008950C94BF16672F782F88275D
:102F1000B85F39F0B93FCCF3869577956795B3954F
:102F2000D9F73EF490958095709561957F4F8F4FBE
:102F30009F4F08950E94E41508F48FEF0895CF93F2
:102F4000DF938230910510F482E090E0E0912B094C
:102F5000F0912C0920E030E0C0E0D0E0309711F192
:102F60004081518148175907C0F04817590761F44B
:102F700082819381209719F09B838A832BC0909341
:102F80002C0980932B0926C02115310519F0421711
:102F9000530718F49A01BE01DF01EF010280F381AB
:102FA000E02DDCCF2115310509F1281B390B243028
:102FB000310590F412968D919C91139761157105CE
:102FC00021F0FB019383828304C090932C098093AA
:102FD0002B09FD01329644C0FD01E20FF31F8193DE
:102FE0009193225031092D933C933AC020912909A5
:102FF00030912A09232B41F42091030230910402DD
:1030000030932A092093290920910102309102026C
:103010002115310541F42DB73EB74091050250917D
:103020000602241B350BE0912909F0912A09E217C9
:10303000F307A0F42E1B3F0B2817390778F0AC01DB
:103040004E5F5F4F2417350748F04E0F5F1F5093B8
:103050002A09409329098193919302C0E0E0F0E0AE
:10306000CF01DF91CF9108950F931F93CF93DF93FB
:10307000009709F48CC0FC013297138212820091F0
:103080002B0910912C090115110581F42081318142
:10309000820F931F2091290930912A092817390797
:1030A00079F5F0932A09E093290971C0D80140E02D
:1030B00050E0AE17BF0750F412962D913C91139734
:1030C000AD012115310509F1D901F3CF9D01DA01D7
:1030D0003383228360817181860F971F8217930744
:1030E00069F4EC0128813981260F371F2E5F3F4F8D
:1030F000318320838A819B8193838283452B29F4AA
:10310000F0932C09E0932B0942C01396FC93EE93A5
:103110001297ED01499159919E01240F351FE21735
:10312000F30771F480819181840F951F02961196A7
:103130009C938E938281938113969C938E93129786
:10314000E0E0F0E0D80112968D919C9113970097E2
:1031500019F0F8018C01F6CF8D919C9198012E5FAA
:103160003F4F820F931F2091290930912A09281778
:10317000390769F4309729F410922C0910922B0921
:1031800002C01382128210932A0900932909DF9149
:10319000CF911F910F9108956F927F928F929F927E
:1031A000AF92BF92CF92DF92EF92FF920F931F9355
:1031B000CF93DF93EC01009789F4CB01DF91CF919E
:1031C0001F910F91FF90EF90DF90CF90BF90AF9045
:1031D0009F908F907F906F900C949F17FC01E60F4B
:1031E000F71F9C0122503109E217F30708F4ACC025
:1031F000D9010D911C91119706171707B0F00530F2
:10320000110508F49FC0C80104978617970708F4B2
:1032100099C002501109061B170B019311936D936E
:103220007C93CF010E9434188DC05B01A01AB10AB3
:103230004C01800E911EA0912B09B0912C0940E009
:1032400050E0E12CF12C109709F44AC0A815B905FB
:10325000D1F56D907C901197630182E0C80ED11C6E
:10326000CA14DB0480F1A3014A195B096A0182E0F8
:10327000C80ED11C1296BC9012971396AC91B5E073
:10328000CB16D10440F0B282A38351834083D9018D
:103290006D937C930AC00E5F1F4FC301800F911F77
:1032A000F90191838083EB2DFA2FE114F10431F0C1
:1032B000D7011396FC93EE93129744C0F0932C0918
:1032C000E0932B093FC08D919C91119748175907A6
:1032D00008F4AC017D0112960D90BC91A02DB3CFE6
:1032E0008091290990912A0988159905E1F44617DA
:1032F0005707C8F48091010290910202009741F4AF
:103300008DB79EB74091050250910602841B950B24
:10331000E817F907C8F4F0932A09E0932909F9019D
:10332000718360830FC0CB010E949F177C010097BF
:1033300059F0A801BE010E94BA19CE010E943418AA
:10334000C70104C0CE0102C080E090E0DF91CF91C0
:103350001F910F91FF90EF90DF90CF90BF90AF90B3
:103360009F908F907F906F90089581E090E0F89407
:103370000C94CA19FB01DC0102C001900D9241506E
:103380005040D8F70895FB01DC0101900D92002018
:10339000E1F7089511E0C2EAD1E000E006C0802F15
:1033A000FE010E9441172196011DC33AD10780E01A
:0833B0000807A9F7F894FFCF0C
:1033B800FF00002D092000000000000D050D050D7F
:1033C80005DB0101020502000000009F045B04D92F
:1033D80001DB010102D601080200000000AA0B7AF5
:1033E8000B0907540B720B630B550B00000000BD53
:1033F80007E2049E060408CF06AD06C106000000D9
:10340800003407E2040907080720202000676F201E
:103418006261636B00676F207374726169676874B7
:1034280000676F206C65667469736800676F207247
:103438006967687469736800676F2066756C6C20CB
:103448006C65667400676F2066756C6C20726967BE
:10345800687400696E74657273656374696F6E0071
:103468000D0A00496E76616C696420736572766F27
:103478002069642100536572766F20616E676C6500
:10348800206973206F7574206F662072616E67659E
:02349800210011
:00000001FF
