:100000000C946F010C94A0010C94A0010C94A0011D
:100010000C94A0010C94A0010C94A0010C94A001DC
:100020000C94A0010C94720C0C94720C0C94720C35
:100030000C94A0010C9475070C94A0010C94A001E1
:100040000C94A0010C946E050C94A0010C94A001DA
:100050000C94A0010C94A0010C94A0010C94950E9A
:100060000C94A0010C94E6080C94BC080C94A0011C
:100070000C94A0010C94A0010C94A0010C94A0017C
:100080000C94A0010C94A0010C94A0010C94A0016C
:100090000C94A0010C94A0010C94A0010C947C0C75
:1000A0000C94A0010C94A0010C94A0010C94A0014C
:1000B0000C94A0010C94A0010C94A0010C941009C4
:1000C0000C94A0010C94A0010C94A0010C94920833
:1000D0000C9468080C94A0010C943E080C9414082D
:1000E0000C94A001C90DCC0DBB0DBF0DC50D030EA9
:1000F000D00DD40DDA0DDE0DE20DE80DEC0DF00D96
:10010000030EF60DFA0DFE0D0C94AD020C94BF0D0E
:100110000C9473070C9424070C94430C0C94CC0D92
:100120000C94DF110C94FE0D0C94F00D0C94C90D81
:100130000C94F60D0C94D40D0C940B0C0C94D8026A
:100140000C94EE0B0C9440020C94FD020C94F30101
:100150000C9484060C94FC0B0C94F6010C94C50DC5
:100160000C94DA0D0C94D00D0C9470060C94DE0DEA
:100170000C94ED0B0C94E80D0C94FA0D0C94EC0D12
:100180000C94E20D0C94A2010C94BB0D0C94DD06B2
:100190000C941D060C9483020C9492060C94130C80
:1001A0000C94A9020C94DF0E0C94FC010C94030E29
:1001B0000C94A3010C94610600002000230026008B
:1001C00029002C002F00320000010000030106016D
:1001D00009010200002100240027002A002D003020
:1001E00000330001010000040107010A01000022A0
:1001F00000250028002B002E0031003400020100F1
:1002000000050108010B010505050507050808089B
:1002100008020202020A0A08080404040401010197
:10022000010101010103030303030303030407079F
:10023000070C0C0C0C0C0C0C0C020202020606063D
:1002400006060606060B0B0B0B0B0B0B0B01021025
:1002500020200808102040102040800201020108E0
:100260000402010102040810204080804020100890
:1002700004020180040201804020100804020108E9
:100280000402010102040810204080010204081049
:1002900020408000000A0B02090C0D0E0807030421
:1002A000010000000000000000000000000000004D
:1002B000000000000000000000000000000000122C
:1002C000111000000000000000000000000000000D
:1002D00000000000000000000000DF11DF0E11240C
:1002E0001FBECFEFD1E2DEBFCDBF00E00CBF12E0FA
:1002F000A0E0B2E0E8E5FDE200E00BBF02C007903D
:100300000D92AC38B107D9F728E0ACE8B2E001C0F3
:100310001D92A73DB207E1F711E0CEE6D1E000E083
:1003200006C021970109802FFE010E944C14CD3692
:10033000D10780E00807A9F70E94E50E0C949A16F1
:100340000C940000089580E090E00895EF92FF92F1
:100350000F931F93CF93DF93EC019091A6029F5FC1
:10036000292F27702093A60290FF02C090E801C0B9
:1003700090E021FD9064247009F0906220E1290F43
:10038000FE013C967E018FE0E80EF11C00E011E0DA
:100390006191662331F070E0C8010E9438146F5FEC
:1003A00001C060E0DF0114976C93322F369F030E7B
:1003B00030E0311D1124CF010797311103C0EC014A
:1003C000188203C03150EC013883662311F061506C
:1003D0006C93EE15FF05E1F6DF91CF911F910F9120
:1003E000FF90EF90089580E991E00895E1E0F1E059
:1003F00080818062808308950F931F93CF93DF9352
:10040000CDB7DEB762970FB6F894DEBF0FBECDBF93
:100410008C01F901DC011C968C917A8369835C83E1
:100420004B835E834D8390819D8791819E879281CE
:100430009F87813029F4CE0101960E94A60106C053
:100440001C861B861A86198618861F8283E0888B75
:100450001A8A198AD801ED91FC910484F585E02D62
:10046000BE016F5F7F4FC801199562960FB6F89471
:10047000DEBF0FBECDBFDF91CF911F910F910895C9
:100480000F931F93CF93DF93CDB7DEB762970FB66D
:10049000F894DEBF0FBECDBF8C01F901DC011C96C4
:1004A0008C917A8369835C834B835E834D839081D7
:1004B0009D8791819E8792819F87813029F4CE010B
:1004C00001960E94A60106C01C861B861A86198604
:1004D00018861F82188A1A8A198AD801ED91FC9110
:1004E0000484F585E02DBE016F5F7F4FC80119952B
:1004F00062960FB6F894DEBF0FBECDBFDF91CF91ED
:100500001F910F910895CF93DF9300D000D0CDB706
:10051000DEB7AB011C821D821E82DC01ED91FC91D5
:100520000190F081E02D19821A821B829E012F5FBB
:100530003F4FBE016C5F7F4F199526960FB6F8941A
:10054000DEBF0FBECDBFDF91CF910895E0E0F0E0B8
:100550001994FC0185859685089580E090E00895C2
:10056000FC01248131E030935C0420937E041092DE
:100570005D0410927F048485682B80E894E00E94DB
:10058000430C0C94410A0F931F93CF938C01C62FF9
:1005900064600E94B0026C2F6B7FC8010E94B002A1
:1005A00083EC90E00197F1F7CF911F910F9108959F
:1005B0000F931F93CF93DF938C01C62FD62FD07F3D
:1005C000D1606D2F0E94B0026D2FC8010E94C3023E
:1005D00080E1C89FB0011124C62FC1606C2FC801F3
:1005E0000E94B0026C2FC8010E94C30281E090E01B
:1005F000DF91CF911F910F9108956F927F928F920B
:100600009F92AF92BF92CF92DF92EF92FF920F93A1
:100610001F93CF93DF933C01EB010E94700EF30117
:1006200027853089621B730B6A307105B0F3F8942B
:10063000E881F981509102015062809102018F7D21
:1006400080930201EA849F812E2D291B922F2F83F4
:10065000DF84AA81BB816D857C85FE846F5F7F5FAF
:10066000F3943E814885B984AB84118120E0C32E88
:10067000022F322F3181112788943111390F08F45C
:100680003FEF9195889460FD130F1795889461FD55
:10069000130F1795889462FD130F1795889463FDC7
:1006A000130F1795889464FD130F1795889465FDB3
:1006B000130F1795889466FD130F1795889467FD9F
:1006C000130F17958894232F6111212F9E0D122F40
:1006D000002C5093020100C0002C17FF80930201F0
:1006E00030812227889400C08093020131113C0D93
:1006F00000C05093020100C0002C16FF809302013D
:1007000008F43FEFC194889400C08093020170FD0B
:10071000230F00C05093020100C0002C15FF8093EE
:1007200002012795889471FD230F00C08093020178
:100730002795889400C05093020100C0002C14FF3C
:100740008093020172FD230F2795889400C0809347
:10075000020173FD230F00C05093020100C0002C62
:1007600013FF809302012795889474FD230F00C026
:10077000809302012795889400C05093020100C025
:10078000002C12FF8093020175FD230F279588949A
:1007900000C08093020176FD230F00C05093020138
:1007A00000C0002C11FF809302012795889477FDEB
:1007B000230F00C0809302012795889400C05093B6
:1007C000020100C0002C10FF80930201132F711151
:1007D000122FCB0C00C08093020100C000C05093C8
:1007E000020100C0002C17FF8093020132812227F2
:1007F000889400C0809302013111340F00C05093DF
:10080000020100C0002C16FF8093020108F43FEFA4
:10081000ED0DF11D00C080930201F0FC230F00C01C
:100820005093020100C0002C15FF80930201279510
:100830008894F1FC230F00C08093020127958894CF
:1008400000C05093020100C0002C14FF80930201ED
:10085000F2FC230F2795889400C080930201F3FCDB
:10086000230F00C05093020100C0002C13FF80939F
:10087000020127958894F4FC230F00C080930201A5
:100880002795889400C05093020100C0002C12FFED
:1008900080930201F5FC230F2795889400C0809374
:1008A0000201F6FC230F00C05093020100C0002C8F
:1008B00011FF8093020127958894F7FC230F00C055
:1008C000809302012795889400C05093020100C0D4
:1008D000002C10FF80930201132FF110122F41956D
:1008E00000C0809302014A0D00C0002C5093020109
:1008F00000C0002C17FF80930201318122278894C9
:1009000000C0809302013111390F00C050930201E1
:1009100000C0002C16FF8093020108F43FEF919570
:10092000889400C08093020160FD230F00C05093A3
:10093000020100C0002C15FF8093020127958894C6
:1009400061FD230F00C0809302012795889400C0A9
:100950005093020100C0002C14FF8093020162FD3D
:10096000230F2795889400C08093020163FD230F15
:1009700000C05093020100C0002C13FF80930201BD
:100980002795889464FD230F00C08093020127956A
:10099000889400C05093020100C0002C12FF809385
:1009A000020165FD230F2795889400C08093020102
:1009B00066FD230F00C05093020100C0002C11FF00
:1009C000809302012795889467FD230F00C08093D0
:1009D00002012795889400C05093020100C0002CAA
:1009E00010FF80930201132F6111122F9E0D00C082
:1009F00080930201119709F06CCE4A815B8120EE51
:100A000031E0DA010E945414DC01CB0164E0B695B8
:100A1000A795979587956A95D1F760E070E09B015F
:100A2000EAE94E9F040E211D5E9F200D311D112409
:100A3000250F311D820F931FA11DB11D893EE3E0DB
:100A40009E07A105B10508F434C0885E9340A10952
:100A5000B10922E0B695A795979587952A95D1F784
:100A600027E0829F080E611D929F600D711D112469
:100A7000690F711D2091A50230E0820F931F860F30
:100A8000971F40917F085091800860918108709174
:100A90008208292F3327420F531F611D711D409378
:100AA0007F08509380086093810870938208809338
:100AB000A50278940E94700EF301708B6787DF9116
:100AC000CF911F910F91FF90EF90DF90CF90BF904B
:100AD000AF909F908F907F906F9008951F920F928C
:100AE0000FB60F9211240BB60F922F933F934F9393
:100AF0005F936F937F938F939F93AF93BF93EF9386
:100B0000FF938091A70287FF05C010928500109285
:100B1000840016C02091A702022E000C330B809196
:100B2000710790E0281739075CF43091A70225E09F
:100B30003203F0011124EB5CF84F808186FD15C073
:100B40008091A7028F5F8093A7022091A702022EB7
:100B5000000C330B8091710790E02817390794F44B
:100B60008091A7028C302CF10DC03091A702320386
:100B7000F0011124EB5CF84F808160E08F730E94DC
:100B8000040EDECF809184009091850084349C49CE
:100B900018F480E49CE905C0809184009091850060
:100BA000049690938900809388008FEF8093A7022A
:100BB0002AC040918400509185003091A70225E021
:100BC0003203F0011124EB5CF84F81819281840F94
:100BD000951F90938900809388003091A70232037B
:100BE000F0011124EB5CF84F808186FF0CC030913E
:100BF000A7023203F0011124EB5CF84F808161E021
:100C00008F730E94040EFF91EF91BF91AF919F915E
:100C10008F917F916F915F914F913F912F910F90A5
:100C20000BBE0F900FBE0F901F9018958EBD000049
:100C30000DB407FEFDCF8EB50895CF92DF92EF92EF
:100C4000FF920F931F93CF93DF936C017A018B0177
:100C5000C0E0D0E0CE15DF0589F0D8016D918D019F
:100C6000D601ED91FC910190F081E02DC60119951E
:100C7000892B11F47E0102C02196ECCFC701DF91D0
:100C8000CF911F910F91FF90EF90DF90CF9008953B
:100C9000FC01A089B1898C91A689B78982FD0FC01A
:100CA0009C91818D8F5F8F73228D821749F0218DEA
:100CB000DF01A20FB11D5D969C93818F08958C91E9
:100CC0000895FC01538D448D252F30E0842F90E052
:100CD000821B930B541710F0CF9608950197089537
:100CE000FC01918D828D981761F0828DDF01A80F34
:100CF000B11D5D968C91928D9F5F9F73928F90E056
:100D000008958FEF9FEF0895FC01918D828D9817C4
:100D100031F0828DE80FF11D858D90E008958FEF01
:100D20009FEF0895FC01918D228D892F90E0805CCA
:100D30009F4F821B91098F73992708958CE894E047
:100D40000E94920621E0892B09F420E0822F089569
:100D500089E295E00E94920621E0892B09F420E0C7
:100D6000822F089586EC95E00E94920621E0892B5F
:100D700009F420E0822F0895FC01848DDF01A80F83
:100D8000B11DA35ABF4F2C91848D90E001968F73B3
:100D90009927848FA689B7892C93A089B1898C91D2
:100DA00080648C93938D848D981306C00288F38998
:100DB000E02D80818F7D80830895EF92FF920F93C5
:100DC0001F93CF93DF93EC0181E0888F9B8D8C8DF7
:100DD000981305C0E889F989808185FD24C0F62E25
:100DE0000B8D10E00F5F1F4F0F731127E02E8C8DBE
:100DF000E8120CC00FB607FCFACFE889F9898081A8
:100E000085FFF5CFCE010E94BC06F1CF8B8DFE0190
:100E1000E80FF11DE35AFF4FF0820B8FEA89FB893F
:100E20008081806207C0EE89FF896083E889F98943
:100E300080818064808381E090E0DF91CF911F9179
:100E40000F91FF90EF900895CF93DF93EC01888D81
:100E50008823C9F0EA89FB89808185FD05C0A889BE
:100E6000B9898C9186FD0FC00FB607FCF5CF808144
:100E700085FFF2CFA889B9898C9185FFEDCFCE018E
:100E80000E94BC06E7CFDF91CF91089580E090E00B
:100E9000892B21F00E94B206811119C080E090E0F8
:100EA000892B41F080E090E0892B21F00E94000026
:100EB000811110C00E94A80681110FC080E090E04F
:100EC000892B81F00E949E0681110AC008950E941C
:100ED0000000E4CF0E940000EDCF0E94A602EECFFA
:100EE0000C94000008950E9485161F920F920FB671
:100EF0000F9211240BB60F922F933F934F935F9352
:100F00006F937F938F939F93AF93BF93EF93FF93D1
:100F10008091AB029091AC02A091AD02B091AE0273
:100F2000892B8A2B8B2B59F18091AA02E091A80280
:100F3000F091A9029081892780838091AB029091E2
:100F4000AC02A091AD02B091AE02181619061A06B5
:100F50001B060CF056C08091AB029091AC02A091A0
:100F6000AD02B091AE020197A109B1098093AB0225
:100F70009093AC02A093AD02B093AE0242C08091B8
:100F80000002E2EDF1E0E4919FEF90930002E23085
:100F9000C9F050F4EE2399F0E13081F590916F00A3
:100FA0009D7F90936F002AC0E43019F1E0F0E530A6
:100FB00029F5909173009D7F909373001FC010924C
:100FC0006E001CC0909170009D7F9093700091E026
:100FD0009093B0009091B100987F94609093B1008D
:100FE0001092B3000BC0909171009D7F909371009F
:100FF00005C0909172009D7F9093720060E00E9406
:10100000040EFF91EF91BF91AF919F918F917F91CE
:101010006F915F914F913F912F910F900BBE0F9069
:101020000FBE0F901F9018951F920F920FB60F9240
:1010300011240BB60F922F933F934F935F936F93AF
:101040007F938F939F93AF93BF93EF93FF938CE81E
:1010500094E00E94BC06FF91EF91BF91AF919F91E8
:101060008F917F916F915F914F913F912F910F9051
:101070000BBE0F900FBE0F901F9018951F920F92EE
:101080000FB60F9211240BB60F922F933F934F93ED
:101090005F936F937F938F939F93AF93BF93EF93E0
:1010A000FF938CE894E00E944806FF91EF91BF9176
:1010B000AF919F918F917F916F915F914F913F91F0
:1010C0002F910F900BBE0F900FBE0F901F90189591
:1010D0001F920F920FB60F9211240BB60F922F93FF
:1010E0003F934F935F936F937F938F939F93AF93B0
:1010F000BF93EF93FF9389E295E00E94BC06FF91B6
:10110000EF91BF91AF919F918F917F916F915F917F
:101110004F913F912F910F900BBE0F900FBE0F90EC
:101120001F9018951F920F920FB60F9211240BB6B5
:101130000F922F933F934F935F936F937F938F9370
:101140009F93AF93BF93EF93FF9389E295E00E9443
:101150004806FF91EF91BF91AF919F918F917F9141
:101160006F915F914F913F912F910F900BBE0F9018
:101170000FBE0F901F9018951F920F920FB60F92EF
:1011800011240BB60F922F933F934F935F936F935E
:101190007F938F939F93AF93BF93EF93FF9386ECCF
:1011A00095E00E94BC06FF91EF91BF91AF919F9196
:1011B0008F917F916F915F914F913F912F910F9000
:1011C0000BBE0F900FBE0F901F9018951F920F929D
:1011D0000FB60F9211240BB60F922F933F934F939C
:1011E0005F936F937F938F939F93AF93BF93EF938F
:1011F000FF9386EC95E00E944806FF91EF91BF9126
:10120000AF919F918F917F916F915F914F913F919E
:101210002F910F900BBE0F900FBE0F901F9018953F
:101220001F920F920FB60F9211240BB60F922F93AD
:101230003F934F935F936F937F938F939F93AF935E
:10124000BF93CF93DF93EF93FF932091640630E039
:10125000F901ED56FD4F8491F901E35BFD4FD49107
:10126000F901E95FFD4FC491CC23A1F081110E94E7
:10127000AE0DEC2FF0E0EE0FFF1FE854FE4FA591EE
:10128000B491EC91ED2331E020E009F430E0832FBC
:10129000922F02C080E090E02091680630916906AC
:1012A0002F5F3F4F309369062093680620916706B1
:1012B000253618F026E0209363062091630624303B
:1012C000D9F128F4223069F02330D9F060C02530FC
:1012D00009F453C0263009F05AC021E020933407A6
:1012E00053C0009709F053C02091680630916906F9
:1012F0002436310508F443C0109234071092670673
:101300001DC08130910509F042C0E091670621E0DF
:101310002E0F20936706F0E0209168063091690651
:10132000EE0FFF1FED59F94F3087278310926906A2
:101330001092680624E029C00097B9F4E09167068E
:1013400021E02E0F20936706F0E02091680630918F
:101350006906EE0FFF1FED59F94F30872783109272
:1013600069061092680623E010C02091680630914B
:1013700069062536310558F007C0009741F41092F0
:1013800069061092680603C025E020936306209149
:1013900066062223B9F0892B51F4809165068823D3
:1013A00021F08091650661E009C02F9A0BC0809101
:1013B0006506882331F08091650660E00E94040E86
:1013C00001C02F98FF91EF91DF91CF91BF91AF9125
:1013D0009F918F917F916F915F914F913F912F914D
:1013E0000F900BBE0F900FBE0F901F901895E6EC5C
:1013F000F5E0A089B18982E08C93A485B5851C9223
:10140000A685B7858FEC8C93108EA489B58986E06C
:101410008C93A289B3898C9180618C93A289B389C2
:101420008C9188608C93A289B3898C9180688C930D
:101430000288F389E02D80818F7D80830895CF938A
:10144000DF93009779F0FC0101900020E9F73197D4
:10145000AF01481B590BBC0186EC95E00E941D06AC
:10146000EC0102C0C0E0D0E042E050E069E572E08B
:1014700086EC95E00E941D068C0F9D1FDF91CF9199
:10148000089520917F0490917E04213208F04AC093
:1014900080915B048111FCCF32E030935B0431E03A
:1014A00030935A043FEF309359041092580420931C
:1014B0005704AEE5B4E047E354E0FA013E2F341B95
:1014C000321718F43D913193F9CF109236042091E0
:1014D0003604990F922B90933604909135049130F5
:1014E00061F410923504909136049093BB00909172
:1014F000BC0093FDF8CF95EC01C095EE9093BC0035
:1015000090915B049230E1F3909159049F3F79F000
:1015100080915904803241F080915904803331F038
:1015200084E005C081E003C082E001C083E0109246
:101530005D0410927F0410925C040895EF92FF9274
:101540001F93CF93DF931F92CDB7DEB7162F9BE388
:10155000E92E98E0F92ED7011C969C911C9721E06A
:1015600020935C0490937E0410925D0410927F049B
:101570001A960D90BC91A02DED91FC9111970190C0
:10158000F081E02D682FCD0179831995F7018285CF
:101590009385DC01ED91FC910190F081E02D798142
:1015A000672F1995F70182859385DC01ED91FC91F8
:1015B0000190F081E02D612F19950F90DF91CF916F
:1015C0001F91FF90EF900C94410ACF92DF92EF921F
:1015D000FF92CF93DF93823018F08CE592E00AC03F
:1015E00090916608691720F090916708961750F45B
:1015F0008EE692E0DF91CF91FF90EF90DF90CF9059
:101600000C941F0AE82FF0E0E45AF74FC089CC3061
:1016100008F072C0262F30E0D0E085E08C9FF0010A
:101620008D9FF00D1124EB5CF84F8381283C310530
:101630009CF528E830E06901C81AD10887FDD394E9
:10164000CC0CDD1CCC0CDD1C0D2C000CEE08FF08B6
:10165000848128E532E0281B310987FD3395220F6C
:10166000331F220F331FC901330FAA0BBB0B9C0181
:10167000AD012C193D094E095F09A62FB0E00E946B
:10168000F01324EB30E040E050E00E94D113C20E92
:10169000D31EE41EF51E1EC048E850E06A01C81AB9
:1016A000D10887FDD394CC0CDD1CCC0CDD1C2C1593
:1016B0003D0584F0448188E592E0841B910947FD53
:1016C0009395880F991F880F991F69018C159D05A7
:1016D0000CF46C018FB7F89495E09C9FF0019D9FEE
:1016E000F00D1124EB5CF84F96E0C91AD108CC0C30
:1016F000DD1CD282C1828FBFDF91CF91FF90EF902E
:10170000DF90CF9008958F929F92AF92BF92CF9229
:10171000DF92EF92FF920E94700E4B015C0188E80D
:10172000C82E83E1D82EE12CF12C0E94700EDC0132
:10173000CB0188199909AA09BB09883E9340A105E4
:10174000B10558F021E0C21AD108E108F10888EE8D
:10175000880E83E0981EA11CB11CC114D104E104C1
:10176000F10419F7FF90EF90DF90CF90BF90AF900A
:101770009F908F90089585ED8093BC008091BC0070
:1017800084FDFCCF10925B0408954091AC08262F95
:1017900030E0240F311D21323105DCF420915B044F
:1017A0002430C9F4FC0180E090E0861758F43091B1
:1017B000AC082191DC01A657B74FA30FB11D2C93A4
:1017C0000196F3CF8091AC08680F6093AC0880E07D
:1017D000089581E0089582E00895089581E090E001
:1017E0003091840820918308321710F480E090E053
:1017F000919581959109089580918408909183082D
:10180000891730F48F5F8093840880E090E008951A
:101810008FEF9FEF08958091830890E020918408D6
:10182000821B91090895CF92DF92EF92FF920F935E
:101830001F93CF93DF937C01262F972F8A018091EE
:101840005C04882391F0C62FD72F6E01C40ED51EDD
:10185000CC15DD0571F06991D701ED91FC910190F6
:10186000F081E02DC7011995F3CF642F822F0E94DC
:10187000C50BC801DF91CF911F910F91FF90EF90A1
:10188000DF90CF900895CF93DF931F92CDB7DEB74F
:10189000698320915C042223D1F020917F042032BF
:1018A00040F021E030E0FC013383228380E090E0CF
:1018B00015C080915D04E82FF0E0E25AFB4F99815A
:1018C00090838F5F80935D0480937F0405C061E007
:1018D000CE0101960E94C50B81E090E00F90DF9150
:1018E000CF9108951F920F920FB60F9211240F906F
:1018F0000FBE0F901F9018951F920F920FB60F9268
:1019000011240BB60F922F933F934F935F936F93D6
:101910007F938F939F93AF93BF93EF93FF938091A8
:10192000B900887F803609F49CC068F5883209F4D4
:101930005BC090F4803109F454C038F4882309F472
:10194000F6C0883009F44DC0F6C0883109F44CC0A7
:10195000803209F45DC0EFC0803409F468C048F4F7
:10196000803309F455C0883309F0E5C080935904E9
:10197000D8C0803509F44FC0883509F45DC088347B
:1019800009F0D9C0D6C0883909F4C7C0A8F488378F
:1019900009F467C038F4883609F463C0803709F465
:1019A00060C0C9C0883809F4B8C0803909F45FC084
:1019B000803809F0C0C05BC0803B09F486C038F4B1
:1019C000803A09F466C0883A09F47FC0B4C0803C0C
:1019D00009F4A7C0883C09F4A4C0883B09F48AC074
:1019E000AAC08091360410C0909158048091570489
:1019F000981770F5E091580481E08E0F8093580499
:101A0000F0E0E95CFB4F80818093BB0085EC86C0F1
:101A1000809359048EC0E091580481E08E0F80932A
:101A200058048091BB00F0E0E95CFB4F808390910B
:101A30005804809157046EC0E091580481E08E0FE5
:101A4000809358048091BB00F0E0E95CFB4F8083F9
:101A500080915A0481116DC081E08093350484EA3D
:101A600061C083E080935B041092D008CFCF809157
:101A7000D008803208F051C0E091D00881E08E0F8C
:101A80008093D0088091BB00F0E0E055F74F808351
:101A9000BDCF85EC8093BC0010925B048091D00890
:101AA000803230F4E091D008F0E0E055F74F10823A
:101AB0006091D00870E0E091AE08F091AF0880EB43
:101AC00098E019951092D00836C084E080935B04AA
:101AD0001092AD081092AC08E091AA08F091AB0802
:101AE00019958091AC08811105C081E08093AC0804
:101AF00010928A08E091AD0881E08E0F8093AD08C6
:101B0000F0E0E657F74F80818093BB009091AD08DD
:101B10008091AC08981708F479CF85E88093BC00D1
:101B20000AC085EC8093BC0010925B0404C0109244
:101B300059040E94BB0BFF91EF91BF91AF919F9110
:101B40008F917F916F915F914F913F912F910F9066
:101B50000BBE0F900FBE0F901F90189590E0FC01E8
:101B60003197E231F10508F04EC08827EE58FF4F5B
:101B70008F4F0C944C14809180008F7703C080911C
:101B800080008F7D80938000089580918000877F02
:101B9000F9CF84B58F7702C084B58F7D84BD089559
:101BA0008091B0008F7703C08091B0008F7D8093CB
:101BB000B0000895809190008F7707C080919000C9
:101BC0008F7D03C080919000877F8093900008955F
:101BD0008091A0008F7707C08091A0008F7D03C007
:101BE0008091A000877F8093A000089580912001BC
:101BF0008F7707C0809120018F7D03C080912001E5
:101C0000877F8093200108951F93CF93DF93282F20
:101C100030E0F901ED56FD4F8491F901E35BFD4F92
:101C2000D491F901E95FFD4FC491CC23C9F0162F7F
:101C300081110E94AE0DEC2FF0E0EE0FFF1FE3517B
:101C4000FE4FA591B4918FB7F894111105C09C91E6
:101C5000ED2FE095E92302C0EC91ED2BEC938FBFC3
:101C6000DF91CF911F910895CF93DF9390E0FC0116
:101C7000E35BFD4F2491FC01E95FFD4F84918823D4
:101C800061F190E0880F991FFC01ED52FE4FC59164
:101C9000D491FC01E351FE4FA591B491611109C0AB
:101CA0009FB7F8948881209582238883EC912E2316
:101CB0000BC0623061F49FB7F8943881822F809511
:101CC00083238883EC912E2B2C939FBF06C08FB764
:101CD000F894E8812E2B28838FBFDF91CF91089550
:101CE0003FB7F8948091860890918708A091880862
:101CF000B091890826B5A89B05C02F3F19F0019621
:101D0000A11DB11D3FBFBA2FA92F982F8827820F81
:101D1000911DA11DB11DBC01CD0142E0660F771FD1
:101D2000881F991F4A95D1F708951F920F920FB6F9
:101D30000F9211242F933F938F939F93AF93BF9351
:101D400080917F0890918008A0918108B0918208CD
:101D50003091850823E0230F2D3720F40196A11D33
:101D6000B11D05C026E8230F0296A11DB11D2093C9
:101D7000850880937F0890938008A0938108B09392
:101D800082088091860890918708A0918808B09178
:101D900089080196A11DB11D80938608909387083C
:101DA000A0938808B0938908BF91AF919F918F91BC
:101DB0003F912F910F900FBE0F901F90189580911B
:101DC0007207909173070C940415789484B582601F
:101DD00084BD84B5816084BD85B5826085BD85B5CF
:101DE000816085BD80916E00816080936E0010924D
:101DF00081008091810082608093810080918100C8
:101E00008160809381008091800081608093800058
:101E10008091B10084608093B1008091B0008160B6
:101E20008093B000809191008260809391008091B6
:101E300091008160809391008091900081608093F7
:101E400090008091A10082608093A1008091A10008
:101E500081608093A1008091A00081608093A000A8
:101E60008091210182608093210180912101816014
:101E700080932101809120018160809320018091D5
:101E80007A00846080937A0080917A0082608093E7
:101E90007A0080917A00816080937A0080917A0044
:101EA000806880937A001092C1000E94F70961E077
:101EB00080913C080E94340E60E080913C080E94B2
:101EC000040E60E080913B080E94340E80E894E0AC
:101ED00090934608809345081092840810928308D6
:101EE00010925D0410927F0410925B0481E0809355
:101EF0005A041092350461E084E10E94040E61E00E
:101F000085E10E94040E8091B9008E7F8093B90014
:101F10008091B9008D7F8093B90088E48093B800E8
:101F200085E48093BC0080E090E1A0E0B0E0809385
:101F3000480890934908A0934A08B0934B088AE058
:101F400090E0A0E0B0E080934C0890934D08A093FF
:101F50004E08B0934F0880E090E0A0E0B0E480939A
:101F6000500890935108A0935208B093530860E032
:101F700070E185E00E949E0A6FE979E380E00E94AB
:101F80009E0AC8E5D8E0C12CD12CE12CF12C5CE3F1
:101F9000452E52E0552E62E8662E62E0762E7BECEE
:101FA000A72E77E0B72EEBE88E2E99249394C701E5
:101FB000855C974F1C01FC01948182818601055C40
:101FC000174FF801818F928F61E00E94340E61E01B
:101FD000F801828D0E94340EF101908586818883FC
:101FE000F801968F61E00E94340E60E0F801868D62
:101FF0000E94340E61E088810E94040E1FB7F8949D
:102000008091AF02811125C0F2018491F301949176
:10201000E82FF0E0EE0FFF1FED52FE4FA591B491B7
:102020008C91982321F461E085E30E94040E61E025
:1020300085E30E94340E8CB580618CBD8CB58064C4
:102040008CBD61E084E30E94340E61E083E30E9472
:10205000340E8091AF028F5F8093AF021FBFC50126
:102060000197F1F760E088810E94040E88E80E94E1
:10207000160683E00E94160661E088810E94040E25
:10208000C5010197F1F760E088810E94040E88E99C
:102090000E94160680E00E94160680E00E94160646
:1020A00080E00E94160680E00E94160661E08881AA
:1020B0000E94040EC4010197F1F760E088810E943C
:1020C000040E80EE0E94160661E088810E94040ED4
:1020D000F2E0CF0ED11C2296EA94EF2821F0EE24F4
:1020E000E394F12C64CFC0E6D8E01C2F1C5F60E0C5
:1020F00089910E94340E1C13FACF0FE618E0CCE64B
:10210000D8E085E0C82E9CE0E92E22E0B22EDC2E3D
:10211000D394D394FE013897F08088818C3008F0F6
:1021200044C061E08F2D0E94340E8881C89EF0016A
:102130001124EB5CF84F9F2D9F732081207CF22EA1
:10214000F92AF082138214826E2D0E942C14ECE086
:102150008E9FA001112420E030E0B901640F751FAB
:10216000C69EF001C79EF00D1124EB5CF84F9081E4
:1021700096FD12C02F5F3F4F2C30310571F7811152
:102180000BC010928000B0928100109285001092D6
:102190008400B6BAB0926F00E881CE9EF00111249F
:1021A000EB5CF84F808180648083FE0132979081E0
:1021B00032978081F80131978083F801908360E045
:1021C0000E94340E61E0F80180810E94340E60E0CC
:1021D000F80180810E94040E21960E5F1F4FDC12D1
:1021E00099CFF8941092200189E08093210180E238
:1021F00093E0909329018093280110922501109279
:10220000240182E080937300789480936306109297
:1022100067068091640660E00E94340E60E08BE007
:102220000E94340E60E08CE00E94340E60E08DE08D
:102230000E94340E60E08EE00E94340E60E08FE079
:102240000E94340E0E94F7098091C502811145C099
:102250001092B7021092B6028FEF8093BA02809369
:10226000BB028093BC028093BD028093BE02809328
:10227000BF0281E08093C0021092C2021092C1029C
:102280001092B9021092B8028091B2029091B302FA
:10229000892B31F484EB92E09093B3028093B202E5
:1022A000E091B002F091B102309721F084EB92E01E
:1022B0009583848384EB92E09093B1028093B00283
:1022C0001092C4021092C3028BE192E09093B50287
:1022D0008093B40281E08093C502E091B402F09152
:1022E000B5020480F581E02D84EB92E019958DEC28
:1022F00092E09093B7028093B60288E790E09093C3
:10230000C2028093C102E091B402F091B50202844E
:10231000F385E02D84EB92E01995009729F19C015B
:1023200040E050E060E472E48FE090E00E94D1135E
:10233000722F632F0091750810917608209177080D
:1023400030917808872F962FDA0180179107A2071E
:10235000B30710F4D901C8018093750890937608EB
:10236000A0937708B09378088FEF8093BA0280EB40
:102370008093BB0280EF8093BC0284E68093720856
:102380006AE580E00E94E50A6AE581E00E94E50ACC
:1023900064E181E00E94E50A66E980E00E94E50AC6
:1023A0000E94830B68E781E00E94E50A6CE380E00D
:1023B0000E94E50A0E94830B0E944607E9CF109213
:1023C00083041092820488EE93E0A0E0B0E0809352
:1023D000840490938504A0938604B09387042DE22F
:1023E00032E0309381042093800410928F04109285
:1023F0008E048093900490939104A0939204B093E0
:1024000093042FE332E030938D0420938C0445E352
:1024100051E0509399044093980444E351E0509361
:102420009B0440939A0440E351E050939D044093F1
:102430009C0441E351E050939F0440939E0442E387
:1024400051E05093A1044093A00446E351E050931F
:10245000A3044093A2041092A5041092A604109223
:10246000A7041092A80410922C0510922B058093BB
:102470002D0590932E05A0932F05B0933005309332
:102480002A052093290545ED50E0509336054093E9
:10249000350544ED50E0509338054093370540ED45
:1024A00050E050933A054093390541ED50E0509388
:1024B0003C0540933B0542ED50E050933E05409370
:1024C0003D0546ED50E05093400540933F05109286
:1024D0004205109243051092440510924505109252
:1024E000C9051092C8058093CA059093CB05A093A7
:1024F000CC05B093CD053093C7052093C60585EC78
:1025000090E09093D3058093D20584EC90E0909373
:10251000D5058093D40580EC90E09093D705809307
:10252000D60581EC90E09093D9058093D80582EC94
:1025300090E09093DB058093DA0586EC90E0909331
:10254000DD058093DC051092DF051092E005109206
:10255000E1051092E20586E380935C0887E38093AF
:102560005D0888E380935E0889E380935F088BE1D0
:10257000809360088DE1809361088AE1809362080E
:102580008CE18093630884E08093640887E0809303
:1025900065081092660884EB8093670886E1809353
:1025A000680888E18093690887E180936A0889E177
:1025B00080936B08E0917107EC3020F08FEF8093EF
:1025C0006C0810C081E08E0F80937107E0936C0857
:1025D00025E0E29FF0011124EB5CF84F88EB9BE0D3
:1025E00092838183E0917107EC3020F08FEF80932C
:1025F0006D0810C081E08E0F80937107E0936D0825
:1026000085E0E89FF0011124EB5CF84F88EB9BE03C
:10261000928381838CE080933B0884E280933C0822
:1026200086E080933D0885E080933E088FE18093AB
:102630003F088EE18093400883E28093410882E264
:102640008093420885E48093430884E4809344089F
:1026500080E48093470810924C0810924D08109225
:102660004E0810924F081092500810925108109284
:10267000520810925308EDE7F7E08FEF9FEFDC016F
:102680001282138214821582168217821086118696
:1026900083879487A587B6878787908BA18BB28B1A
:1026A000128611821082739628E0EB33F20741F70D
:1026B0008DE090E00E946F14FC011382128281E58C
:1026C00092E091838083118687E2848384E182870C
:1026D00084E083871486F0937A07E0937907109259
:1026E0007B0710927C0785E2809364061092660651
:1026F0001092730710927207109275071092740768
:10270000109277071092760761E070E080E090E029
:102710000E949C15009789F090937307809372072D
:102720001092750710927407209176073091770701
:10273000232B71F5FC0110822BC0809172079091C0
:102740007307009711F00E940415109273071092FE
:102750007207109277071092760710927507109201
:1027600074078FEF809372081092740810927308A8
:1027700010927E0810927D088FEF9FEFDC0180930E
:10278000790890937A08A0937B08B0937C08089509
:1027900010927707109276076BE572E00E9493160D
:1027A000E0CF052E97FB1EF400940E94E81357FD1E
:1027B00007D00E94FB1307FC03D04EF40C94E813DF
:1027C00050954095309521953F4F4F4F5F4F08955D
:1027D00090958095709561957F4F8F4F9F4F08958D
:1027E0000E941D14A59F900DB49F900DA49F800D75
:1027F000911D11240895A1E21A2EAA1BBB1BFD01F5
:102800000DC0AA1FBB1FEE1FFF1FA217B307E407CF
:10281000F50720F0A21BB30BE40BF50B661F771F27
:10282000881F991F1A9469F7609570958095909507
:102830009B01AC01BD01CF010895A29FB001B39FE0
:10284000C001A39F700D811D1124911DB29F700DB9
:10285000811D1124911D0895991B79E004C0991FD1
:10286000961708F0961B881F7A95C9F780950895EA
:1028700097FB072E16F4009407D077FD09D00E942D
:102880005B1407FC05D03EF4909581959F4F089509
:10289000709561957F4F0895EE0FFF1F881F8BBFC6
:1028A0000790F691E02D19940E941D14B7FF08952A
:1028B000821B930B0895AA1BBB1B51E107C0AA1FE3
:1028C000BB1FA617B70710F0A61BB70B881F991FD1
:1028D0005A95A9F780959095BC01CD010895CF93A5
:1028E000DF938230910510F482E090E0E091D5080A
:1028F000F091D60820E030E0C0E0D0E0309711F150
:102900004081518148175907C0F04817590761F4B1
:1029100082819381209719F09B838A832BC09093A7
:10292000D6088093D50826C02115310519F0421725
:10293000530718F49A01BE01DF01EF010280F38111
:10294000E02DDCCF2115310509F1281B390B24308E
:10295000310590F412968D919C9113976115710534
:1029600021F0FB019383828304C09093D608809367
:10297000D508FD01329644C0FD01E20FF31F81939B
:102980009193225031092D933C933AC02091D30862
:102990003091D408232B41F420910302309104029A
:1029A0003093D4082093D308209101023091020281
:1029B0002115310541F42DB73EB7409105025091E4
:1029C0000602241B350BE091D308F091D408E217DE
:1029D000F307A0F42E1B3F0B2817390778F0AC0142
:1029E0004E5F5F4F2417350748F04E0F5F1F50931F
:1029F000D4084093D3088193919302C0E0E0F0E0C3
:102A0000CF01DF91CF9108950F931F93CF93DF9361
:102A1000009709F48CC0FC01329713821282009156
:102A2000D5081091D6080115110581F42081318156
:102A3000820F931F2091D3083091D40828173907AB
:102A400079F5F093D408E093D30871C0D80140E041
:102A500050E0AE17BF0750F412962D913C9113979A
:102A6000AD012115310509F1D901F3CF9D01DA013D
:102A70003383228360817181860F971F82179307AA
:102A800069F4EC0128813981260F371F2E5F3F4FF3
:102A9000318320838A819B8193838283452B29F410
:102AA000F093D608E093D50842C01396FC93EE93BA
:102AB0001297ED01499159919E01240F351FE2179C
:102AC000F30771F480819181840F951F029611960E
:102AD0009C938E938281938113969C938E931297ED
:102AE000E0E0F0E0D80112968D919C911397009749
:102AF00019F0F8018C01F6CF8D919C9198012E5F11
:102B00003F4F820F931F2091D3083091D40828178C
:102B1000390769F4309729F41092D6081092D50835
:102B200002C0138212821093D4080093D308DF915D
:102B3000CF911F910F9108956F927F928F929F92E4
:102B4000AF92BF92CF92DF92EF92FF920F931F93BB
:102B5000CF93DF93EC01009789F4CB01DF91CF9104
:102B60001F910F91FF90EF90DF90CF90BF90AF90AB
:102B70009F908F907F906F900C946F14FC01E60FE4
:102B8000F71F9C0122503109E217F30708F4ACC08B
:102B9000D9010D911C91119706171707B0F0053058
:102BA000110508F49FC0C80104978617970708F419
:102BB00099C002501109061B170B019311936D93D5
:102BC0007C93CF010E9404158DC05B01A01AB10A4D
:102BD0004C01800E911EA091D508B091D60840E01E
:102BE00050E0E12CF12C109709F44AC0A815B90562
:102BF000D1F56D907C901197630182E0C80ED11CD5
:102C0000CA14DB0480F1A3014A195B096A0182E05E
:102C1000C80ED11C1296BC9012971396AC91B5E0D9
:102C2000CB16D10440F0B282A38351834083D901F3
:102C30006D937C930AC00E5F1F4FC301800F911FDD
:102C4000F90191838083EB2DFA2FE114F10431F027
:102C5000D7011396FC93EE93129744C0F093D608D5
:102C6000E093D5083FC08D919C9111974817590763
:102C700008F4AC017D0112960D90BC91A02DB3CF4C
:102C80008091D3089091D40888159905E1F44617EE
:102C90005707C8F48091010290910202009741F415
:102CA0008DB79EB74091050250910602841B950B8B
:102CB000E817F907C8F4F093D408E093D308F901B2
:102CC000718360830FC0CB010E946F147C01009759
:102CD00059F0A801BE010E948A16CE010E94041577
:102CE000C70104C0CE0102C080E090E0DF91CF9127
:102CF0001F910F91FF90EF90DF90CF90BF90AF901A
:102D00009F908F907F906F90089581E090E0F8946D
:102D10000C949A16FB01DC0102C001900D92415007
:102D20005040D8F70895FB01DC0101900D9200207E
:102D3000E1F7089511E0CEE6D1E000E006C0802F73
:102D4000FE010E944C142196011DCF36D10780E070
:082D50000807A9F7F894FFCF72
:102D5800FF0000D708200000000000730773077306
:102D6800078302A902AD02000000004002FC01F640
:102D7800018302A902F301FD0200000000430C13C5
:102D88000CA301ED0B0B0CFC0BEE0B00000000DD9F
:102D9800061D0661062407920670068406000000D8
:102DA80000D8021D06A301A2010D0A00496E766132
:102DB8006C696420736572766F20696421005365BD
:102DC80072766F20616E676C65206973206F757409
:0C2DD800206F662072616E6765210000AC
:00000001FF
