:100000000C94A3010C94D4010C94D4010C94D4014D
:100010000C94D4010C94D4010C94D4010C94D4010C
:100020000C94D4010C945D0F0C945D0F0C945D0F37
:100030000C94D4010C942D080C94D4010C94D4018C
:100040000C94D4010C94260D0C94D4010C94D4017E
:100050000C94D4010C94D4010C94D4010C94E307B7
:100060000C94D4010C94480A0C94930A0C94D40177
:100070000C94D4010C94D4010C94D4010C94D401AC
:100080000C94D4010C94D4010C94D4010C94D4019C
:100090000C94D4010C94D4010C94D4010C94670FEB
:1000A0000C94D4010C94D4010C94D4010C94D4017C
:1000B0000C94D4010C94D4010C94D4010C94260B10
:1000C0000C94D4010C94D4010C94D4010C944A09DE
:1000D0000C9420090C94D4010C94F6080C94CC08D0
:1000E0000C94D4016D0C720C770C810C8B0C040DEC
:1000F000950C9D0CA50CAF0CB90CC30CD20CDC0CF0
:10010000040DE60CF00CFA0CB410B710A610AA10EF
:10011000B010EE10BB10BF10C510C910CD10D31019
:10012000D710DB10EE10E110E510E9100C94040B71
:100130000C94DE090C945B040C9408020C94830963
:100140000C9401020C94D7100C94810C0C94E110C7
:100150000C94DB010C94630E0C94AF0C0C94770C94
:100160000C949E070C9473070C940A0A0C94AA1022
:100170000C94D3100C94D6010C94040D0C94BF1065
:100180000C948B0C0C94AA0E0C94CD100C94C510EE
:100190000C94BD0A0C94C30C0C94B7100C94B410BE
:1001A0000C94550E0C94720C0C94B0100C94720EAE
:1001B0000C94DB100C94EE100C94A5090C94E9102F
:1001C0000C94DF090C949D0C0C94BB100C946D0CDA
:1001D0000C94950C0C94B90C0C94D20C0C949709BB
:1001E0000C94E5100C947A0E0C9405020C94FA0C05
:1001F0000C94540E0C94DC0C0C94A50C0C949E04E2
:100200000C9404170C94F00C0C9474090C94E60CE8
:100210000C94A6100C940A170C94D9010C94C910D4
:1002200002000020002300260029002C002F0032AD
:100230000000010000030106010901000021002463
:100240000027002A002D00300033000101000004C7
:100250000107010A0100002200250028002B002EC2
:10026000003100340002010000050108010B010506
:10027000050505070508080808020202020A0A081F
:100280000804040404010101010101010103030345
:100290000303030303040707070C0C0C0C0C0C0CE2
:1002A0000C0202020206060606060606060B0B0BE9
:1002B0000B0B0B0B0B010210202008081020401024
:1002C000204080020102010804020101020408101A
:1002D0002040808040201008040201800402018038
:1002E0004020100804020108040201010204081061
:1002F000204080010204081020408000000A0B0208
:10030000090C0D0E080703040100000000000000A6
:1003100000000000000000000000000000000000DD
:10032000000000000000001211100000000000009A
:1003300000000000000000000000000000000000BD
:1003400000000A17041711241FBECFEFD1E2DEBF51
:10035000CDBF00E00CBF13E0A0E0B2E0E6E2FBE3BB
:1003600000E00BBF02C007900D92A03BB107D9F788
:100370002AE0A0EBB3E001C01D92A330B207E1F781
:1003800011E0C2EAD1E000E006C021970109802F08
:10039000FE010E94F81AC13AD10780E00807A9F7C8
:1003A0000E940F130C94811D0C94000080E991E0D1
:1003B0000895249A0895CF93DF9300D000D0CDB74D
:1003C000DEB7AB011C821D821E82DC01ED91FC9127
:1003D0000190F081E02D19821A821B829E012F5F0D
:1003E0003F4FBE016C5F7F4F199526960FB6F8946C
:1003F000DEBF0FBECDBFDF91CF910895E0E0F0E00A
:100400001994FC0185859685089580E090E0089513
:100410004F925F926F927F928F92AF92BF92CF92E4
:10042000EF92FF920F931F93CF93DF933C01EB0169
:100430000E94BE07F30127853089621B730B6A3067
:100440007105B0F3F894E881F98155B1506185B137
:100450008F7E85B96A859F81262F291B922F2F8336
:10046000BF844A805B807D85FC84EE847F5FF3944B
:10047000E3943E814885A984CB841181D20120E098
:10048000C32F022F322F3181112788943111390F58
:1004900008F43FEF9195889470FD130F1795889499
:1004A00071FD130F1795889472FD130F179588949B
:1004B00073FD130F1795889474FD130F1795889487
:1004C00075FD130F1795889476FD130F1795889473
:1004D00077FD130F17958894232F7111212F960FF5
:1004E000122F002C55B900C000C017FF85B930810C
:1004F0002227889400C0002C85B931113C0F00C020
:10050000002C55B900C000C016FF85B908F43FEFB4
:10051000C195889400C0002C85B9F0FC230F00C061
:10052000002C55B900C000C015FF85B927958894E7
:10053000F1FC230F00C0002C85B92795889400C0DA
:10054000002C55B900C000C014FF85B9F2FC230F80
:100550002795889400C0002C85B9F3FC230F00C0B8
:10056000002C55B900C000C013FF85B927958894A9
:10057000F4FC230F00C0002C85B92795889400C097
:10058000002C55B900C000C012FF85B9F5FC230F3F
:100590002795889400C0002C85B9F6FC230F00C075
:1005A000002C55B900C000C011FF85B9279588946B
:1005B000F7FC230F00C0002C85B92795889400C054
:1005C000002C55B900C000C010FF85B9132FF110E1
:1005D000122FCA0D00C0002C85B900C000C0002C2D
:1005E00055B900C000C017FF85B932812227889411
:1005F00000C0002C85B93111340F00C0002C55B952
:1006000000C000C016FF85B908F43FEFEB0DF11DE7
:1006100000C0002C85B9E0FC230F00C0002C55B9A8
:1006200000C000C015FF85B927958894E1FC230F11
:1006300000C0002C85B92795889400C0002C55B9BE
:1006400000C000C014FF85B9E2FC230F27958894F1
:1006500000C0002C85B9E3FC230F00C0002C55B965
:1006600000C000C013FF85B927958894E4FC230FD0
:1006700000C0002C85B92795889400C0002C55B97E
:1006800000C000C012FF85B9E5FC230F27958894B0
:1006900000C0002C85B9E6FC230F00C0002C55B922
:1006A00000C000C011FF85B927958894E7FC230F8F
:1006B00000C0002C85B92795889400C0002C55B93E
:1006C00000C000C010FF85B9132FE110122F419513
:1006D00000C0002C85B94C0D00C000C055B900C049
:1006E00000C017FF85B931812227889400C0002CF3
:1006F00085B93111390F00C0002C55B900C000C0B8
:1007000016FF85B908F43FEF9195889400C0002C3E
:1007100085B970FD230F00C0002C55B900C000C082
:1007200015FF85B92795889471FD230F00C0002C13
:1007300085B92795889400C0002C55B900C000C029
:1007400014FF85B972FD230F2795889400C0002CF3
:1007500085B973FD230F00C0002C55B900C000C03F
:1007600013FF85B92795889474FD230F00C0002CD2
:1007700085B92795889400C0002C55B900C000C0E9
:1007800012FF85B975FD230F2795889400C0002CB2
:1007900085B976FD230F00C0002C55B900C000C0FC
:1007A00011FF85B92795889477FD230F00C0002C91
:1007B00085B92795889400C0002C55B900C000C0A9
:1007C00010FF85B9132F7111122F960F00C0002C46
:1007D00085B9119709F086CE20EE31E0D2010E9452
:1007E000001BDC01CB01F4E0B695A79597958795A2
:1007F000FA95D1F720E030E0A9016AE9469E040CA1
:10080000411D569E400D511D1124450D511D840F53
:10081000951FA11DB11D893E43E09407A105B105B7
:1008200008F434C0885E9340A109B10942E0B6954E
:10083000A795979587954A95D1F747E0849F080E2D
:10084000211D949F200D311D1124290F311D609110
:10085000CB0370E0860F971F820F931F4091D20346
:100860005091D3036091D4037091D503292F33277E
:10087000420F531F611D711D4093D2035093D30348
:100880006093D4037093D5038093CB0378940E9434
:10089000BE07F301708B6787DF91CF911F910F9196
:1008A000FF90EF90CF90BF90AF908F907F906F9020
:1008B0005F904F9008950F931F93CF93DF93CDB721
:1008C000DEB762970FB6F894DEBF0FBECDBF8C01C6
:1008D000F901DC011C968C917A8369835C834B83DC
:1008E0005E834D8390819D8791819E8792819F87B2
:1008F000813029F4CE0101960E94D50D06C01C86D8
:100900001B861A86198618861F82188A1A8A198ADF
:10091000D801ED91FC910484F585E02DBE016F5F57
:100920007F4FC801199562960FB6F894DEBF0FBECF
:10093000CDBFDF91CF911F910F9108950F931F931A
:10094000CF93DF93CDB7DEB762970FB6F894DEBFD3
:100950000FBECDBF8C01F901DC011C968C917A830E
:1009600069835C834B835E834D8390819D879181F6
:100970009E8792819F87813029F4CE0101960E9443
:10098000D50D06C01C861B861A86198618861F82FE
:1009900083E0888B1A8A198AD801ED91FC9104842E
:1009A000F585E02DBE016F5F7F4FC80119956296F6
:1009B0000FB6F894DEBF0FBECDBFDF91CF911F9170
:1009C0000F910895CF93DF9383E692E00E94C611C2
:1009D0004AE959E969E97EEB86ED99E00E940D0C40
:1009E0004DEC5CEC6CEC7DEB84ED99E00E940D0C21
:1009F00068EE73E080E090E00E947A118BE00E9444
:100A00005B11BC01990F880B990B0E94581920E0CB
:100A100030E040EC5FE30E94B7190E941B1BEB0122
:100A2000CB010E94D90EC43FD14044F340E050E0D6
:100A300060E070E886ED99E00E940D0C40E050E027
:100A4000BA0184ED99E00E940D0C8091CC03909145
:100A5000CD03019764E070E00E94E41A9093CD0307
:100A60008093CC03DF91CF9108958CE792E00E94B0
:100A7000C6114DEC5CEC6CEC7DE386ED99E00E94D8
:100A80000D0C4AE959E969E97EE384ED99E00E9499
:100A90000D0C68EE73E080E090E00E947A118CE02B
:100AA0000E945B11BC01990F880B990B0E94581989
:100AB00020E030E040EC5FE30E94B7190E941B1B6E
:100AC000643F714064F340E050E0BA0184ED99E086
:100AD0000E940D0C40E050E060E070E886ED99E087
:100AE0000E940D0C8091CC039091CD03019664E09F
:100AF00070E00E94E41A9093CD038093CC03089594
:100B000085E992E00E94C6118091CC039091CD03BB
:100B1000009731F48091CE039091CF03019607C0E6
:100B2000029749F48091CE039091CF03019790935F
:100B3000CF038093CE030895AF92BF92CF92DF92FE
:100B4000EF92FF920F931F93CF93DF9364EF71E0C7
:100B500080E090E00E947A1182EB92E00E94C61140
:100B60008DE00E945B1188359240FCF440E050E03B
:100B7000BA0184ED99E00E940D0C4DEC5CEC6CE444
:100B80007EEB86ED99E00E940D0C8DE00E945B11DA
:100B9000883592403CF462E370E080E090E00E948F
:100BA0007A11F3CF00E010E002C001E010E08DE028
:100BB0000E945B118835924024F0CC24C394D12C40
:100BC00032C08091C9039091CA030197B1F740E008
:100BD00050E0BA0184ED99E00E940D0C4DEC5CEC04
:100BE0006CE47EEB86ED99E00E940D0C8DE00E9496
:100BF0005B11883592400CF762E370E080E090E092
:100C00000E947A11F3CF88E5E81682E0F8060CF02E
:100C1000D5C0C43FD1400CF0D1C024EFA21621E0D2
:100C2000B2060CF0CBC08DE00E945B117C018CE021
:100C30000E945B11BC01990F880B990B0E945819F7
:100C400020E030E040EC5FE30E94B7190E941B1BDC
:100C5000EB018BE00E945B11BC01990F880B990B93
:100C60000E94581920E030E040EC5FE30E94B71981
:100C70000E941B1B5B014DEC5CEC6CE47EE384ED9D
:100C800099E00E940D0C40E050E060E070E886EDD5
:100C900099E00E940D0CD092CA03C092C9030130A2
:100CA000110569F48DE00E945B1189359240DCF0FA
:100CB00062E370E080E090E00E947A11F3CF8DE073
:100CC0000E945B11883592403CF462E370E080E062
:100CD00090E00E947A11F3CF88E5E81682E0F806EA
:100CE0000CF447C04AC028E5E21622E0F2060CF1F7
:100CF00040E050E0BA0184ED99E00E940D0C4DEC0B
:100D00005CEC6CE47EEB86ED99E00E940D0C109299
:100D1000CA031092C9038DE00E945B11883592408E
:100D20000CF071CF62E370E080E090E00E947A11F5
:100D3000F2CFC43F81E0D807DCF684EFA81681E04B
:100D4000B806E4F140E050E0BA0184ED99E00E9479
:100D50000D0C4DEC5CEC6CE47EEB86ED99E00E94B2
:100D60000D0C1092CA031092C90301301105C1F491
:100D7000D2CFC43F21E0D20704F340E050E0BA01F3
:100D800084ED99E00E940D0C4DEC5CEC6CE47EEB84
:100D900086ED99E00E940D0C1092CA031092C903CF
:100DA0008DE00E945B11893592400CF42CCF62E3F8
:100DB00070E080E090E00E947A11F2CFDF91CF9155
:100DC0001F910F91FF90EF90DF90CF90BF90AF9069
:100DD00008950F931F93CF93DF938C01EB018BEC5E
:100DE00092E00E94C6118091D0039091D1038017A8
:100DF000910749F10E949C0587EE92E00E94C6117E
:100E000084E093E00E945B0FC8010E94D90E8DE040
:100E100093E00E945B0F8091D0039091D1030E94D8
:100E2000D90E89E193E00E945B0FCE010E94D90E9A
:100E300082E293E00E945B0F8091CE039091CF03FA
:100E40000E94D90ED0CF8091CE039091CF038C1702
:100E50009D078CF48091CC039091CD03019711F400
:100E60000E94E2048091CC039091CD030397B1F4EA
:100E70000E94350513C0C817D90784F48091CC03AC
:100E80009091CD03019711F40E9435058091CC0318
:100E90009091CD03039711F40E94E2048091CE0358
:100EA0009091CF038C179D07C9F00E949C050E946A
:100EB00080058DE093E00E945B0F8091D0039091BC
:100EC000D1030E94D90E82E293E00E945B0F8091D1
:100ED000CE039091CF030E94D90EE0CFDF91CF9146
:100EE0001F910F910895CF92DF92EF92FF920F938F
:100EF0001F93CF93DF936C017A018B01C0E0D0E0A8
:100F0000CE15DF0589F0D8016D918D01D601ED91E7
:100F1000FC910190F081E02DC6011995892B11F407
:100F20007E0102C02196ECCFC701DF91CF911F91C6
:100F30000F91FF90EF90DF90CF9008950E946C1D6D
:100F40008CE096E00E94A50921E0892B09F420E0BD
:100F5000822F089589EA96E00E94A50921E0892B55
:100F600009F420E0822F089586E497E00E94A50905
:100F700021E0892B09F420E0822F08953FB7F894EF
:100F80008091640590916505A0916605B091670513
:100F900026B5A89B05C02F3F19F00196A11DB11DD4
:100FA0003FBFBA2FA92F982F8827820F911DA11D0F
:100FB000B11DBC01CD0142E0660F771F881F991F4C
:100FC0004A95D1F708951F920F920FB60F921124F0
:100FD0002F933F938F939F93AF93BF938091D203AF
:100FE0009091D303A091D403B091D50330916305C0
:100FF00023E0230F2D3720F40196A11DB11D05C05C
:1010000026E8230F0296A11DB11D2093630580934E
:10101000D2039093D303A093D403B093D5038091CC
:10102000640590916505A0916605B09167050196EC
:10103000A11DB11D8093640590936505A09366057D
:10104000B0936705BF91AF919F918F913F912F9181
:101050000F900FBE0F901F9018951F920F920FB612
:101060000F9211240BB60F922F933F934F935F93E0
:101070006F937F938F939F93AF93BF93EF93FF9360
:101080008091D9039091DA03A091DB03B091DC0346
:10109000892B8A2B8B2B59F18091D803E091D603B1
:1010A000F091D7039081892780838091D903909113
:1010B000DA03A091DB03B091DC03181619061A06B7
:1010C0001B060CF056C08091D9039091DA03A091D1
:1010D000DB03B091DC030197A109B1098093D90327
:1010E0009093DA03A093DB03B093DC0342C08091BA
:1010F0000002E0E2F2E0E4919FEF90930002E23020
:10110000C9F050F4EE2399F0E13081F590916F0031
:101110009D7F90936F002AC0E43019F1E0F0E53034
:1011200029F5909173009D7F909373001FC01092DA
:101130006E001CC0909170009D7F9093700091E0B4
:101140009093B0009091B100987F94609093B1001B
:101150001092B3000BC0909171009D7F909371002D
:1011600005C0909172009D7F9093720060E00E9494
:10117000EF10FF91EF91BF91AF919F918F917F9170
:101180006F915F914F913F912F910F900BBE0F90F8
:101190000FBE0F901F9018951F920F920FB60F92CF
:1011A00011240BB60F922F933F934F935F936F933E
:1011B0007F938F939F93AF93BF93EF93FF938CE0B5
:1011C00096E00E94720AFF91EF91BF91AF919F91BB
:1011D0008F917F916F915F914F913F912F910F90E0
:1011E0000BBE0F900FBE0F901F9018951F920F927D
:1011F0000FB60F9211240BB60F922F933F934F937C
:101200005F936F937F938F939F93AF93BF93EF936E
:10121000FF938CE096E00E942F0AFF91EF91BF911F
:10122000AF919F918F917F916F915F914F913F917E
:101230002F910F900BBE0F900FBE0F901F9018951F
:101240001F920F920FB60F9211240BB60F922F938D
:101250003F934F935F936F937F938F939F93AF933E
:10126000BF93EF93FF9389EA96E00E94720AFF9181
:10127000EF91BF91AF919F918F917F916F915F910E
:101280004F913F912F910F900BBE0F900FBE0F907B
:101290001F9018951F920F920FB60F9211240BB644
:1012A0000F922F933F934F935F936F937F938F93FF
:1012B0009F93AF93BF93EF93FF9389EA96E00E94C9
:1012C0002F0AFF91EF91BF91AF919F918F917F91E5
:1012D0006F915F914F913F912F910F900BBE0F90A7
:1012E0000FBE0F901F901895FC01538D448D252F34
:1012F00030E0842F90E0821B930B541710F0CF96B0
:10130000089501970895FC01918D828D981761F0E1
:10131000828DDF01A80FB11D5D968C91928D9F5F2C
:101320009F73928F90E008958FEF9FEF0895FC01D7
:10133000918D828D981731F0828DE80FF11D858D8A
:1013400090E008958FEF9FEF0895FC01918D228D1D
:10135000892F90E0805C9F4F821B91098F739927A2
:10136000089580E090E0892B21F00E94B40781115C
:1013700019C080E090E0892B41F080E090E0892B5B
:1013800021F00E940000811110C00E94AA07811163
:101390000FC080E090E0892B81F00E94A0078111AE
:1013A0000AC008950E940000E4CF0E940000EDCF23
:1013B0000E94FE01EECF0C9400000895089580E095
:1013C00090E00895FC01248131E03093DC05209306
:1013D000FE051092DD051092FF058485682B80E0E4
:1013E00096E00E94AA0E0C94FC110F931F93CF93CA
:1013F0008C01C62F64600E94E2096C2F6B7FC801CC
:101400000E94E20983EC90E00197F1F7CF911F91E0
:101410000F9108950F931F93CF93DF938C01C62FE5
:10142000D62FD07FD1606D2F0E94E2096D2FC801A9
:101430000E94F50980E1C89FB0011124C62FC16048
:101440006C2FC8010E94E2096C2FC8010E94F509A7
:1014500081E090E0DF91CF911F910F910895FC0101
:10146000A089B1898C91A689B78982FD0FC09C9112
:10147000818D8F5F8F73228D821749F0218DDF015F
:10148000A20FB11D5D969C93818F08958C91089554
:101490001F920F920FB60F9211240BB60F922F933B
:1014A0003F934F935F936F937F938F939F93AF93EC
:1014B000BF93EF93FF9386E497E00E942F0AFF917A
:1014C000EF91BF91AF919F918F917F916F915F91BC
:1014D0004F913F912F910F900BBE0F900FBE0F9029
:1014E0001F901895FC01848DDF01A80FB11DA35A30
:1014F000BF4F2C91848D90E001968F739927848F34
:10150000A689B7892C93A089B1898C9180648C932A
:10151000938D848D981306C00288F389E02D808115
:101520008F7D808308951F920F920FB60F92112422
:101530000BB60F922F933F934F935F936F937F93CD
:101540008F939F93AF93BF93EF93FF9386E497E0BE
:101550000E94720AFF91EF91BF91AF919F918F917D
:101560007F916F915F914F913F912F910F900BBEA3
:101570000F900FBE0F901F901895EF92FF920F9350
:101580001F93CF93DF93EC0181E0888F9B8D8C8D2F
:10159000981305C0E889F989808185FD24C0F62E5D
:1015A0000B8D10E00F5F1F4F0F731127E02E8C8DF6
:1015B000E8120CC00FB607FCFACFE889F9898081E0
:1015C00085FFF5CFCE010E94720AF1CF8B8DFE010F
:1015D000E80FF11DE35AFF4FF0820B8FEA89FB8978
:1015E0008081806207C0EE89FF896083E889F9897C
:1015F00080818064808381E090E0DF91CF911F91B2
:101600000F91FF90EF900895CF93DF93EC01888DB9
:101610008823C9F0EA89FB89808185FD05C0A889F6
:10162000B9898C9186FD0FC00FB607FCF5CF80817C
:1016300085FFF2CFA889B9898C9185FFEDCFCE01C6
:101640000E94720AE7CFDF91CF9108951F920F9207
:101650000FB60F9211240BB60F922F933F934F9317
:101660005F936F937F938F939F93AF93BF93CF932A
:10167000DF93EF93FF932091E40730E0F901E55009
:10168000FD4F8491F901EB54FD4FD491F901E159DB
:10169000FD4FC491CC23A1F081110E949910EC2F31
:1016A000F0E0EE0FFF1FEF5DFD4FA591B491EC91BF
:1016B000ED2331E020E009F430E0832F922F02C0C7
:1016C00080E090E02091E8073091E9072F5F3F4FDD
:1016D0003093E9072093E8072091E707253618F0B3
:1016E00026E02093E3072091E3072430D9F128F482
:1016F000223069F02330D9F060C0253009F453C09E
:10170000263009F05AC021E02093B40853C0009756
:1017100009F053C02091E8073091E90724363105DC
:1017200008F443C01092B4081092E7071DC081303E
:10173000910509F042C0E091E70721E02E0F2093C8
:10174000E707F0E02091E8073091E907EE0FFF1F6F
:10175000ED51F84F308727831092E9071092E80780
:1017600024E029C00097B9F4E091E70721E02E0FAB
:101770002093E707F0E02091E8073091E907EE0FAA
:10178000FF1FED51F84F308727831092E907109221
:10179000E80723E010C02091E8073091E9072536DB
:1017A000310558F007C0009741F41092E9071092F4
:1017B000E80703C025E02093E3072091E6072223F2
:1017C000B9F0892B51F48091E507882321F08091AD
:1017D000E50761E009C02F9A0BC08091E5078823D7
:1017E00031F08091E50760E00E94EF1001C02F9872
:1017F000FF91EF91DF91CF91BF91AF919F918F9129
:101800007F916F915F914F913F912F910F900BBE00
:101810000F900FBE0F901F9018958F929F92AF92CE
:10182000BF92CF92DF92EF92FF920F931F93CF93CD
:10183000DF93EC016A017B0120E030E04FE753E4E5
:10184000C701B6010E94B7194B015C0120E030E0EE
:10185000A9010E94511B18161CF4C501B40103C054
:10186000C501B40190580E941B1B8B0120E030E0A1
:10187000A901C701B6010E94511B181614F460E0BB
:1018800001C061E089810E94EF100F3F110509F04E
:1018900014F4112702C00FEF10E0C88161E08C2F13
:1018A0000E941F110115110509F4B1C00F3F110568
:1018B00009F4AFC0EC2FF0E0E550FD4FE4914E2F5E
:1018C00050E0FA013197E231F10508F09DC0882718
:1018D000EE58FF4F8F4F0C94F81A84B5806884BD82
:1018E00007BDA7C084B5806284BD08BDA2C0809139
:1018F00080008068809380001093890000938800A6
:1019000098C08091800080628093800010938B004B
:1019100000938A008EC08091800088608093800050
:1019200010938D0000938C0084C08091B00080687B
:101930008093B0000093B3007CC08091B0008062BF
:101940008093B0000093B40074C0809190008068D0
:101950008093900010939900009398006AC0809142
:10196000900080628093900010939B0000939A00F7
:1019700060C08091900088608093900010939D00DB
:1019800000939C0056C08091A00080688093A000C6
:101990008091A0008F7B8093A0001093A9000093FA
:1019A000A80047C08091A00080628093A00010939F
:1019B000AB000093AA003DC08091A0008860809396
:1019C000A0001093AD000093AC0033C080912001C3
:1019D000806880932001109329010093280129C079
:1019E0008091200180628093200110932B0100934D
:1019F0002A011FC0809120018860809320011093EC
:101A00002D0100932C0115C00038110514F460E07D
:101A100001C061E08C2FDF91CF911F910F91FF905A
:101A2000EF90DF90CF90BF90AF909F908F900C94ED
:101A3000EF10DF91CF911F910F91FF90EF90DF900A
:101A4000CF90BF90AF909F908F9008951F920F926C
:101A50000FB60F9211240BB60F922F933F934F9313
:101A60005F936F937F938F939F93AF93BF93EF9306
:101A7000FF938091690587FF05C010928500109241
:101A8000840016C020916905022E000C330B809152
:101A9000F10890E0281739075CF43091690525E0DA
:101AA0003203F0011124EB54F74F808186FD15C0FD
:101AB000809169058F5F8093690520916905022EE9
:101AC000000C330B8091F10890E02817390794F44B
:101AD000809169058C302CF10DC03091690532037D
:101AE000F0011124EB54F74F808160E08F730E9466
:101AF000EF10DECF809184009091850084349C4962
:101B000018F480E49CE905C08091840090918500E0
:101B1000049690938900809388008FEF80936905E5
:101B20002AC040918400509185003091690525E0DC
:101B30003203F0011124EB54F74F81819281840F1D
:101B4000951F909389008093880030916905320336
:101B5000F0011124EB54F74F808186FF0CC03091C7
:101B600069053203F0011124EB54F74F808161E0E5
:101B70008F730E94EF10FF91EF91BF91AF919F91F2
:101B80008F917F916F915F914F913F912F910F9026
:101B90000BBE0F900FBE0F901F9018958EBD0000CA
:101BA0000DB407FEFDCF8EB50895EF92FF920F930F
:101BB0001F93CF93DF93EC01909168059F5F292FCE
:101BC00027702093680590FF02C090E801C090E064
:101BD00021FD9064247009F0906220E1290FFE013C
:101BE0003C967E018FE0E80EF11C00E011E061916F
:101BF000662331F070E0C8010E94E41A6F5F01C0F3
:101C000060E0DF0114976C93322F369F030E30E0B3
:101C1000311D1124CF010797311103C0EC01188247
:101C200003C03150EC013883662311F061506C938E
:101C3000EE15FF05E1F6DF91CF911F910F91FF9017
:101C4000EF90089585ED8093BC008091BC0084FDE9
:101C5000FCCF1092DB05089540918E05262F30E0D1
:101C6000240F311D21323105DCF42091DB052430B5
:101C7000C9F4FC0180E090E0861758F430918E059D
:101C80002191DC01A459BA4FA30FB11D2C930196E9
:101C9000F3CF80918E05680F60938E0580E00895E4
:101CA00081E0089582E00895089581E090E0309108
:101CB0006B0520916A05321710F480E090E0919551
:101CC00081959109089580916B0590916A05891716
:101CD00030F48F5F80936B0580E090E008958FEF84
:101CE0009FEF089580916A0590E020916B05821B1B
:101CF00091090895CF92DF92EF92FF920F931F9375
:101D0000CF93DF937C01262F972F8A018091DC05EA
:101D1000882391F0C62FD72F6E01C40ED51ECC1587
:101D2000DD0571F06991D701ED91FC910190F08191
:101D3000E02DC7011995F3CF642F822F0E942C0E3E
:101D4000C801DF91CF911F910F91FF90EF90DF902D
:101D5000CF900895CF93DF931F92CDB7DEB76983FD
:101D60002091DC052223D1F02091FF05203240F0A4
:101D700021E030E0FC013383228380E090E015C055
:101D80008091DD05E82FF0E0E252FA4F99819083CF
:101D90008F5F8093DD058093FF0505C061E0CE0174
:101DA00001960E942C0E81E090E00F90DF91CF9180
:101DB00008958F929F92AF92BF92CF92DF92EF924F
:101DC000FF920F931F93CF93DF93CDB7DEB7A19709
:101DD0000FB6F894DEBF0FBECDBF6C01990FEE08B1
:101DE000FF08F7FE31C0E0914607F09147070190E8
:101DF000F081E02D6DE286E497E019958C012227B1
:101E00003327A9012C193D094E095F0919A2CE01FA
:101E100081967C019AE0892E912CA12CB12CCA01CB
:101E2000B901A50194010E94A71A605DF7016293B0
:101E30007F01211531054105510589F7CF010E9428
:101E4000B411080F191F1EC0A701960119A28E0117
:101E50000F5D1F4F8AE0C82ED12CE12CF12CCA0156
:101E6000B901A70196010E94A71A605DF80162936B
:101E70008F01211531054105510589F7CF010E94D8
:101E8000B4118C018EE793E00E94B411800F911F72
:101E9000A1960FB6F894DEBF0FBECDBFDF91CF91F4
:101EA0001F910F91FF90EF90DF90CF90BF90AF9078
:101EB0009F908F9008950C94B4111F920F920FB6BB
:101EC0000F9211240F900FBE0F901F9018951F9224
:101ED0000F920FB60F9211240BB60F922F933F93D0
:101EE0004F935F936F937F938F939F93AF93BF9322
:101EF000EF93FF938091B900887F803609F49CC0EE
:101F000068F5883209F45BC090F4803109F454C05C
:101F100038F4882309F4F6C0883009F44DC0F6C0BF
:101F2000883109F44CC0803209F45DC0EFC08034C0
:101F300009F468C048F4803309F455C0883309F0C7
:101F4000E5C08093D905D8C0803509F44FC08835E5
:101F500009F45DC0883409F0D9C0D6C0883909F4C5
:101F6000C7C0A8F4883709F467C038F4883609F484
:101F700063C0803709F460C0C9C0883809F4B8C0AC
:101F8000803909F45FC0803809F0C0C05BC0803B75
:101F900009F486C038F4803A09F466C0883A09F436
:101FA0007FC0B4C0803C09F4A7C0883C09F4A4C039
:101FB000883B09F48AC0AAC08091B60510C09091F0
:101FC000D8058091D705981770F5E091D80581E084
:101FD0008E0F8093D805F0E0E954FA4F808180930A
:101FE000BB0085EC86C08093D9058EC0E091D805F2
:101FF00081E08E0F8093D8058091BB00F0E0E9541A
:10200000FA4F80839091D8058091D7056EC0E091FA
:10201000D80581E08E0F8093D8058091BB00F0E059
:10202000E954FA4F80838091DA0581116DC081E017
:102030008093B50584EA61C083E08093DB0510924C
:10204000B205CFCF8091B205803208F051C0E09147
:10205000B20581E08E0F8093B2058091BB00F0E065
:10206000EE56FA4F8083BDCF85EC8093BC00109272
:10207000DB058091B205803230F4E091B205F0E0EA
:10208000EE56FA4F10826091B20570E0E091900533
:10209000F091910582E995E019951092B20536C04C
:1020A00084E08093DB0510928F0510928E05E091FD
:1020B0008C05F0918D05199580918E05811105C0D3
:1020C00081E080938E0510926C05E0918F0581E090
:1020D0008E0F80938F05F0E0E459FA4F8081809352
:1020E000BB0090918F0580918E05981708F479CFE9
:1020F00085E88093BC000AC085EC8093BC001092F8
:10210000DB0504C01092D9050E94220EFF91EF91C9
:10211000BF91AF919F918F917F916F915F914F91FF
:102120003F912F910F900BBE0F900FBE0F901F90FD
:10213000189590E0FC013197E231F10508F04EC0AE
:102140008827EC57FF4F8F4F0C94F81A809180002E
:102150008F7703C0809180008F7D809380000895E9
:1021600080918000877FF9CF84B58F7702C084B5D6
:102170008F7D84BD08958091B0008F7703C08091DA
:10218000B0008F7D8093B0000895809190008F778C
:1021900007C0809190008F7D03C080919000877F61
:1021A0008093900008958091A0008F7707C0809160
:1021B000A0008F7D03C08091A000877F8093A00046
:1021C0000895809120018F7707C0809120018F7D35
:1021D00003C080912001877F8093200108951F9381
:1021E000CF93DF93282F30E0F901E550FD4F849124
:1021F000F901EB54FD4FD491F901E159FD4FC49120
:10220000CC23C9F0162F81110E949910EC2FF0E019
:10221000EE0FFF1FEB5AFD4FA591B4918FB7F894C5
:10222000111105C09C91ED2FE095E92302C0EC91BE
:10223000ED2BEC938FBFDF91CF911F910895CF933A
:10224000DF9390E0FC01EB54FD4F2491FC01E15938
:10225000FD4F8491882361F190E0880F991FFC0164
:10226000E55CFD4FC591D491FC01EB5AFD4FA59162
:10227000B491611109C09FB7F89488812095822399
:102280008883EC912E230BC0623061F49FB7F894E1
:102290003881822F809583238883EC912E2B2C9379
:1022A0009FBF06C08FB7F894E8812E2B28838FBF7D
:1022B000DF91CF910895863308F0865390917B008B
:1022C000282F2870977F922B90937B0087708064D3
:1022D00080937C0080917A00806480937A00809162
:1022E0007A0086FDFCCF809178002091790090E003
:1022F000922B08958F929F92AF92BF92CF92DF92CE
:10230000EF92FF926B017C010E94BE074B015C01C2
:10231000C114D104E104F104F1F00E94BE07DC0114
:10232000CB0188199909AA09BB09883E9340A105E8
:10233000B10570F321E0C21AD108E108F10888EE76
:10234000880E83E0981EA11CB11CC114D104E104C5
:10235000F10419F7DDCFFF90EF90DF90CF90BF90A1
:10236000AF909F908F900895009769F0FC010190C5
:102370000020E9F73197AF01481B590BBC0186E4F7
:1023800097E00C94730780E090E00895CF93DF937B
:102390000E94B411EC018EE793E00E94B4118C0FFF
:1023A0009D1FDF91CF910895E6E4F7E0A089B18900
:1023B00082E08C93A485B5851C92A685B7858FECA9
:1023C0008C93108EA489B58986E08C93A289B389F9
:1023D0008C9180618C93A289B3898C9188608C9355
:1023E000A289B3898C9180688C930288F389E02D4F
:1023F00080818F7D808308952091FF059091FE0557
:10240000213208F04AC08091DB058111FCCF32E017
:102410003093DB0531E03093DA053FEF3093D90597
:102420001092D8052093D705AEEDB5E047EB55E007
:10243000FA013E2F341B321718F43D913193F9CF36
:102440001092B6052091B605990F922B9093B60580
:102450009091B505913061F41092B5059091B60553
:102460009093BB009091BC0093FDF8CF95EC01C018
:1024700095EE9093BC009091DB059230E1F3909142
:10248000D9059F3F79F08091D905803241F0809144
:10249000D905803331F084E005C081E003C082E0DB
:1024A00001C083E01092DD051092FF051092DC055B
:1024B0000895EF92FF921F93CF93DF931F92CDB7B2
:1024C000DEB7162F9BEBE92E99E0F92ED7011C966B
:1024D0009C911C9721E02093DC059093FE051092BF
:1024E000DD051092FF051A960D90BC91A02DED917F
:1024F000FC9111970190F081E02D682FCD01798337
:102500001995F70182859385DC01ED91FC9101908D
:10251000F081E02D7981672F1995F70182859385E8
:10252000DC01ED91FC910190F081E02D612F199576
:102530000F90DF91CF911F91FF90EF900C94FC11C1
:10254000CF92DF92EF92FF92CF93DF93823018F019
:1025500081E893E00AC09091E6099B3520F49091C0
:10256000E7099A3550F483E993E0DF91CF91FF902A
:10257000EF90DF90CF900C94C611E82FF0E0E4527A
:10258000F64FC089CC3008F043C085E0C89FE00119
:102590001124CB54D74F8B8128E830E06901C81A49
:1025A000D10887FDD394CC0CDD1CCC0CDD1C0D2C8C
:1025B000000CEE08FF088C8128E532E0281B310969
:1025C00087FD3395220F331F220F331FC901330FAD
:1025D000AA0BBB0B9C01AD012C193D094E095F09EB
:1025E000AAE5B0E00E94941A24EB30E040E050E00D
:1025F0000E94751AC20ED31EE41EF51E86E0C81A8C
:10260000D108CC0CDD1C8FB7F894DA82C9828FBF59
:10261000DF91CF91FF90EF90DF90CF900895789465
:1026200084B5826084BD84B5816084BD85B58260D7
:1026300085BD85B5816085BD80916E008160809388
:102640006E001092810080918100826080938100F1
:102650008091810081608093810080918000816001
:10266000809380008091B10084608093B10080915C
:10267000B00081608093B00080919100826080936F
:1026800091008091910081608093910080919000F1
:102690008160809390008091A10082608093A1006E
:1026A0008091A10081608093A1008091A000816051
:1026B0008093A0008091210182608093210180910C
:1026C00021018160809321018091200181608093AC
:1026D000200180917A00846080937A0080917A0052
:1026E000826080937A0080917A00816080937A0082
:1026F00080917A00806880937A001092C1000E94D5
:10270000D41161E08091BC090E941F1160E08091AA
:10271000BC090E94EF1060E08091BB090E941F116C
:1027200080E096E09093C6098093C50910926B05EE
:1027300010926A051092DD051092FF051092DB05DC
:1027400081E08093DA051092B50561E084E10E9492
:10275000EF1061E085E10E94EF108091B9008E7F5B
:102760008093B9008091B9008D7F8093B90088E48F
:102770008093B80085E48093BC0080E090E1A0E005
:10278000B0E08093C8099093C909A093CA09B09397
:10279000CB098AE090E0A0E0B0E08093CC09909370
:1027A000CD09A093CE09B093CF0980E090E0A0E0DE
:1027B000B0E48093D0099093D109A093D209B0934B
:1027C000D30960E070E185E00E9459126FE979E376
:1027D00080E00E945912C8EDD9E0C12CD12CE12C27
:1027E000F12C54EA252E52E0352E6AEE462E62E098
:1027F000562E7BECA72E77E0B72EEBE88E2E992491
:102800009394C7018554964F3C01FC0194818281C9
:1028100086010554164FF801818F928F61E00E9466
:102820001F1161E0F801828D0E941F11F301908554
:1028300086818883F801968F61E00E941F1160E015
:10284000F801868D0E941F1161E088810E94EF10BF
:102850001FB7F8948091DD03811125C0F1018491A7
:10286000F2019491E82FF0E0EE0FFF1FE55CFD4FC1
:10287000A591B4918C91982321F461E085E30E94A5
:10288000EF1061E085E30E941F118CB580618CBD63
:102890008CB580648CBD61E084E30E941F1161E00F
:1028A00083E30E941F118091DD038F5F8093DD031E
:1028B0001FBFC5010197F1F760E088810E94EF100A
:1028C00088E80E94CE0D83E00E94CE0D61E08881F1
:1028D0000E94EF10C5010197F1F760E088810E9426
:1028E000EF1088E90E94CE0D80E00E94CE0D80E0BE
:1028F0000E94CE0D80E00E94CE0D80E00E94CE0DA1
:1029000061E088810E94EF10C4010197F1F760E057
:1029100088810E94EF1080EE0E94CE0D61E08881D8
:102920000E94EF10F2E0CF0ED11C2296EA94EF281D
:1029300021F0EE24E394F12C64CFC0EED9E01C2FFB
:102940001C5F60E089910E941F111C13FACF0FEEEB
:1029500019E0CCEED9E085E0C82E9CE0E92E22E01B
:10296000B22EDC2ED394D394FE013897F080888168
:102970008C3008F044C061E08F2D0E941F118881C7
:10298000C89EF0011124EB54F74F9F2D9F732081B7
:10299000207CF22EF92AF082138214826E2D0E947E
:1029A000D81AECE08E9FA001112420E030E0B9019C
:1029B000640F751FC69EF001C79EF00D1124EB54E5
:1029C000F74F908196FD12C02F5F3F4F2C3031059D
:1029D00071F781110BC010928000B09281001092AB
:1029E000850010928400B6BAB0926F00E881CE9E46
:1029F000F0011124EB54F74F808180648083FE0145
:102A00003297908132978081F80131978083F80165
:102A1000908360E00E941F1161E0F80180810E94B4
:102A20001F1160E0F80180810E94EF1021960E5F77
:102A30001F4FDC1299CFF8941092200189E0809307
:102A4000210180E293E09093290180932801109264
:102A500025011092240182E0809373007894809382
:102A6000E3071092E7078091E40760E00E941F11DE
:102A700060E08BE00E941F1160E08CE00E941F115B
:102A800060E08DE00E941F1160E08EE00E941F1147
:102A900060E08FE00E941F110E94D4118091F30327
:102AA000811145C01092E5031092E4038FEF8093EB
:102AB000E8038093E9038093EA038093EB03809318
:102AC000EC038093ED0381E08093EE031092F0031A
:102AD0001092EF031092E7031092E6038091E00357
:102AE0009091E103892B31F482EE93E09093E1031E
:102AF0008093E003E091DE03F091DF03309721F053
:102B000082EE93E09583848382EE93E09093DF03DB
:102B10008093DE031092F2031092F1038FE192E0B2
:102B20009093E3038093E20381E08093F303E091C9
:102B3000E203F091E3030480F581E02D82EE93E05F
:102B400019958BEF93E09093E5038093E40388E776
:102B500090E09093F0038093EF03E091E203F09113
:102B6000E3030284F385E02D82EE93E0199500974C
:102B700029F19C0140E050E060E472E48FE090E0D5
:102B80000E94751A722F632F0091F5091091F609B2
:102B90002091F7093091F809872F962FDA018017D5
:102BA0009107A207B30710F4D901C8018093F50972
:102BB0009093F609A093F709B093F8098FEF8093EB
:102BC000E80380EB8093E90380EF8093EA0384E6D7
:102BD0008093F20980E00E94A01281E00E94A0127E
:102BE000C1E0D0E08EE293E00E945B0F8DE00E9496
:102BF0005B110E94D90E88E393E00E945B0F8CE08A
:102C00000E945B110E94D90E82E493E00E945B0F48
:102C10008BE00E945B110E94D90E60ED77E080E0AE
:102C200090E00E947A118CE493E00E94C611109209
:102C3000D1031092D0031092CF031092CE03D09301
:102C4000CD03C093CC030E94471983E090E00E941B
:102C5000D90E81E090E00E94D90E82E090E00E94BF
:102C6000D90E82E090E00E94D90E84E693E00E94A3
:102C7000C6114DEC5CEC6CE47EEB86ED99E00E94B5
:102C80000D0C4DE35AE067E57EE384ED99E00E9488
:102C90000D0C8DE00E945B117C018CE00E945B11A9
:102CA000BC01990F880B990B0E94581920E030E065
:102CB00040EC5FE30E94B7190E941B1B8B018BE065
:102CC0000E945B11BC01990F880B990B0E94581947
:102CD00020E030E040EC5FE30E94B7190E941B1B2C
:102CE00088E5E81682E0F80634F4043F11401CF44D
:102CF000643F714074F28091D0039091D1030196AA
:102D00009093D1038093D0030E94E2040E949C051B
:102D10008091CE039091CF0301969093CF0380933F
:102D2000CE030E94350561E070E083E090E00E94F0
:102D3000E9068091D0039091D103039794F080919C
:102D4000CC039091CD03029719F40E94350509C078
:102D50008091CC039091CD03039719F00E94E20477
:102D6000F7CF68EE73E080E090E00E947A1168EEA1
:102D700073E080E090E00E947A1162E070E082E00F
:102D800090E00E94E9068091CC039091CD03892BBD
:102D900011F40E94E2048091CC039091CD0302973C
:102DA00011F40E943505E090CE03F090CF0300911E
:102DB000D0031091D103E114F10429F00E949C0585
:102DC0000E948005F8CF0130110519F40E94E20439
:102DD00005C00230110531F40E9435050E949C05A2
:102DE0000E94350540E050E0BA0184ED99E00E9470
:102DF0000D0C40E050E060E070E886ED99E00E9444
:102E00000D0C0E94B109EECE8091F2089091F3086A
:102E10000C94EB1B109203061092020688EE93E0CE
:102E2000A0E0B0E08093040690930506A093060608
:102E3000B093070627E332E03093010620930006A3
:102E400010920F0610920E068093100690931106B2
:102E5000A0931206B093130629E432E030930D06D6
:102E600020930C0645E351E0509319064093180651
:102E700044E351E050931B0640931A0640E351E0AF
:102E800050931D0640931C0641E351E050931F06EA
:102E900040931E0642E351E05093210640932006E2
:102EA00046E351E0509323064093220610922506F4
:102EB0001092260610922706109228061092AC0651
:102EC0001092AB068093AD069093AE06A093AF062A
:102ED000B093B0063093AA062093A90645ED50E0C2
:102EE0005093B6064093B50644ED50E05093B806B3
:102EF0004093B70640ED50E05093BA064093B906B0
:102F000041ED50E05093BC064093BB0642ED50E0CB
:102F10005093BE064093BD0646ED50E05093C00668
:102F20004093BF061092C2061092C3061092C406C8
:102F30001092C506109249071092480780934A07DD
:102F400090934B07A0934C07B0934D0730934707DE
:102F50002093460785EC90E09093530780935207A7
:102F600084EC90E0909355078093540780EC90E0B8
:102F7000909357078093560781EC90E09093590700
:102F80008093580782EC90E090935B0780935A07F8
:102F900086EC90E090935D0780935C0710925F074A
:102FA00010926007109261071092620786E3809387
:102FB000DC0987E38093DD0988E38093DE0989E3F8
:102FC0008093DF098BE18093E0098DE18093E10933
:102FD0008AE18093E2098CE18093E30984E08093A5
:102FE000E40987E08093E5091092E60984EB809379
:102FF000E70986E18093E80988E18093E90987E1A0
:103000008093EA0989E18093EB09E091F108EC30C3
:1030100020F08FEF8093EC0910C081E08E0F809339
:10302000F108E093EC0925E0E29FF0011124EB5454
:10303000F74F88EB9BE092838183E091F108EC30BD
:1030400020F08FEF8093ED0910C081E08E0F809308
:10305000F108E093ED0985E0E89FF0011124EB54BD
:10306000F74F88EB9BE0928381838CE08093BB09D0
:1030700084E28093BC0986E08093BD0985E080935B
:10308000BE098FE18093BF098EE18093C00983E27E
:103090008093C10982E28093C20985E48093C309C9
:1030A00084E48093C40980E48093C7091092CC091A
:1030B0001092CD091092CE091092CF091092D0092A
:1030C0001092D1091092D2091092D309EDEFF8E0D5
:1030D0008FEF9FEFDC011282138214821582168219
:1030E00017821086118683879487A587B68787877E
:1030F000908BA18BB28B128611821082739629E07D
:10310000EB3BF20741F78DE090E00E94561BFC017B
:10311000138212828BE592E091838083118687E28D
:10312000848384E1828784E083871486F093FA089D
:10313000E093F9081092FB081092FC0885E2809356
:10314000E4071092E6071092F3081092F20810922A
:10315000F5081092F4081092F7081092F60861E052
:1031600070E080E090E00E94831C009789F09093CB
:10317000F3088093F2081092F5081092F408209159
:10318000F6083091F708232B71F5FC0110822BC053
:103190008091F2089091F308009711F00E94EB1BC8
:1031A0001092F3081092F2081092F7081092F608A5
:1031B0001092F5081092F4088FEF8093F2091092A4
:1031C000F4091092F3091092FE091092FD098FEF95
:1031D0009FEFDC018093F9099093FA09A093FB0912
:1031E000B093FC0908951092F7081092F60860E871
:1031F00073E00E947A1DE0CF8F929F92AF92BF92B0
:10320000CF92DF92EF92FF92CF93DF93EC01688130
:1032100079818A819B81611571058105910521F470
:1032200064E279ED8BE597E02DE133EF41E050E08A
:103230000E94751A49015A019B01AC01A7EAB1E449
:103240000E94941A6B017C01ACEEB4EFA5019401CD
:103250000E94A21ADC01CB018C0D9D1DAE1DBF1D6D
:10326000B7FF03C00197A109B04888839983AA8357
:10327000BB839F77DF91CF91FF90EF90DF90CF904E
:10328000BF90AF909F908F9008950C94FC1881E0B0
:1032900092E00C94FC18A0E0B0E0809301029093BF
:1032A0000202A0930302B09304020895E89409C0B7
:1032B00097FB3EF490958095709561957F4F8F4F69
:1032C0009F4F9923A9F0F92F96E9BB279395F6957F
:1032D000879577956795B795F111F8CFFAF4BB0FFD
:1032E00011F460FF1BC06F5F7F4F8F4F9F4F16C061
:1032F000882311F096E911C0772321F09EE8872FEB
:10330000762F05C0662371F096E8862F70E060E0A6
:103310002AF09A95660F771F881FDAF7880F96951F
:10332000879597F90895990F0008550FAA0BE0E8C3
:10333000FEEF16161706E807F907C0F01216130677
:10334000E407F50798F0621B730B840B950B39F4B7
:103350000A2661F0232B242B252B21F408950A261D
:1033600009F4A140A6958FEF811D811D08950E944B
:10337000CA190C943B1A0E942D1A38F00E94341A74
:1033800020F0952311F00C94241A0C942A1A11247D
:103390000C946F1A0E944C1A70F3959FC1F3950F0D
:1033A00050E0551F629FF001729FBB27F00DB11DC9
:1033B000639FAA27F00DB11DAA1F649F6627B00D59
:1033C000A11D661F829F2227B00DA11D621F739F42
:1033D000B00DA11D621F839FA00D611D221F749F50
:1033E0003327A00D611D231F849F600D211D822F97
:1033F000762F6A2F11249F5750409AF0F1F08823BE
:103400004AF0EE0FFF1FBB1F661F771F881F9150EA
:103410005040A9F79E3F510580F00C94241A0C945B
:103420006F1A5F3FE4F3983ED4F3869577956795DE
:10343000B795F795E7959F5FC1F7FE2B880F911D14
:103440009695879597F9089597F99F6780E870E0BA
:1034500060E008959FEF80EC089500240A9416160A
:10346000170618060906089500240A941216130672
:10347000140605060895092E0394000C11F4882300
:1034800052F0BB0F40F4BF2B11F460FF04C06F5F1C
:103490007F4F8F4F9F4F089557FD9058440F551FF2
:1034A00059F05F3F71F04795880F97FB991F61F0C6
:1034B0009F3F79F087950895121613061406551F3D
:1034C000F2CF4695F1DF08C0161617061806991FA9
:1034D000F1CF86957105610508940895E894BB279E
:1034E00066277727CB0197F90895052E97FB1EF4E1
:1034F00000940E948C1A57FD07D00E94A71A07FC5F
:1035000003D04EF40C948C1A50954095309521952B
:103510003F4F4F4F5F4F08959095809570956195FF
:103520007F4F8F4F9F4F08950E94C91AA59F900DFE
:10353000B49F900DA49F800D911D11240895B7FF95
:103540000C94941A0E94941A821B930B0895A1E282
:103550001A2EAA1BBB1BFD010DC0AA1FBB1FEE1F0D
:10356000FF1FA217B307E407F50720F0A21BB30B58
:10357000E40BF50B661F771F881F991F1A9469F7D4
:1035800060957095809590959B01AC01BD01CF0130
:103590000895A29FB001B39FC001A39F700D811D2C
:1035A0001124911DB29F700D811D1124911D08954C
:1035B000991B79E004C0991F961708F0961B881F85
:1035C0007A95C9F78095089597FB072E16F4009415
:1035D00007D077FD09D00E94071B07FC05D03EF4F9
:1035E000909581959F4F0895709561957F4F0895AF
:1035F000EE0FFF1F881F8BBF0790F691E02D1994E7
:103600000E94C91AB7FF0895821B930B0895AA1B45
:10361000BB1B51E107C0AA1FBB1FA617B70710F0BD
:10362000A61BB70B881F991F5A95A9F780959095EF
:10363000BC01CD0108950E94221B6894B1110C9425
:103640006F1A08950E94541A88F09F5798F0B92F66
:103650009927B751B0F0E1F0660F771F881F991FC7
:103660001AF0BA95C9F714C0B13091F00E946E1AE1
:10367000B1E008950C946E1A672F782F8827B85FF1
:1036800039F0B93FCCF3869577956795B395D9F71F
:103690003EF490958095709561957F4F8F4F9F4F29
:1036A00008950E94931908F48FEF0895CF93DF9344
:1036B0008230910510F482E090E0E091010AF091EF
:1036C000020A20E030E0C0E0D0E0309711F1408104
:1036D000518148175907C0F04817590761F4828192
:1036E0009381209719F09B838A832BC09093020AC1
:1036F0008093010A26C02115310519F0421753079E
:1037000018F49A01BE01DF01EF010280F381E02D80
:10371000DCCF2115310509F1281B390B2430310587
:1037200090F412968D919C9113976115710521F07B
:10373000FB019383828304C09093020A8093010A61
:10374000FD01329644C0FD01E20FF31F8193919376
:10375000225031092D933C933AC02091FF093091BA
:10376000000A232B41F42091070230910802309384
:10377000000A2093FF0920910502309106022115CD
:10378000310541F42DB73EB74091090250910A022C
:10379000241B350BE091FF09F091000AE217F307B3
:1037A000A0F42E1B3F0B2817390778F0AC014E5FB1
:1037B0005F4F2417350748F04E0F5F1F5093000AE4
:1037C0004093FF098193919302C0E0E0F0E0CF01C4
:1037D000DF91CF9108950F931F93CF93DF930097BD
:1037E00009F48CC0FC013297138212820091010A05
:1037F0001091020A0115110581F420813181820F97
:10380000931F2091FF093091000A2817390779F595
:10381000F093000AE093FF0971C0D80140E050E046
:10382000AE17BF0750F412962D913C911397AD013E
:103830002115310509F1D901F3CF9D01DA01338357
:10384000228360817181860F971F8217930769F425
:10385000EC0128813981260F371F2E5F3F4F3183BE
:1038600020838A819B8193838283452B29F4F09363
:10387000020AE093010A42C01396FC93EE9312975A
:10388000ED01499159919E01240F351FE217F3076D
:1038900071F480819181840F951F029611969C93FB
:1038A0008E938281938113969C938E931297E0E07E
:1038B000F0E0D80112968D919C911397009719F022
:1038C000F8018C01F6CF8D919C9198012E5F3F4FAE
:1038D000820F931F2091FF093091000A28173907A2
:1038E00069F4309729F41092020A1092010A02C07A
:1038F000138212821093000A0093FF09DF91CF9187
:103900001F910F9108956F927F928F929F92AF9225
:10391000BF92CF92DF92EF92FF920F931F93CF93BC
:10392000DF93EC01009789F4CB01DF91CF911F91D8
:103930000F91FF90EF90DF90CF90BF90AF909F904E
:103940008F907F906F900C94561BFC01E60FF71F31
:103950009C0122503109E217F30708F4ACC0D901E9
:103960000D911C91119706171707B0F0053011053E
:1039700008F49FC0C80104978617970708F499C0F8
:1039800002501109061B170B019311936D937C9341
:10399000CF010E94EB1B8DC05B01A01AB10A4C0144
:1039A000800E911EA091010AB091020A40E050E001
:1039B000E12CF12C109709F44AC0A815B905D1F5EE
:1039C0006D907C901197630182E0C80ED11CCA14DF
:1039D000DB0480F1A3014A195B096A0182E0C80E89
:1039E000D11C1296BC9012971396AC91B5E0CB16F1
:1039F000D10440F0B282A38351834083D9016D93F7
:103A00007C930AC00E5F1F4FC301800F911FF90105
:103A100091838083EB2DFA2FE114F10431F0D7016B
:103A20001396FC93EE93129744C0F093020AE0932E
:103A3000010A3FC08D919C9111974817590708F4CE
:103A4000AC017D0112960D90BC91A02DB3CF809159
:103A5000FF099091000A88159905E1F44617570768
:103A6000C8F48091050290910602009741F48DB749
:103A70009EB74091090250910A02841B950BE817EA
:103A8000F907C8F4F093000AE093FF09F901718384
:103A900060830FC0CB010E94561B7C01009759F038
:103AA000A801BE010E94711DCE010E94EB1BC7013F
:103AB00004C0CE0102C080E090E0DF91CF911F9161
:103AC0000F91FF90EF90DF90CF90BF90AF909F90BD
:103AD0008F907F906F90089581E090E0F8940C941F
:103AE000811DFB01DC0102C001900D92415050404C
:103AF000D8F70895FB01DC0101900D920020E1F759
:103B0000089511E0C2EAD1E000E006C0802FFE0176
:103B10000E94F81A2196011DC33AD10780E00807D8
:063B2000A9F7F894FFCFA5
:103B2600FF010000000000030A2000000000009EC4
:103B3600079E079E07DB0101020502000000005BED
:103B4600049E04D901DB010102D60108020B000C18
:103B5600000D0000000000AA0E7A0EDF09540E7256
:103B66000E630E550E00000000BD0A7307740904AB
:103B76000BA50983099709000000000A0A7307DFED
:103B860009DE09466F6E6374696F6E20546F757235
:103B96006E6572476175636865203A00466F6E63AD
:103BA60074696F6E20546F75726E657244726F69B8
:103BB6007465203A00466F6E6374696F6E204361C8
:103BC6006C63756C6572506F736974696F6E59209A
:103BD6003A00466F6E6374696F6E2053756976722C
:103BE600655F6C615F6C69676E6500466F6E6374D6
:103BF600696F6E20706F736974696F6E6E6572425D
:103C0600616C6C65203A00466F6E6374696F6E2056
:103C160043616C63756C6572506F736974696F6E1E
:103C260058203A0042616C6C6558203A00706F73F8
:103C36006974696F6E58203A0042616C6C65592050
:103C46003A00706F736974696F6E59203A00436564
:103C56006E747265203A2000476175636865203A84
:103C6600200044726F697465203A2000466F6E63C7
:103C760074696F6E204C616E63657250617274690F
:103C860065203A00466F6E6374696F6E2052656AEE
:103C96006F696E6472654C69676E65203A000D0A3D
:103CA60000496E76616C696420736572766F20696F
:103CB600642100536572766F20616E676C652069BA
:103CC60073206F7574206F662072616E67652100C0
:00000001FF
