:100000000C9484010C94B5010C94B5010C94B501C9
:100010000C94B5010C94B5010C94B5010C94B50188
:100020000C94B5010C9424030C9424030C94240325
:100030000C94B5010C941A070C94B5010C94B501FD
:100040000C94B5010C94A50B0C94B5010C94B5015E
:100050000C94B5010C94B5010C94B5010C94D00628
:100060000C94B5010C948B080C9461080C94B501A8
:100070000C94B5010C94B5010C94B5010C94B50128
:100080000C94770B0C94B5010C94B5010C94B5014C
:100090000C94B5010C94B5010C94B5010C942E038D
:1000A0000C94B5010C94B5010C94490B0C94B5015A
:1000B0000C94B5010C94B5010C94B5010C941B0B78
:1000C0000C94B5010C94B5010C94B5010C9437084F
:1000D0000C940D080C94B5010C94E3070C94B9072B
:1000E0000C94B5018F049204810485048904C90429
:1000F00096049A04A004A404A804AE04B204B604AE
:10010000C904BC04C004C404300A350A3A0A440ACB
:100110004E0AC70A580A600A680A720A7C0A860AE6
:10012000950A9F0AC70AA90AB30ABD0A0C94B50822
:100130000C943A0A0C94E9010C9496040C94C70AA6
:100140000C94B6040C94BA050C94860A0C949A0488
:100150000C949F0A0C9413060C94AB090C948F0416
:100160000C94580A0C94AE040C94A6050C94B60892
:100170000C94F8010C94BC040C94C0040C945A0622
:100180000C94300A0C94950A0C9481040C94C904C4
:100190000C943F020C94440A0C94720A0C94B21111
:1001A0000C94C8050C9485040C94350A0C947C0AB4
:1001B0000C9489040C94EA010C94680A0C94B30A18
:1001C0000C94FA0C0C94600A0C9492040C94A90AF6
:1001D0000C9407020C94B2040C94A8040C94A4048C
:1001E0000C94BD0A0C9497050C9453050C940F02C3
:1001F0000C94A0040C944E0A0C94C404000021003A
:10020000240027002A002D003000330001010000E7
:10021000040107010A0100002200250028002B002C
:100220002E003100340002010000050108010B011D
:1002300005050505070508080808020202020A0A62
:100240000808040404040101010101010101030380
:10025000030303030303040707070C0C0C0C0C0C2B
:100260000C0C0202020206060606060606060B0B28
:100270000B0B0B0B0B0B0102102020080810204069
:10028000102040800201020108040201010204085A
:1002900010204080804020100804020180040201E8
:1002A0008040201008040201080402010102040831
:1002B00010204080010204081020408000000A0B3A
:1002C00002090C0D0E0807030401000000000000E5
:1002D000000000000000000000000000000000001E
:1002E00000000000000000001211100000000000DB
:1002F00000000000000000000000000000000000FE
:1003000000000200FA0CB21111241FBECFEFD1E29F
:10031000DEBFCDBF00E00CBF12E0A0E0B2E0E4E73A
:10032000FBE200E00BBF02C007900D92A634B107BC
:10033000D9F726E0A6E4B2E001C01D92AE32B207C2
:10034000E1F711E0C3E8D1E000E006C02197010920
:10035000802FFE010E943313C238D10780E00807C6
:10036000A9F70E94E30E0C94A8150C94000085EDEB
:100370008093BC008091BC0084FDFCCF10924A02A7
:10038000089540918D05262F30E0240F311D213234
:100390003105DCF420914A022430C9F4FC0180E0EC
:1003A00090E0861758F430918D052191DC01A55914
:1003B000BA4FA30FB11D2C930196F3CF80918D05F9
:1003C000680F60938D0580E0089581E0089582E0D4
:1003D0000895089581E090E030914702209146020F
:1003E000321710F480E090E091958195910908957D
:1003F0008091470290914602891730F48F5F809375
:10040000470280E090E008958FEF9FEF089580917C
:10041000460290E020914702821B91090895CF92F5
:10042000DF92EF92FF920F931F93CF93DF937C01A4
:10043000262F972F8A0180914B02882391F0C62F97
:10044000D72F6E01C40ED51ECC15DD0571F0699154
:10045000D701ED91FC910190F081E02DC701199534
:10046000F3CF642F822F0E94C101C801DF91CF9189
:100470001F910F91FF90EF90DF90CF900895CF9351
:10048000DF931F92CDB7DEB7698320914B02222301
:10049000D1F020914E02203240F021E030E0FC010A
:1004A0003383228380E090E015C080914C02E82FD6
:1004B000F0E0E852FA4F998190838F5F80934C026D
:1004C00080934E0205C061E0CE0101960E94C101F9
:1004D00081E090E00F90DF91CF910895009769F04F
:1004E000FC0101900020E9F73197AF01481B590B3F
:1004F000BC0185E993E00C94530580E090E00895F9
:1005000020914E0290914D02213208F04AC0809114
:100510004A028111FCCF32E030934A0231E030933D
:1005200049023FEF3093D7051092D6052093D505A9
:10053000A8EDB5E045EB55E0FA013E2F341B32172C
:1005400018F43D913193F9CF1092B4052091B40580
:10055000990F922B9093B40590914802913061F4D9
:10056000109248029091B4059093BB009091BC000A
:1005700093FDF8CF95EC01C095EE9093BC0090915F
:100580004A029230E1F39091D7059F3F79F0809134
:10059000D705803241F08091D705803331F084E077
:1005A00005C081E003C082E001C083E010924C02EC
:1005B00010924E0210924B020895EF92FF921F93F9
:1005C000CF93DF931F92CDB7DEB7162F90E3E92EBE
:1005D00095E0F92ED7011C969C911C9721E0209361
:1005E0004B0290934D0210924C0210924E021A96BA
:1005F0000D90BC91A02DED91FC9111970190F0818F
:10060000E02D682FCD0179831995F70182859385B7
:10061000DC01ED91FC910190F081E02D7981672F53
:100620001995F70182859385DC01ED91FC9101908C
:10063000F081E02D612F19950F90DF91CF911F91DF
:10064000FF90EF900C9480021F920F920FB60F92C2
:1006500011240F900FBE0F901F9018951F920F92AC
:100660000FB60F9211240BB60F922F933F934F9317
:100670005F936F937F938F939F93AF93BF93EF930A
:10068000FF938091B900887F803609F49CC068F59B
:10069000883209F45BC090F4803109F454C038F416
:1006A000882309F4F6C0883009F44DC0F6C08831BB
:1006B00009F44CC0803209F45DC0EFC0803409F405
:1006C00068C048F4803309F455C0883309F0E5C0A8
:1006D0008093D705D8C0803509F44FC0883509F418
:1006E0005DC0883409F0D9C0D6C0883909F4C7C0C4
:1006F000A8F4883709F467C038F4883609F463C071
:10070000803709F460C0C9C0883809F4B8C080399E
:1007100009F45FC0803809F0C0C05BC0803B09F4B9
:1007200086C038F4803A09F466C0883A09F47FC07C
:10073000B4C0803C09F4A7C0883C09F4A4C0883B3D
:1007400009F48AC0AAC08091B40510C09091D60562
:100750008091D505981770F5E091D60581E08E0F50
:100760008093D605F0E0EB54FA4F80818093BB0074
:1007700085EC86C08093D7058EC0E091D60581E0D8
:100780008E0F8093D6058091BB00F0E0EB54FA4FBA
:1007900080839091D6058091D5056EC0E091D605F5
:1007A00081E08E0F8093D6058091BB00F0E0EB5482
:1007B000FA4F80838091490281116DC081E080935E
:1007C000480284EA61C083E080934A021092B10536
:1007D000CFCF8091B105803208F051C0E091B105D2
:1007E00081E08E0F8093B1058091BB00F0E0EF5661
:1007F000FA4F8083BDCF85EC8093BC0010924A02F3
:100800008091B105803230F4E091B105F0E0EF560F
:10081000FA4F10826091B10570E0E0918F05F09180
:10082000900581E995E019951092B10536C084E0F4
:1008300080934A0210928E0510928D05E0918B05EF
:10084000F0918C05199580918D05811105C081E08D
:1008500080938D0510926B05E0918E0581E08E0FDF
:1008600080938E05F0E0E559FA4F80818093BB00BC
:1008700090918E0580918D05981708F479CF85E8C1
:100880008093BC000AC085EC8093BC0010924A02A1
:1008900004C01092D7050E94B701FF91EF91BF915C
:1008A000AF919F918F917F916F915F914F913F9108
:1008B0002F910F900BBE0F900FBE0F901F901895A9
:1008C000362F90E0FC01E454FD4F4491FC01EA58BE
:1008D000FD4F2491FC01E05DFD4F9491992309F4B3
:1008E0006BC0442309F455C050E0FA013197E2315E
:1008F000F10508F04EC08827EE58FF4F8F4F0C943B
:100900003313809180008F7707C0809180008F7DA6
:1009100003C080918000877F809380003AC084B5B7
:100920008F7702C084B58F7D84BD33C08091B000C5
:100930008F7703C08091B0008F7D8093B00029C075
:10094000809190008F7707C0809190008F7D03C0C9
:1009500080919000877F809390001BC08091A000C1
:100960008F7707C08091A0008F7D03C08091A00089
:10097000877F8093A0000DC0809120018F7707C0F2
:10098000809120018F7D03C080912001877F80931B
:100990002001E92FF0E0EE0FFF1FEA5EFD4FA59169
:1009A000B4918FB7F894EC91311103C020952E23A8
:1009B00001C02E2B2C938FBF0895CF93DF9390E02F
:1009C000FC01EA58FD4F2491FC01E05DFD4F84914C
:1009D000882361F190E0880F991FFC01E450FE4FDD
:1009E000C591D491FC01EA5EFD4FA591B4916111CE
:1009F00009C09FB7F8948881209582238883EC9161
:100A00002E230BC0623061F49FB7F8943881822F97
:100A1000809583238883EC912E2B2C939FBF06C057
:100A20008FB7F894E8812E2B28838FBFDF91CF9169
:100A300008958F929F92AF92BF92CF92DF92EF92E2
:100A4000FF926B017C010E94AB064B015C01C1145B
:100A5000D104E104F104F1F00E94AB06DC01CB010A
:100A600088199909AA09BB09883E9340A105B105D7
:100A700070F321E0C21AD108E108F10888EE880E6F
:100A800083E0981EA11CB11CC114D104E104F1043F
:100A900019F7DDCFFF90EF90DF90CF90BF90AF9030
:100AA0009F908F900895CF92DF92EF92FF920F93D5
:100AB0001F93CF93DF936C017A018B01C0E0D0E0EC
:100AC000CE15DF0589F0D8016D918D01D601ED912C
:100AD000FC910190F081E02DC6011995892B11F44C
:100AE0007E0102C02196ECCFC701DF91CF911F910B
:100AF0000F91FF90EF90DF90CF900895FC01A089B7
:100B0000B1898C91A689B78982FD0FC09C91818D96
:100B10008F5F8F73228D821749F0218DDF01A20F25
:100B2000B11D5D969C93818F08958C910895FC0171
:100B3000538D448D252F30E0842F90E0821B930B42
:100B4000541710F0CF96089501970895FC01918DE8
:100B5000828D981761F0828DDF01A80FB11D5D961F
:100B60008C91928D9F5F9F73928F90E008958FEF8D
:100B70009FEF0895FC01918D828D981731F0828D41
:100B8000E80FF11D858D90E008958FEF9FEF089598
:100B9000FC01918D228D892F90E0805C9F4F821BFC
:100BA00091098F73992708958BE592E00E94C805FB
:100BB00021E0892B09F420E0822F089588EF92E04C
:100BC0000E94C80521E0892B09F420E0822F0895B6
:100BD00085E993E00E94C80521E0892B09F420E013
:100BE000822F0895FC01848DDF01A80FB11DA35A47
:100BF000BF4F2C91848D90E001968F739927848F3D
:100C0000A689B7892C93A089B1898C9180648C9333
:100C1000938D848D981306C00288F389E02D80811E
:100C20008F7D80830895EF92FF920F931F93CF9350
:100C3000DF93EC0181E0888F9B8D8C8D981305C02C
:100C4000E889F989808185FD24C0F62E0B8D10E09E
:100C50000F5F1F4F0F731127E02E8C8DE8120CC011
:100C60000FB607FCFACFE889F989808185FFF5CFB7
:100C7000CE010E94F205F1CF8B8DFE01E80FF11D30
:100C8000E35AFF4FF0820B8FEA89FB8980818062F3
:100C900007C0EE89FF896083E889F98980818064D3
:100CA000808381E090E0DF91CF911F910F91FF90C1
:100CB000EF900895CF93DF93EC01888D8823C9F0DE
:100CC000EA89FB89808185FD05C0A889B9898C9155
:100CD00086FD0FC00FB607FCF5CF808185FFF2CFF0
:100CE000A889B9898C9185FFEDCFCE010E94F205CC
:100CF000E7CFDF91CF91089580E090E0892B21F03C
:100D00000E94E805811119C080E090E0892B41F034
:100D100080E090E0892B21F00E940000811110C03A
:100D20000E94DE0581110FC080E090E0892B81F0E8
:100D30000E94D40581110AC008950E940000E4CFEA
:100D40000E940000EDCF0E94B908EECF0C94000085
:100D500008950E9493153FB7F894809105069091ED
:100D60000606A0910706B091080626B5A89B05C007
:100D70002F3F19F00196A11DB11D3FBFBA2FA92F1A
:100D8000982F8827820F911DA11DB11DBC01CD0197
:100D900042E0660F771F881F991F4A95D1F7089583
:100DA0001F920F920FB60F9211242F933F938F93A0
:100DB0009F93AF93BF938091010690910206A091FB
:100DC0000306B09104063091000623E0230F2D376F
:100DD00020F40196A11DB11D05C026E8230F02963F
:100DE000A11DB11D20930006809301069093020679
:100DF000A0930306B0930406809105069091060621
:100E0000A0910706B09108060196A11DB11D80931F
:100E1000050690930606A0930706B0930806BF91B7
:100E2000AF919F918F913F912F910F900FBE0F9097
:100E30001F9018951F920F920FB60F9211240BB6A8
:100E40000F922F933F934F935F936F937F938F9363
:100E50009F93AF93BF93EF93FF938091FB05909186
:100E6000FC05A091FD05B091FE05892B8A2B8B2BEB
:100E700059F18091FA05E091F805F091F90590811A
:100E8000892780838091FB059091FC05A091FD0549
:100E9000B091FE05181619061A061B060CF056C06E
:100EA0008091FB059091FC05A091FD05B091FE0598
:100EB0000197A109B1098093FB059093FC05A093CC
:100EC000FD05B093FE0542C080910002E2E0F3E030
:100ED000E4919FEF90930002E230C9F050F4EE23CA
:100EE00099F0E13081F590916F009D7F90936F00B4
:100EF0002AC0E43019F1E0F0E53029F59091730053
:100F00009D7F909373001FC010926E001CC0909143
:100F100070009D7F9093700091E09093B00090914D
:100F2000B100987F94609093B1001092B3000BC011
:100F3000909171009D7F9093710005C09091720017
:100F40009D7F9093720060E00E946004FF91EF919A
:100F5000BF91AF919F918F917F916F915F914F91D1
:100F60003F912F910F900BBE0F900FBE0F901F90CF
:100F700018951F920F920FB60F9211240BB60F9275
:100F80002F933F934F935F936F937F938F939F9391
:100F9000AF93BF93EF93FF938BE592E00E94F2052E
:100FA000FF91EF91BF91AF919F918F917F916F9141
:100FB0005F914F913F912F910F900BBE0F900FBEFD
:100FC0000F901F9018951F920F920FB60F92112439
:100FD0000BB60F922F933F934F935F936F937F9333
:100FE0008F939F93AF93BF93EF93FF938BE592E023
:100FF0000E947E05FF91EF91BF91AF919F918F91DC
:101000007F916F915F914F913F912F910F900BBE08
:101010000F900FBE0F901F9018951F920F920FB652
:101020000F9211240BB60F922F933F934F935F9320
:101030006F937F938F939F93AF93BF93EF93FF93A0
:1010400088EF92E00E94F205FF91EF91BF91AF917E
:101050009F918F917F916F915F914F913F912F91D0
:101060000F900BBE0F900FBE0F901F9018951F9200
:101070000F920FB60F9211240BB60F922F933F933E
:101080004F935F936F937F938F939F93AF93BF9390
:10109000EF93FF9388EF92E00E947E05FF91EF911E
:1010A000BF91AF919F918F917F916F915F914F9180
:1010B0003F912F910F900BBE0F900FBE0F901F907E
:1010C00018951F920F920FB60F9211240BB60F9224
:1010D0002F933F934F935F936F937F938F939F9340
:1010E000AF93BF93EF93FF9385E993E00E94F205DE
:1010F000FF91EF91BF91AF919F918F917F916F91F0
:101100005F914F913F912F910F900BBE0F900FBEAB
:101110000F901F9018951F920F920FB60F921124E7
:101120000BB60F922F933F934F935F936F937F93E1
:101130008F939F93AF93BF93EF93FF9385E993E0D2
:101140000E947E05FF91EF91BF91AF919F918F918A
:101150007F916F915F914F913F912F910F900BBEB7
:101160000F900FBE0F901F901895089580E090E0AB
:101170000895E0E0F0E01994CF92DF92EF92FF92B1
:101180000F931F93CF93DF936C018B017A01EC01D6
:10119000CA5DD94F888187FF04C0FB01118210828C
:1011A00024C08CE08C9D90018D9D300D1124888190
:1011B000A901480F511D87FD5A958091C20490E006
:1011C0004817590794F48881A901480F511D87FDDC
:1011D0005A95CA01FA01EE0FFF1F8E0F9F1FFC01E7
:1011E000EE5CFB4F808186FD19C088818F5F88830C
:1011F0008CE08C9D90018D9D300D11248881A9017A
:10120000480F511D87FD5A958091C20490E0481700
:101210005907BCF488818C3044F113C08881280FB1
:10122000311D87FD3A95F901EE0FFF1F2E0F3F1F6D
:10123000F901EE5CFB4F808160E08F730E946004D7
:10124000D4CFF80180819181049680349C4918F4B0
:1012500080E49CE904C0F801808191810496F70143
:10126000918380838FEF888345C0F801408151814D
:101270008881B901680F711D87FD7A95CB01FB014B
:10128000EE0FFF1F8E0F9F1FFC01EE5CFB4F818155
:101290009281840F951FF701918380838881A90132
:1012A000480F511D87FD5A95CA01FA01EE0FFF1F25
:1012B0008E0F9F1FFC01EE5CFB4F808186FF1AC0E2
:1012C0008881280F311D87FD3A95F901EE0FFF1F28
:1012D0002E0F3F1FF901EE5CFB4F808161E08F73A1
:1012E000DF91CF911F910F91FF90EF90DF90CF9002
:1012F0000C946004DF91CF911F910F91FF90EF90BC
:10130000DF90CF900895FC01248131E030934B02AF
:1013100020934D0210924C0210924E028485682B4D
:101320008FE492E00E943F020C9480020F931F937F
:10133000CF938C01C62F64600E9483096C2F6B7F52
:10134000C8010E94830983EC90E00197F1F7CF91E7
:101350001F910F9108950F931F93CF93DF938C01EB
:10136000C62FD62FD07FD1606D2F0E9483096D2F9D
:10137000C8010E94960980E1C89FB0011124C62FC0
:10138000C1606C2FC8010E9483096C2FC8010E94A4
:10139000960981E090E0DF91CF911F910F91089520
:1013A0008F929F92AF92BF92CF92DF92EF92FF9275
:1013B0000F931F93CF93DF93EC016A017B0120E031
:1013C00030E04FE753E4C701B6010E9419124B0108
:1013D0005C0120E030E0A9010E94781318161CF48B
:1013E000C501B40103C0C501B40190580E94421365
:1013F0008B0120E030E0A901C701B6010E947813FB
:10140000181614F460E001C061E089810E94600454
:101410000F3F110509F014F4112702C00FEF10E07F
:10142000C88161E08C2F0E94DD040115110509F4CB
:10143000B1C00F3F110509F4AFC0EC2FF0E0E45448
:10144000FD4FE4914E2F50E0FA013197E231F10562
:1014500008F09DC08827EC57FF4F8F4F0C94331333
:1014600084B5806884BD07BDA7C084B5806284BD93
:1014700008BDA2C080918000806880938000109396
:1014800089000093880098C08091800080628093DA
:10149000800010938B0000938A008EC080918000A2
:1014A00088608093800010938D0000938C0084C02E
:1014B0008091B00080688093B0000093B3007CC03E
:1014C0008091B00080628093B0000093B40074C03B
:1014D0008091900080688093900010939900009311
:1014E00098006AC080919000806280939000109371
:1014F0009B0000939A0060C0809190008860809368
:10150000900010939D0000939C0056C08091A00015
:1015100080688093A0008091A0008F7B8093A000C2
:101520001093A9000093A80047C08091A00080629A
:101530008093A0001093AB000093AA003DC080915F
:10154000A00088608093A0001093AD000093AC00D1
:1015500033C080912001806880932001109329017D
:101560000093280129C0809120018062809320018E
:1015700010932B0100932A011FC0809120018860E5
:101580008093200110932D0100932C0115C0003889
:10159000110514F460E001C061E08C2FDF91CF9160
:1015A0001F910F91FF90EF90DF90CF90BF90AF9081
:1015B0009F908F900C946004DF91CF911F910F91B9
:1015C000FF90EF90DF90CF90BF90AF909F908F9063
:1015D00008958EBD00000DB407FEFDCF8EB50895B1
:1015E000CF93DF93EC0160E088810E94600488E97A
:1015F0000E94E90A80E00E94E90A80E00E94E90A6C
:1016000080E00E94E90A80E00E94E90A61E08881A6
:101610000E9460048BE891E00197F1F760E0888117
:101620000E94600480EE0E94E90A61E08881DF91F7
:10163000CF910C9460041F920F920FB60F92112459
:101640000BB60F922F933F934F935F936F937F93BC
:101650008F939F93AF93BF93EF93FF9348E251E033
:1016600064E271E080E090E00E94BC08FF91EF919D
:10167000BF91AF919F918F917F916F915F914F91AA
:101680003F912F910F900BBE0F900FBE0F901F90A8
:1016900018951F920F920FB60F9211240BB60F924E
:1016A0002F933F934F935F936F937F938F939F936A
:1016B000AF93BF93EF93FF9348EA50E064EA70E082
:1016C00083E090E00E94BC08FF91EF91BF91AF9141
:1016D0009F918F917F916F915F914F913F912F914A
:1016E0000F900BBE0F900FBE0F901F9018951F927A
:1016F0000F920FB60F9211240BB60F922F933F93B8
:101700004F935F936F937F938F939F93AF93BF9309
:10171000EF93FF9348E950E064E970E082E090E0E5
:101720000E94BC08FF91EF91BF91AF919F918F9163
:101730007F916F915F914F913F912F910F900BBED1
:101740000F900FBE0F901F9018951F920F920FB61B
:101750000F9211240BB60F922F933F934F935F93E9
:101760006F937F938F939F93AF93BF93EF93FF9369
:1017700048E850E064E870E081E090E00E94BC0836
:10178000FF91EF91BF91AF919F918F917F916F9159
:101790005F914F913F912F910F900BBE0F900FBE15
:1017A0000F901F901895CF93DF93EC0140E050E02D
:1017B00060E070E88BE495E00E94D0094AE959E9BD
:1017C00069E17FE389E495E00E94D009BE01DD0F65
:1017D000880B990B0E94190540E050E0BA0189E49A
:1017E00095E00E94D00940E050E060E070E88BE4B2
:1017F00095E0DF91CF910C94D009CF93DF938130A6
:10180000910529F4CB01DF91CF910C94D30B892B57
:1018100039F5EB014AE959E969E17FEB8BE495E0A1
:101820000E94D00940E050E0BA0189E495E00E94AE
:10183000D009BE01DD0F880B990B0E94190540E00D
:1018400050E0BA0189E495E00E94D00940E050E000
:1018500060E070E88BE495E0DF91CF910C94D009C3
:10186000DF91CF9108958F929F92AF92BF92CF92C6
:10187000DF92EF92FF920F931F93CF93DF93CDB739
:10188000DEB760970FB6F894DEBF0FBECDBFBC01C8
:10189000990F880B990B0E94BA112DEC3CEC4CE887
:1018A0005FE30E9419120E944213DB012EE435E02F
:1018B0000E943B132AE030E040E050E00E94D71243
:1018C00049015A018BE392E00E946E028DE495E09B
:1018D0000E94F00A40E050E060E07FE389E495E098
:1018E0000E94D00940E050E060E07FEB8BE495E09F
:1018F0000E94D0097E0181E1E80EF11C8091220650
:1019000090912306A0912406B0912506881599058B
:10191000AA05BB050CF043C060E080914D050E9414
:10192000600480E60E94E90A8E010F5F1F4F680184
:1019300080E00E94E90A90E0A0E0B0E0F601819327
:101940009193A193B1936F01EE15FF0589F761E0C3
:1019500080914D050E94600480E090E0DC01F80178
:1019600041915191619171918F01BA2FA92F982FB7
:101970008827840F951FA61FB71FEE15FF0579F75F
:101980008093220690932306A0932406B093250605
:1019900065E070E080E090E00E941905AFCF40E084
:1019A00050E0BA0189E495E00E94D00940E050E09F
:1019B00060E070E88BE495E00E94D00981E492E059
:1019C0000E946E0268EC70E080E090E060960FB6D6
:1019D000F894DEBF0FBECDBFDF91CF911F910F9165
:1019E000FF90EF90DF90CF90BF90AF909F908F903F
:1019F0000C941905109252021092510288EE93E055
:101A0000A0E0B0E08093530290935402A09355025B
:101A1000B09356022BE032E03093500220934F02F5
:101A200010925E0210925D0280935F0290936002BA
:101A3000A0936102B09362022DE132E030935C0228
:101A400020935B0245E351E05093680240936702A4
:101A500044E351E050936A024093690240E351E04D
:101A600050936C0240936B0241E351E050936E023D
:101A700040936D0242E351E05093700240936F0235
:101A800046E351E050937202409371021092740247
:101A90001092750210927602109277021092FB0259
:101AA0001092FA028093FC029093FD02A093FE0232
:101AB000B093FF023093F9022093F80245ED50E015
:101AC000509305034093040344ED50E05093070303
:101AD0004093060340ED50E0509309034093080300
:101AE00041ED50E050930B0340930A0342ED50E068
:101AF00050930D0340930C0346ED50E050930F03B9
:101B000040930E03109211031092120310921303CC
:101B100010921403109298031092970380939903E4
:101B200090939A03A0939B03B0939C0330939603E6
:101B30002093950385EC90E09093A2038093A103FA
:101B400084EC90E09093A4038093A30380EC90E056
:101B50009093A6038093A50381EC90E09093A80353
:101B60008093A70382EC90E09093AA038093A9034B
:101B700086EC90E09093AC038093AB031092AE039D
:101B80001092AF031092B0031092B10386E38093DA
:101B9000510587E38093520588E38093530589E3D9
:101BA000809354058BE1809355058DE18093560514
:101BB0008AE1809357058CE18093580584E08093F7
:101BC000590587E080935A0510925B0584EB80935A
:101BD0005C0586E180935D0588E180935E0587E181
:101BE00080935F0589E1809360058091C204803312
:101BF00020F08FEF8093610513C091E0980F9093D0
:101C0000C2048093610590E0FC01EE0FFF1F8E0F70
:101C10009F1FFC01EE5CFB4F88EB9BE0928381836E
:101C20008091C204803320F08FEF8093640513C04D
:101C300091E0980F9093C2048093640590E0FC01BA
:101C4000EE0FFF1F8E0F9F1FFC01EE5CFB4F88EB1A
:101C50009BE0928381838CE08093300584E28093C3
:101C6000310586E08093320585E0809333058FE16E
:101C7000809334058EE18093350583E280933605A9
:101C800082E28093370585E48093380584E480936D
:101C9000390580E480933C0510924105109242057D
:101CA0001092430510924405109245051092460586
:101CB0001092470510924805E1EDF4E08FEF9FEF99
:101CC000DC0112821382148215821682178210861A
:101CD000118683879487A587B6878787908BA18B8A
:101CE000B28B128611821082739625E0E033F207E0
:101CF00041F78DE090E00E947D13FC011382128277
:101D00008FE292E091838083118687E2848384E16D
:101D1000828784E083871486F093CE04E093CD0419
:101D20001092CF041092D0041092C8041092C704ED
:101D30001092CA041092C9041092CC041092CB04E1
:101D400061E070E080E090E00E94AA14009789F0C2
:101D50009093C8048093C7041092CA041092C904D7
:101D60002091CB043091CC04232B21F5FC0110826F
:101D700021C08091C7049091C804009711F00E947F
:101D800012141092C8041092C7041092CC0410923E
:101D9000CB041092CA041092C90487E890E0A0E036
:101DA000B0E08093C3049093C404A093C504B0939F
:101DB000C60408951092CC041092CB0464E472E03F
:101DC0000E94A115EACF789484B5826084BD84B561
:101DD000816084BD85B5826085BD85B5816085BD26
:101DE00080916E00816080936E00109281008091DE
:101DF0008100826080938100809181008160809366
:101E00008100809180008160809380008091B1008A
:101E100084608093B1008091B00081608093B000B5
:101E20008091910082608093910080919100816007
:101E300080939100809190008160809390008091C8
:101E4000A10082608093A1008091A10081608093B5
:101E5000A1008091A00081608093A0008091210169
:101E60008260809321018091210181608093210112
:101E70008091200181608093200180917A008460AC
:101E800080937A0080917A00826080937A008091BA
:101E90007A00816080937A0080917A0080688093D4
:101EA0007A001092C100E091A503F091A60382E0B0
:101EB0008083E091A103F091A2031082E091A3033B
:101EC000F091A4038FEC80831092AD03E091A903FD
:101ED000F091AA0386E08083E091A703F091A80324
:101EE000808180618083E091A703F091A8038081C5
:101EF00088608083E091A703F091A80380818068C7
:101F00008083E091A703F091A80380818F7D808377
:101F100061E0809131050E94DD0460E0809131052F
:101F20000E94600460E0809130050E94DD048FE42F
:101F300092E090933B0580933A05109247021092ED
:101F4000460210924C0210924E0210924A0281E018
:101F5000809349021092480261E084E10E9460048B
:101F600061E085E10E9460048091B9008E7F8093DA
:101F7000B9008091B9008D7F8093B90088E4809387
:101F8000B80085E48093BC0080E090E1A0E0B0E080
:101F900080933D0590933E05A0933F05B093400587
:101FA0008AE090E0A0E0B0E0809341059093420584
:101FB000A0934305B093440582E090E0A0E0B0E038
:101FC0008093450590934605A0934705B093480537
:101FD00060E070E185E00E94DD026FE979E380E076
:101FE0000E94DD02CDE4D5E0C12CD12CE12CF12CF6
:101FF00045E6642E42E0742E5BEA852E52E0952E73
:102000006BECA62E67E0B62EC701805D9A4F2C01BF
:10201000DC0114969C91149712968C918601005DB8
:102020001A4FF801818F928F61E00E94DD0461E018
:10203000D8015A968C910E94DD04F2019085868128
:102040008883D8015E969C9361E00E94DD0460E085
:10205000F801868D0E94DD0461E088810E946004A1
:102060001FB7F8948091FF05811125C0F301849179
:10207000F4019491E82FF0E0EE0FFF1FE450FE4FC3
:10208000A591B4918C91982321F461E085E30E949D
:10209000600461E085E30E94DD048CB580618CBD45
:1020A0008CB580648CBD61E084E30E94DD0461E056
:1020B00083E30E94DD048091FF058F5F8093FF051D
:1020C0001FBFC5010197F1F760E088810E9460049D
:1020D00088E80E94E90A83E00E94E90A61E08881B9
:1020E0000E946004C5010197F1F7CE010E94F00A39
:1020F000F2E0CF0ED11C2296EA94EF2821F0EE24D4
:10210000E394F12C81CFC5E5D5E01C2F1C5F60E086
:1021100089910E94DD041C13FACFC1E6CC2EC5E0E4
:10212000DC2EDDE5ED2ED5E0FD2EC8E6D5E000E0A5
:1021300010E08CE0A82E92E0B92EF7013497908041
:10214000D6018C91803308F055C061E0892D0E9442
:10215000DD04F6018081E82FF0E09F01220F331F9C
:10216000E20FF31FEE5CFB4F992D9F732081207CC3
:10217000922E992A9082F801EF5AFA4F118A128A08
:102180006A2D0E942713FCE08F9FB001112440E0CC
:1021900050E09A01260F371FF901EE0FFF1F2E0F97
:1021A0003F1FF901EE5CFB4F908196FD16C04F5F1B
:1021B0005F4F4C30510569F7813009F0A9C010928A
:1021C0008000B09281001092850010928400B19A34
:1021D00080916F00826080936F00D601EC91F0E0F7
:1021E000CF01880F991FE80FF91FEE5CFB4F80812C
:1021F00080648083F70181917F01FE0131978083A4
:10220000888360E00E94DD0461E088810E94DD0433
:1022100060E088810E946004F3E0CF0ED11C0D5F66
:102220001F4F22960630110509F087CF60ED77E049
:1022300080E090E00E9419058EEB90E00E94330C44
:1022400068EA72E080E090E00E94FD0B8EE190E091
:102250000E94330C88EA92E00E94D30B89E190E05F
:102260000E94330C88EA92E00E94D30B8EE190E04A
:102270000E94330C68E671E080E090E00E94FD0B64
:1022800082E390E00E94330C68EA72E080E090E024
:102290000E94FD0B82E390E00E94330C88E691E0FF
:1022A0000E94D30B8EE190E00E94330C40E050E09E
:1022B00060E070E88BE495E00E94D0094AE959E9B2
:1022C00069E17FE389E495E00E94D0096AEF70E05C
:1022D00080E090E00E94190540E050E0BA0189E4F6
:1022E00095E00E94D00940E050E060E070E88BE4A7
:1022F00095E00E94D0098BE490E00E94330C68E8DE
:1023000073E180E090E00E9419050E947C068ECF68
:10231000823061F4109290008093910010929500A9
:102320001092940088BB8093710057CF833061F482
:102330001092A000B092A1001092A5001092A400EB
:10234000B9BAB092720049CF811147CF10922001E3
:10235000B09221011092250110922401BABAB092D4
:1023600073003BCF8091C7049091C8040C94121461
:10237000E89409C097FB3EF490958095709561951F
:102380007F4F8F4F9F4F9923A9F0F92F96E9BB27D5
:102390009395F695879577956795B795F111F8CF51
:1023A000FAF4BB0F11F460FF1BC06F5F7F4F8F4FBC
:1023B0009F4F16C0882311F096E911C0772321F0B2
:1023C0009EE8872F762F05C0662371F096E8862F4A
:1023D00070E060E02AF09A95660F771F881FDAF7A1
:1023E000880F9695879597F90895990F0008550FCE
:1023F000AA0BE0E8FEEF16161706E807F907C0F08B
:1024000012161306E407F50798F0621B730B840B92
:10241000950B39F40A2661F0232B242B252B21F46C
:1024200008950A2609F4A140A6958FEF811D811D0C
:1024300008950E942C120C949D120E948F1238F065
:102440000E94961220F0952311F00C9486120C94A1
:102450008C1211240C94D1120E94AE1270F3959F2D
:10246000C1F3950F50E0551F629FF001729FBB278B
:10247000F00DB11D639FAA27F00DB11DAA1F649F27
:102480006627B00DA11D661F829F2227B00DA11DDA
:10249000621F739FB00DA11D621F839FA00D611D60
:1024A000221F749F3327A00D611D231F849F600D81
:1024B000211D822F762F6A2F11249F5750409AF0AA
:1024C000F1F088234AF0EE0FFF1FBB1F661F771F36
:1024D000881F91505040A9F79E3F510580F00C9401
:1024E00086120C94D1125F3FE4F3983ED4F38695A4
:1024F00077956795B795F795E7959F5FC1F7FE2BA1
:10250000880F911D9695879597F9089597F99F677C
:1025100080E870E060E008959FEF80EC089500246B
:102520000A941616170618060906089500240A9438
:1025300012161306140605060895092E0394000CBE
:1025400011F4882352F0BB0F40F4BF2B11F460FF4D
:1025500004C06F5F7F4F8F4F9F4F089557FD905876
:10256000440F551F59F05F3F71F04795880F97FB57
:10257000991F61F09F3F79F0879508951216130611
:102580001406551FF2CF4695F1DF08C01616170640
:102590001806991FF1CF8695710561050894089575
:1025A000E894BB2766277727CB0197F90895052E76
:1025B00097FB1EF400940E94EE1257FD07D00E9474
:1025C000F61207FC03D04EF40C94EE125095409591
:1025D000309521953F4F4F4F5F4F089590958095CF
:1025E000709561957F4F8F4F9F4F0895A1E21A2EEE
:1025F000AA1BBB1BFD010DC0AA1FBB1FEE1FFF1FA7
:10260000A217B307E407F50720F0A21BB30BE40BF6
:10261000F50B661F771F881F991F1A9469F760953D
:102620007095809590959B01AC01BD01CF010895F7
:10263000A29FB001B39FC001A39F700D811D112403
:10264000911DB29F700D811D1124911D0895991B3C
:1026500079E004C0991F961708F0961B881F7A9599
:10266000C9F780950895EE0FFF1F881F8BBF079055
:10267000F691E02D19940E941813B7FF0895821B5C
:10268000930B08950E9449136894B1110C94D112D0
:1026900008950E94B61288F09F5798F0B92F992795
:1026A000B751B0F0E1F0660F771F881F991F1AF03D
:1026B000BA95C9F714C0B13091F00E94D012B1E0C0
:1026C00008950C94D012672F782F8827B85F39F0BF
:1026D000B93FCCF3869577956795B395D9F73EF4D6
:1026E00090958095709561957F4F8F4F9F4F08957E
:1026F0000E94F51108F48FEF0895CF93DF93823095
:10270000910510F482E090E0E0912C06F0912D0606
:1027100020E030E0C0E0D0E0309711F140815181FD
:1027200048175907C0F04817590761F4828193810F
:10273000209719F09B838A832BC090932D0680935A
:102740002C0626C02115310519F04217530718F43D
:102750009A01BE01DF01EF010280F381E02DDCCFA1
:102760002115310509F1281B390B2430310590F46E
:1027700012968D919C9113976115710521F0FB01C3
:102780009383828304C090932D0680932C06FD01D1
:10279000329644C0FD01E20FF31F819391932250C2
:1027A00031092D933C933AC020912A0630912B0693
:1027B000232B41F4209103023091040230932B0625
:1027C00020932A0620910102309102022115310541
:1027D00041F42DB73EB74091050250910602241BEB
:1027E000350BE0912A06F0912B06E217F307A0F4CF
:1027F0002E1B3F0B2817390778F0AC014E5F5F4F57
:102800002417350748F04E0F5F1F50932B06409357
:102810002A068193919302C0E0E0F0E0CF01DF91BE
:10282000CF9108950F931F93CF93DF93009709F4EF
:102830008CC0FC0132971382128200912C061091F9
:102840002D060115110581F420813181820F931F1E
:1028500020912A0630912B062817390779F5F09335
:102860002B06E0932A0671C0D80140E050E0AE1775
:10287000BF0750F412962D913C911397AD0121158D
:10288000310509F1D901F3CF9D01DA0133832283A8
:1028900060817181860F971F8217930769F4EC019D
:1028A00028813981260F371F2E5F3F4F31832083C8
:1028B0008A819B8193838283452B29F4F0932D0693
:1028C000E0932C0642C01396FC93EE931297ED0111
:1028D000499159919E01240F351FE217F30771F4B6
:1028E00080819181840F951F029611969C938E93FF
:1028F0008281938113969C938E931297E0E0F0E08F
:10290000D80112968D919C911397009719F0F801B8
:102910008C01F6CF8D919C9198012E5F3F4F820FD5
:10292000931F20912A0630912B062817390769F446
:10293000309729F410922D0610922C0602C01382B3
:10294000128210932B0600932A06DF91CF911F91DC
:102950000F9108956F927F928F929F92AF92BF9244
:10296000CF92DF92EF92FF920F931F93CF93DF935B
:10297000EC01009789F4CB01DF91CF911F910F916A
:10298000FF90EF90DF90CF90BF90AF909F908F908F
:102990007F906F900C947D13FC01E60FF71F9C0154
:1029A00022503109E217F30708F4ACC0D9010D91A8
:1029B0001C91119706171707B0F00530110508F4A0
:1029C0009FC0C80104978617970708F499C0025062
:1029D0001109061B170B019311936D937C93CF0183
:1029E0000E9412148DC05B01A01AB10A4C01800E26
:1029F000911EA0912C06B0912D0640E050E0E12CF4
:102A0000F12C109709F44AC0A815B905D1F56D90BD
:102A10007C901197630182E0C80ED11CCA14DB04BC
:102A200080F1A3014A195B096A0182E0C80ED11C3A
:102A30001296BC9012971396AC91B5E0CB16D104C8
:102A400040F0B282A38351834083D9016D937C937C
:102A50000AC00E5F1F4FC301800F911FF9019183C0
:102A60008083EB2DFA2FE114F10431F0D701139696
:102A7000FC93EE93129744C0F0932D06E0932C063E
:102A80003FC08D919C9111974817590708F4AC01EC
:102A90007D0112960D90BC91A02DB3CF80912A0696
:102AA00090912B0688159905E1F446175707C8F44D
:102AB0008091010290910202009741F48DB79EB778
:102AC0004091050250910602841B950BE817F90707
:102AD000C8F4F0932B06E0932A06F9017183608312
:102AE0000FC0CB010E947D137C01009759F0A80113
:102AF000BE010E949815CE010E941214C70104C0A5
:102B0000CE0102C080E090E0DF91CF911F910F9144
:102B1000FF90EF90DF90CF90BF90AF909F908F90FD
:102B20007F906F90089581E090E0F8940C94A81540
:102B3000FB01DC0102C001900D9241505040D8F7DA
:102B40000895FB01DC0101900D920020E1F708954A
:102B500011E0C3E8D1E000E006C0802FFE010E9432
:102B600033132196011DC438D10780E00807A9F767
:042B7000F894FFCF07
:102B7400FF00002E062000000000003F020F02B6F6
:102B840008E9010702F801EA0100000000130653F6
:102B94000597055A06C805A605BA0500000000AB4E
:102BA400095305B608B508939E6B435354415254D8
:062BB40000454E44000044
:00000001FF
